{
  "_format": "hh-sol-artifact-1",
  "contractName": "ZGold",
  "sourceName": "contracts/ZGold.sol",
  "abi": [
    {
      "inputs": [],
      "stateMutability": "nonpayable",
      "type": "constructor"
    },
    {
      "anonymous": false,
      "inputs": [
        {
          "indexed": true,
          "internalType": "address",
          "name": "owner",
          "type": "address"
        },
        {
          "indexed": true,
          "internalType": "address",
          "name": "spender",
          "type": "address"
        },
        {
          "indexed": false,
          "internalType": "uint256",
          "name": "value",
          "type": "uint256"
        }
      ],
      "name": "Approval",
      "type": "event"
    },
    {
      "anonymous": false,
      "inputs": [
        {
          "indexed": true,
          "internalType": "address",
          "name": "previousOwner",
          "type": "address"
        },
        {
          "indexed": true,
          "internalType": "address",
          "name": "newOwner",
          "type": "address"
        }
      ],
      "name": "OwnershipTransferred",
      "type": "event"
    },
    {
      "anonymous": false,
      "inputs": [
        {
          "indexed": true,
          "internalType": "address",
          "name": "from",
          "type": "address"
        },
        {
          "indexed": true,
          "internalType": "address",
          "name": "to",
          "type": "address"
        },
        {
          "indexed": false,
          "internalType": "uint256",
          "name": "value",
          "type": "uint256"
        }
      ],
      "name": "Transfer",
      "type": "event"
    },
    {
      "inputs": [],
      "name": "ZGoldPerToken",
      "outputs": [
        {
          "internalType": "uint256",
          "name": "",
          "type": "uint256"
        }
      ],
      "stateMutability": "view",
      "type": "function"
    },
    {
      "inputs": [],
      "name": "ZLootContract",
      "outputs": [
        {
          "internalType": "contract IERC721Enumerable",
          "name": "",
          "type": "address"
        }
      ],
      "stateMutability": "view",
      "type": "function"
    },
    {
      "inputs": [],
      "name": "ZLootContractAddress",
      "outputs": [
        {
          "internalType": "address",
          "name": "",
          "type": "address"
        }
      ],
      "stateMutability": "view",
      "type": "function"
    },
    {
      "inputs": [
        {
          "internalType": "address",
          "name": "owner",
          "type": "address"
        },
        {
          "internalType": "address",
          "name": "spender",
          "type": "address"
        }
      ],
      "name": "allowance",
      "outputs": [
        {
          "internalType": "uint256",
          "name": "",
          "type": "uint256"
        }
      ],
      "stateMutability": "view",
      "type": "function"
    },
    {
      "inputs": [
        {
          "internalType": "address",
          "name": "spender",
          "type": "address"
        },
        {
          "internalType": "uint256",
          "name": "amount",
          "type": "uint256"
        }
      ],
      "name": "approve",
      "outputs": [
        {
          "internalType": "bool",
          "name": "",
          "type": "bool"
        }
      ],
      "stateMutability": "nonpayable",
      "type": "function"
    },
    {
      "inputs": [
        {
          "internalType": "address",
          "name": "account",
          "type": "address"
        }
      ],
      "name": "balanceOf",
      "outputs": [
        {
          "internalType": "uint256",
          "name": "",
          "type": "uint256"
        }
      ],
      "stateMutability": "view",
      "type": "function"
    },
    {
      "inputs": [
        {
          "internalType": "uint256",
          "name": "tokenId",
          "type": "uint256"
        },
        {
          "internalType": "address",
          "name": "tokenOwner",
          "type": "address"
        }
      ],
      "name": "claimGold",
      "outputs": [],
      "stateMutability": "nonpayable",
      "type": "function"
    },
    {
      "inputs": [],
      "name": "decimals",
      "outputs": [
        {
          "internalType": "uint8",
          "name": "",
          "type": "uint8"
        }
      ],
      "stateMutability": "view",
      "type": "function"
    },
    {
      "inputs": [
        {
          "internalType": "address",
          "name": "spender",
          "type": "address"
        },
        {
          "internalType": "uint256",
          "name": "subtractedValue",
          "type": "uint256"
        }
      ],
      "name": "decreaseAllowance",
      "outputs": [
        {
          "internalType": "bool",
          "name": "",
          "type": "bool"
        }
      ],
      "stateMutability": "nonpayable",
      "type": "function"
    },
    {
      "inputs": [
        {
          "internalType": "address",
          "name": "tokenOwner",
          "type": "address"
        }
      ],
      "name": "getZGLDBalance",
      "outputs": [
        {
          "internalType": "uint256",
          "name": "",
          "type": "uint256"
        }
      ],
      "stateMutability": "view",
      "type": "function"
    },
    {
      "inputs": [
        {
          "internalType": "address",
          "name": "spender",
          "type": "address"
        },
        {
          "internalType": "uint256",
          "name": "addedValue",
          "type": "uint256"
        }
      ],
      "name": "increaseAllowance",
      "outputs": [
        {
          "internalType": "bool",
          "name": "",
          "type": "bool"
        }
      ],
      "stateMutability": "nonpayable",
      "type": "function"
    },
    {
      "inputs": [],
      "name": "name",
      "outputs": [
        {
          "internalType": "string",
          "name": "",
          "type": "string"
        }
      ],
      "stateMutability": "view",
      "type": "function"
    },
    {
      "inputs": [],
      "name": "owner",
      "outputs": [
        {
          "internalType": "address",
          "name": "",
          "type": "address"
        }
      ],
      "stateMutability": "view",
      "type": "function"
    },
    {
      "inputs": [],
      "name": "renounceOwnership",
      "outputs": [],
      "stateMutability": "nonpayable",
      "type": "function"
    },
    {
      "inputs": [],
      "name": "symbol",
      "outputs": [
        {
          "internalType": "string",
          "name": "",
          "type": "string"
        }
      ],
      "stateMutability": "view",
      "type": "function"
    },
    {
      "inputs": [],
      "name": "totalSupply",
      "outputs": [
        {
          "internalType": "uint256",
          "name": "",
          "type": "uint256"
        }
      ],
      "stateMutability": "view",
      "type": "function"
    },
    {
      "inputs": [
        {
          "internalType": "address",
          "name": "recipient",
          "type": "address"
        },
        {
          "internalType": "uint256",
          "name": "amount",
          "type": "uint256"
        }
      ],
      "name": "transfer",
      "outputs": [
        {
          "internalType": "bool",
          "name": "",
          "type": "bool"
        }
      ],
      "stateMutability": "nonpayable",
      "type": "function"
    },
    {
      "inputs": [
        {
          "internalType": "address",
          "name": "sender",
          "type": "address"
        },
        {
          "internalType": "address",
          "name": "recipient",
          "type": "address"
        },
        {
          "internalType": "uint256",
          "name": "amount",
          "type": "uint256"
        }
      ],
      "name": "transferFrom",
      "outputs": [
        {
          "internalType": "bool",
          "name": "",
          "type": "bool"
        }
      ],
      "stateMutability": "nonpayable",
      "type": "function"
    },
    {
      "inputs": [
        {
          "internalType": "address",
          "name": "newOwner",
          "type": "address"
        }
      ],
      "name": "transferOwnership",
      "outputs": [],
      "stateMutability": "nonpayable",
      "type": "function"
    },
    {
      "inputs": [
        {
          "internalType": "address",
          "name": "",
          "type": "address"
        }
      ],
      "name": "zGoldBalance",
      "outputs": [
        {
          "internalType": "uint256",
          "name": "",
          "type": "uint256"
        }
      ],
      "stateMutability": "view",
      "type": "function"
    },
    {
      "inputs": [
        {
          "internalType": "address",
          "name": "",
          "type": "address"
        }
      ],
      "name": "zGoldClaimed",
      "outputs": [
        {
          "internalType": "bool",
          "name": "",
          "type": "bool"
        }
      ],
      "stateMutability": "view",
      "type": "function"
    },
    {
      "inputs": [
        {
          "internalType": "address",
          "name": "",
          "type": "address"
        }
      ],
      "name": "zLootBalance",
      "outputs": [
        {
          "internalType": "uint256",
          "name": "",
          "type": "uint256"
        }
      ],
      "stateMutability": "view",
      "type": "function"
    }
  ],
  "bytecode": "0x608060405273ff9c1b15b16263c61d017ee9f65c50e4ae0113d7600660006101000a81548173ffffffffffffffffffffffffffffffffffffffff021916908373ffffffffffffffffffffffffffffffffffffffff160217905550620000696200017260201b60201c565b600a620000779190620005d6565b6103e862000086919062000713565b6008553480156200009657600080fd5b506040518060400160405280600581526020017f5a476f6c640000000000000000000000000000000000000000000000000000008152506040518060400160405280600481526020017f5a474c440000000000000000000000000000000000000000000000000000000081525062000123620001176200017b60201b60201c565b6200018360201b60201c565b81600490805190602001906200013b929190620003cb565b50806005908051906020019062000154929190620003cb565b5050506200016c33620927c06200024760201b60201c565b6200082c565b60006012905090565b600033905090565b60008060009054906101000a900473ffffffffffffffffffffffffffffffffffffffff169050816000806101000a81548173ffffffffffffffffffffffffffffffffffffffff021916908373ffffffffffffffffffffffffffffffffffffffff1602179055508173ffffffffffffffffffffffffffffffffffffffff168173ffffffffffffffffffffffffffffffffffffffff167f8be0079c531659141344cd1fd0a4f28419497f9722a3daafe3b4186f6b6457e060405160405180910390a35050565b600073ffffffffffffffffffffffffffffffffffffffff168273ffffffffffffffffffffffffffffffffffffffff161415620002ba576040517f08c379a0000000000000000000000000000000000000000000000000000000008152600401620002b190620004ce565b60405180910390fd5b620002ce60008383620003c160201b60201c565b8060036000828254620002e291906200051e565b9250508190555080600160008473ffffffffffffffffffffffffffffffffffffffff1673ffffffffffffffffffffffffffffffffffffffff16815260200190815260200160002060008282546200033a91906200051e565b925050819055508173ffffffffffffffffffffffffffffffffffffffff16600073ffffffffffffffffffffffffffffffffffffffff167fddf252ad1be2c89b69c2b068fc378daa952ba7f163c4a11628f55a4df523b3ef83604051620003a19190620004f0565b60405180910390a3620003bd60008383620003c660201b60201c565b5050565b505050565b505050565b828054620003d9906200078b565b90600052602060002090601f016020900481019282620003fd576000855562000449565b82601f106200041857805160ff191683800117855562000449565b8280016001018555821562000449579182015b82811115620004485782518255916020019190600101906200042b565b5b5090506200045891906200045c565b5090565b5b80821115620004775760008160009055506001016200045d565b5090565b60006200048a601f836200050d565b91507f45524332303a206d696e7420746f20746865207a65726f2061646472657373006000830152602082019050919050565b620004c88162000774565b82525050565b60006020820190508181036000830152620004e9816200047b565b9050919050565b6000602082019050620005076000830184620004bd565b92915050565b600082825260208201905092915050565b60006200052b8262000774565b9150620005388362000774565b9250827fffffffffffffffffffffffffffffffffffffffffffffffffffffffffffffffff0382111562000570576200056f620007c1565b5b828201905092915050565b6000808291508390505b6001851115620005cd57808604811115620005a557620005a4620007c1565b5b6001851615620005b55780820291505b8081029050620005c5856200081f565b945062000585565b94509492505050565b6000620005e38262000774565b9150620005f0836200077e565b92506200061f7fffffffffffffffffffffffffffffffffffffffffffffffffffffffffffffffff848462000627565b905092915050565b6000826200063957600190506200070c565b816200064957600090506200070c565b81600181146200066257600281146200066d57620006a3565b60019150506200070c565b60ff841115620006825762000681620007c1565b5b8360020a9150848211156200069c576200069b620007c1565b5b506200070c565b5060208310610133831016604e8410600b8410161715620006dd5782820a905083811115620006d757620006d6620007c1565b5b6200070c565b620006ec84848460016200057b565b92509050818404811115620007065762000705620007c1565b5b81810290505b9392505050565b6000620007208262000774565b91506200072d8362000774565b9250817fffffffffffffffffffffffffffffffffffffffffffffffffffffffffffffffff0483118215151615620007695762000768620007c1565b5b828202905092915050565b6000819050919050565b600060ff82169050919050565b60006002820490506001821680620007a457607f821691505b60208210811415620007bb57620007ba620007f0565b5b50919050565b7f4e487b7100000000000000000000000000000000000000000000000000000000600052601160045260246000fd5b7f4e487b7100000000000000000000000000000000000000000000000000000000600052602260045260246000fd5b60008160011c9050919050565b611edd806200083c6000396000f3fe608060405234801561001057600080fd5b50600436106101425760003560e01c8063715018a6116100b8578063a457c2d71161007c578063a457c2d71461038f578063a9059cbb146103bf578063c8d3a7b5146103ef578063dd62ed3e1461040d578063e78a41c81461043d578063f2fde38b1461046d57610142565b8063715018a6146102fd578063817d3cc01461030757806381a94ecf146103235780638da5cb5b1461035357806395d89b411461037157610142565b8063278579081161010a5780632785790814610201578063313ce5671461023157806332f781bc1461024f578063395093511461027f5780634c50dd18146102af57806370a08231146102cd57610142565b806306fdde0314610147578063095ea7b314610165578063126220e51461019557806318160ddd146101b357806323b872dd146101d1575b600080fd5b61014f610489565b60405161015c9190611ae2565b60405180910390f35b61017f600480360381019061017a9190611565565b61051b565b60405161018c9190611aac565b60405180910390f35b61019d610539565b6040516101aa9190611ac7565b60405180910390f35b6101bb61055f565b6040516101c89190611c84565b60405180910390f35b6101eb60048036038101906101e69190611516565b610569565b6040516101f89190611aac565b60405180910390f35b61021b60048036038101906102169190611488565b610661565b6040516102289190611c84565b60405180910390f35b610239610679565b6040516102469190611c9f565b60405180910390f35b61026960048036038101906102649190611488565b610682565b6040516102769190611c84565b60405180910390f35b61029960048036038101906102949190611565565b61069a565b6040516102a69190611aac565b60405180910390f35b6102b7610746565b6040516102c49190611a91565b60405180910390f35b6102e760048036038101906102e29190611488565b61076c565b6040516102f49190611c84565b60405180910390f35b6103056107b5565b005b610321600480360381019061031c91906115a1565b61083d565b005b61033d60048036038101906103389190611488565b6109b1565b60405161034a9190611c84565b60405180910390f35b61035b6109fa565b6040516103689190611a91565b60405180910390f35b610379610a23565b6040516103869190611ae2565b60405180910390f35b6103a960048036038101906103a49190611565565b610ab5565b6040516103b69190611aac565b60405180910390f35b6103d960048036038101906103d49190611565565b610ba0565b6040516103e69190611aac565b60405180910390f35b6103f7610bbe565b6040516104049190611c84565b60405180910390f35b610427600480360381019061042291906114da565b610bc4565b6040516104349190611c84565b60405180910390f35b61045760048036038101906104529190611488565b610c4b565b6040516104649190611aac565b60405180910390f35b61048760048036038101906104829190611488565b610c6b565b005b60606004805461049890611dd8565b80601f01602080910402602001604051908101604052809291908181526020018280546104c490611dd8565b80156105115780601f106104e657610100808354040283529160200191610511565b820191906000526020600020905b8154815290600101906020018083116104f457829003601f168201915b5050505050905090565b600061052f610528610d63565b8484610d6b565b6001905092915050565b600760009054906101000a900473ffffffffffffffffffffffffffffffffffffffff1681565b6000600354905090565b6000610576848484610f36565b6000600260008673ffffffffffffffffffffffffffffffffffffffff1673ffffffffffffffffffffffffffffffffffffffff16815260200190815260200160002060006105c1610d63565b73ffffffffffffffffffffffffffffffffffffffff1673ffffffffffffffffffffffffffffffffffffffff16815260200190815260200160002054905082811015610641576040517f08c379a000000000000000000000000000000000000000000000000000000000815260040161063890611b84565b60405180910390fd5b6106558561064d610d63565b858403610d6b565b60019150509392505050565b600a6020528060005260406000206000915090505481565b60006012905090565b60096020528060005260406000206000915090505481565b600061073c6106a7610d63565b8484600260006106b5610d63565b73ffffffffffffffffffffffffffffffffffffffff1673ffffffffffffffffffffffffffffffffffffffff16815260200190815260200160002060008873ffffffffffffffffffffffffffffffffffffffff1673ffffffffffffffffffffffffffffffffffffffff168152602001908152602001600020546107379190611cd6565b610d6b565b6001905092915050565b600660009054906101000a900473ffffffffffffffffffffffffffffffffffffffff1681565b6000600160008373ffffffffffffffffffffffffffffffffffffffff1673ffffffffffffffffffffffffffffffffffffffff168152602001908152602001600020549050919050565b6107bd610d63565b73ffffffffffffffffffffffffffffffffffffffff166107db6109fa565b73ffffffffffffffffffffffffffffffffffffffff1614610831576040517f08c379a000000000000000000000000000000000000000000000000000000000815260040161082890611ba4565b60405180910390fd5b61083b60006111ba565b565b600760009054906101000a900473ffffffffffffffffffffffffffffffffffffffff1673ffffffffffffffffffffffffffffffffffffffff16636352211e836040518263ffffffff1660e01b81526004016108989190611c84565b60206040518083038186803b1580156108b057600080fd5b505afa1580156108c4573d6000803e3d6000fd5b505050506040513d601f19601f820116820180604052508101906108e891906114b1565b73ffffffffffffffffffffffffffffffffffffffff16610906610d63565b73ffffffffffffffffffffffffffffffffffffffff161461095c576040517f08c379a000000000000000000000000000000000000000000000000000000000815260040161095390611c04565b60405180910390fd5b6102588210156109a1576040517f08c379a000000000000000000000000000000000000000000000000000000000815260040161099890611bc4565b60405180910390fd5b6109ad8160085461127e565b5050565b6000600960008373ffffffffffffffffffffffffffffffffffffffff1673ffffffffffffffffffffffffffffffffffffffff168152602001908152602001600020549050919050565b60008060009054906101000a900473ffffffffffffffffffffffffffffffffffffffff16905090565b606060058054610a3290611dd8565b80601f0160208091040260200160405190810160405280929190818152602001828054610a5e90611dd8565b8015610aab5780601f10610a8057610100808354040283529160200191610aab565b820191906000526020600020905b815481529060010190602001808311610a8e57829003601f168201915b5050505050905090565b60008060026000610ac4610d63565b73ffffffffffffffffffffffffffffffffffffffff1673ffffffffffffffffffffffffffffffffffffffff16815260200190815260200160002060008573ffffffffffffffffffffffffffffffffffffffff1673ffffffffffffffffffffffffffffffffffffffff16815260200190815260200160002054905082811015610b81576040517f08c379a0000000000000000000000000000000000000000000000000000000008152600401610b7890611c44565b60405180910390fd5b610b95610b8c610d63565b85858403610d6b565b600191505092915050565b6000610bb4610bad610d63565b8484610f36565b6001905092915050565b60085481565b6000600260008473ffffffffffffffffffffffffffffffffffffffff1673ffffffffffffffffffffffffffffffffffffffff16815260200190815260200160002060008373ffffffffffffffffffffffffffffffffffffffff1673ffffffffffffffffffffffffffffffffffffffff16815260200190815260200160002054905092915050565b600b6020528060005260406000206000915054906101000a900460ff1681565b610c73610d63565b73ffffffffffffffffffffffffffffffffffffffff16610c916109fa565b73ffffffffffffffffffffffffffffffffffffffff1614610ce7576040517f08c379a0000000000000000000000000000000000000000000000000000000008152600401610cde90611ba4565b60405180910390fd5b600073ffffffffffffffffffffffffffffffffffffffff168173ffffffffffffffffffffffffffffffffffffffff161415610d57576040517f08c379a0000000000000000000000000000000000000000000000000000000008152600401610d4e90611b24565b60405180910390fd5b610d60816111ba565b50565b600033905090565b600073ffffffffffffffffffffffffffffffffffffffff168373ffffffffffffffffffffffffffffffffffffffff161415610ddb576040517f08c379a0000000000000000000000000000000000000000000000000000000008152600401610dd290611c24565b60405180910390fd5b600073ffffffffffffffffffffffffffffffffffffffff168273ffffffffffffffffffffffffffffffffffffffff161415610e4b576040517f08c379a0000000000000000000000000000000000000000000000000000000008152600401610e4290611b44565b60405180910390fd5b80600260008573ffffffffffffffffffffffffffffffffffffffff1673ffffffffffffffffffffffffffffffffffffffff16815260200190815260200160002060008473ffffffffffffffffffffffffffffffffffffffff1673ffffffffffffffffffffffffffffffffffffffff168152602001908152602001600020819055508173ffffffffffffffffffffffffffffffffffffffff168373ffffffffffffffffffffffffffffffffffffffff167f8c5be1e5ebec7d5bd14f71427d1e84f3dd0314c0f7b2291e5b200ac8c7c3b92583604051610f299190611c84565b60405180910390a3505050565b600073ffffffffffffffffffffffffffffffffffffffff168373ffffffffffffffffffffffffffffffffffffffff161415610fa6576040517f08c379a0000000000000000000000000000000000000000000000000000000008152600401610f9d90611be4565b60405180910390fd5b600073ffffffffffffffffffffffffffffffffffffffff168273ffffffffffffffffffffffffffffffffffffffff161415611016576040517f08c379a000000000000000000000000000000000000000000000000000000000815260040161100d90611b04565b60405180910390fd5b6110218383836112de565b6000600160008573ffffffffffffffffffffffffffffffffffffffff1673ffffffffffffffffffffffffffffffffffffffff168152602001908152602001600020549050818110156110a8576040517f08c379a000000000000000000000000000000000000000000000000000000000815260040161109f90611b64565b60405180910390fd5b818103600160008673ffffffffffffffffffffffffffffffffffffffff1673ffffffffffffffffffffffffffffffffffffffff1681526020019081526020016000208190555081600160008573ffffffffffffffffffffffffffffffffffffffff1673ffffffffffffffffffffffffffffffffffffffff168152602001908152602001600020600082825461113d9190611cd6565b925050819055508273ffffffffffffffffffffffffffffffffffffffff168473ffffffffffffffffffffffffffffffffffffffff167fddf252ad1be2c89b69c2b068fc378daa952ba7f163c4a11628f55a4df523b3ef846040516111a19190611c84565b60405180910390a36111b48484846112e3565b50505050565b60008060009054906101000a900473ffffffffffffffffffffffffffffffffffffffff169050816000806101000a81548173ffffffffffffffffffffffffffffffffffffffff021916908373ffffffffffffffffffffffffffffffffffffffff1602179055508173ffffffffffffffffffffffffffffffffffffffff168173ffffffffffffffffffffffffffffffffffffffff167f8be0079c531659141344cd1fd0a4f28419497f9722a3daafe3b4186f6b6457e060405160405180910390a35050565b61128a826008546112e8565b60011515600b60008473ffffffffffffffffffffffffffffffffffffffff1673ffffffffffffffffffffffffffffffffffffffff16815260200190815260200160002060009054906101000a905050505050565b505050565b505050565b600073ffffffffffffffffffffffffffffffffffffffff168273ffffffffffffffffffffffffffffffffffffffff161415611358576040517f08c379a000000000000000000000000000000000000000000000000000000000815260040161134f90611c64565b60405180910390fd5b611364600083836112de565b80600360008282546113769190611cd6565b9250508190555080600160008473ffffffffffffffffffffffffffffffffffffffff1673ffffffffffffffffffffffffffffffffffffffff16815260200190815260200160002060008282546113cc9190611cd6565b925050819055508173ffffffffffffffffffffffffffffffffffffffff16600073ffffffffffffffffffffffffffffffffffffffff167fddf252ad1be2c89b69c2b068fc378daa952ba7f163c4a11628f55a4df523b3ef836040516114319190611c84565b60405180910390a3611445600083836112e3565b5050565b60008135905061145881611e79565b92915050565b60008151905061146d81611e79565b92915050565b60008135905061148281611e90565b92915050565b60006020828403121561149a57600080fd5b60006114a884828501611449565b91505092915050565b6000602082840312156114c357600080fd5b60006114d18482850161145e565b91505092915050565b600080604083850312156114ed57600080fd5b60006114fb85828601611449565b925050602061150c85828601611449565b9150509250929050565b60008060006060848603121561152b57600080fd5b600061153986828701611449565b935050602061154a86828701611449565b925050604061155b86828701611473565b9150509250925092565b6000806040838503121561157857600080fd5b600061158685828601611449565b925050602061159785828601611473565b9150509250929050565b600080604083850312156115b457600080fd5b60006115c285828601611473565b92505060206115d385828601611449565b9150509250929050565b6115e681611d2c565b82525050565b6115f581611d3e565b82525050565b61160481611d81565b82525050565b600061161582611cba565b61161f8185611cc5565b935061162f818560208601611da5565b61163881611e68565b840191505092915050565b6000611650602383611cc5565b91507f45524332303a207472616e7366657220746f20746865207a65726f206164647260008301527f65737300000000000000000000000000000000000000000000000000000000006020830152604082019050919050565b60006116b6602683611cc5565b91507f4f776e61626c653a206e6577206f776e657220697320746865207a65726f206160008301527f64647265737300000000000000000000000000000000000000000000000000006020830152604082019050919050565b600061171c602283611cc5565b91507f45524332303a20617070726f766520746f20746865207a65726f20616464726560008301527f73730000000000000000000000000000000000000000000000000000000000006020830152604082019050919050565b6000611782602683611cc5565b91507f45524332303a207472616e7366657220616d6f756e742065786365656473206260008301527f616c616e636500000000000000000000000000000000000000000000000000006020830152604082019050919050565b60006117e8602883611cc5565b91507f45524332303a207472616e7366657220616d6f756e742065786365656473206160008301527f6c6c6f77616e63650000000000000000000000000000000000000000000000006020830152604082019050919050565b600061184e602083611cc5565b91507f4f776e61626c653a2063616c6c6572206973206e6f7420746865206f776e65726000830152602082019050919050565b600061188e601083611cc5565b91507f496e76616c696420746f6b656e204944000000000000000000000000000000006000830152602082019050919050565b60006118ce602583611cc5565b91507f45524332303a207472616e736665722066726f6d20746865207a65726f20616460008301527f64726573730000000000000000000000000000000000000000000000000000006020830152604082019050919050565b6000611934600e83611cc5565b91507f6d757374206f776e20746f6b656e0000000000000000000000000000000000006000830152602082019050919050565b6000611974602483611cc5565b91507f45524332303a20617070726f76652066726f6d20746865207a65726f2061646460008301527f72657373000000000000000000000000000000000000000000000000000000006020830152604082019050919050565b60006119da602583611cc5565b91507f45524332303a2064656372656173656420616c6c6f77616e63652062656c6f7760008301527f207a65726f0000000000000000000000000000000000000000000000000000006020830152604082019050919050565b6000611a40601f83611cc5565b91507f45524332303a206d696e7420746f20746865207a65726f2061646472657373006000830152602082019050919050565b611a7c81611d6a565b82525050565b611a8b81611d74565b82525050565b6000602082019050611aa660008301846115dd565b92915050565b6000602082019050611ac160008301846115ec565b92915050565b6000602082019050611adc60008301846115fb565b92915050565b60006020820190508181036000830152611afc818461160a565b905092915050565b60006020820190508181036000830152611b1d81611643565b9050919050565b60006020820190508181036000830152611b3d816116a9565b9050919050565b60006020820190508181036000830152611b5d8161170f565b9050919050565b60006020820190508181036000830152611b7d81611775565b9050919050565b60006020820190508181036000830152611b9d816117db565b9050919050565b60006020820190508181036000830152611bbd81611841565b9050919050565b60006020820190508181036000830152611bdd81611881565b9050919050565b60006020820190508181036000830152611bfd816118c1565b9050919050565b60006020820190508181036000830152611c1d81611927565b9050919050565b60006020820190508181036000830152611c3d81611967565b9050919050565b60006020820190508181036000830152611c5d816119cd565b9050919050565b60006020820190508181036000830152611c7d81611a33565b9050919050565b6000602082019050611c996000830184611a73565b92915050565b6000602082019050611cb46000830184611a82565b92915050565b600081519050919050565b600082825260208201905092915050565b6000611ce182611d6a565b9150611cec83611d6a565b9250827fffffffffffffffffffffffffffffffffffffffffffffffffffffffffffffffff03821115611d2157611d20611e0a565b5b828201905092915050565b6000611d3782611d4a565b9050919050565b60008115159050919050565b600073ffffffffffffffffffffffffffffffffffffffff82169050919050565b6000819050919050565b600060ff82169050919050565b6000611d8c82611d93565b9050919050565b6000611d9e82611d4a565b9050919050565b60005b83811015611dc3578082015181840152602081019050611da8565b83811115611dd2576000848401525b50505050565b60006002820490506001821680611df057607f821691505b60208210811415611e0457611e03611e39565b5b50919050565b7f4e487b7100000000000000000000000000000000000000000000000000000000600052601160045260246000fd5b7f4e487b7100000000000000000000000000000000000000000000000000000000600052602260045260246000fd5b6000601f19601f8301169050919050565b611e8281611d2c565b8114611e8d57600080fd5b50565b611e9981611d6a565b8114611ea457600080fd5b5056fea2646970667358221220d2c9d0c0f3d3b9e3960e7314760eda93e3274a50ba5aa163c7078dd7fbd35fa864736f6c63430008000033",
  "linkReferences": {},
  "deployedLinkReferences": {}
}