{
  "_format": "hh-sol-artifact-1",
  "contractName": "ZGold",
  "sourceName": "contracts/ZGold.sol",
  "abi": [
    {
      "inputs": [],
      "stateMutability": "nonpayable",
      "type": "constructor"
    },
    {
      "anonymous": false,
      "inputs": [
        {
          "indexed": true,
          "internalType": "address",
          "name": "owner",
          "type": "address"
        },
        {
          "indexed": true,
          "internalType": "address",
          "name": "spender",
          "type": "address"
        },
        {
          "indexed": false,
          "internalType": "uint256",
          "name": "value",
          "type": "uint256"
        }
      ],
      "name": "Approval",
      "type": "event"
    },
    {
      "anonymous": false,
      "inputs": [
        {
          "indexed": true,
          "internalType": "address",
          "name": "previousOwner",
          "type": "address"
        },
        {
          "indexed": true,
          "internalType": "address",
          "name": "newOwner",
          "type": "address"
        }
      ],
      "name": "OwnershipTransferred",
      "type": "event"
    },
    {
      "anonymous": false,
      "inputs": [
        {
          "indexed": true,
          "internalType": "address",
          "name": "from",
          "type": "address"
        },
        {
          "indexed": true,
          "internalType": "address",
          "name": "to",
          "type": "address"
        },
        {
          "indexed": false,
          "internalType": "uint256",
          "name": "value",
          "type": "uint256"
        }
      ],
      "name": "Transfer",
      "type": "event"
    },
    {
      "inputs": [],
      "name": "ZGoldPerToken",
      "outputs": [
        {
          "internalType": "uint256",
          "name": "",
          "type": "uint256"
        }
      ],
      "stateMutability": "view",
      "type": "function"
    },
    {
      "inputs": [],
      "name": "ZLootContract",
      "outputs": [
        {
          "internalType": "contract IZLoot",
          "name": "",
          "type": "address"
        }
      ],
      "stateMutability": "view",
      "type": "function"
    },
    {
      "inputs": [],
      "name": "ZLootContractAddress",
      "outputs": [
        {
          "internalType": "address",
          "name": "",
          "type": "address"
        }
      ],
      "stateMutability": "view",
      "type": "function"
    },
    {
      "inputs": [
        {
          "internalType": "address",
          "name": "owner",
          "type": "address"
        },
        {
          "internalType": "address",
          "name": "spender",
          "type": "address"
        }
      ],
      "name": "allowance",
      "outputs": [
        {
          "internalType": "uint256",
          "name": "",
          "type": "uint256"
        }
      ],
      "stateMutability": "view",
      "type": "function"
    },
    {
      "inputs": [
        {
          "internalType": "address",
          "name": "spender",
          "type": "address"
        },
        {
          "internalType": "uint256",
          "name": "amount",
          "type": "uint256"
        }
      ],
      "name": "approve",
      "outputs": [
        {
          "internalType": "bool",
          "name": "",
          "type": "bool"
        }
      ],
      "stateMutability": "nonpayable",
      "type": "function"
    },
    {
      "inputs": [
        {
          "internalType": "address",
          "name": "account",
          "type": "address"
        }
      ],
      "name": "balanceOf",
      "outputs": [
        {
          "internalType": "uint256",
          "name": "",
          "type": "uint256"
        }
      ],
      "stateMutability": "view",
      "type": "function"
    },
    {
      "inputs": [
        {
          "internalType": "uint256",
          "name": "tokenId",
          "type": "uint256"
        },
        {
          "internalType": "address",
          "name": "tokenOwner",
          "type": "address"
        }
      ],
      "name": "claimGold",
      "outputs": [],
      "stateMutability": "nonpayable",
      "type": "function"
    },
    {
      "inputs": [],
      "name": "decimals",
      "outputs": [
        {
          "internalType": "uint8",
          "name": "",
          "type": "uint8"
        }
      ],
      "stateMutability": "view",
      "type": "function"
    },
    {
      "inputs": [
        {
          "internalType": "address",
          "name": "spender",
          "type": "address"
        },
        {
          "internalType": "uint256",
          "name": "subtractedValue",
          "type": "uint256"
        }
      ],
      "name": "decreaseAllowance",
      "outputs": [
        {
          "internalType": "bool",
          "name": "",
          "type": "bool"
        }
      ],
      "stateMutability": "nonpayable",
      "type": "function"
    },
    {
      "inputs": [
        {
          "internalType": "address",
          "name": "tokenOwner",
          "type": "address"
        }
      ],
      "name": "getZGLDBalance",
      "outputs": [
        {
          "internalType": "uint256",
          "name": "",
          "type": "uint256"
        }
      ],
      "stateMutability": "view",
      "type": "function"
    },
    {
      "inputs": [
        {
          "internalType": "address",
          "name": "spender",
          "type": "address"
        },
        {
          "internalType": "uint256",
          "name": "addedValue",
          "type": "uint256"
        }
      ],
      "name": "increaseAllowance",
      "outputs": [
        {
          "internalType": "bool",
          "name": "",
          "type": "bool"
        }
      ],
      "stateMutability": "nonpayable",
      "type": "function"
    },
    {
      "inputs": [
        {
          "internalType": "address",
          "name": "tokenOwner",
          "type": "address"
        }
      ],
      "name": "isZGLDClaimed",
      "outputs": [
        {
          "internalType": "bool",
          "name": "",
          "type": "bool"
        }
      ],
      "stateMutability": "view",
      "type": "function"
    },
    {
      "inputs": [],
      "name": "name",
      "outputs": [
        {
          "internalType": "string",
          "name": "",
          "type": "string"
        }
      ],
      "stateMutability": "view",
      "type": "function"
    },
    {
      "inputs": [],
      "name": "owner",
      "outputs": [
        {
          "internalType": "address",
          "name": "",
          "type": "address"
        }
      ],
      "stateMutability": "view",
      "type": "function"
    },
    {
      "inputs": [],
      "name": "renounceOwnership",
      "outputs": [],
      "stateMutability": "nonpayable",
      "type": "function"
    },
    {
      "inputs": [],
      "name": "symbol",
      "outputs": [
        {
          "internalType": "string",
          "name": "",
          "type": "string"
        }
      ],
      "stateMutability": "view",
      "type": "function"
    },
    {
      "inputs": [],
      "name": "totalSupply",
      "outputs": [
        {
          "internalType": "uint256",
          "name": "",
          "type": "uint256"
        }
      ],
      "stateMutability": "view",
      "type": "function"
    },
    {
      "inputs": [
        {
          "internalType": "address",
          "name": "recipient",
          "type": "address"
        },
        {
          "internalType": "uint256",
          "name": "amount",
          "type": "uint256"
        }
      ],
      "name": "transfer",
      "outputs": [
        {
          "internalType": "bool",
          "name": "",
          "type": "bool"
        }
      ],
      "stateMutability": "nonpayable",
      "type": "function"
    },
    {
      "inputs": [
        {
          "internalType": "address",
          "name": "sender",
          "type": "address"
        },
        {
          "internalType": "address",
          "name": "recipient",
          "type": "address"
        },
        {
          "internalType": "uint256",
          "name": "amount",
          "type": "uint256"
        }
      ],
      "name": "transferFrom",
      "outputs": [
        {
          "internalType": "bool",
          "name": "",
          "type": "bool"
        }
      ],
      "stateMutability": "nonpayable",
      "type": "function"
    },
    {
      "inputs": [
        {
          "internalType": "address",
          "name": "newOwner",
          "type": "address"
        }
      ],
      "name": "transferOwnership",
      "outputs": [],
      "stateMutability": "nonpayable",
      "type": "function"
    },
    {
      "inputs": [
        {
          "internalType": "address",
          "name": "",
          "type": "address"
        }
      ],
      "name": "zGoldBalance",
      "outputs": [
        {
          "internalType": "uint256",
          "name": "",
          "type": "uint256"
        }
      ],
      "stateMutability": "view",
      "type": "function"
    },
    {
      "inputs": [
        {
          "internalType": "address",
          "name": "",
          "type": "address"
        }
      ],
      "name": "zGoldClaimed",
      "outputs": [
        {
          "internalType": "bool",
          "name": "",
          "type": "bool"
        }
      ],
      "stateMutability": "view",
      "type": "function"
    }
  ],
  "bytecode": "0x608060405273ba6ad4a2794b82876984fddfa9cae6a66249ffc8600660006101000a81548173ffffffffffffffffffffffffffffffffffffffff021916908373ffffffffffffffffffffffffffffffffffffffff16021790555062000069620001c060201b60201c565b600a620000779190620003a0565b6103e8620000869190620004dd565b6008553480156200009657600080fd5b506040518060400160405280600581526020017f5a476f6c640000000000000000000000000000000000000000000000000000008152506040518060400160405280600481526020017f5a474c44000000000000000000000000000000000000000000000000000000008152506200012362000117620001c960201b60201c565b620001d160201b60201c565b81600490805190602001906200013b92919062000295565b5080600590805190602001906200015492919062000295565b505050600660009054906101000a900473ffffffffffffffffffffffffffffffffffffffff16600760006101000a81548173ffffffffffffffffffffffffffffffffffffffff021916908373ffffffffffffffffffffffffffffffffffffffff160217905550620005f6565b60006012905090565b600033905090565b60008060009054906101000a900473ffffffffffffffffffffffffffffffffffffffff169050816000806101000a81548173ffffffffffffffffffffffffffffffffffffffff021916908373ffffffffffffffffffffffffffffffffffffffff1602179055508173ffffffffffffffffffffffffffffffffffffffff168173ffffffffffffffffffffffffffffffffffffffff167f8be0079c531659141344cd1fd0a4f28419497f9722a3daafe3b4186f6b6457e060405160405180910390a35050565b828054620002a39062000555565b90600052602060002090601f016020900481019282620002c7576000855562000313565b82601f10620002e257805160ff191683800117855562000313565b8280016001018555821562000313579182015b8281111562000312578251825591602001919060010190620002f5565b5b50905062000322919062000326565b5090565b5b808211156200034157600081600090555060010162000327565b5090565b6000808291508390505b600185111562000397578086048111156200036f576200036e6200058b565b5b60018516156200037f5780820291505b80810290506200038f85620005e9565b94506200034f565b94509492505050565b6000620003ad826200053e565b9150620003ba8362000548565b9250620003e97fffffffffffffffffffffffffffffffffffffffffffffffffffffffffffffffff8484620003f1565b905092915050565b600082620004035760019050620004d6565b81620004135760009050620004d6565b81600181146200042c576002811462000437576200046d565b6001915050620004d6565b60ff8411156200044c576200044b6200058b565b5b8360020a9150848211156200046657620004656200058b565b5b50620004d6565b5060208310610133831016604e8410600b8410161715620004a75782820a905083811115620004a157620004a06200058b565b5b620004d6565b620004b6848484600162000345565b92509050818404811115620004d057620004cf6200058b565b5b81810290505b9392505050565b6000620004ea826200053e565b9150620004f7836200053e565b9250817fffffffffffffffffffffffffffffffffffffffffffffffffffffffffffffffff04831182151516156200053357620005326200058b565b5b828202905092915050565b6000819050919050565b600060ff82169050919050565b600060028204905060018216806200056e57607f821691505b60208210811415620005855762000584620005ba565b5b50919050565b7f4e487b7100000000000000000000000000000000000000000000000000000000600052601160045260246000fd5b7f4e487b7100000000000000000000000000000000000000000000000000000000600052602260045260246000fd5b60008160011c9050919050565b611e5180620006066000396000f3fe608060405234801561001057600080fd5b50600436106101425760003560e01c8063817d3cc0116100b8578063a9059cbb1161007c578063a9059cbb1461038f578063c8d3a7b5146103bf578063dd62ed3e146103dd578063e5bdb11c1461040d578063e78a41c81461043d578063f2fde38b1461046d57610142565b8063817d3cc0146102d757806381a94ecf146102f35780638da5cb5b1461032357806395d89b4114610341578063a457c2d71461035f57610142565b8063313ce5671161010a578063313ce5671461020157806332f781bc1461021f578063395093511461024f5780634c50dd181461027f57806370a082311461029d578063715018a6146102cd57610142565b806306fdde0314610147578063095ea7b314610165578063126220e51461019557806318160ddd146101b357806323b872dd146101d1575b600080fd5b61014f610489565b60405161015c9190611a56565b60405180910390f35b61017f600480360381019061017a91906114d9565b61051b565b60405161018c9190611a20565b60405180910390f35b61019d610539565b6040516101aa9190611a3b565b60405180910390f35b6101bb61055f565b6040516101c89190611bf8565b60405180910390f35b6101eb60048036038101906101e6919061148a565b610569565b6040516101f89190611a20565b60405180910390f35b610209610661565b6040516102169190611c13565b60405180910390f35b61023960048036038101906102349190611425565b61066a565b6040516102469190611bf8565b60405180910390f35b610269600480360381019061026491906114d9565b610682565b6040516102769190611a20565b60405180910390f35b61028761072e565b6040516102949190611a05565b60405180910390f35b6102b760048036038101906102b29190611425565b610754565b6040516102c49190611bf8565b60405180910390f35b6102d561079d565b005b6102f160048036038101906102ec9190611515565b610825565b005b61030d60048036038101906103089190611425565b61090d565b60405161031a9190611bf8565b60405180910390f35b61032b610956565b6040516103389190611a05565b60405180910390f35b61034961097f565b6040516103569190611a56565b60405180910390f35b610379600480360381019061037491906114d9565b610a11565b6040516103869190611a20565b60405180910390f35b6103a960048036038101906103a491906114d9565b610afc565b6040516103b69190611a20565b60405180910390f35b6103c7610b1a565b6040516103d49190611bf8565b60405180910390f35b6103f760048036038101906103f2919061144e565b610b20565b6040516104049190611bf8565b60405180910390f35b61042760048036038101906104229190611425565b610ba7565b6040516104349190611a20565b60405180910390f35b61045760048036038101906104529190611425565b610bfd565b6040516104649190611a20565b60405180910390f35b61048760048036038101906104829190611425565b610c1d565b005b60606004805461049890611d4c565b80601f01602080910402602001604051908101604052809291908181526020018280546104c490611d4c565b80156105115780601f106104e657610100808354040283529160200191610511565b820191906000526020600020905b8154815290600101906020018083116104f457829003601f168201915b5050505050905090565b600061052f610528610d15565b8484610d1d565b6001905092915050565b600760009054906101000a900473ffffffffffffffffffffffffffffffffffffffff1681565b6000600354905090565b6000610576848484610ee8565b6000600260008673ffffffffffffffffffffffffffffffffffffffff1673ffffffffffffffffffffffffffffffffffffffff16815260200190815260200160002060006105c1610d15565b73ffffffffffffffffffffffffffffffffffffffff1673ffffffffffffffffffffffffffffffffffffffff16815260200190815260200160002054905082811015610641576040517f08c379a000000000000000000000000000000000000000000000000000000000815260040161063890611af8565b60405180910390fd5b6106558561064d610d15565b858403610d1d565b60019150509392505050565b60006012905090565b60096020528060005260406000206000915090505481565b600061072461068f610d15565b84846002600061069d610d15565b73ffffffffffffffffffffffffffffffffffffffff1673ffffffffffffffffffffffffffffffffffffffff16815260200190815260200160002060008873ffffffffffffffffffffffffffffffffffffffff1673ffffffffffffffffffffffffffffffffffffffff1681526020019081526020016000205461071f9190611c4a565b610d1d565b6001905092915050565b600660009054906101000a900473ffffffffffffffffffffffffffffffffffffffff1681565b6000600160008373ffffffffffffffffffffffffffffffffffffffff1673ffffffffffffffffffffffffffffffffffffffff168152602001908152602001600020549050919050565b6107a5610d15565b73ffffffffffffffffffffffffffffffffffffffff166107c3610956565b73ffffffffffffffffffffffffffffffffffffffff1614610819576040517f08c379a000000000000000000000000000000000000000000000000000000000815260040161081090611b18565b60405180910390fd5b610823600061116c565b565b61025882101561086a576040517f08c379a000000000000000000000000000000000000000000000000000000000815260040161086190611b58565b60405180910390fd5b60001515600a60008373ffffffffffffffffffffffffffffffffffffffff1673ffffffffffffffffffffffffffffffffffffffff16815260200190815260200160002060009054906101000a900460ff161515146108fd576040517f08c379a00000000000000000000000000000000000000000000000000000000081526004016108f490611b38565b60405180910390fd5b61090981600854611230565b5050565b6000600960008373ffffffffffffffffffffffffffffffffffffffff1673ffffffffffffffffffffffffffffffffffffffff168152602001908152602001600020549050919050565b60008060009054906101000a900473ffffffffffffffffffffffffffffffffffffffff16905090565b60606005805461098e90611d4c565b80601f01602080910402602001604051908101604052809291908181526020018280546109ba90611d4c565b8015610a075780601f106109dc57610100808354040283529160200191610a07565b820191906000526020600020905b8154815290600101906020018083116109ea57829003601f168201915b5050505050905090565b60008060026000610a20610d15565b73ffffffffffffffffffffffffffffffffffffffff1673ffffffffffffffffffffffffffffffffffffffff16815260200190815260200160002060008573ffffffffffffffffffffffffffffffffffffffff1673ffffffffffffffffffffffffffffffffffffffff16815260200190815260200160002054905082811015610add576040517f08c379a0000000000000000000000000000000000000000000000000000000008152600401610ad490611bb8565b60405180910390fd5b610af1610ae8610d15565b85858403610d1d565b600191505092915050565b6000610b10610b09610d15565b8484610ee8565b6001905092915050565b60085481565b6000600260008473ffffffffffffffffffffffffffffffffffffffff1673ffffffffffffffffffffffffffffffffffffffff16815260200190815260200160002060008373ffffffffffffffffffffffffffffffffffffffff1673ffffffffffffffffffffffffffffffffffffffff16815260200190815260200160002054905092915050565b6000600a60008373ffffffffffffffffffffffffffffffffffffffff1673ffffffffffffffffffffffffffffffffffffffff16815260200190815260200160002060009054906101000a900460ff169050919050565b600a6020528060005260406000206000915054906101000a900460ff1681565b610c25610d15565b73ffffffffffffffffffffffffffffffffffffffff16610c43610956565b73ffffffffffffffffffffffffffffffffffffffff1614610c99576040517f08c379a0000000000000000000000000000000000000000000000000000000008152600401610c9090611b18565b60405180910390fd5b600073ffffffffffffffffffffffffffffffffffffffff168173ffffffffffffffffffffffffffffffffffffffff161415610d09576040517f08c379a0000000000000000000000000000000000000000000000000000000008152600401610d0090611a98565b60405180910390fd5b610d128161116c565b50565b600033905090565b600073ffffffffffffffffffffffffffffffffffffffff168373ffffffffffffffffffffffffffffffffffffffff161415610d8d576040517f08c379a0000000000000000000000000000000000000000000000000000000008152600401610d8490611b98565b60405180910390fd5b600073ffffffffffffffffffffffffffffffffffffffff168273ffffffffffffffffffffffffffffffffffffffff161415610dfd576040517f08c379a0000000000000000000000000000000000000000000000000000000008152600401610df490611ab8565b60405180910390fd5b80600260008573ffffffffffffffffffffffffffffffffffffffff1673ffffffffffffffffffffffffffffffffffffffff16815260200190815260200160002060008473ffffffffffffffffffffffffffffffffffffffff1673ffffffffffffffffffffffffffffffffffffffff168152602001908152602001600020819055508173ffffffffffffffffffffffffffffffffffffffff168373ffffffffffffffffffffffffffffffffffffffff167f8c5be1e5ebec7d5bd14f71427d1e84f3dd0314c0f7b2291e5b200ac8c7c3b92583604051610edb9190611bf8565b60405180910390a3505050565b600073ffffffffffffffffffffffffffffffffffffffff168373ffffffffffffffffffffffffffffffffffffffff161415610f58576040517f08c379a0000000000000000000000000000000000000000000000000000000008152600401610f4f90611b78565b60405180910390fd5b600073ffffffffffffffffffffffffffffffffffffffff168273ffffffffffffffffffffffffffffffffffffffff161415610fc8576040517f08c379a0000000000000000000000000000000000000000000000000000000008152600401610fbf90611a78565b60405180910390fd5b610fd3838383611290565b6000600160008573ffffffffffffffffffffffffffffffffffffffff1673ffffffffffffffffffffffffffffffffffffffff1681526020019081526020016000205490508181101561105a576040517f08c379a000000000000000000000000000000000000000000000000000000000815260040161105190611ad8565b60405180910390fd5b818103600160008673ffffffffffffffffffffffffffffffffffffffff1673ffffffffffffffffffffffffffffffffffffffff1681526020019081526020016000208190555081600160008573ffffffffffffffffffffffffffffffffffffffff1673ffffffffffffffffffffffffffffffffffffffff16815260200190815260200160002060008282546110ef9190611c4a565b925050819055508273ffffffffffffffffffffffffffffffffffffffff168473ffffffffffffffffffffffffffffffffffffffff167fddf252ad1be2c89b69c2b068fc378daa952ba7f163c4a11628f55a4df523b3ef846040516111539190611bf8565b60405180910390a3611166848484611295565b50505050565b60008060009054906101000a900473ffffffffffffffffffffffffffffffffffffffff169050816000806101000a81548173ffffffffffffffffffffffffffffffffffffffff021916908373ffffffffffffffffffffffffffffffffffffffff1602179055508173ffffffffffffffffffffffffffffffffffffffff168173ffffffffffffffffffffffffffffffffffffffff167f8be0079c531659141344cd1fd0a4f28419497f9722a3daafe3b4186f6b6457e060405160405180910390a35050565b61123c8260085461129a565b60011515600a60008473ffffffffffffffffffffffffffffffffffffffff1673ffffffffffffffffffffffffffffffffffffffff16815260200190815260200160002060009054906101000a905050505050565b505050565b505050565b600073ffffffffffffffffffffffffffffffffffffffff168273ffffffffffffffffffffffffffffffffffffffff16141561130a576040517f08c379a000000000000000000000000000000000000000000000000000000000815260040161130190611bd8565b60405180910390fd5b61131660008383611290565b80600360008282546113289190611c4a565b9250508190555080600160008473ffffffffffffffffffffffffffffffffffffffff1673ffffffffffffffffffffffffffffffffffffffff168152602001908152602001600020600082825461137e9190611c4a565b925050819055508173ffffffffffffffffffffffffffffffffffffffff16600073ffffffffffffffffffffffffffffffffffffffff167fddf252ad1be2c89b69c2b068fc378daa952ba7f163c4a11628f55a4df523b3ef836040516113e39190611bf8565b60405180910390a36113f760008383611295565b5050565b60008135905061140a81611ded565b92915050565b60008135905061141f81611e04565b92915050565b60006020828403121561143757600080fd5b6000611445848285016113fb565b91505092915050565b6000806040838503121561146157600080fd5b600061146f858286016113fb565b9250506020611480858286016113fb565b9150509250929050565b60008060006060848603121561149f57600080fd5b60006114ad868287016113fb565b93505060206114be868287016113fb565b92505060406114cf86828701611410565b9150509250925092565b600080604083850312156114ec57600080fd5b60006114fa858286016113fb565b925050602061150b85828601611410565b9150509250929050565b6000806040838503121561152857600080fd5b600061153685828601611410565b9250506020611547858286016113fb565b9150509250929050565b61155a81611ca0565b82525050565b61156981611cb2565b82525050565b61157881611cf5565b82525050565b600061158982611c2e565b6115938185611c39565b93506115a3818560208601611d19565b6115ac81611ddc565b840191505092915050565b60006115c4602383611c39565b91507f45524332303a207472616e7366657220746f20746865207a65726f206164647260008301527f65737300000000000000000000000000000000000000000000000000000000006020830152604082019050919050565b600061162a602683611c39565b91507f4f776e61626c653a206e6577206f776e657220697320746865207a65726f206160008301527f64647265737300000000000000000000000000000000000000000000000000006020830152604082019050919050565b6000611690602283611c39565b91507f45524332303a20617070726f766520746f20746865207a65726f20616464726560008301527f73730000000000000000000000000000000000000000000000000000000000006020830152604082019050919050565b60006116f6602683611c39565b91507f45524332303a207472616e7366657220616d6f756e742065786365656473206260008301527f616c616e636500000000000000000000000000000000000000000000000000006020830152604082019050919050565b600061175c602883611c39565b91507f45524332303a207472616e7366657220616d6f756e742065786365656473206160008301527f6c6c6f77616e63650000000000000000000000000000000000000000000000006020830152604082019050919050565b60006117c2602083611c39565b91507f4f776e61626c653a2063616c6c6572206973206e6f7420746865206f776e65726000830152602082019050919050565b6000611802601883611c39565b91507f43616e206f6e6c7920636c61696d20676f6c64206f6e636500000000000000006000830152602082019050919050565b6000611842601083611c39565b91507f496e76616c696420746f6b656e204944000000000000000000000000000000006000830152602082019050919050565b6000611882602583611c39565b91507f45524332303a207472616e736665722066726f6d20746865207a65726f20616460008301527f64726573730000000000000000000000000000000000000000000000000000006020830152604082019050919050565b60006118e8602483611c39565b91507f45524332303a20617070726f76652066726f6d20746865207a65726f2061646460008301527f72657373000000000000000000000000000000000000000000000000000000006020830152604082019050919050565b600061194e602583611c39565b91507f45524332303a2064656372656173656420616c6c6f77616e63652062656c6f7760008301527f207a65726f0000000000000000000000000000000000000000000000000000006020830152604082019050919050565b60006119b4601f83611c39565b91507f45524332303a206d696e7420746f20746865207a65726f2061646472657373006000830152602082019050919050565b6119f081611cde565b82525050565b6119ff81611ce8565b82525050565b6000602082019050611a1a6000830184611551565b92915050565b6000602082019050611a356000830184611560565b92915050565b6000602082019050611a50600083018461156f565b92915050565b60006020820190508181036000830152611a70818461157e565b905092915050565b60006020820190508181036000830152611a91816115b7565b9050919050565b60006020820190508181036000830152611ab18161161d565b9050919050565b60006020820190508181036000830152611ad181611683565b9050919050565b60006020820190508181036000830152611af1816116e9565b9050919050565b60006020820190508181036000830152611b118161174f565b9050919050565b60006020820190508181036000830152611b31816117b5565b9050919050565b60006020820190508181036000830152611b51816117f5565b9050919050565b60006020820190508181036000830152611b7181611835565b9050919050565b60006020820190508181036000830152611b9181611875565b9050919050565b60006020820190508181036000830152611bb1816118db565b9050919050565b60006020820190508181036000830152611bd181611941565b9050919050565b60006020820190508181036000830152611bf1816119a7565b9050919050565b6000602082019050611c0d60008301846119e7565b92915050565b6000602082019050611c2860008301846119f6565b92915050565b600081519050919050565b600082825260208201905092915050565b6000611c5582611cde565b9150611c6083611cde565b9250827fffffffffffffffffffffffffffffffffffffffffffffffffffffffffffffffff03821115611c9557611c94611d7e565b5b828201905092915050565b6000611cab82611cbe565b9050919050565b60008115159050919050565b600073ffffffffffffffffffffffffffffffffffffffff82169050919050565b6000819050919050565b600060ff82169050919050565b6000611d0082611d07565b9050919050565b6000611d1282611cbe565b9050919050565b60005b83811015611d37578082015181840152602081019050611d1c565b83811115611d46576000848401525b50505050565b60006002820490506001821680611d6457607f821691505b60208210811415611d7857611d77611dad565b5b50919050565b7f4e487b7100000000000000000000000000000000000000000000000000000000600052601160045260246000fd5b7f4e487b7100000000000000000000000000000000000000000000000000000000600052602260045260246000fd5b6000601f19601f8301169050919050565b611df681611ca0565b8114611e0157600080fd5b50565b611e0d81611cde565b8114611e1857600080fd5b5056fea2646970667358221220f6b18a768a4514034453a2fad4f9230ca2a29197778695ac0f7c97e2797bc18364736f6c63430008000033",
  "linkReferences": {},
  "deployedLinkReferences": {}
}