{
  "_format": "hh-sol-artifact-1",
  "contractName": "ZGold",
  "sourceName": "contracts/ZGold.sol",
  "abi": [
    {
      "inputs": [],
      "stateMutability": "nonpayable",
      "type": "constructor"
    },
    {
      "anonymous": false,
      "inputs": [
        {
          "indexed": true,
          "internalType": "address",
          "name": "owner",
          "type": "address"
        },
        {
          "indexed": true,
          "internalType": "address",
          "name": "spender",
          "type": "address"
        },
        {
          "indexed": false,
          "internalType": "uint256",
          "name": "value",
          "type": "uint256"
        }
      ],
      "name": "Approval",
      "type": "event"
    },
    {
      "anonymous": false,
      "inputs": [
        {
          "indexed": true,
          "internalType": "address",
          "name": "previousOwner",
          "type": "address"
        },
        {
          "indexed": true,
          "internalType": "address",
          "name": "newOwner",
          "type": "address"
        }
      ],
      "name": "OwnershipTransferred",
      "type": "event"
    },
    {
      "anonymous": false,
      "inputs": [
        {
          "indexed": true,
          "internalType": "address",
          "name": "from",
          "type": "address"
        },
        {
          "indexed": true,
          "internalType": "address",
          "name": "to",
          "type": "address"
        },
        {
          "indexed": false,
          "internalType": "uint256",
          "name": "value",
          "type": "uint256"
        }
      ],
      "name": "Transfer",
      "type": "event"
    },
    {
      "inputs": [],
      "name": "ZGoldPerToken",
      "outputs": [
        {
          "internalType": "uint256",
          "name": "",
          "type": "uint256"
        }
      ],
      "stateMutability": "view",
      "type": "function"
    },
    {
      "inputs": [],
      "name": "ZLootContract",
      "outputs": [
        {
          "internalType": "contract IERC721Enumerable",
          "name": "",
          "type": "address"
        }
      ],
      "stateMutability": "view",
      "type": "function"
    },
    {
      "inputs": [],
      "name": "ZLootContractAddress",
      "outputs": [
        {
          "internalType": "address",
          "name": "",
          "type": "address"
        }
      ],
      "stateMutability": "view",
      "type": "function"
    },
    {
      "inputs": [
        {
          "internalType": "address",
          "name": "owner",
          "type": "address"
        },
        {
          "internalType": "address",
          "name": "spender",
          "type": "address"
        }
      ],
      "name": "allowance",
      "outputs": [
        {
          "internalType": "uint256",
          "name": "",
          "type": "uint256"
        }
      ],
      "stateMutability": "view",
      "type": "function"
    },
    {
      "inputs": [
        {
          "internalType": "address",
          "name": "spender",
          "type": "address"
        },
        {
          "internalType": "uint256",
          "name": "amount",
          "type": "uint256"
        }
      ],
      "name": "approve",
      "outputs": [
        {
          "internalType": "bool",
          "name": "",
          "type": "bool"
        }
      ],
      "stateMutability": "nonpayable",
      "type": "function"
    },
    {
      "inputs": [
        {
          "internalType": "address",
          "name": "account",
          "type": "address"
        }
      ],
      "name": "balanceOf",
      "outputs": [
        {
          "internalType": "uint256",
          "name": "",
          "type": "uint256"
        }
      ],
      "stateMutability": "view",
      "type": "function"
    },
    {
      "inputs": [
        {
          "internalType": "uint256",
          "name": "tokenId",
          "type": "uint256"
        },
        {
          "internalType": "address",
          "name": "tokenOwner",
          "type": "address"
        }
      ],
      "name": "claimGold",
      "outputs": [],
      "stateMutability": "nonpayable",
      "type": "function"
    },
    {
      "inputs": [],
      "name": "decimals",
      "outputs": [
        {
          "internalType": "uint8",
          "name": "",
          "type": "uint8"
        }
      ],
      "stateMutability": "view",
      "type": "function"
    },
    {
      "inputs": [
        {
          "internalType": "address",
          "name": "spender",
          "type": "address"
        },
        {
          "internalType": "uint256",
          "name": "subtractedValue",
          "type": "uint256"
        }
      ],
      "name": "decreaseAllowance",
      "outputs": [
        {
          "internalType": "bool",
          "name": "",
          "type": "bool"
        }
      ],
      "stateMutability": "nonpayable",
      "type": "function"
    },
    {
      "inputs": [
        {
          "internalType": "address",
          "name": "tokenOwner",
          "type": "address"
        }
      ],
      "name": "getZGLDBalance",
      "outputs": [
        {
          "internalType": "uint256",
          "name": "",
          "type": "uint256"
        }
      ],
      "stateMutability": "view",
      "type": "function"
    },
    {
      "inputs": [
        {
          "internalType": "address",
          "name": "spender",
          "type": "address"
        },
        {
          "internalType": "uint256",
          "name": "addedValue",
          "type": "uint256"
        }
      ],
      "name": "increaseAllowance",
      "outputs": [
        {
          "internalType": "bool",
          "name": "",
          "type": "bool"
        }
      ],
      "stateMutability": "nonpayable",
      "type": "function"
    },
    {
      "inputs": [],
      "name": "name",
      "outputs": [
        {
          "internalType": "string",
          "name": "",
          "type": "string"
        }
      ],
      "stateMutability": "view",
      "type": "function"
    },
    {
      "inputs": [],
      "name": "owner",
      "outputs": [
        {
          "internalType": "address",
          "name": "",
          "type": "address"
        }
      ],
      "stateMutability": "view",
      "type": "function"
    },
    {
      "inputs": [],
      "name": "renounceOwnership",
      "outputs": [],
      "stateMutability": "nonpayable",
      "type": "function"
    },
    {
      "inputs": [],
      "name": "symbol",
      "outputs": [
        {
          "internalType": "string",
          "name": "",
          "type": "string"
        }
      ],
      "stateMutability": "view",
      "type": "function"
    },
    {
      "inputs": [],
      "name": "totalSupply",
      "outputs": [
        {
          "internalType": "uint256",
          "name": "",
          "type": "uint256"
        }
      ],
      "stateMutability": "view",
      "type": "function"
    },
    {
      "inputs": [
        {
          "internalType": "address",
          "name": "recipient",
          "type": "address"
        },
        {
          "internalType": "uint256",
          "name": "amount",
          "type": "uint256"
        }
      ],
      "name": "transfer",
      "outputs": [
        {
          "internalType": "bool",
          "name": "",
          "type": "bool"
        }
      ],
      "stateMutability": "nonpayable",
      "type": "function"
    },
    {
      "inputs": [
        {
          "internalType": "address",
          "name": "sender",
          "type": "address"
        },
        {
          "internalType": "address",
          "name": "recipient",
          "type": "address"
        },
        {
          "internalType": "uint256",
          "name": "amount",
          "type": "uint256"
        }
      ],
      "name": "transferFrom",
      "outputs": [
        {
          "internalType": "bool",
          "name": "",
          "type": "bool"
        }
      ],
      "stateMutability": "nonpayable",
      "type": "function"
    },
    {
      "inputs": [
        {
          "internalType": "address",
          "name": "newOwner",
          "type": "address"
        }
      ],
      "name": "transferOwnership",
      "outputs": [],
      "stateMutability": "nonpayable",
      "type": "function"
    },
    {
      "inputs": [
        {
          "internalType": "address",
          "name": "",
          "type": "address"
        }
      ],
      "name": "zGoldBalance",
      "outputs": [
        {
          "internalType": "uint256",
          "name": "",
          "type": "uint256"
        }
      ],
      "stateMutability": "view",
      "type": "function"
    }
  ],
  "bytecode": "0x608060405273ff9c1b15b16263c61d017ee9f65c50e4ae0113d7600660006101000a81548173ffffffffffffffffffffffffffffffffffffffff021916908373ffffffffffffffffffffffffffffffffffffffff160217905550620000696200015d60201b60201c565b600a6200007791906200033d565b6103e86200008691906200047a565b6008553480156200009657600080fd5b506040518060400160405280600581526020017f5a476f6c640000000000000000000000000000000000000000000000000000008152506040518060400160405280600481526020017f5a474c440000000000000000000000000000000000000000000000000000000081525062000123620001176200016660201b60201c565b6200016e60201b60201c565b81600490805190602001906200013b92919062000232565b5080600590805190602001906200015492919062000232565b50505062000593565b60006012905090565b600033905090565b60008060009054906101000a900473ffffffffffffffffffffffffffffffffffffffff169050816000806101000a81548173ffffffffffffffffffffffffffffffffffffffff021916908373ffffffffffffffffffffffffffffffffffffffff1602179055508173ffffffffffffffffffffffffffffffffffffffff168173ffffffffffffffffffffffffffffffffffffffff167f8be0079c531659141344cd1fd0a4f28419497f9722a3daafe3b4186f6b6457e060405160405180910390a35050565b8280546200024090620004f2565b90600052602060002090601f016020900481019282620002645760008555620002b0565b82601f106200027f57805160ff1916838001178555620002b0565b82800160010185558215620002b0579182015b82811115620002af57825182559160200191906001019062000292565b5b509050620002bf9190620002c3565b5090565b5b80821115620002de576000816000905550600101620002c4565b5090565b6000808291508390505b600185111562000334578086048111156200030c576200030b62000528565b5b60018516156200031c5780820291505b80810290506200032c8562000586565b9450620002ec565b94509492505050565b60006200034a82620004db565b91506200035783620004e5565b9250620003867fffffffffffffffffffffffffffffffffffffffffffffffffffffffffffffffff84846200038e565b905092915050565b600082620003a0576001905062000473565b81620003b0576000905062000473565b8160018114620003c95760028114620003d4576200040a565b600191505062000473565b60ff841115620003e957620003e862000528565b5b8360020a91508482111562000403576200040262000528565b5b5062000473565b5060208310610133831016604e8410600b8410161715620004445782820a9050838111156200043e576200043d62000528565b5b62000473565b620004538484846001620002e2565b925090508184048111156200046d576200046c62000528565b5b81810290505b9392505050565b60006200048782620004db565b91506200049483620004db565b9250817fffffffffffffffffffffffffffffffffffffffffffffffffffffffffffffffff0483118215151615620004d057620004cf62000528565b5b828202905092915050565b6000819050919050565b600060ff82169050919050565b600060028204905060018216806200050b57607f821691505b6020821081141562000522576200052162000557565b5b50919050565b7f4e487b7100000000000000000000000000000000000000000000000000000000600052601160045260246000fd5b7f4e487b7100000000000000000000000000000000000000000000000000000000600052602260045260246000fd5b60008160011c9050919050565b611ddd80620005a36000396000f3fe608060405234801561001057600080fd5b506004361061012c5760003560e01c8063715018a6116100ad578063a457c2d711610071578063a457c2d714610349578063a9059cbb14610379578063c8d3a7b5146103a9578063dd62ed3e146103c7578063f2fde38b146103f75761012c565b8063715018a6146102b7578063817d3cc0146102c157806381a94ecf146102dd5780638da5cb5b1461030d57806395d89b411461032b5761012c565b8063313ce567116100f4578063313ce567146101eb57806332f781bc1461020957806339509351146102395780634c50dd181461026957806370a08231146102875761012c565b806306fdde0314610131578063095ea7b31461014f578063126220e51461017f57806318160ddd1461019d57806323b872dd146101bb575b600080fd5b610139610413565b60405161014691906119e2565b60405180910390f35b61016960048036038101906101649190611465565b6104a5565b60405161017691906119ac565b60405180910390f35b6101876104c3565b60405161019491906119c7565b60405180910390f35b6101a56104e9565b6040516101b29190611b84565b60405180910390f35b6101d560048036038101906101d09190611416565b6104f3565b6040516101e291906119ac565b60405180910390f35b6101f36105eb565b6040516102009190611b9f565b60405180910390f35b610223600480360381019061021e9190611388565b6105f4565b6040516102309190611b84565b60405180910390f35b610253600480360381019061024e9190611465565b61060c565b60405161026091906119ac565b60405180910390f35b6102716106b8565b60405161027e9190611991565b60405180910390f35b6102a1600480360381019061029c9190611388565b6106de565b6040516102ae9190611b84565b60405180910390f35b6102bf610727565b005b6102db60048036038101906102d691906114a1565b6107af565b005b6102f760048036038101906102f29190611388565b610921565b6040516103049190611b84565b60405180910390f35b61031561096a565b6040516103229190611991565b60405180910390f35b610333610993565b60405161034091906119e2565b60405180910390f35b610363600480360381019061035e9190611465565b610a25565b60405161037091906119ac565b60405180910390f35b610393600480360381019061038e9190611465565b610b10565b6040516103a091906119ac565b60405180910390f35b6103b1610b2e565b6040516103be9190611b84565b60405180910390f35b6103e160048036038101906103dc91906113da565b610b34565b6040516103ee9190611b84565b60405180910390f35b610411600480360381019061040c9190611388565b610bbb565b005b60606004805461042290611cd8565b80601f016020809104026020016040519081016040528092919081815260200182805461044e90611cd8565b801561049b5780601f106104705761010080835404028352916020019161049b565b820191906000526020600020905b81548152906001019060200180831161047e57829003601f168201915b5050505050905090565b60006104b96104b2610cb3565b8484610cbb565b6001905092915050565b600760009054906101000a900473ffffffffffffffffffffffffffffffffffffffff1681565b6000600354905090565b6000610500848484610e86565b6000600260008673ffffffffffffffffffffffffffffffffffffffff1673ffffffffffffffffffffffffffffffffffffffff168152602001908152602001600020600061054b610cb3565b73ffffffffffffffffffffffffffffffffffffffff1673ffffffffffffffffffffffffffffffffffffffff168152602001908152602001600020549050828110156105cb576040517f08c379a00000000000000000000000000000000000000000000000000000000081526004016105c290611a84565b60405180910390fd5b6105df856105d7610cb3565b858403610cbb565b60019150509392505050565b60006012905090565b60096020528060005260406000206000915090505481565b60006106ae610619610cb3565b848460026000610627610cb3565b73ffffffffffffffffffffffffffffffffffffffff1673ffffffffffffffffffffffffffffffffffffffff16815260200190815260200160002060008873ffffffffffffffffffffffffffffffffffffffff1673ffffffffffffffffffffffffffffffffffffffff168152602001908152602001600020546106a99190611bd6565b610cbb565b6001905092915050565b600660009054906101000a900473ffffffffffffffffffffffffffffffffffffffff1681565b6000600160008373ffffffffffffffffffffffffffffffffffffffff1673ffffffffffffffffffffffffffffffffffffffff168152602001908152602001600020549050919050565b61072f610cb3565b73ffffffffffffffffffffffffffffffffffffffff1661074d61096a565b73ffffffffffffffffffffffffffffffffffffffff16146107a3576040517f08c379a000000000000000000000000000000000000000000000000000000000815260040161079a90611aa4565b60405180910390fd5b6107ad600061110a565b565b600760009054906101000a900473ffffffffffffffffffffffffffffffffffffffff1673ffffffffffffffffffffffffffffffffffffffff16636352211e836040518263ffffffff1660e01b815260040161080a9190611b84565b60206040518083038186803b15801561082257600080fd5b505afa158015610836573d6000803e3d6000fd5b505050506040513d601f19601f8201168201806040525081019061085a91906113b1565b73ffffffffffffffffffffffffffffffffffffffff16610878610cb3565b73ffffffffffffffffffffffffffffffffffffffff16146108ce576040517f08c379a00000000000000000000000000000000000000000000000000000000081526004016108c590611b04565b60405180910390fd5b610258821015610913576040517f08c379a000000000000000000000000000000000000000000000000000000000815260040161090a90611ac4565b60405180910390fd5b61091d82336111ce565b5050565b6000600960008373ffffffffffffffffffffffffffffffffffffffff1673ffffffffffffffffffffffffffffffffffffffff168152602001908152602001600020549050919050565b60008060009054906101000a900473ffffffffffffffffffffffffffffffffffffffff16905090565b6060600580546109a290611cd8565b80601f01602080910402602001604051908101604052809291908181526020018280546109ce90611cd8565b8015610a1b5780601f106109f057610100808354040283529160200191610a1b565b820191906000526020600020905b8154815290600101906020018083116109fe57829003601f168201915b5050505050905090565b60008060026000610a34610cb3565b73ffffffffffffffffffffffffffffffffffffffff1673ffffffffffffffffffffffffffffffffffffffff16815260200190815260200160002060008573ffffffffffffffffffffffffffffffffffffffff1673ffffffffffffffffffffffffffffffffffffffff16815260200190815260200160002054905082811015610af1576040517f08c379a0000000000000000000000000000000000000000000000000000000008152600401610ae890611b44565b60405180910390fd5b610b05610afc610cb3565b85858403610cbb565b600191505092915050565b6000610b24610b1d610cb3565b8484610e86565b6001905092915050565b60085481565b6000600260008473ffffffffffffffffffffffffffffffffffffffff1673ffffffffffffffffffffffffffffffffffffffff16815260200190815260200160002060008373ffffffffffffffffffffffffffffffffffffffff1673ffffffffffffffffffffffffffffffffffffffff16815260200190815260200160002054905092915050565b610bc3610cb3565b73ffffffffffffffffffffffffffffffffffffffff16610be161096a565b73ffffffffffffffffffffffffffffffffffffffff1614610c37576040517f08c379a0000000000000000000000000000000000000000000000000000000008152600401610c2e90611aa4565b60405180910390fd5b600073ffffffffffffffffffffffffffffffffffffffff168173ffffffffffffffffffffffffffffffffffffffff161415610ca7576040517f08c379a0000000000000000000000000000000000000000000000000000000008152600401610c9e90611a24565b60405180910390fd5b610cb08161110a565b50565b600033905090565b600073ffffffffffffffffffffffffffffffffffffffff168373ffffffffffffffffffffffffffffffffffffffff161415610d2b576040517f08c379a0000000000000000000000000000000000000000000000000000000008152600401610d2290611b24565b60405180910390fd5b600073ffffffffffffffffffffffffffffffffffffffff168273ffffffffffffffffffffffffffffffffffffffff161415610d9b576040517f08c379a0000000000000000000000000000000000000000000000000000000008152600401610d9290611a44565b60405180910390fd5b80600260008573ffffffffffffffffffffffffffffffffffffffff1673ffffffffffffffffffffffffffffffffffffffff16815260200190815260200160002060008473ffffffffffffffffffffffffffffffffffffffff1673ffffffffffffffffffffffffffffffffffffffff168152602001908152602001600020819055508173ffffffffffffffffffffffffffffffffffffffff168373ffffffffffffffffffffffffffffffffffffffff167f8c5be1e5ebec7d5bd14f71427d1e84f3dd0314c0f7b2291e5b200ac8c7c3b92583604051610e799190611b84565b60405180910390a3505050565b600073ffffffffffffffffffffffffffffffffffffffff168373ffffffffffffffffffffffffffffffffffffffff161415610ef6576040517f08c379a0000000000000000000000000000000000000000000000000000000008152600401610eed90611ae4565b60405180910390fd5b600073ffffffffffffffffffffffffffffffffffffffff168273ffffffffffffffffffffffffffffffffffffffff161415610f66576040517f08c379a0000000000000000000000000000000000000000000000000000000008152600401610f5d90611a04565b60405180910390fd5b610f718383836111de565b6000600160008573ffffffffffffffffffffffffffffffffffffffff1673ffffffffffffffffffffffffffffffffffffffff16815260200190815260200160002054905081811015610ff8576040517f08c379a0000000000000000000000000000000000000000000000000000000008152600401610fef90611a64565b60405180910390fd5b818103600160008673ffffffffffffffffffffffffffffffffffffffff1673ffffffffffffffffffffffffffffffffffffffff1681526020019081526020016000208190555081600160008573ffffffffffffffffffffffffffffffffffffffff1673ffffffffffffffffffffffffffffffffffffffff168152602001908152602001600020600082825461108d9190611bd6565b925050819055508273ffffffffffffffffffffffffffffffffffffffff168473ffffffffffffffffffffffffffffffffffffffff167fddf252ad1be2c89b69c2b068fc378daa952ba7f163c4a11628f55a4df523b3ef846040516110f19190611b84565b60405180910390a36111048484846111e3565b50505050565b60008060009054906101000a900473ffffffffffffffffffffffffffffffffffffffff169050816000806101000a81548173ffffffffffffffffffffffffffffffffffffffff021916908373ffffffffffffffffffffffffffffffffffffffff1602179055508173ffffffffffffffffffffffffffffffffffffffff168173ffffffffffffffffffffffffffffffffffffffff167f8be0079c531659141344cd1fd0a4f28419497f9722a3daafe3b4186f6b6457e060405160405180910390a35050565b6111da816008546111e8565b5050565b505050565b505050565b600073ffffffffffffffffffffffffffffffffffffffff168273ffffffffffffffffffffffffffffffffffffffff161415611258576040517f08c379a000000000000000000000000000000000000000000000000000000000815260040161124f90611b64565b60405180910390fd5b611264600083836111de565b80600360008282546112769190611bd6565b9250508190555080600160008473ffffffffffffffffffffffffffffffffffffffff1673ffffffffffffffffffffffffffffffffffffffff16815260200190815260200160002060008282546112cc9190611bd6565b925050819055508173ffffffffffffffffffffffffffffffffffffffff16600073ffffffffffffffffffffffffffffffffffffffff167fddf252ad1be2c89b69c2b068fc378daa952ba7f163c4a11628f55a4df523b3ef836040516113319190611b84565b60405180910390a3611345600083836111e3565b5050565b60008135905061135881611d79565b92915050565b60008151905061136d81611d79565b92915050565b60008135905061138281611d90565b92915050565b60006020828403121561139a57600080fd5b60006113a884828501611349565b91505092915050565b6000602082840312156113c357600080fd5b60006113d18482850161135e565b91505092915050565b600080604083850312156113ed57600080fd5b60006113fb85828601611349565b925050602061140c85828601611349565b9150509250929050565b60008060006060848603121561142b57600080fd5b600061143986828701611349565b935050602061144a86828701611349565b925050604061145b86828701611373565b9150509250925092565b6000806040838503121561147857600080fd5b600061148685828601611349565b925050602061149785828601611373565b9150509250929050565b600080604083850312156114b457600080fd5b60006114c285828601611373565b92505060206114d385828601611349565b9150509250929050565b6114e681611c2c565b82525050565b6114f581611c3e565b82525050565b61150481611c81565b82525050565b600061151582611bba565b61151f8185611bc5565b935061152f818560208601611ca5565b61153881611d68565b840191505092915050565b6000611550602383611bc5565b91507f45524332303a207472616e7366657220746f20746865207a65726f206164647260008301527f65737300000000000000000000000000000000000000000000000000000000006020830152604082019050919050565b60006115b6602683611bc5565b91507f4f776e61626c653a206e6577206f776e657220697320746865207a65726f206160008301527f64647265737300000000000000000000000000000000000000000000000000006020830152604082019050919050565b600061161c602283611bc5565b91507f45524332303a20617070726f766520746f20746865207a65726f20616464726560008301527f73730000000000000000000000000000000000000000000000000000000000006020830152604082019050919050565b6000611682602683611bc5565b91507f45524332303a207472616e7366657220616d6f756e742065786365656473206260008301527f616c616e636500000000000000000000000000000000000000000000000000006020830152604082019050919050565b60006116e8602883611bc5565b91507f45524332303a207472616e7366657220616d6f756e742065786365656473206160008301527f6c6c6f77616e63650000000000000000000000000000000000000000000000006020830152604082019050919050565b600061174e602083611bc5565b91507f4f776e61626c653a2063616c6c6572206973206e6f7420746865206f776e65726000830152602082019050919050565b600061178e601083611bc5565b91507f496e76616c696420746f6b656e204944000000000000000000000000000000006000830152602082019050919050565b60006117ce602583611bc5565b91507f45524332303a207472616e736665722066726f6d20746865207a65726f20616460008301527f64726573730000000000000000000000000000000000000000000000000000006020830152604082019050919050565b6000611834600e83611bc5565b91507f6d757374206f776e20746f6b656e0000000000000000000000000000000000006000830152602082019050919050565b6000611874602483611bc5565b91507f45524332303a20617070726f76652066726f6d20746865207a65726f2061646460008301527f72657373000000000000000000000000000000000000000000000000000000006020830152604082019050919050565b60006118da602583611bc5565b91507f45524332303a2064656372656173656420616c6c6f77616e63652062656c6f7760008301527f207a65726f0000000000000000000000000000000000000000000000000000006020830152604082019050919050565b6000611940601f83611bc5565b91507f45524332303a206d696e7420746f20746865207a65726f2061646472657373006000830152602082019050919050565b61197c81611c6a565b82525050565b61198b81611c74565b82525050565b60006020820190506119a660008301846114dd565b92915050565b60006020820190506119c160008301846114ec565b92915050565b60006020820190506119dc60008301846114fb565b92915050565b600060208201905081810360008301526119fc818461150a565b905092915050565b60006020820190508181036000830152611a1d81611543565b9050919050565b60006020820190508181036000830152611a3d816115a9565b9050919050565b60006020820190508181036000830152611a5d8161160f565b9050919050565b60006020820190508181036000830152611a7d81611675565b9050919050565b60006020820190508181036000830152611a9d816116db565b9050919050565b60006020820190508181036000830152611abd81611741565b9050919050565b60006020820190508181036000830152611add81611781565b9050919050565b60006020820190508181036000830152611afd816117c1565b9050919050565b60006020820190508181036000830152611b1d81611827565b9050919050565b60006020820190508181036000830152611b3d81611867565b9050919050565b60006020820190508181036000830152611b5d816118cd565b9050919050565b60006020820190508181036000830152611b7d81611933565b9050919050565b6000602082019050611b996000830184611973565b92915050565b6000602082019050611bb46000830184611982565b92915050565b600081519050919050565b600082825260208201905092915050565b6000611be182611c6a565b9150611bec83611c6a565b9250827fffffffffffffffffffffffffffffffffffffffffffffffffffffffffffffffff03821115611c2157611c20611d0a565b5b828201905092915050565b6000611c3782611c4a565b9050919050565b60008115159050919050565b600073ffffffffffffffffffffffffffffffffffffffff82169050919050565b6000819050919050565b600060ff82169050919050565b6000611c8c82611c93565b9050919050565b6000611c9e82611c4a565b9050919050565b60005b83811015611cc3578082015181840152602081019050611ca8565b83811115611cd2576000848401525b50505050565b60006002820490506001821680611cf057607f821691505b60208210811415611d0457611d03611d39565b5b50919050565b7f4e487b7100000000000000000000000000000000000000000000000000000000600052601160045260246000fd5b7f4e487b7100000000000000000000000000000000000000000000000000000000600052602260045260246000fd5b6000601f19601f8301169050919050565b611d8281611c2c565b8114611d8d57600080fd5b50565b611d9981611c6a565b8114611da457600080fd5b5056fea26469706673582212203eeea6e8fe788145e2dd121ed65f3ea338365c854f8331a5dbc06f3ee675d64b64736f6c63430008000033",
  "linkReferences": {},
  "deployedLinkReferences": {}
}