{
  "_format": "hh-sol-artifact-1",
  "contractName": "ZGold",
  "sourceName": "contracts/ZGold.sol",
  "abi": [
    {
      "inputs": [
        {
          "internalType": "address",
          "name": "_ZLootContractAddress",
          "type": "address"
        }
      ],
      "stateMutability": "nonpayable",
      "type": "constructor"
    },
    {
      "anonymous": false,
      "inputs": [
        {
          "indexed": true,
          "internalType": "address",
          "name": "owner",
          "type": "address"
        },
        {
          "indexed": true,
          "internalType": "address",
          "name": "spender",
          "type": "address"
        },
        {
          "indexed": false,
          "internalType": "uint256",
          "name": "value",
          "type": "uint256"
        }
      ],
      "name": "Approval",
      "type": "event"
    },
    {
      "anonymous": false,
      "inputs": [
        {
          "indexed": true,
          "internalType": "address",
          "name": "previousOwner",
          "type": "address"
        },
        {
          "indexed": true,
          "internalType": "address",
          "name": "newOwner",
          "type": "address"
        }
      ],
      "name": "OwnershipTransferred",
      "type": "event"
    },
    {
      "anonymous": false,
      "inputs": [
        {
          "indexed": true,
          "internalType": "address",
          "name": "from",
          "type": "address"
        },
        {
          "indexed": true,
          "internalType": "address",
          "name": "to",
          "type": "address"
        },
        {
          "indexed": false,
          "internalType": "uint256",
          "name": "value",
          "type": "uint256"
        }
      ],
      "name": "Transfer",
      "type": "event"
    },
    {
      "inputs": [],
      "name": "Ownership",
      "outputs": [
        {
          "internalType": "contract IERC721Enumerable",
          "name": "",
          "type": "address"
        }
      ],
      "stateMutability": "view",
      "type": "function"
    },
    {
      "inputs": [],
      "name": "ZGoldPerToken",
      "outputs": [
        {
          "internalType": "uint256",
          "name": "",
          "type": "uint256"
        }
      ],
      "stateMutability": "view",
      "type": "function"
    },
    {
      "inputs": [],
      "name": "ZLootContract",
      "outputs": [
        {
          "internalType": "contract IZLoot",
          "name": "",
          "type": "address"
        }
      ],
      "stateMutability": "view",
      "type": "function"
    },
    {
      "inputs": [],
      "name": "ZLootContractAddress",
      "outputs": [
        {
          "internalType": "address",
          "name": "",
          "type": "address"
        }
      ],
      "stateMutability": "view",
      "type": "function"
    },
    {
      "inputs": [
        {
          "internalType": "uint256",
          "name": "tokenId",
          "type": "uint256"
        },
        {
          "internalType": "address",
          "name": "tokenOwner",
          "type": "address"
        }
      ],
      "name": "_claim",
      "outputs": [],
      "stateMutability": "nonpayable",
      "type": "function"
    },
    {
      "inputs": [
        {
          "internalType": "address",
          "name": "owner",
          "type": "address"
        },
        {
          "internalType": "address",
          "name": "spender",
          "type": "address"
        }
      ],
      "name": "allowance",
      "outputs": [
        {
          "internalType": "uint256",
          "name": "",
          "type": "uint256"
        }
      ],
      "stateMutability": "view",
      "type": "function"
    },
    {
      "inputs": [
        {
          "internalType": "address",
          "name": "spender",
          "type": "address"
        },
        {
          "internalType": "uint256",
          "name": "amount",
          "type": "uint256"
        }
      ],
      "name": "approve",
      "outputs": [
        {
          "internalType": "bool",
          "name": "",
          "type": "bool"
        }
      ],
      "stateMutability": "nonpayable",
      "type": "function"
    },
    {
      "inputs": [
        {
          "internalType": "address",
          "name": "account",
          "type": "address"
        }
      ],
      "name": "balanceOf",
      "outputs": [
        {
          "internalType": "uint256",
          "name": "",
          "type": "uint256"
        }
      ],
      "stateMutability": "view",
      "type": "function"
    },
    {
      "inputs": [
        {
          "internalType": "uint256",
          "name": "tokenId",
          "type": "uint256"
        },
        {
          "internalType": "address",
          "name": "tokenOwner",
          "type": "address"
        }
      ],
      "name": "claimGold",
      "outputs": [],
      "stateMutability": "nonpayable",
      "type": "function"
    },
    {
      "inputs": [],
      "name": "decimals",
      "outputs": [
        {
          "internalType": "uint8",
          "name": "",
          "type": "uint8"
        }
      ],
      "stateMutability": "view",
      "type": "function"
    },
    {
      "inputs": [
        {
          "internalType": "address",
          "name": "spender",
          "type": "address"
        },
        {
          "internalType": "uint256",
          "name": "subtractedValue",
          "type": "uint256"
        }
      ],
      "name": "decreaseAllowance",
      "outputs": [
        {
          "internalType": "bool",
          "name": "",
          "type": "bool"
        }
      ],
      "stateMutability": "nonpayable",
      "type": "function"
    },
    {
      "inputs": [
        {
          "internalType": "address",
          "name": "tokenOwner",
          "type": "address"
        }
      ],
      "name": "getZGLDBalance",
      "outputs": [
        {
          "internalType": "uint256",
          "name": "",
          "type": "uint256"
        }
      ],
      "stateMutability": "view",
      "type": "function"
    },
    {
      "inputs": [
        {
          "internalType": "address",
          "name": "spender",
          "type": "address"
        },
        {
          "internalType": "uint256",
          "name": "addedValue",
          "type": "uint256"
        }
      ],
      "name": "increaseAllowance",
      "outputs": [
        {
          "internalType": "bool",
          "name": "",
          "type": "bool"
        }
      ],
      "stateMutability": "nonpayable",
      "type": "function"
    },
    {
      "inputs": [
        {
          "internalType": "address",
          "name": "tokenOwner",
          "type": "address"
        }
      ],
      "name": "isZGLDClaimed",
      "outputs": [
        {
          "internalType": "bool",
          "name": "",
          "type": "bool"
        }
      ],
      "stateMutability": "view",
      "type": "function"
    },
    {
      "inputs": [],
      "name": "name",
      "outputs": [
        {
          "internalType": "string",
          "name": "",
          "type": "string"
        }
      ],
      "stateMutability": "view",
      "type": "function"
    },
    {
      "inputs": [],
      "name": "owner",
      "outputs": [
        {
          "internalType": "address",
          "name": "",
          "type": "address"
        }
      ],
      "stateMutability": "view",
      "type": "function"
    },
    {
      "inputs": [],
      "name": "renounceOwnership",
      "outputs": [],
      "stateMutability": "nonpayable",
      "type": "function"
    },
    {
      "inputs": [],
      "name": "symbol",
      "outputs": [
        {
          "internalType": "string",
          "name": "",
          "type": "string"
        }
      ],
      "stateMutability": "view",
      "type": "function"
    },
    {
      "inputs": [],
      "name": "totalSupply",
      "outputs": [
        {
          "internalType": "uint256",
          "name": "",
          "type": "uint256"
        }
      ],
      "stateMutability": "view",
      "type": "function"
    },
    {
      "inputs": [
        {
          "internalType": "address",
          "name": "recipient",
          "type": "address"
        },
        {
          "internalType": "uint256",
          "name": "amount",
          "type": "uint256"
        }
      ],
      "name": "transfer",
      "outputs": [
        {
          "internalType": "bool",
          "name": "",
          "type": "bool"
        }
      ],
      "stateMutability": "nonpayable",
      "type": "function"
    },
    {
      "inputs": [
        {
          "internalType": "address",
          "name": "sender",
          "type": "address"
        },
        {
          "internalType": "address",
          "name": "recipient",
          "type": "address"
        },
        {
          "internalType": "uint256",
          "name": "amount",
          "type": "uint256"
        }
      ],
      "name": "transferFrom",
      "outputs": [
        {
          "internalType": "bool",
          "name": "",
          "type": "bool"
        }
      ],
      "stateMutability": "nonpayable",
      "type": "function"
    },
    {
      "inputs": [
        {
          "internalType": "address",
          "name": "newOwner",
          "type": "address"
        }
      ],
      "name": "transferOwnership",
      "outputs": [],
      "stateMutability": "nonpayable",
      "type": "function"
    },
    {
      "inputs": [
        {
          "internalType": "address",
          "name": "",
          "type": "address"
        }
      ],
      "name": "zGoldBalance",
      "outputs": [
        {
          "internalType": "uint256",
          "name": "",
          "type": "uint256"
        }
      ],
      "stateMutability": "view",
      "type": "function"
    },
    {
      "inputs": [
        {
          "internalType": "address",
          "name": "",
          "type": "address"
        }
      ],
      "name": "zGoldClaimed",
      "outputs": [
        {
          "internalType": "bool",
          "name": "",
          "type": "bool"
        }
      ],
      "stateMutability": "view",
      "type": "function"
    }
  ],
  "bytecode": "0x60806040526103e8600955620927c0600a553480156200001e57600080fd5b506040516200258a3803806200258a8339818101604052810190620000449190620003a5565b6040518060400160405280600581526020017f5a476f6c640000000000000000000000000000000000000000000000000000008152506040518060400160405280600481526020017f5a474c4400000000000000000000000000000000000000000000000000000000815250620000d0620000c46200021260201b60201c565b6200021a60201b60201c565b8160049080519060200190620000e8929190620002de565b50806005908051906020019062000101929190620002de565b50505080600660006101000a81548173ffffffffffffffffffffffffffffffffffffffff021916908373ffffffffffffffffffffffffffffffffffffffff160217905550600660009054906101000a900473ffffffffffffffffffffffffffffffffffffffff16600760006101000a81548173ffffffffffffffffffffffffffffffffffffffff021916908373ffffffffffffffffffffffffffffffffffffffff160217905550600660009054906101000a900473ffffffffffffffffffffffffffffffffffffffff16600860006101000a81548173ffffffffffffffffffffffffffffffffffffffff021916908373ffffffffffffffffffffffffffffffffffffffff1602179055505062000484565b600033905090565b60008060009054906101000a900473ffffffffffffffffffffffffffffffffffffffff169050816000806101000a81548173ffffffffffffffffffffffffffffffffffffffff021916908373ffffffffffffffffffffffffffffffffffffffff1602179055508173ffffffffffffffffffffffffffffffffffffffff168173ffffffffffffffffffffffffffffffffffffffff167f8be0079c531659141344cd1fd0a4f28419497f9722a3daafe3b4186f6b6457e060405160405180910390a35050565b828054620002ec9062000405565b90600052602060002090601f0160209004810192826200031057600085556200035c565b82601f106200032b57805160ff19168380011785556200035c565b828001600101855582156200035c579182015b828111156200035b5782518255916020019190600101906200033e565b5b5090506200036b91906200036f565b5090565b5b808211156200038a57600081600090555060010162000370565b5090565b6000815190506200039f816200046a565b92915050565b600060208284031215620003b857600080fd5b6000620003c8848285016200038e565b91505092915050565b6000620003de82620003e5565b9050919050565b600073ffffffffffffffffffffffffffffffffffffffff82169050919050565b600060028204905060018216806200041e57607f821691505b602082108114156200043557620004346200043b565b5b50919050565b7f4e487b7100000000000000000000000000000000000000000000000000000000600052602260045260246000fd5b6200047581620003d1565b81146200048157600080fd5b50565b6120f680620004946000396000f3fe608060405234801561001057600080fd5b50600436106101585760003560e01c8063817d3cc0116100c3578063c8d3a7b51161007c578063c8d3a7b5146103f1578063dd62ed3e1461040f578063e5bdb11c1461043f578063e78a41c81461046f578063f2fde38b1461049f578063fbdd7852146104bb57610158565b8063817d3cc01461030957806381a94ecf146103255780638da5cb5b1461035557806395d89b4114610373578063a457c2d714610391578063a9059cbb146103c157610158565b8063313ce56711610115578063313ce5671461023357806332f781bc1461025157806339509351146102815780634c50dd18146102b157806370a08231146102cf578063715018a6146102ff57610158565b806306fdde031461015d578063095ea7b31461017b578063126220e5146101ab57806312e50495146101c957806318160ddd146101e557806323b872dd14610203575b600080fd5b6101656104d9565b6040516101729190611cb7565b60405180910390f35b610195600480360381019061019091906116aa565b61056b565b6040516101a29190611c66565b60405180910390f35b6101b3610589565b6040516101c09190611c9c565b60405180910390f35b6101e360048036038101906101de91906116e6565b6105af565b005b6101ed61060f565b6040516101fa9190611e79565b60405180910390f35b61021d6004803603810190610218919061165b565b610619565b60405161022a9190611c66565b60405180910390f35b61023b610711565b6040516102489190611e94565b60405180910390f35b61026b600480360381019061026691906115cd565b61071a565b6040516102789190611e79565b60405180910390f35b61029b600480360381019061029691906116aa565b610732565b6040516102a89190611c66565b60405180910390f35b6102b96107de565b6040516102c69190611c4b565b60405180910390f35b6102e960048036038101906102e491906115cd565b610804565b6040516102f69190611e79565b60405180910390f35b61030761084d565b005b610323600480360381019061031e91906116e6565b6108d5565b005b61033f600480360381019061033a91906115cd565b610ada565b60405161034c9190611e79565b60405180910390f35b61035d610b23565b60405161036a9190611c4b565b60405180910390f35b61037b610b4c565b6040516103889190611cb7565b60405180910390f35b6103ab60048036038101906103a691906116aa565b610bde565b6040516103b89190611c66565b60405180910390f35b6103db60048036038101906103d691906116aa565b610cc9565b6040516103e89190611c66565b60405180910390f35b6103f9610ce7565b6040516104069190611e79565b60405180910390f35b6104296004803603810190610424919061161f565b610ced565b6040516104369190611e79565b60405180910390f35b610459600480360381019061045491906115cd565b610d74565b6040516104669190611c66565b60405180910390f35b610489600480360381019061048491906115cd565b610dca565b6040516104969190611c66565b60405180910390f35b6104b960048036038101906104b491906115cd565b610dea565b005b6104c3610ee2565b6040516104d09190611c81565b60405180910390f35b6060600480546104e890611ff1565b80601f016020809104026020016040519081016040528092919081815260200182805461051490611ff1565b80156105615780601f1061053657610100808354040283529160200191610561565b820191906000526020600020905b81548152906001019060200180831161054457829003601f168201915b5050505050905090565b600061057f610578610f08565b8484610f10565b6001905092915050565b600760009054906101000a900473ffffffffffffffffffffffffffffffffffffffff1681565b60011515600c60008373ffffffffffffffffffffffffffffffffffffffff1673ffffffffffffffffffffffffffffffffffffffff16815260200190815260200160002060009054906101000a9050505061060b816009546110db565b5050565b6000600a54905090565b600061062684848461123c565b6000600260008673ffffffffffffffffffffffffffffffffffffffff1673ffffffffffffffffffffffffffffffffffffffff1681526020019081526020016000206000610671610f08565b73ffffffffffffffffffffffffffffffffffffffff1673ffffffffffffffffffffffffffffffffffffffff168152602001908152602001600020549050828110156106f1576040517f08c379a00000000000000000000000000000000000000000000000000000000081526004016106e890611d59565b60405180910390fd5b610705856106fd610f08565b858403610f10565b60019150509392505050565b60006012905090565b600b6020528060005260406000206000915090505481565b60006107d461073f610f08565b84846002600061074d610f08565b73ffffffffffffffffffffffffffffffffffffffff1673ffffffffffffffffffffffffffffffffffffffff16815260200190815260200160002060008873ffffffffffffffffffffffffffffffffffffffff1673ffffffffffffffffffffffffffffffffffffffff168152602001908152602001600020546107cf9190611ecb565b610f10565b6001905092915050565b600660009054906101000a900473ffffffffffffffffffffffffffffffffffffffff1681565b6000600160008373ffffffffffffffffffffffffffffffffffffffff1673ffffffffffffffffffffffffffffffffffffffff168152602001908152602001600020549050919050565b610855610f08565b73ffffffffffffffffffffffffffffffffffffffff16610873610b23565b73ffffffffffffffffffffffffffffffffffffffff16146108c9576040517f08c379a00000000000000000000000000000000000000000000000000000000081526004016108c090611d79565b60405180910390fd5b6108d360006114c0565b565b600860009054906101000a900473ffffffffffffffffffffffffffffffffffffffff1673ffffffffffffffffffffffffffffffffffffffff16636352211e836040518263ffffffff1660e01b81526004016109309190611e79565b60206040518083038186803b15801561094857600080fd5b505afa15801561095c573d6000803e3d6000fd5b505050506040513d601f19601f8201168201806040525081019061098091906115f6565b73ffffffffffffffffffffffffffffffffffffffff1661099e610f08565b73ffffffffffffffffffffffffffffffffffffffff16146109f4576040517f08c379a00000000000000000000000000000000000000000000000000000000081526004016109eb90611db9565b60405180910390fd5b610258821115610a39576040517f08c379a0000000000000000000000000000000000000000000000000000000008152600401610a3090611dd9565b60405180910390fd5b60001515600c60008373ffffffffffffffffffffffffffffffffffffffff1673ffffffffffffffffffffffffffffffffffffffff16815260200190815260200160002060009054906101000a900460ff16151514610acc576040517f08c379a0000000000000000000000000000000000000000000000000000000008152600401610ac390611d99565b60405180910390fd5b610ad682826105af565b5050565b6000600b60008373ffffffffffffffffffffffffffffffffffffffff1673ffffffffffffffffffffffffffffffffffffffff168152602001908152602001600020549050919050565b60008060009054906101000a900473ffffffffffffffffffffffffffffffffffffffff16905090565b606060058054610b5b90611ff1565b80601f0160208091040260200160405190810160405280929190818152602001828054610b8790611ff1565b8015610bd45780601f10610ba957610100808354040283529160200191610bd4565b820191906000526020600020905b815481529060010190602001808311610bb757829003601f168201915b5050505050905090565b60008060026000610bed610f08565b73ffffffffffffffffffffffffffffffffffffffff1673ffffffffffffffffffffffffffffffffffffffff16815260200190815260200160002060008573ffffffffffffffffffffffffffffffffffffffff1673ffffffffffffffffffffffffffffffffffffffff16815260200190815260200160002054905082811015610caa576040517f08c379a0000000000000000000000000000000000000000000000000000000008152600401610ca190611e39565b60405180910390fd5b610cbe610cb5610f08565b85858403610f10565b600191505092915050565b6000610cdd610cd6610f08565b848461123c565b6001905092915050565b60095481565b6000600260008473ffffffffffffffffffffffffffffffffffffffff1673ffffffffffffffffffffffffffffffffffffffff16815260200190815260200160002060008373ffffffffffffffffffffffffffffffffffffffff1673ffffffffffffffffffffffffffffffffffffffff16815260200190815260200160002054905092915050565b6000600c60008373ffffffffffffffffffffffffffffffffffffffff1673ffffffffffffffffffffffffffffffffffffffff16815260200190815260200160002060009054906101000a900460ff169050919050565b600c6020528060005260406000206000915054906101000a900460ff1681565b610df2610f08565b73ffffffffffffffffffffffffffffffffffffffff16610e10610b23565b73ffffffffffffffffffffffffffffffffffffffff1614610e66576040517f08c379a0000000000000000000000000000000000000000000000000000000008152600401610e5d90611d79565b60405180910390fd5b600073ffffffffffffffffffffffffffffffffffffffff168173ffffffffffffffffffffffffffffffffffffffff161415610ed6576040517f08c379a0000000000000000000000000000000000000000000000000000000008152600401610ecd90611cf9565b60405180910390fd5b610edf816114c0565b50565b600860009054906101000a900473ffffffffffffffffffffffffffffffffffffffff1681565b600033905090565b600073ffffffffffffffffffffffffffffffffffffffff168373ffffffffffffffffffffffffffffffffffffffff161415610f80576040517f08c379a0000000000000000000000000000000000000000000000000000000008152600401610f7790611e19565b60405180910390fd5b600073ffffffffffffffffffffffffffffffffffffffff168273ffffffffffffffffffffffffffffffffffffffff161415610ff0576040517f08c379a0000000000000000000000000000000000000000000000000000000008152600401610fe790611d19565b60405180910390fd5b80600260008573ffffffffffffffffffffffffffffffffffffffff1673ffffffffffffffffffffffffffffffffffffffff16815260200190815260200160002060008473ffffffffffffffffffffffffffffffffffffffff1673ffffffffffffffffffffffffffffffffffffffff168152602001908152602001600020819055508173ffffffffffffffffffffffffffffffffffffffff168373ffffffffffffffffffffffffffffffffffffffff167f8c5be1e5ebec7d5bd14f71427d1e84f3dd0314c0f7b2291e5b200ac8c7c3b925836040516110ce9190611e79565b60405180910390a3505050565b600073ffffffffffffffffffffffffffffffffffffffff168273ffffffffffffffffffffffffffffffffffffffff16141561114b576040517f08c379a000000000000000000000000000000000000000000000000000000000815260040161114290611e59565b60405180910390fd5b61115760008383611584565b80600360008282546111699190611ecb565b9250508190555080600160008473ffffffffffffffffffffffffffffffffffffffff1673ffffffffffffffffffffffffffffffffffffffff16815260200190815260200160002060008282546111bf9190611ecb565b925050819055508173ffffffffffffffffffffffffffffffffffffffff16600073ffffffffffffffffffffffffffffffffffffffff167fddf252ad1be2c89b69c2b068fc378daa952ba7f163c4a11628f55a4df523b3ef836040516112249190611e79565b60405180910390a361123860008383611589565b5050565b600073ffffffffffffffffffffffffffffffffffffffff168373ffffffffffffffffffffffffffffffffffffffff1614156112ac576040517f08c379a00000000000000000000000000000000000000000000000000000000081526004016112a390611df9565b60405180910390fd5b600073ffffffffffffffffffffffffffffffffffffffff168273ffffffffffffffffffffffffffffffffffffffff16141561131c576040517f08c379a000000000000000000000000000000000000000000000000000000000815260040161131390611cd9565b60405180910390fd5b611327838383611584565b6000600160008573ffffffffffffffffffffffffffffffffffffffff1673ffffffffffffffffffffffffffffffffffffffff168152602001908152602001600020549050818110156113ae576040517f08c379a00000000000000000000000000000000000000000000000000000000081526004016113a590611d39565b60405180910390fd5b818103600160008673ffffffffffffffffffffffffffffffffffffffff1673ffffffffffffffffffffffffffffffffffffffff1681526020019081526020016000208190555081600160008573ffffffffffffffffffffffffffffffffffffffff1673ffffffffffffffffffffffffffffffffffffffff16815260200190815260200160002060008282546114439190611ecb565b925050819055508273ffffffffffffffffffffffffffffffffffffffff168473ffffffffffffffffffffffffffffffffffffffff167fddf252ad1be2c89b69c2b068fc378daa952ba7f163c4a11628f55a4df523b3ef846040516114a79190611e79565b60405180910390a36114ba848484611589565b50505050565b60008060009054906101000a900473ffffffffffffffffffffffffffffffffffffffff169050816000806101000a81548173ffffffffffffffffffffffffffffffffffffffff021916908373ffffffffffffffffffffffffffffffffffffffff1602179055508173ffffffffffffffffffffffffffffffffffffffff168173ffffffffffffffffffffffffffffffffffffffff167f8be0079c531659141344cd1fd0a4f28419497f9722a3daafe3b4186f6b6457e060405160405180910390a35050565b505050565b505050565b60008135905061159d81612092565b92915050565b6000815190506115b281612092565b92915050565b6000813590506115c7816120a9565b92915050565b6000602082840312156115df57600080fd5b60006115ed8482850161158e565b91505092915050565b60006020828403121561160857600080fd5b6000611616848285016115a3565b91505092915050565b6000806040838503121561163257600080fd5b60006116408582860161158e565b92505060206116518582860161158e565b9150509250929050565b60008060006060848603121561167057600080fd5b600061167e8682870161158e565b935050602061168f8682870161158e565b92505060406116a0868287016115b8565b9150509250925092565b600080604083850312156116bd57600080fd5b60006116cb8582860161158e565b92505060206116dc858286016115b8565b9150509250929050565b600080604083850312156116f957600080fd5b6000611707858286016115b8565b92505060206117188582860161158e565b9150509250929050565b61172b81611f21565b82525050565b61173a81611f33565b82525050565b61174981611f76565b82525050565b61175881611f9a565b82525050565b600061176982611eaf565b6117738185611eba565b9350611783818560208601611fbe565b61178c81612081565b840191505092915050565b60006117a4602383611eba565b91507f45524332303a207472616e7366657220746f20746865207a65726f206164647260008301527f65737300000000000000000000000000000000000000000000000000000000006020830152604082019050919050565b600061180a602683611eba565b91507f4f776e61626c653a206e6577206f776e657220697320746865207a65726f206160008301527f64647265737300000000000000000000000000000000000000000000000000006020830152604082019050919050565b6000611870602283611eba565b91507f45524332303a20617070726f766520746f20746865207a65726f20616464726560008301527f73730000000000000000000000000000000000000000000000000000000000006020830152604082019050919050565b60006118d6602683611eba565b91507f45524332303a207472616e7366657220616d6f756e742065786365656473206260008301527f616c616e636500000000000000000000000000000000000000000000000000006020830152604082019050919050565b600061193c602883611eba565b91507f45524332303a207472616e7366657220616d6f756e742065786365656473206160008301527f6c6c6f77616e63650000000000000000000000000000000000000000000000006020830152604082019050919050565b60006119a2602083611eba565b91507f4f776e61626c653a2063616c6c6572206973206e6f7420746865206f776e65726000830152602082019050919050565b60006119e2601883611eba565b91507f43616e206f6e6c7920636c61696d20676f6c64206f6e636500000000000000006000830152602082019050919050565b6000611a22602283611eba565b91507f4d757374206f776e205a4c6f6f7420746f6b656e20746f20636c61696d20676f60008301527f6c640000000000000000000000000000000000000000000000000000000000006020830152604082019050919050565b6000611a88601083611eba565b91507f496e76616c696420746f6b656e204944000000000000000000000000000000006000830152602082019050919050565b6000611ac8602583611eba565b91507f45524332303a207472616e736665722066726f6d20746865207a65726f20616460008301527f64726573730000000000000000000000000000000000000000000000000000006020830152604082019050919050565b6000611b2e602483611eba565b91507f45524332303a20617070726f76652066726f6d20746865207a65726f2061646460008301527f72657373000000000000000000000000000000000000000000000000000000006020830152604082019050919050565b6000611b94602583611eba565b91507f45524332303a2064656372656173656420616c6c6f77616e63652062656c6f7760008301527f207a65726f0000000000000000000000000000000000000000000000000000006020830152604082019050919050565b6000611bfa601f83611eba565b91507f45524332303a206d696e7420746f20746865207a65726f2061646472657373006000830152602082019050919050565b611c3681611f5f565b82525050565b611c4581611f69565b82525050565b6000602082019050611c606000830184611722565b92915050565b6000602082019050611c7b6000830184611731565b92915050565b6000602082019050611c966000830184611740565b92915050565b6000602082019050611cb1600083018461174f565b92915050565b60006020820190508181036000830152611cd1818461175e565b905092915050565b60006020820190508181036000830152611cf281611797565b9050919050565b60006020820190508181036000830152611d12816117fd565b9050919050565b60006020820190508181036000830152611d3281611863565b9050919050565b60006020820190508181036000830152611d52816118c9565b9050919050565b60006020820190508181036000830152611d728161192f565b9050919050565b60006020820190508181036000830152611d9281611995565b9050919050565b60006020820190508181036000830152611db2816119d5565b9050919050565b60006020820190508181036000830152611dd281611a15565b9050919050565b60006020820190508181036000830152611df281611a7b565b9050919050565b60006020820190508181036000830152611e1281611abb565b9050919050565b60006020820190508181036000830152611e3281611b21565b9050919050565b60006020820190508181036000830152611e5281611b87565b9050919050565b60006020820190508181036000830152611e7281611bed565b9050919050565b6000602082019050611e8e6000830184611c2d565b92915050565b6000602082019050611ea96000830184611c3c565b92915050565b600081519050919050565b600082825260208201905092915050565b6000611ed682611f5f565b9150611ee183611f5f565b9250827fffffffffffffffffffffffffffffffffffffffffffffffffffffffffffffffff03821115611f1657611f15612023565b5b828201905092915050565b6000611f2c82611f3f565b9050919050565b60008115159050919050565b600073ffffffffffffffffffffffffffffffffffffffff82169050919050565b6000819050919050565b600060ff82169050919050565b6000611f8182611f88565b9050919050565b6000611f9382611f3f565b9050919050565b6000611fa582611fac565b9050919050565b6000611fb782611f3f565b9050919050565b60005b83811015611fdc578082015181840152602081019050611fc1565b83811115611feb576000848401525b50505050565b6000600282049050600182168061200957607f821691505b6020821081141561201d5761201c612052565b5b50919050565b7f4e487b7100000000000000000000000000000000000000000000000000000000600052601160045260246000fd5b7f4e487b7100000000000000000000000000000000000000000000000000000000600052602260045260246000fd5b6000601f19601f8301169050919050565b61209b81611f21565b81146120a657600080fd5b50565b6120b281611f5f565b81146120bd57600080fd5b5056fea2646970667358221220b5f9f585b98c5ce5f0e217a5ce3789ac682d4be1d20567a82f1bab2d7d2b5de364736f6c63430008000033",
  "linkReferences": {},
  "deployedLinkReferences": {}
}