{
  "_format": "hh-sol-artifact-1",
  "contractName": "ZGold",
  "sourceName": "contracts/ZGold.sol",
  "abi": [
    {
      "inputs": [
        {
          "internalType": "address",
          "name": "_ZLootContractAddress",
          "type": "address"
        }
      ],
      "stateMutability": "nonpayable",
      "type": "constructor"
    },
    {
      "anonymous": false,
      "inputs": [
        {
          "indexed": true,
          "internalType": "address",
          "name": "owner",
          "type": "address"
        },
        {
          "indexed": true,
          "internalType": "address",
          "name": "spender",
          "type": "address"
        },
        {
          "indexed": false,
          "internalType": "uint256",
          "name": "value",
          "type": "uint256"
        }
      ],
      "name": "Approval",
      "type": "event"
    },
    {
      "anonymous": false,
      "inputs": [
        {
          "indexed": false,
          "internalType": "uint256",
          "name": "tokenId",
          "type": "uint256"
        },
        {
          "indexed": false,
          "internalType": "address",
          "name": "tokenOwner",
          "type": "address"
        }
      ],
      "name": "GoldClaimed",
      "type": "event"
    },
    {
      "anonymous": false,
      "inputs": [
        {
          "indexed": true,
          "internalType": "address",
          "name": "previousOwner",
          "type": "address"
        },
        {
          "indexed": true,
          "internalType": "address",
          "name": "newOwner",
          "type": "address"
        }
      ],
      "name": "OwnershipTransferred",
      "type": "event"
    },
    {
      "anonymous": false,
      "inputs": [
        {
          "indexed": true,
          "internalType": "address",
          "name": "from",
          "type": "address"
        },
        {
          "indexed": true,
          "internalType": "address",
          "name": "to",
          "type": "address"
        },
        {
          "indexed": false,
          "internalType": "uint256",
          "name": "value",
          "type": "uint256"
        }
      ],
      "name": "Transfer",
      "type": "event"
    },
    {
      "inputs": [],
      "name": "Ownership",
      "outputs": [
        {
          "internalType": "contract IERC721Enumerable",
          "name": "",
          "type": "address"
        }
      ],
      "stateMutability": "view",
      "type": "function"
    },
    {
      "inputs": [],
      "name": "ZGoldPerToken",
      "outputs": [
        {
          "internalType": "uint256",
          "name": "",
          "type": "uint256"
        }
      ],
      "stateMutability": "view",
      "type": "function"
    },
    {
      "inputs": [],
      "name": "ZLootContract",
      "outputs": [
        {
          "internalType": "contract IZLoot",
          "name": "",
          "type": "address"
        }
      ],
      "stateMutability": "view",
      "type": "function"
    },
    {
      "inputs": [],
      "name": "ZLootContractAddress",
      "outputs": [
        {
          "internalType": "address",
          "name": "",
          "type": "address"
        }
      ],
      "stateMutability": "view",
      "type": "function"
    },
    {
      "inputs": [
        {
          "internalType": "address",
          "name": "owner",
          "type": "address"
        },
        {
          "internalType": "address",
          "name": "spender",
          "type": "address"
        }
      ],
      "name": "allowance",
      "outputs": [
        {
          "internalType": "uint256",
          "name": "",
          "type": "uint256"
        }
      ],
      "stateMutability": "view",
      "type": "function"
    },
    {
      "inputs": [
        {
          "internalType": "address",
          "name": "spender",
          "type": "address"
        },
        {
          "internalType": "uint256",
          "name": "amount",
          "type": "uint256"
        }
      ],
      "name": "approve",
      "outputs": [
        {
          "internalType": "bool",
          "name": "",
          "type": "bool"
        }
      ],
      "stateMutability": "nonpayable",
      "type": "function"
    },
    {
      "inputs": [
        {
          "internalType": "address",
          "name": "account",
          "type": "address"
        }
      ],
      "name": "balanceOf",
      "outputs": [
        {
          "internalType": "uint256",
          "name": "",
          "type": "uint256"
        }
      ],
      "stateMutability": "view",
      "type": "function"
    },
    {
      "inputs": [
        {
          "internalType": "uint256",
          "name": "tokenId",
          "type": "uint256"
        },
        {
          "internalType": "address",
          "name": "tokenOwner",
          "type": "address"
        }
      ],
      "name": "claimGold",
      "outputs": [],
      "stateMutability": "nonpayable",
      "type": "function"
    },
    {
      "inputs": [],
      "name": "decimals",
      "outputs": [
        {
          "internalType": "uint8",
          "name": "",
          "type": "uint8"
        }
      ],
      "stateMutability": "view",
      "type": "function"
    },
    {
      "inputs": [
        {
          "internalType": "address",
          "name": "spender",
          "type": "address"
        },
        {
          "internalType": "uint256",
          "name": "subtractedValue",
          "type": "uint256"
        }
      ],
      "name": "decreaseAllowance",
      "outputs": [
        {
          "internalType": "bool",
          "name": "",
          "type": "bool"
        }
      ],
      "stateMutability": "nonpayable",
      "type": "function"
    },
    {
      "inputs": [
        {
          "internalType": "address",
          "name": "tokenOwner",
          "type": "address"
        }
      ],
      "name": "getZGLDBalance",
      "outputs": [
        {
          "internalType": "uint256",
          "name": "",
          "type": "uint256"
        }
      ],
      "stateMutability": "view",
      "type": "function"
    },
    {
      "inputs": [
        {
          "internalType": "address",
          "name": "spender",
          "type": "address"
        },
        {
          "internalType": "uint256",
          "name": "addedValue",
          "type": "uint256"
        }
      ],
      "name": "increaseAllowance",
      "outputs": [
        {
          "internalType": "bool",
          "name": "",
          "type": "bool"
        }
      ],
      "stateMutability": "nonpayable",
      "type": "function"
    },
    {
      "inputs": [
        {
          "internalType": "address",
          "name": "tokenOwner",
          "type": "address"
        }
      ],
      "name": "isZGLDClaimedByAddress",
      "outputs": [
        {
          "internalType": "bool",
          "name": "",
          "type": "bool"
        }
      ],
      "stateMutability": "view",
      "type": "function"
    },
    {
      "inputs": [
        {
          "internalType": "uint256",
          "name": "tokenId",
          "type": "uint256"
        }
      ],
      "name": "isZGLDClaimedByNFT",
      "outputs": [
        {
          "internalType": "bool",
          "name": "",
          "type": "bool"
        }
      ],
      "stateMutability": "view",
      "type": "function"
    },
    {
      "inputs": [],
      "name": "name",
      "outputs": [
        {
          "internalType": "string",
          "name": "",
          "type": "string"
        }
      ],
      "stateMutability": "view",
      "type": "function"
    },
    {
      "inputs": [],
      "name": "owner",
      "outputs": [
        {
          "internalType": "address",
          "name": "",
          "type": "address"
        }
      ],
      "stateMutability": "view",
      "type": "function"
    },
    {
      "inputs": [],
      "name": "renounceOwnership",
      "outputs": [],
      "stateMutability": "nonpayable",
      "type": "function"
    },
    {
      "inputs": [],
      "name": "symbol",
      "outputs": [
        {
          "internalType": "string",
          "name": "",
          "type": "string"
        }
      ],
      "stateMutability": "view",
      "type": "function"
    },
    {
      "inputs": [],
      "name": "totalSupply",
      "outputs": [
        {
          "internalType": "uint256",
          "name": "",
          "type": "uint256"
        }
      ],
      "stateMutability": "view",
      "type": "function"
    },
    {
      "inputs": [
        {
          "internalType": "address",
          "name": "recipient",
          "type": "address"
        },
        {
          "internalType": "uint256",
          "name": "amount",
          "type": "uint256"
        }
      ],
      "name": "transfer",
      "outputs": [
        {
          "internalType": "bool",
          "name": "",
          "type": "bool"
        }
      ],
      "stateMutability": "nonpayable",
      "type": "function"
    },
    {
      "inputs": [
        {
          "internalType": "address",
          "name": "sender",
          "type": "address"
        },
        {
          "internalType": "address",
          "name": "recipient",
          "type": "address"
        },
        {
          "internalType": "uint256",
          "name": "amount",
          "type": "uint256"
        }
      ],
      "name": "transferFrom",
      "outputs": [
        {
          "internalType": "bool",
          "name": "",
          "type": "bool"
        }
      ],
      "stateMutability": "nonpayable",
      "type": "function"
    },
    {
      "inputs": [
        {
          "internalType": "address",
          "name": "newOwner",
          "type": "address"
        }
      ],
      "name": "transferOwnership",
      "outputs": [],
      "stateMutability": "nonpayable",
      "type": "function"
    },
    {
      "inputs": [
        {
          "internalType": "address",
          "name": "",
          "type": "address"
        }
      ],
      "name": "zGoldBalance",
      "outputs": [
        {
          "internalType": "uint256",
          "name": "",
          "type": "uint256"
        }
      ],
      "stateMutability": "view",
      "type": "function"
    },
    {
      "inputs": [
        {
          "internalType": "address",
          "name": "",
          "type": "address"
        }
      ],
      "name": "zGoldClaimedByAddress",
      "outputs": [
        {
          "internalType": "bool",
          "name": "",
          "type": "bool"
        }
      ],
      "stateMutability": "view",
      "type": "function"
    },
    {
      "inputs": [
        {
          "internalType": "uint256",
          "name": "",
          "type": "uint256"
        }
      ],
      "name": "zGoldClaimedByNFT",
      "outputs": [
        {
          "internalType": "bool",
          "name": "",
          "type": "bool"
        }
      ],
      "stateMutability": "view",
      "type": "function"
    }
  ],
  "bytecode": "0x60806040526103e8600955620927c0600a553480156200001e57600080fd5b506040516200275a3803806200275a8339818101604052810190620000449190620003a5565b6040518060400160405280600581526020017f5a476f6c640000000000000000000000000000000000000000000000000000008152506040518060400160405280600481526020017f5a474c4400000000000000000000000000000000000000000000000000000000815250620000d0620000c46200021260201b60201c565b6200021a60201b60201c565b8160049080519060200190620000e8929190620002de565b50806005908051906020019062000101929190620002de565b50505080600660006101000a81548173ffffffffffffffffffffffffffffffffffffffff021916908373ffffffffffffffffffffffffffffffffffffffff160217905550600660009054906101000a900473ffffffffffffffffffffffffffffffffffffffff16600760006101000a81548173ffffffffffffffffffffffffffffffffffffffff021916908373ffffffffffffffffffffffffffffffffffffffff160217905550600660009054906101000a900473ffffffffffffffffffffffffffffffffffffffff16600860006101000a81548173ffffffffffffffffffffffffffffffffffffffff021916908373ffffffffffffffffffffffffffffffffffffffff1602179055505062000484565b600033905090565b60008060009054906101000a900473ffffffffffffffffffffffffffffffffffffffff169050816000806101000a81548173ffffffffffffffffffffffffffffffffffffffff021916908373ffffffffffffffffffffffffffffffffffffffff1602179055508173ffffffffffffffffffffffffffffffffffffffff168173ffffffffffffffffffffffffffffffffffffffff167f8be0079c531659141344cd1fd0a4f28419497f9722a3daafe3b4186f6b6457e060405160405180910390a35050565b828054620002ec9062000405565b90600052602060002090601f0160209004810192826200031057600085556200035c565b82601f106200032b57805160ff19168380011785556200035c565b828001600101855582156200035c579182015b828111156200035b5782518255916020019190600101906200033e565b5b5090506200036b91906200036f565b5090565b5b808211156200038a57600081600090555060010162000370565b5090565b6000815190506200039f816200046a565b92915050565b600060208284031215620003b857600080fd5b6000620003c8848285016200038e565b91505092915050565b6000620003de82620003e5565b9050919050565b600073ffffffffffffffffffffffffffffffffffffffff82169050919050565b600060028204905060018216806200041e57607f821691505b602082108114156200043557620004346200043b565b5b50919050565b7f4e487b7100000000000000000000000000000000000000000000000000000000600052602260045260246000fd5b6200047581620003d1565b81146200048157600080fd5b50565b6122c680620004946000396000f3fe608060405234801561001057600080fd5b50600436106101735760003560e01c8063715018a6116100de578063a457c2d711610097578063c8d3a7b511610071578063c8d3a7b5146104b0578063dd62ed3e146104ce578063f2fde38b146104fe578063fbdd78521461051a57610173565b8063a457c2d714610420578063a9059cbb14610450578063be26b2191461048057610173565b8063715018a61461035e578063747b4ba714610368578063817d3cc01461039857806381a94ecf146103b45780638da5cb5b146103e457806395d89b411461040257610173565b8063313ce56711610130578063313ce5671461026257806332f781bc1461028057806339509351146102b05780634c50dd18146102e057806363aa06b0146102fe57806370a082311461032e57610173565b806306fdde0314610178578063095ea7b314610196578063126220e5146101c657806318160ddd146101e457806323b872dd146102025780632af0581714610232575b600080fd5b610180610538565b60405161018d9190611e5e565b60405180910390f35b6101b060048036038101906101ab9190611828565b6105ca565b6040516101bd9190611e0d565b60405180910390f35b6101ce6105e8565b6040516101db9190611e43565b60405180910390f35b6101ec61060e565b6040516101f99190612020565b60405180910390f35b61021c600480360381019061021791906117d9565b610618565b6040516102299190611e0d565b60405180910390f35b61024c60048036038101906102479190611864565b610710565b6040516102599190611e0d565b60405180910390f35b61026a610730565b6040516102779190612064565b60405180910390f35b61029a6004803603810190610295919061174b565b610739565b6040516102a79190612020565b60405180910390f35b6102ca60048036038101906102c59190611828565b610751565b6040516102d79190611e0d565b60405180910390f35b6102e86107fd565b6040516102f59190611df2565b60405180910390f35b6103186004803603810190610313919061174b565b610823565b6040516103259190611e0d565b60405180910390f35b6103486004803603810190610343919061174b565b610879565b6040516103559190612020565b60405180910390f35b6103666108c2565b005b610382600480360381019061037d919061174b565b61094a565b60405161038f9190611e0d565b60405180910390f35b6103b260048036038101906103ad919061188d565b61096a565b005b6103ce60048036038101906103c9919061174b565b610bca565b6040516103db9190612020565b60405180910390f35b6103ec610c13565b6040516103f99190611df2565b60405180910390f35b61040a610c3c565b6040516104179190611e5e565b60405180910390f35b61043a60048036038101906104359190611828565b610cce565b6040516104479190611e0d565b60405180910390f35b61046a60048036038101906104659190611828565b610db9565b6040516104779190611e0d565b60405180910390f35b61049a60048036038101906104959190611864565b610dd7565b6040516104a79190611e0d565b60405180910390f35b6104b8610e01565b6040516104c59190612020565b60405180910390f35b6104e860048036038101906104e3919061179d565b610e07565b6040516104f59190612020565b60405180910390f35b6105186004803603810190610513919061174b565b610e8e565b005b610522610f86565b60405161052f9190611e28565b60405180910390f35b606060048054610547906121c1565b80601f0160208091040260200160405190810160405280929190818152602001828054610573906121c1565b80156105c05780601f10610595576101008083540402835291602001916105c0565b820191906000526020600020905b8154815290600101906020018083116105a357829003601f168201915b5050505050905090565b60006105de6105d7610fac565b8484610fb4565b6001905092915050565b600760009054906101000a900473ffffffffffffffffffffffffffffffffffffffff1681565b6000600a54905090565b600061062584848461117f565b6000600260008673ffffffffffffffffffffffffffffffffffffffff1673ffffffffffffffffffffffffffffffffffffffff1681526020019081526020016000206000610670610fac565b73ffffffffffffffffffffffffffffffffffffffff1673ffffffffffffffffffffffffffffffffffffffff168152602001908152602001600020549050828110156106f0576040517f08c379a00000000000000000000000000000000000000000000000000000000081526004016106e790611f20565b60405180910390fd5b610704856106fc610fac565b858403610fb4565b60019150509392505050565b600d6020528060005260406000206000915054906101000a900460ff1681565b60006012905090565b600b6020528060005260406000206000915090505481565b60006107f361075e610fac565b84846002600061076c610fac565b73ffffffffffffffffffffffffffffffffffffffff1673ffffffffffffffffffffffffffffffffffffffff16815260200190815260200160002060008873ffffffffffffffffffffffffffffffffffffffff1673ffffffffffffffffffffffffffffffffffffffff168152602001908152602001600020546107ee919061209b565b610fb4565b6001905092915050565b600660009054906101000a900473ffffffffffffffffffffffffffffffffffffffff1681565b6000600c60008373ffffffffffffffffffffffffffffffffffffffff1673ffffffffffffffffffffffffffffffffffffffff16815260200190815260200160002060009054906101000a900460ff169050919050565b6000600160008373ffffffffffffffffffffffffffffffffffffffff1673ffffffffffffffffffffffffffffffffffffffff168152602001908152602001600020549050919050565b6108ca610fac565b73ffffffffffffffffffffffffffffffffffffffff166108e8610c13565b73ffffffffffffffffffffffffffffffffffffffff161461093e576040517f08c379a000000000000000000000000000000000000000000000000000000000815260040161093590611f40565b60405180910390fd5b6109486000611403565b565b600c6020528060005260406000206000915054906101000a900460ff1681565b600860009054906101000a900473ffffffffffffffffffffffffffffffffffffffff1673ffffffffffffffffffffffffffffffffffffffff16636352211e836040518263ffffffff1660e01b81526004016109c59190612020565b60206040518083038186803b1580156109dd57600080fd5b505afa1580156109f1573d6000803e3d6000fd5b505050506040513d601f19601f82011682018060405250810190610a159190611774565b73ffffffffffffffffffffffffffffffffffffffff16610a33610fac565b73ffffffffffffffffffffffffffffffffffffffff1614610a89576040517f08c379a0000000000000000000000000000000000000000000000000000000008152600401610a8090611f80565b60405180910390fd5b60001515600c60008373ffffffffffffffffffffffffffffffffffffffff1673ffffffffffffffffffffffffffffffffffffffff16815260200190815260200160002060009054906101000a900460ff16151514610b1c576040517f08c379a0000000000000000000000000000000000000000000000000000000008152600401610b1390611f60565b60405180910390fd5b60001515600d600084815260200190815260200160002060009054906101000a900460ff16151514610b83576040517f08c379a0000000000000000000000000000000000000000000000000000000008152600401610b7a90611f00565b60405180910390fd5b610b8d82826114c7565b7f3499c99f0fa891d018ecaac1032e69dd7f8f9dfd4aa2f48cbcaa4233f2d8638b8282604051610bbe92919061203b565b60405180910390a15050565b6000600b60008373ffffffffffffffffffffffffffffffffffffffff1673ffffffffffffffffffffffffffffffffffffffff168152602001908152602001600020549050919050565b60008060009054906101000a900473ffffffffffffffffffffffffffffffffffffffff16905090565b606060058054610c4b906121c1565b80601f0160208091040260200160405190810160405280929190818152602001828054610c77906121c1565b8015610cc45780601f10610c9957610100808354040283529160200191610cc4565b820191906000526020600020905b815481529060010190602001808311610ca757829003601f168201915b5050505050905090565b60008060026000610cdd610fac565b73ffffffffffffffffffffffffffffffffffffffff1673ffffffffffffffffffffffffffffffffffffffff16815260200190815260200160002060008573ffffffffffffffffffffffffffffffffffffffff1673ffffffffffffffffffffffffffffffffffffffff16815260200190815260200160002054905082811015610d9a576040517f08c379a0000000000000000000000000000000000000000000000000000000008152600401610d9190611fe0565b60405180910390fd5b610dae610da5610fac565b85858403610fb4565b600191505092915050565b6000610dcd610dc6610fac565b848461117f565b6001905092915050565b6000600d600083815260200190815260200160002060009054906101000a900460ff169050919050565b60095481565b6000600260008473ffffffffffffffffffffffffffffffffffffffff1673ffffffffffffffffffffffffffffffffffffffff16815260200190815260200160002060008373ffffffffffffffffffffffffffffffffffffffff1673ffffffffffffffffffffffffffffffffffffffff16815260200190815260200160002054905092915050565b610e96610fac565b73ffffffffffffffffffffffffffffffffffffffff16610eb4610c13565b73ffffffffffffffffffffffffffffffffffffffff1614610f0a576040517f08c379a0000000000000000000000000000000000000000000000000000000008152600401610f0190611f40565b60405180910390fd5b600073ffffffffffffffffffffffffffffffffffffffff168173ffffffffffffffffffffffffffffffffffffffff161415610f7a576040517f08c379a0000000000000000000000000000000000000000000000000000000008152600401610f7190611ea0565b60405180910390fd5b610f8381611403565b50565b600860009054906101000a900473ffffffffffffffffffffffffffffffffffffffff1681565b600033905090565b600073ffffffffffffffffffffffffffffffffffffffff168373ffffffffffffffffffffffffffffffffffffffff161415611024576040517f08c379a000000000000000000000000000000000000000000000000000000000815260040161101b90611fc0565b60405180910390fd5b600073ffffffffffffffffffffffffffffffffffffffff168273ffffffffffffffffffffffffffffffffffffffff161415611094576040517f08c379a000000000000000000000000000000000000000000000000000000000815260040161108b90611ec0565b60405180910390fd5b80600260008573ffffffffffffffffffffffffffffffffffffffff1673ffffffffffffffffffffffffffffffffffffffff16815260200190815260200160002060008473ffffffffffffffffffffffffffffffffffffffff1673ffffffffffffffffffffffffffffffffffffffff168152602001908152602001600020819055508173ffffffffffffffffffffffffffffffffffffffff168373ffffffffffffffffffffffffffffffffffffffff167f8c5be1e5ebec7d5bd14f71427d1e84f3dd0314c0f7b2291e5b200ac8c7c3b925836040516111729190612020565b60405180910390a3505050565b600073ffffffffffffffffffffffffffffffffffffffff168373ffffffffffffffffffffffffffffffffffffffff1614156111ef576040517f08c379a00000000000000000000000000000000000000000000000000000000081526004016111e690611fa0565b60405180910390fd5b600073ffffffffffffffffffffffffffffffffffffffff168273ffffffffffffffffffffffffffffffffffffffff16141561125f576040517f08c379a000000000000000000000000000000000000000000000000000000000815260040161125690611e80565b60405180910390fd5b61126a8383836115a1565b6000600160008573ffffffffffffffffffffffffffffffffffffffff1673ffffffffffffffffffffffffffffffffffffffff168152602001908152602001600020549050818110156112f1576040517f08c379a00000000000000000000000000000000000000000000000000000000081526004016112e890611ee0565b60405180910390fd5b818103600160008673ffffffffffffffffffffffffffffffffffffffff1673ffffffffffffffffffffffffffffffffffffffff1681526020019081526020016000208190555081600160008573ffffffffffffffffffffffffffffffffffffffff1673ffffffffffffffffffffffffffffffffffffffff1681526020019081526020016000206000828254611386919061209b565b925050819055508273ffffffffffffffffffffffffffffffffffffffff168473ffffffffffffffffffffffffffffffffffffffff167fddf252ad1be2c89b69c2b068fc378daa952ba7f163c4a11628f55a4df523b3ef846040516113ea9190612020565b60405180910390a36113fd8484846115a6565b50505050565b60008060009054906101000a900473ffffffffffffffffffffffffffffffffffffffff169050816000806101000a81548173ffffffffffffffffffffffffffffffffffffffff021916908373ffffffffffffffffffffffffffffffffffffffff1602179055508173ffffffffffffffffffffffffffffffffffffffff168173ffffffffffffffffffffffffffffffffffffffff167f8be0079c531659141344cd1fd0a4f28419497f9722a3daafe3b4186f6b6457e060405160405180910390a35050565b6001600c60008373ffffffffffffffffffffffffffffffffffffffff1673ffffffffffffffffffffffffffffffffffffffff16815260200190815260200160002060006101000a81548160ff0219169083151502179055506001600d600084815260200190815260200160002060006101000a81548160ff021916908315150217905550600954600b60008373ffffffffffffffffffffffffffffffffffffffff1673ffffffffffffffffffffffffffffffffffffffff1681526020019081526020016000208190555061159d816009546115ab565b5050565b505050565b505050565b600073ffffffffffffffffffffffffffffffffffffffff168273ffffffffffffffffffffffffffffffffffffffff16141561161b576040517f08c379a000000000000000000000000000000000000000000000000000000000815260040161161290612000565b60405180910390fd5b611627600083836115a1565b8060036000828254611639919061209b565b9250508190555080600160008473ffffffffffffffffffffffffffffffffffffffff1673ffffffffffffffffffffffffffffffffffffffff168152602001908152602001600020600082825461168f919061209b565b925050819055508173ffffffffffffffffffffffffffffffffffffffff16600073ffffffffffffffffffffffffffffffffffffffff167fddf252ad1be2c89b69c2b068fc378daa952ba7f163c4a11628f55a4df523b3ef836040516116f49190612020565b60405180910390a3611708600083836115a6565b5050565b60008135905061171b81612262565b92915050565b60008151905061173081612262565b92915050565b60008135905061174581612279565b92915050565b60006020828403121561175d57600080fd5b600061176b8482850161170c565b91505092915050565b60006020828403121561178657600080fd5b600061179484828501611721565b91505092915050565b600080604083850312156117b057600080fd5b60006117be8582860161170c565b92505060206117cf8582860161170c565b9150509250929050565b6000806000606084860312156117ee57600080fd5b60006117fc8682870161170c565b935050602061180d8682870161170c565b925050604061181e86828701611736565b9150509250925092565b6000806040838503121561183b57600080fd5b60006118498582860161170c565b925050602061185a85828601611736565b9150509250929050565b60006020828403121561187657600080fd5b600061188484828501611736565b91505092915050565b600080604083850312156118a057600080fd5b60006118ae85828601611736565b92505060206118bf8582860161170c565b9150509250929050565b6118d2816120f1565b82525050565b6118e181612103565b82525050565b6118f081612146565b82525050565b6118ff8161216a565b82525050565b60006119108261207f565b61191a818561208a565b935061192a81856020860161218e565b61193381612251565b840191505092915050565b600061194b60238361208a565b91507f45524332303a207472616e7366657220746f20746865207a65726f206164647260008301527f65737300000000000000000000000000000000000000000000000000000000006020830152604082019050919050565b60006119b160268361208a565b91507f4f776e61626c653a206e6577206f776e657220697320746865207a65726f206160008301527f64647265737300000000000000000000000000000000000000000000000000006020830152604082019050919050565b6000611a1760228361208a565b91507f45524332303a20617070726f766520746f20746865207a65726f20616464726560008301527f73730000000000000000000000000000000000000000000000000000000000006020830152604082019050919050565b6000611a7d60268361208a565b91507f45524332303a207472616e7366657220616d6f756e742065786365656473206260008301527f616c616e636500000000000000000000000000000000000000000000000000006020830152604082019050919050565b6000611ae360198361208a565b91507f2043616e206f6e6c7920636c61696d20676f6c64206f6e6365000000000000006000830152602082019050919050565b6000611b2360288361208a565b91507f45524332303a207472616e7366657220616d6f756e742065786365656473206160008301527f6c6c6f77616e63650000000000000000000000000000000000000000000000006020830152604082019050919050565b6000611b8960208361208a565b91507f4f776e61626c653a2063616c6c6572206973206e6f7420746865206f776e65726000830152602082019050919050565b6000611bc960188361208a565b91507f43616e206f6e6c7920636c61696d20676f6c64206f6e636500000000000000006000830152602082019050919050565b6000611c0960228361208a565b91507f4d757374206f776e205a4c6f6f7420746f6b656e20746f20636c61696d20676f60008301527f6c640000000000000000000000000000000000000000000000000000000000006020830152604082019050919050565b6000611c6f60258361208a565b91507f45524332303a207472616e736665722066726f6d20746865207a65726f20616460008301527f64726573730000000000000000000000000000000000000000000000000000006020830152604082019050919050565b6000611cd560248361208a565b91507f45524332303a20617070726f76652066726f6d20746865207a65726f2061646460008301527f72657373000000000000000000000000000000000000000000000000000000006020830152604082019050919050565b6000611d3b60258361208a565b91507f45524332303a2064656372656173656420616c6c6f77616e63652062656c6f7760008301527f207a65726f0000000000000000000000000000000000000000000000000000006020830152604082019050919050565b6000611da1601f8361208a565b91507f45524332303a206d696e7420746f20746865207a65726f2061646472657373006000830152602082019050919050565b611ddd8161212f565b82525050565b611dec81612139565b82525050565b6000602082019050611e0760008301846118c9565b92915050565b6000602082019050611e2260008301846118d8565b92915050565b6000602082019050611e3d60008301846118e7565b92915050565b6000602082019050611e5860008301846118f6565b92915050565b60006020820190508181036000830152611e788184611905565b905092915050565b60006020820190508181036000830152611e998161193e565b9050919050565b60006020820190508181036000830152611eb9816119a4565b9050919050565b60006020820190508181036000830152611ed981611a0a565b9050919050565b60006020820190508181036000830152611ef981611a70565b9050919050565b60006020820190508181036000830152611f1981611ad6565b9050919050565b60006020820190508181036000830152611f3981611b16565b9050919050565b60006020820190508181036000830152611f5981611b7c565b9050919050565b60006020820190508181036000830152611f7981611bbc565b9050919050565b60006020820190508181036000830152611f9981611bfc565b9050919050565b60006020820190508181036000830152611fb981611c62565b9050919050565b60006020820190508181036000830152611fd981611cc8565b9050919050565b60006020820190508181036000830152611ff981611d2e565b9050919050565b6000602082019050818103600083015261201981611d94565b9050919050565b60006020820190506120356000830184611dd4565b92915050565b60006040820190506120506000830185611dd4565b61205d60208301846118c9565b9392505050565b60006020820190506120796000830184611de3565b92915050565b600081519050919050565b600082825260208201905092915050565b60006120a68261212f565b91506120b18361212f565b9250827fffffffffffffffffffffffffffffffffffffffffffffffffffffffffffffffff038211156120e6576120e56121f3565b5b828201905092915050565b60006120fc8261210f565b9050919050565b60008115159050919050565b600073ffffffffffffffffffffffffffffffffffffffff82169050919050565b6000819050919050565b600060ff82169050919050565b600061215182612158565b9050919050565b60006121638261210f565b9050919050565b60006121758261217c565b9050919050565b60006121878261210f565b9050919050565b60005b838110156121ac578082015181840152602081019050612191565b838111156121bb576000848401525b50505050565b600060028204905060018216806121d957607f821691505b602082108114156121ed576121ec612222565b5b50919050565b7f4e487b7100000000000000000000000000000000000000000000000000000000600052601160045260246000fd5b7f4e487b7100000000000000000000000000000000000000000000000000000000600052602260045260246000fd5b6000601f19601f8301169050919050565b61226b816120f1565b811461227657600080fd5b50565b6122828161212f565b811461228d57600080fd5b5056fea264697066735822122070ac21d218796850e90082bcbccc4a16a3429fe5fc2ecdf6fb146de57e2258f164736f6c63430008000033",
  "linkReferences": {},
  "deployedLinkReferences": {}
}