{
  "_format": "hh-sol-artifact-1",
  "contractName": "ZGold",
  "sourceName": "contracts/ZGold.sol",
  "abi": [
    {
      "inputs": [],
      "stateMutability": "nonpayable",
      "type": "constructor"
    },
    {
      "anonymous": false,
      "inputs": [
        {
          "indexed": true,
          "internalType": "address",
          "name": "owner",
          "type": "address"
        },
        {
          "indexed": true,
          "internalType": "address",
          "name": "spender",
          "type": "address"
        },
        {
          "indexed": false,
          "internalType": "uint256",
          "name": "value",
          "type": "uint256"
        }
      ],
      "name": "Approval",
      "type": "event"
    },
    {
      "anonymous": false,
      "inputs": [
        {
          "indexed": true,
          "internalType": "address",
          "name": "previousOwner",
          "type": "address"
        },
        {
          "indexed": true,
          "internalType": "address",
          "name": "newOwner",
          "type": "address"
        }
      ],
      "name": "OwnershipTransferred",
      "type": "event"
    },
    {
      "anonymous": false,
      "inputs": [
        {
          "indexed": true,
          "internalType": "address",
          "name": "from",
          "type": "address"
        },
        {
          "indexed": true,
          "internalType": "address",
          "name": "to",
          "type": "address"
        },
        {
          "indexed": false,
          "internalType": "uint256",
          "name": "value",
          "type": "uint256"
        }
      ],
      "name": "Transfer",
      "type": "event"
    },
    {
      "inputs": [],
      "name": "Ownership",
      "outputs": [
        {
          "internalType": "contract IERC721Enumerable",
          "name": "",
          "type": "address"
        }
      ],
      "stateMutability": "view",
      "type": "function"
    },
    {
      "inputs": [],
      "name": "ZGoldPerToken",
      "outputs": [
        {
          "internalType": "uint256",
          "name": "",
          "type": "uint256"
        }
      ],
      "stateMutability": "view",
      "type": "function"
    },
    {
      "inputs": [],
      "name": "ZLootContract",
      "outputs": [
        {
          "internalType": "contract IZLoot",
          "name": "",
          "type": "address"
        }
      ],
      "stateMutability": "view",
      "type": "function"
    },
    {
      "inputs": [],
      "name": "ZLootContractAddress",
      "outputs": [
        {
          "internalType": "address",
          "name": "",
          "type": "address"
        }
      ],
      "stateMutability": "view",
      "type": "function"
    },
    {
      "inputs": [
        {
          "internalType": "address",
          "name": "owner",
          "type": "address"
        },
        {
          "internalType": "address",
          "name": "spender",
          "type": "address"
        }
      ],
      "name": "allowance",
      "outputs": [
        {
          "internalType": "uint256",
          "name": "",
          "type": "uint256"
        }
      ],
      "stateMutability": "view",
      "type": "function"
    },
    {
      "inputs": [
        {
          "internalType": "address",
          "name": "spender",
          "type": "address"
        },
        {
          "internalType": "uint256",
          "name": "amount",
          "type": "uint256"
        }
      ],
      "name": "approve",
      "outputs": [
        {
          "internalType": "bool",
          "name": "",
          "type": "bool"
        }
      ],
      "stateMutability": "nonpayable",
      "type": "function"
    },
    {
      "inputs": [
        {
          "internalType": "address",
          "name": "account",
          "type": "address"
        }
      ],
      "name": "balanceOf",
      "outputs": [
        {
          "internalType": "uint256",
          "name": "",
          "type": "uint256"
        }
      ],
      "stateMutability": "view",
      "type": "function"
    },
    {
      "inputs": [
        {
          "internalType": "uint256",
          "name": "tokenId",
          "type": "uint256"
        },
        {
          "internalType": "address",
          "name": "tokenOwner",
          "type": "address"
        }
      ],
      "name": "claimGold",
      "outputs": [],
      "stateMutability": "nonpayable",
      "type": "function"
    },
    {
      "inputs": [],
      "name": "decimals",
      "outputs": [
        {
          "internalType": "uint8",
          "name": "",
          "type": "uint8"
        }
      ],
      "stateMutability": "view",
      "type": "function"
    },
    {
      "inputs": [
        {
          "internalType": "address",
          "name": "spender",
          "type": "address"
        },
        {
          "internalType": "uint256",
          "name": "subtractedValue",
          "type": "uint256"
        }
      ],
      "name": "decreaseAllowance",
      "outputs": [
        {
          "internalType": "bool",
          "name": "",
          "type": "bool"
        }
      ],
      "stateMutability": "nonpayable",
      "type": "function"
    },
    {
      "inputs": [
        {
          "internalType": "address",
          "name": "tokenOwner",
          "type": "address"
        }
      ],
      "name": "getZGLDBalance",
      "outputs": [
        {
          "internalType": "uint256",
          "name": "",
          "type": "uint256"
        }
      ],
      "stateMutability": "view",
      "type": "function"
    },
    {
      "inputs": [
        {
          "internalType": "address",
          "name": "spender",
          "type": "address"
        },
        {
          "internalType": "uint256",
          "name": "addedValue",
          "type": "uint256"
        }
      ],
      "name": "increaseAllowance",
      "outputs": [
        {
          "internalType": "bool",
          "name": "",
          "type": "bool"
        }
      ],
      "stateMutability": "nonpayable",
      "type": "function"
    },
    {
      "inputs": [
        {
          "internalType": "address",
          "name": "tokenOwner",
          "type": "address"
        }
      ],
      "name": "isZGLDClaimed",
      "outputs": [
        {
          "internalType": "bool",
          "name": "",
          "type": "bool"
        }
      ],
      "stateMutability": "view",
      "type": "function"
    },
    {
      "inputs": [],
      "name": "name",
      "outputs": [
        {
          "internalType": "string",
          "name": "",
          "type": "string"
        }
      ],
      "stateMutability": "view",
      "type": "function"
    },
    {
      "inputs": [],
      "name": "owner",
      "outputs": [
        {
          "internalType": "address",
          "name": "",
          "type": "address"
        }
      ],
      "stateMutability": "view",
      "type": "function"
    },
    {
      "inputs": [],
      "name": "renounceOwnership",
      "outputs": [],
      "stateMutability": "nonpayable",
      "type": "function"
    },
    {
      "inputs": [],
      "name": "symbol",
      "outputs": [
        {
          "internalType": "string",
          "name": "",
          "type": "string"
        }
      ],
      "stateMutability": "view",
      "type": "function"
    },
    {
      "inputs": [],
      "name": "totalSupply",
      "outputs": [
        {
          "internalType": "uint256",
          "name": "",
          "type": "uint256"
        }
      ],
      "stateMutability": "view",
      "type": "function"
    },
    {
      "inputs": [
        {
          "internalType": "address",
          "name": "recipient",
          "type": "address"
        },
        {
          "internalType": "uint256",
          "name": "amount",
          "type": "uint256"
        }
      ],
      "name": "transfer",
      "outputs": [
        {
          "internalType": "bool",
          "name": "",
          "type": "bool"
        }
      ],
      "stateMutability": "nonpayable",
      "type": "function"
    },
    {
      "inputs": [
        {
          "internalType": "address",
          "name": "sender",
          "type": "address"
        },
        {
          "internalType": "address",
          "name": "recipient",
          "type": "address"
        },
        {
          "internalType": "uint256",
          "name": "amount",
          "type": "uint256"
        }
      ],
      "name": "transferFrom",
      "outputs": [
        {
          "internalType": "bool",
          "name": "",
          "type": "bool"
        }
      ],
      "stateMutability": "nonpayable",
      "type": "function"
    },
    {
      "inputs": [
        {
          "internalType": "address",
          "name": "newOwner",
          "type": "address"
        }
      ],
      "name": "transferOwnership",
      "outputs": [],
      "stateMutability": "nonpayable",
      "type": "function"
    },
    {
      "inputs": [
        {
          "internalType": "address",
          "name": "",
          "type": "address"
        }
      ],
      "name": "zGoldBalance",
      "outputs": [
        {
          "internalType": "uint256",
          "name": "",
          "type": "uint256"
        }
      ],
      "stateMutability": "view",
      "type": "function"
    },
    {
      "inputs": [
        {
          "internalType": "address",
          "name": "",
          "type": "address"
        }
      ],
      "name": "zGoldClaimed",
      "outputs": [
        {
          "internalType": "bool",
          "name": "",
          "type": "bool"
        }
      ],
      "stateMutability": "view",
      "type": "function"
    }
  ],
  "bytecode": "0x608060405273ba6ad4a2794b82876984fddfa9cae6a66249ffc8600660006101000a81548173ffffffffffffffffffffffffffffffffffffffff021916908373ffffffffffffffffffffffffffffffffffffffff160217905550620000696200022360201b60201c565b600a62000077919062000403565b6103e862000086919062000540565b6009553480156200009657600080fd5b506040518060400160405280600581526020017f5a476f6c640000000000000000000000000000000000000000000000000000008152506040518060400160405280600481526020017f5a474c440000000000000000000000000000000000000000000000000000000081525062000123620001176200022c60201b60201c565b6200023460201b60201c565b81600490805190602001906200013b929190620002f8565b50806005908051906020019062000154929190620002f8565b505050600660009054906101000a900473ffffffffffffffffffffffffffffffffffffffff16600760006101000a81548173ffffffffffffffffffffffffffffffffffffffff021916908373ffffffffffffffffffffffffffffffffffffffff160217905550600660009054906101000a900473ffffffffffffffffffffffffffffffffffffffff16600860006101000a81548173ffffffffffffffffffffffffffffffffffffffff021916908373ffffffffffffffffffffffffffffffffffffffff16021790555062000659565b60006012905090565b600033905090565b60008060009054906101000a900473ffffffffffffffffffffffffffffffffffffffff169050816000806101000a81548173ffffffffffffffffffffffffffffffffffffffff021916908373ffffffffffffffffffffffffffffffffffffffff1602179055508173ffffffffffffffffffffffffffffffffffffffff168173ffffffffffffffffffffffffffffffffffffffff167f8be0079c531659141344cd1fd0a4f28419497f9722a3daafe3b4186f6b6457e060405160405180910390a35050565b8280546200030690620005b8565b90600052602060002090601f0160209004810192826200032a576000855562000376565b82601f106200034557805160ff191683800117855562000376565b8280016001018555821562000376579182015b828111156200037557825182559160200191906001019062000358565b5b50905062000385919062000389565b5090565b5b80821115620003a45760008160009055506001016200038a565b5090565b6000808291508390505b6001851115620003fa57808604811115620003d257620003d1620005ee565b5b6001851615620003e25780820291505b8081029050620003f2856200064c565b9450620003b2565b94509492505050565b60006200041082620005a1565b91506200041d83620005ab565b92506200044c7fffffffffffffffffffffffffffffffffffffffffffffffffffffffffffffffff848462000454565b905092915050565b60008262000466576001905062000539565b8162000476576000905062000539565b81600181146200048f57600281146200049a57620004d0565b600191505062000539565b60ff841115620004af57620004ae620005ee565b5b8360020a915084821115620004c957620004c8620005ee565b5b5062000539565b5060208310610133831016604e8410600b84101617156200050a5782820a905083811115620005045762000503620005ee565b5b62000539565b620005198484846001620003a8565b92509050818404811115620005335762000532620005ee565b5b81810290505b9392505050565b60006200054d82620005a1565b91506200055a83620005a1565b9250817fffffffffffffffffffffffffffffffffffffffffffffffffffffffffffffffff0483118215151615620005965762000595620005ee565b5b828202905092915050565b6000819050919050565b600060ff82169050919050565b60006002820490506001821680620005d157607f821691505b60208210811415620005e857620005e76200061d565b5b50919050565b7f4e487b7100000000000000000000000000000000000000000000000000000000600052601160045260246000fd5b7f4e487b7100000000000000000000000000000000000000000000000000000000600052602260045260246000fd5b60008160011c9050919050565b6120d180620006696000396000f3fe608060405234801561001057600080fd5b506004361061014d5760003560e01c8063817d3cc0116100c3578063c8d3a7b51161007c578063c8d3a7b5146103ca578063dd62ed3e146103e8578063e5bdb11c14610418578063e78a41c814610448578063f2fde38b14610478578063fbdd7852146104945761014d565b8063817d3cc0146102e257806381a94ecf146102fe5780638da5cb5b1461032e57806395d89b411461034c578063a457c2d71461036a578063a9059cbb1461039a5761014d565b8063313ce56711610115578063313ce5671461020c57806332f781bc1461022a578063395093511461025a5780634c50dd181461028a57806370a08231146102a8578063715018a6146102d85761014d565b806306fdde0314610152578063095ea7b314610170578063126220e5146101a057806318160ddd146101be57806323b872dd146101dc575b600080fd5b61015a6104b2565b6040516101679190611c92565b60405180910390f35b61018a60048036038101906101859190611685565b610544565b6040516101979190611c41565b60405180910390f35b6101a8610562565b6040516101b59190611c77565b60405180910390f35b6101c6610588565b6040516101d39190611e54565b60405180910390f35b6101f660048036038101906101f19190611636565b610592565b6040516102039190611c41565b60405180910390f35b61021461068a565b6040516102219190611e6f565b60405180910390f35b610244600480360381019061023f91906115a8565b610693565b6040516102519190611e54565b60405180910390f35b610274600480360381019061026f9190611685565b6106ab565b6040516102819190611c41565b60405180910390f35b610292610757565b60405161029f9190611c26565b60405180910390f35b6102c260048036038101906102bd91906115a8565b61077d565b6040516102cf9190611e54565b60405180910390f35b6102e06107c6565b005b6102fc60048036038101906102f791906116c1565b61084e565b005b610318600480360381019061031391906115a8565b610a55565b6040516103259190611e54565b60405180910390f35b610336610a9e565b6040516103439190611c26565b60405180910390f35b610354610ac7565b6040516103619190611c92565b60405180910390f35b610384600480360381019061037f9190611685565b610b59565b6040516103919190611c41565b60405180910390f35b6103b460048036038101906103af9190611685565b610c44565b6040516103c19190611c41565b60405180910390f35b6103d2610c62565b6040516103df9190611e54565b60405180910390f35b61040260048036038101906103fd91906115fa565b610c68565b60405161040f9190611e54565b60405180910390f35b610432600480360381019061042d91906115a8565b610cef565b60405161043f9190611c41565b60405180910390f35b610462600480360381019061045d91906115a8565b610d45565b60405161046f9190611c41565b60405180910390f35b610492600480360381019061048d91906115a8565b610d65565b005b61049c610e5d565b6040516104a99190611c5c565b60405180910390f35b6060600480546104c190611fcc565b80601f01602080910402602001604051908101604052809291908181526020018280546104ed90611fcc565b801561053a5780601f1061050f5761010080835404028352916020019161053a565b820191906000526020600020905b81548152906001019060200180831161051d57829003601f168201915b5050505050905090565b6000610558610551610e83565b8484610e8b565b6001905092915050565b600760009054906101000a900473ffffffffffffffffffffffffffffffffffffffff1681565b6000600354905090565b600061059f848484611056565b6000600260008673ffffffffffffffffffffffffffffffffffffffff1673ffffffffffffffffffffffffffffffffffffffff16815260200190815260200160002060006105ea610e83565b73ffffffffffffffffffffffffffffffffffffffff1673ffffffffffffffffffffffffffffffffffffffff1681526020019081526020016000205490508281101561066a576040517f08c379a000000000000000000000000000000000000000000000000000000000815260040161066190611d34565b60405180910390fd5b61067e85610676610e83565b858403610e8b565b60019150509392505050565b60006012905090565b600a6020528060005260406000206000915090505481565b600061074d6106b8610e83565b8484600260006106c6610e83565b73ffffffffffffffffffffffffffffffffffffffff1673ffffffffffffffffffffffffffffffffffffffff16815260200190815260200160002060008873ffffffffffffffffffffffffffffffffffffffff1673ffffffffffffffffffffffffffffffffffffffff168152602001908152602001600020546107489190611ea6565b610e8b565b6001905092915050565b600660009054906101000a900473ffffffffffffffffffffffffffffffffffffffff1681565b6000600160008373ffffffffffffffffffffffffffffffffffffffff1673ffffffffffffffffffffffffffffffffffffffff168152602001908152602001600020549050919050565b6107ce610e83565b73ffffffffffffffffffffffffffffffffffffffff166107ec610a9e565b73ffffffffffffffffffffffffffffffffffffffff1614610842576040517f08c379a000000000000000000000000000000000000000000000000000000000815260040161083990611d54565b60405180910390fd5b61084c60006112da565b565b600860009054906101000a900473ffffffffffffffffffffffffffffffffffffffff1673ffffffffffffffffffffffffffffffffffffffff16636352211e836040518263ffffffff1660e01b81526004016108a99190611e54565b60206040518083038186803b1580156108c157600080fd5b505afa1580156108d5573d6000803e3d6000fd5b505050506040513d601f19601f820116820180604052508101906108f991906115d1565b73ffffffffffffffffffffffffffffffffffffffff16610917610e83565b73ffffffffffffffffffffffffffffffffffffffff161461096d576040517f08c379a000000000000000000000000000000000000000000000000000000000815260040161096490611d94565b60405180910390fd5b6102588211156109b2576040517f08c379a00000000000000000000000000000000000000000000000000000000081526004016109a990611db4565b60405180910390fd5b60001515600b60008373ffffffffffffffffffffffffffffffffffffffff1673ffffffffffffffffffffffffffffffffffffffff16815260200190815260200160002060009054906101000a900460ff16151514610a45576040517f08c379a0000000000000000000000000000000000000000000000000000000008152600401610a3c90611d74565b60405180910390fd5b610a518160095461139e565b5050565b6000600a60008373ffffffffffffffffffffffffffffffffffffffff1673ffffffffffffffffffffffffffffffffffffffff168152602001908152602001600020549050919050565b60008060009054906101000a900473ffffffffffffffffffffffffffffffffffffffff16905090565b606060058054610ad690611fcc565b80601f0160208091040260200160405190810160405280929190818152602001828054610b0290611fcc565b8015610b4f5780601f10610b2457610100808354040283529160200191610b4f565b820191906000526020600020905b815481529060010190602001808311610b3257829003601f168201915b5050505050905090565b60008060026000610b68610e83565b73ffffffffffffffffffffffffffffffffffffffff1673ffffffffffffffffffffffffffffffffffffffff16815260200190815260200160002060008573ffffffffffffffffffffffffffffffffffffffff1673ffffffffffffffffffffffffffffffffffffffff16815260200190815260200160002054905082811015610c25576040517f08c379a0000000000000000000000000000000000000000000000000000000008152600401610c1c90611e14565b60405180910390fd5b610c39610c30610e83565b85858403610e8b565b600191505092915050565b6000610c58610c51610e83565b8484611056565b6001905092915050565b60095481565b6000600260008473ffffffffffffffffffffffffffffffffffffffff1673ffffffffffffffffffffffffffffffffffffffff16815260200190815260200160002060008373ffffffffffffffffffffffffffffffffffffffff1673ffffffffffffffffffffffffffffffffffffffff16815260200190815260200160002054905092915050565b6000600b60008373ffffffffffffffffffffffffffffffffffffffff1673ffffffffffffffffffffffffffffffffffffffff16815260200190815260200160002060009054906101000a900460ff169050919050565b600b6020528060005260406000206000915054906101000a900460ff1681565b610d6d610e83565b73ffffffffffffffffffffffffffffffffffffffff16610d8b610a9e565b73ffffffffffffffffffffffffffffffffffffffff1614610de1576040517f08c379a0000000000000000000000000000000000000000000000000000000008152600401610dd890611d54565b60405180910390fd5b600073ffffffffffffffffffffffffffffffffffffffff168173ffffffffffffffffffffffffffffffffffffffff161415610e51576040517f08c379a0000000000000000000000000000000000000000000000000000000008152600401610e4890611cd4565b60405180910390fd5b610e5a816112da565b50565b600860009054906101000a900473ffffffffffffffffffffffffffffffffffffffff1681565b600033905090565b600073ffffffffffffffffffffffffffffffffffffffff168373ffffffffffffffffffffffffffffffffffffffff161415610efb576040517f08c379a0000000000000000000000000000000000000000000000000000000008152600401610ef290611df4565b60405180910390fd5b600073ffffffffffffffffffffffffffffffffffffffff168273ffffffffffffffffffffffffffffffffffffffff161415610f6b576040517f08c379a0000000000000000000000000000000000000000000000000000000008152600401610f6290611cf4565b60405180910390fd5b80600260008573ffffffffffffffffffffffffffffffffffffffff1673ffffffffffffffffffffffffffffffffffffffff16815260200190815260200160002060008473ffffffffffffffffffffffffffffffffffffffff1673ffffffffffffffffffffffffffffffffffffffff168152602001908152602001600020819055508173ffffffffffffffffffffffffffffffffffffffff168373ffffffffffffffffffffffffffffffffffffffff167f8c5be1e5ebec7d5bd14f71427d1e84f3dd0314c0f7b2291e5b200ac8c7c3b925836040516110499190611e54565b60405180910390a3505050565b600073ffffffffffffffffffffffffffffffffffffffff168373ffffffffffffffffffffffffffffffffffffffff1614156110c6576040517f08c379a00000000000000000000000000000000000000000000000000000000081526004016110bd90611dd4565b60405180910390fd5b600073ffffffffffffffffffffffffffffffffffffffff168273ffffffffffffffffffffffffffffffffffffffff161415611136576040517f08c379a000000000000000000000000000000000000000000000000000000000815260040161112d90611cb4565b60405180910390fd5b6111418383836113fe565b6000600160008573ffffffffffffffffffffffffffffffffffffffff1673ffffffffffffffffffffffffffffffffffffffff168152602001908152602001600020549050818110156111c8576040517f08c379a00000000000000000000000000000000000000000000000000000000081526004016111bf90611d14565b60405180910390fd5b818103600160008673ffffffffffffffffffffffffffffffffffffffff1673ffffffffffffffffffffffffffffffffffffffff1681526020019081526020016000208190555081600160008573ffffffffffffffffffffffffffffffffffffffff1673ffffffffffffffffffffffffffffffffffffffff168152602001908152602001600020600082825461125d9190611ea6565b925050819055508273ffffffffffffffffffffffffffffffffffffffff168473ffffffffffffffffffffffffffffffffffffffff167fddf252ad1be2c89b69c2b068fc378daa952ba7f163c4a11628f55a4df523b3ef846040516112c19190611e54565b60405180910390a36112d4848484611403565b50505050565b60008060009054906101000a900473ffffffffffffffffffffffffffffffffffffffff169050816000806101000a81548173ffffffffffffffffffffffffffffffffffffffff021916908373ffffffffffffffffffffffffffffffffffffffff1602179055508173ffffffffffffffffffffffffffffffffffffffff168173ffffffffffffffffffffffffffffffffffffffff167f8be0079c531659141344cd1fd0a4f28419497f9722a3daafe3b4186f6b6457e060405160405180910390a35050565b6113aa82600954611408565b60011515600b60008473ffffffffffffffffffffffffffffffffffffffff1673ffffffffffffffffffffffffffffffffffffffff16815260200190815260200160002060009054906101000a905050505050565b505050565b505050565b600073ffffffffffffffffffffffffffffffffffffffff168273ffffffffffffffffffffffffffffffffffffffff161415611478576040517f08c379a000000000000000000000000000000000000000000000000000000000815260040161146f90611e34565b60405180910390fd5b611484600083836113fe565b80600360008282546114969190611ea6565b9250508190555080600160008473ffffffffffffffffffffffffffffffffffffffff1673ffffffffffffffffffffffffffffffffffffffff16815260200190815260200160002060008282546114ec9190611ea6565b925050819055508173ffffffffffffffffffffffffffffffffffffffff16600073ffffffffffffffffffffffffffffffffffffffff167fddf252ad1be2c89b69c2b068fc378daa952ba7f163c4a11628f55a4df523b3ef836040516115519190611e54565b60405180910390a361156560008383611403565b5050565b6000813590506115788161206d565b92915050565b60008151905061158d8161206d565b92915050565b6000813590506115a281612084565b92915050565b6000602082840312156115ba57600080fd5b60006115c884828501611569565b91505092915050565b6000602082840312156115e357600080fd5b60006115f18482850161157e565b91505092915050565b6000806040838503121561160d57600080fd5b600061161b85828601611569565b925050602061162c85828601611569565b9150509250929050565b60008060006060848603121561164b57600080fd5b600061165986828701611569565b935050602061166a86828701611569565b925050604061167b86828701611593565b9150509250925092565b6000806040838503121561169857600080fd5b60006116a685828601611569565b92505060206116b785828601611593565b9150509250929050565b600080604083850312156116d457600080fd5b60006116e285828601611593565b92505060206116f385828601611569565b9150509250929050565b61170681611efc565b82525050565b61171581611f0e565b82525050565b61172481611f51565b82525050565b61173381611f75565b82525050565b600061174482611e8a565b61174e8185611e95565b935061175e818560208601611f99565b6117678161205c565b840191505092915050565b600061177f602383611e95565b91507f45524332303a207472616e7366657220746f20746865207a65726f206164647260008301527f65737300000000000000000000000000000000000000000000000000000000006020830152604082019050919050565b60006117e5602683611e95565b91507f4f776e61626c653a206e6577206f776e657220697320746865207a65726f206160008301527f64647265737300000000000000000000000000000000000000000000000000006020830152604082019050919050565b600061184b602283611e95565b91507f45524332303a20617070726f766520746f20746865207a65726f20616464726560008301527f73730000000000000000000000000000000000000000000000000000000000006020830152604082019050919050565b60006118b1602683611e95565b91507f45524332303a207472616e7366657220616d6f756e742065786365656473206260008301527f616c616e636500000000000000000000000000000000000000000000000000006020830152604082019050919050565b6000611917602883611e95565b91507f45524332303a207472616e7366657220616d6f756e742065786365656473206160008301527f6c6c6f77616e63650000000000000000000000000000000000000000000000006020830152604082019050919050565b600061197d602083611e95565b91507f4f776e61626c653a2063616c6c6572206973206e6f7420746865206f776e65726000830152602082019050919050565b60006119bd601883611e95565b91507f43616e206f6e6c7920636c61696d20676f6c64206f6e636500000000000000006000830152602082019050919050565b60006119fd602283611e95565b91507f4d757374206f776e205a4c6f6f7420746f6b656e20746f20636c61696d20676f60008301527f6c640000000000000000000000000000000000000000000000000000000000006020830152604082019050919050565b6000611a63601083611e95565b91507f496e76616c696420746f6b656e204944000000000000000000000000000000006000830152602082019050919050565b6000611aa3602583611e95565b91507f45524332303a207472616e736665722066726f6d20746865207a65726f20616460008301527f64726573730000000000000000000000000000000000000000000000000000006020830152604082019050919050565b6000611b09602483611e95565b91507f45524332303a20617070726f76652066726f6d20746865207a65726f2061646460008301527f72657373000000000000000000000000000000000000000000000000000000006020830152604082019050919050565b6000611b6f602583611e95565b91507f45524332303a2064656372656173656420616c6c6f77616e63652062656c6f7760008301527f207a65726f0000000000000000000000000000000000000000000000000000006020830152604082019050919050565b6000611bd5601f83611e95565b91507f45524332303a206d696e7420746f20746865207a65726f2061646472657373006000830152602082019050919050565b611c1181611f3a565b82525050565b611c2081611f44565b82525050565b6000602082019050611c3b60008301846116fd565b92915050565b6000602082019050611c56600083018461170c565b92915050565b6000602082019050611c71600083018461171b565b92915050565b6000602082019050611c8c600083018461172a565b92915050565b60006020820190508181036000830152611cac8184611739565b905092915050565b60006020820190508181036000830152611ccd81611772565b9050919050565b60006020820190508181036000830152611ced816117d8565b9050919050565b60006020820190508181036000830152611d0d8161183e565b9050919050565b60006020820190508181036000830152611d2d816118a4565b9050919050565b60006020820190508181036000830152611d4d8161190a565b9050919050565b60006020820190508181036000830152611d6d81611970565b9050919050565b60006020820190508181036000830152611d8d816119b0565b9050919050565b60006020820190508181036000830152611dad816119f0565b9050919050565b60006020820190508181036000830152611dcd81611a56565b9050919050565b60006020820190508181036000830152611ded81611a96565b9050919050565b60006020820190508181036000830152611e0d81611afc565b9050919050565b60006020820190508181036000830152611e2d81611b62565b9050919050565b60006020820190508181036000830152611e4d81611bc8565b9050919050565b6000602082019050611e696000830184611c08565b92915050565b6000602082019050611e846000830184611c17565b92915050565b600081519050919050565b600082825260208201905092915050565b6000611eb182611f3a565b9150611ebc83611f3a565b9250827fffffffffffffffffffffffffffffffffffffffffffffffffffffffffffffffff03821115611ef157611ef0611ffe565b5b828201905092915050565b6000611f0782611f1a565b9050919050565b60008115159050919050565b600073ffffffffffffffffffffffffffffffffffffffff82169050919050565b6000819050919050565b600060ff82169050919050565b6000611f5c82611f63565b9050919050565b6000611f6e82611f1a565b9050919050565b6000611f8082611f87565b9050919050565b6000611f9282611f1a565b9050919050565b60005b83811015611fb7578082015181840152602081019050611f9c565b83811115611fc6576000848401525b50505050565b60006002820490506001821680611fe457607f821691505b60208210811415611ff857611ff761202d565b5b50919050565b7f4e487b7100000000000000000000000000000000000000000000000000000000600052601160045260246000fd5b7f4e487b7100000000000000000000000000000000000000000000000000000000600052602260045260246000fd5b6000601f19601f8301169050919050565b61207681611efc565b811461208157600080fd5b50565b61208d81611f3a565b811461209857600080fd5b5056fea26469706673582212208573cb4d6d4a31e67bbaf088fe101d7d99f4cbbc4ebdedf299647dec30b92d4b64736f6c63430008000033",
  "linkReferences": {},
  "deployedLinkReferences": {}
}