{
  "_format": "hh-sol-artifact-1",
  "contractName": "ZLoot",
  "sourceName": "contracts/ZLoot.sol",
  "abi": [
    {
      "inputs": [],
      "stateMutability": "nonpayable",
      "type": "constructor"
    },
    {
      "anonymous": false,
      "inputs": [
        {
          "indexed": true,
          "internalType": "address",
          "name": "owner",
          "type": "address"
        },
        {
          "indexed": true,
          "internalType": "address",
          "name": "approved",
          "type": "address"
        },
        {
          "indexed": true,
          "internalType": "uint256",
          "name": "tokenId",
          "type": "uint256"
        }
      ],
      "name": "Approval",
      "type": "event"
    },
    {
      "anonymous": false,
      "inputs": [
        {
          "indexed": true,
          "internalType": "address",
          "name": "owner",
          "type": "address"
        },
        {
          "indexed": true,
          "internalType": "address",
          "name": "operator",
          "type": "address"
        },
        {
          "indexed": false,
          "internalType": "bool",
          "name": "approved",
          "type": "bool"
        }
      ],
      "name": "ApprovalForAll",
      "type": "event"
    },
    {
      "anonymous": false,
      "inputs": [
        {
          "indexed": true,
          "internalType": "address",
          "name": "previousOwner",
          "type": "address"
        },
        {
          "indexed": true,
          "internalType": "address",
          "name": "newOwner",
          "type": "address"
        }
      ],
      "name": "OwnershipTransferred",
      "type": "event"
    },
    {
      "anonymous": false,
      "inputs": [
        {
          "indexed": true,
          "internalType": "address",
          "name": "from",
          "type": "address"
        },
        {
          "indexed": true,
          "internalType": "address",
          "name": "to",
          "type": "address"
        },
        {
          "indexed": true,
          "internalType": "uint256",
          "name": "tokenId",
          "type": "uint256"
        }
      ],
      "name": "Transfer",
      "type": "event"
    },
    {
      "inputs": [
        {
          "internalType": "address",
          "name": "to",
          "type": "address"
        },
        {
          "internalType": "uint256",
          "name": "tokenId",
          "type": "uint256"
        }
      ],
      "name": "approve",
      "outputs": [],
      "stateMutability": "nonpayable",
      "type": "function"
    },
    {
      "inputs": [
        {
          "internalType": "address",
          "name": "owner",
          "type": "address"
        }
      ],
      "name": "balanceOf",
      "outputs": [
        {
          "internalType": "uint256",
          "name": "",
          "type": "uint256"
        }
      ],
      "stateMutability": "view",
      "type": "function"
    },
    {
      "inputs": [
        {
          "internalType": "uint256",
          "name": "tokenId",
          "type": "uint256"
        }
      ],
      "name": "claim",
      "outputs": [],
      "stateMutability": "payable",
      "type": "function"
    },
    {
      "inputs": [
        {
          "internalType": "uint256",
          "name": "tokenId",
          "type": "uint256"
        }
      ],
      "name": "getApproved",
      "outputs": [
        {
          "internalType": "address",
          "name": "",
          "type": "address"
        }
      ],
      "stateMutability": "view",
      "type": "function"
    },
    {
      "inputs": [
        {
          "internalType": "uint256",
          "name": "tokenId",
          "type": "uint256"
        }
      ],
      "name": "getCompanion",
      "outputs": [
        {
          "internalType": "string",
          "name": "",
          "type": "string"
        }
      ],
      "stateMutability": "view",
      "type": "function"
    },
    {
      "inputs": [
        {
          "internalType": "uint256",
          "name": "tokenId",
          "type": "uint256"
        }
      ],
      "name": "getHand",
      "outputs": [
        {
          "internalType": "string",
          "name": "",
          "type": "string"
        }
      ],
      "stateMutability": "view",
      "type": "function"
    },
    {
      "inputs": [
        {
          "internalType": "uint256",
          "name": "tokenId",
          "type": "uint256"
        }
      ],
      "name": "getPower",
      "outputs": [
        {
          "internalType": "string",
          "name": "",
          "type": "string"
        }
      ],
      "stateMutability": "view",
      "type": "function"
    },
    {
      "inputs": [
        {
          "internalType": "uint256",
          "name": "tokenId",
          "type": "uint256"
        }
      ],
      "name": "getRing",
      "outputs": [
        {
          "internalType": "string",
          "name": "",
          "type": "string"
        }
      ],
      "stateMutability": "view",
      "type": "function"
    },
    {
      "inputs": [
        {
          "internalType": "uint256",
          "name": "tokenId",
          "type": "uint256"
        }
      ],
      "name": "getWeapon",
      "outputs": [
        {
          "internalType": "string",
          "name": "",
          "type": "string"
        }
      ],
      "stateMutability": "view",
      "type": "function"
    },
    {
      "inputs": [
        {
          "internalType": "address",
          "name": "owner",
          "type": "address"
        },
        {
          "internalType": "address",
          "name": "operator",
          "type": "address"
        }
      ],
      "name": "isApprovedForAll",
      "outputs": [
        {
          "internalType": "bool",
          "name": "",
          "type": "bool"
        }
      ],
      "stateMutability": "view",
      "type": "function"
    },
    {
      "inputs": [],
      "name": "name",
      "outputs": [
        {
          "internalType": "string",
          "name": "",
          "type": "string"
        }
      ],
      "stateMutability": "view",
      "type": "function"
    },
    {
      "inputs": [],
      "name": "owner",
      "outputs": [
        {
          "internalType": "address",
          "name": "",
          "type": "address"
        }
      ],
      "stateMutability": "view",
      "type": "function"
    },
    {
      "inputs": [
        {
          "internalType": "uint256",
          "name": "tokenId",
          "type": "uint256"
        }
      ],
      "name": "ownerOf",
      "outputs": [
        {
          "internalType": "address",
          "name": "",
          "type": "address"
        }
      ],
      "stateMutability": "view",
      "type": "function"
    },
    {
      "inputs": [
        {
          "internalType": "string",
          "name": "input",
          "type": "string"
        }
      ],
      "name": "random",
      "outputs": [
        {
          "internalType": "uint256",
          "name": "",
          "type": "uint256"
        }
      ],
      "stateMutability": "pure",
      "type": "function"
    },
    {
      "inputs": [],
      "name": "renounceOwnership",
      "outputs": [],
      "stateMutability": "nonpayable",
      "type": "function"
    },
    {
      "inputs": [
        {
          "internalType": "address",
          "name": "from",
          "type": "address"
        },
        {
          "internalType": "address",
          "name": "to",
          "type": "address"
        },
        {
          "internalType": "uint256",
          "name": "tokenId",
          "type": "uint256"
        }
      ],
      "name": "safeTransferFrom",
      "outputs": [],
      "stateMutability": "nonpayable",
      "type": "function"
    },
    {
      "inputs": [
        {
          "internalType": "address",
          "name": "from",
          "type": "address"
        },
        {
          "internalType": "address",
          "name": "to",
          "type": "address"
        },
        {
          "internalType": "uint256",
          "name": "tokenId",
          "type": "uint256"
        },
        {
          "internalType": "bytes",
          "name": "_data",
          "type": "bytes"
        }
      ],
      "name": "safeTransferFrom",
      "outputs": [],
      "stateMutability": "nonpayable",
      "type": "function"
    },
    {
      "inputs": [
        {
          "internalType": "address",
          "name": "operator",
          "type": "address"
        },
        {
          "internalType": "bool",
          "name": "approved",
          "type": "bool"
        }
      ],
      "name": "setApprovalForAll",
      "outputs": [],
      "stateMutability": "nonpayable",
      "type": "function"
    },
    {
      "inputs": [
        {
          "internalType": "bytes4",
          "name": "interfaceId",
          "type": "bytes4"
        }
      ],
      "name": "supportsInterface",
      "outputs": [
        {
          "internalType": "bool",
          "name": "",
          "type": "bool"
        }
      ],
      "stateMutability": "view",
      "type": "function"
    },
    {
      "inputs": [],
      "name": "symbol",
      "outputs": [
        {
          "internalType": "string",
          "name": "",
          "type": "string"
        }
      ],
      "stateMutability": "view",
      "type": "function"
    },
    {
      "inputs": [
        {
          "internalType": "uint256",
          "name": "index",
          "type": "uint256"
        }
      ],
      "name": "tokenByIndex",
      "outputs": [
        {
          "internalType": "uint256",
          "name": "",
          "type": "uint256"
        }
      ],
      "stateMutability": "view",
      "type": "function"
    },
    {
      "inputs": [
        {
          "internalType": "address",
          "name": "owner",
          "type": "address"
        },
        {
          "internalType": "uint256",
          "name": "index",
          "type": "uint256"
        }
      ],
      "name": "tokenOfOwnerByIndex",
      "outputs": [
        {
          "internalType": "uint256",
          "name": "",
          "type": "uint256"
        }
      ],
      "stateMutability": "view",
      "type": "function"
    },
    {
      "inputs": [
        {
          "internalType": "uint256",
          "name": "tokenId",
          "type": "uint256"
        }
      ],
      "name": "tokenURI",
      "outputs": [
        {
          "internalType": "string",
          "name": "",
          "type": "string"
        }
      ],
      "stateMutability": "view",
      "type": "function"
    },
    {
      "inputs": [],
      "name": "totalSupply",
      "outputs": [
        {
          "internalType": "uint256",
          "name": "",
          "type": "uint256"
        }
      ],
      "stateMutability": "view",
      "type": "function"
    },
    {
      "inputs": [
        {
          "internalType": "address",
          "name": "from",
          "type": "address"
        },
        {
          "internalType": "address",
          "name": "to",
          "type": "address"
        },
        {
          "internalType": "uint256",
          "name": "tokenId",
          "type": "uint256"
        }
      ],
      "name": "transfer",
      "outputs": [],
      "stateMutability": "nonpayable",
      "type": "function"
    },
    {
      "inputs": [
        {
          "internalType": "address",
          "name": "from",
          "type": "address"
        },
        {
          "internalType": "address",
          "name": "to",
          "type": "address"
        },
        {
          "internalType": "uint256",
          "name": "tokenId",
          "type": "uint256"
        }
      ],
      "name": "transferFrom",
      "outputs": [],
      "stateMutability": "nonpayable",
      "type": "function"
    },
    {
      "inputs": [
        {
          "internalType": "address",
          "name": "newOwner",
          "type": "address"
        }
      ],
      "name": "transferOwnership",
      "outputs": [],
      "stateMutability": "nonpayable",
      "type": "function"
    }
  ],
  "bytecode": "0x60806040526040518061024001604052806040518060400160405280600981526020017f57617268616d6d6572000000000000000000000000000000000000000000000081525081526020016040518060400160405280600c81526020017f517561727465727374616666000000000000000000000000000000000000000081525081526020016040518060400160405280600481526020017f4d61756c0000000000000000000000000000000000000000000000000000000081525081526020016040518060400160405280600481526020017f4d6163650000000000000000000000000000000000000000000000000000000081525081526020016040518060400160405280600481526020017f436c75620000000000000000000000000000000000000000000000000000000081525081526020016040518060400160405280600681526020017f4b6174616e61000000000000000000000000000000000000000000000000000081525081526020016040518060400160405280600881526020017f46616c6368696f6e00000000000000000000000000000000000000000000000081525081526020016040518060400160405280600881526020017f5363696d6974617200000000000000000000000000000000000000000000000081525081526020016040518060400160405280600a81526020017f4c6f6e672053776f72640000000000000000000000000000000000000000000081525081526020016040518060400160405280600b81526020017f53686f72742053776f726400000000000000000000000000000000000000000081525081526020016040518060400160405280600a81526020017f47686f73742057616e640000000000000000000000000000000000000000000081525081526020016040518060400160405280600a81526020017f47726176652057616e640000000000000000000000000000000000000000000081525081526020016040518060400160405280600981526020017f426f6e652057616e64000000000000000000000000000000000000000000000081525081526020016040518060400160405280600481526020017f57616e640000000000000000000000000000000000000000000000000000000081525081526020016040518060400160405280600881526020017f4772696d6f69726500000000000000000000000000000000000000000000000081525081526020016040518060400160405280600981526020017f4368726f6e69636c65000000000000000000000000000000000000000000000081525081526020016040518060400160405280600481526020017f546f6d650000000000000000000000000000000000000000000000000000000081525081526020016040518060400160405280600481526020017f426f6f6b00000000000000000000000000000000000000000000000000000000815250815250600c90601262000446929190620029fe565b50604051806101e001604052806040518060400160405280600981526020017f426c61636b20436174000000000000000000000000000000000000000000000081525081526020016040518060400160405280600681526020017f447261676f6e000000000000000000000000000000000000000000000000000081525081526020016040518060400160405280600781526020017f4c7563696665720000000000000000000000000000000000000000000000000081525081526020016040518060400160405280600881526020017f426170686f6d657400000000000000000000000000000000000000000000000081525081526020016040518060400160405280600381526020017f456c66000000000000000000000000000000000000000000000000000000000081525081526020016040518060400160405280600381526020017f4f7263000000000000000000000000000000000000000000000000000000000081525081526020016040518060400160405280600a81526020017f44656d6f676f72676f6e0000000000000000000000000000000000000000000081525081526020016040518060400160405280600881526020017f43656e6f6269746500000000000000000000000000000000000000000000000081525081526020016040518060400160405280600881526020017f436572626572757300000000000000000000000000000000000000000000000081525081526020016040518060400160405280600581526020017f47686f737400000000000000000000000000000000000000000000000000000081525081526020016040518060400160405280600881526020017f57657265776f6c6600000000000000000000000000000000000000000000000081525081526020016040518060400160405280600981526020017f4c657669617468616e000000000000000000000000000000000000000000000081525081526020016040518060400160405280600681526020017f4b72616b656e000000000000000000000000000000000000000000000000000081525081526020016040518060400160405280600681526020017f5a6f6d626965000000000000000000000000000000000000000000000000000081525081526020016040518060400160405280600581526020017f4d756d6d79000000000000000000000000000000000000000000000000000000815250815250600d90600f620007d892919062002a65565b50604051806101e001604052806040518060400160405280600981526020017f54656c657061746879000000000000000000000000000000000000000000000081525081526020016040518060400160405280600c81526020017f436c616972766f69616e6365000000000000000000000000000000000000000081525081526020016040518060400160405280601281526020017f43616e2054616c6b20546f2047686f737473000000000000000000000000000081525081526020016040518060400160405280600e81526020017f52656d6f74652056696577696e6700000000000000000000000000000000000081525081526020016040518060400160405280601081526020017f53756d6d6f6e696e672044656d6f6e730000000000000000000000000000000081525081526020016040518060400160405280600e81526020017f54616d696e6720447261676f6e7300000000000000000000000000000000000081525081526020016040518060400160405280600c81526020017f4d696e642052656164696e67000000000000000000000000000000000000000081525081526020016040518060400160405280600f81526020017f53756d6d6f696e6720416e67656c73000000000000000000000000000000000081525081526020016040518060400160405280600b81526020017f496d6d6f7274616c69747900000000000000000000000000000000000000000081525081526020016040518060400160405280600e81526020017f48656172696e67204e617475726500000000000000000000000000000000000081525081526020016040518060400160405280601481526020017f43617374696e67204d61676963205370656c6c7300000000000000000000000081525081526020016040518060400160405280601381526020017f576974636863726166742f57697a61726472790000000000000000000000000081525081526020016040518060400160405280601181526020017f5265766976696e6720546865204465616400000000000000000000000000000081525081526020016040518060400160405280600c81526020017f496e7669736962696c697479000000000000000000000000000000000000000081525081526020016040518060400160405280600c81526020017f50616c6d2072656164696e670000000000000000000000000000000000000000815250815250600e90600f62000b6a92919062002a65565b50604051806101e001604052806040518060400160405280600e81526020017f486f6c79204761756e746c65747300000000000000000000000000000000000081525081526020016040518060400160405280601081526020017f4f726e617465204761756e746c6574730000000000000000000000000000000081525081526020016040518060400160405280600981526020017f4761756e746c657473000000000000000000000000000000000000000000000081525081526020016040518060400160405280600c81526020017f436861696e20476c6f766573000000000000000000000000000000000000000081525081526020016040518060400160405280600c81526020017f486561767920476c6f766573000000000000000000000000000000000000000081525081526020016040518060400160405280600d81526020017f44656d6f6e27732048616e64730000000000000000000000000000000000000081525081526020016040518060400160405280601181526020017f447261676f6e736b696e20476c6f76657300000000000000000000000000000081525081526020016040518060400160405280601681526020017f53747564646564204c65617468657220476c6f7665730000000000000000000081525081526020016040518060400160405280601381526020017f48617264204c65617468657220476c6f7665730000000000000000000000000081525081526020016040518060400160405280600e81526020017f4c65617468657220476c6f76657300000000000000000000000000000000000081525081526020016040518060400160405280600d81526020017f446976696e6520476c6f7665730000000000000000000000000000000000000081525081526020016040518060400160405280600b81526020017f53696c6b20476c6f76657300000000000000000000000000000000000000000081525081526020016040518060400160405280600b81526020017f576f6f6c20476c6f76657300000000000000000000000000000000000000000081525081526020016040518060400160405280600c81526020017f4c696e656e20476c6f766573000000000000000000000000000000000000000081525081526020016040518060400160405280600681526020017f476c6f7665730000000000000000000000000000000000000000000000000000815250815250600f90600f62000efc92919062002a65565b506040518060a001604052806040518060400160405280600981526020017f476f6c642052696e67000000000000000000000000000000000000000000000081525081526020016040518060400160405280600b81526020017f53696c7665722052696e6700000000000000000000000000000000000000000081525081526020016040518060400160405280600b81526020017f42726f6e7a652052696e6700000000000000000000000000000000000000000081525081526020016040518060400160405280600d81526020017f506c6174696e756d2052696e670000000000000000000000000000000000000081525081526020016040518060400160405280600d81526020017f546974616e69756d2052696e670000000000000000000000000000000000000081525081525060109060056200103f92919062002acc565b506040518061020001604052806040518060400160405280600881526020017f6f6620506f77657200000000000000000000000000000000000000000000000081525081526020016040518060400160405280600981526020017f6f66204769616e7473000000000000000000000000000000000000000000000081525081526020016040518060400160405280600981526020017f6f6620546974616e73000000000000000000000000000000000000000000000081525081526020016040518060400160405280600881526020017f6f6620536b696c6c00000000000000000000000000000000000000000000000081525081526020016040518060400160405280600d81526020017f6f662050657266656374696f6e0000000000000000000000000000000000000081525081526020016040518060400160405280600d81526020017f6f66204272696c6c69616e63650000000000000000000000000000000000000081525081526020016040518060400160405280601081526020017f6f6620456e6c69676874656e6d656e740000000000000000000000000000000081525081526020016040518060400160405280600d81526020017f6f662050726f74656374696f6e0000000000000000000000000000000000000081525081526020016040518060400160405280600881526020017f6f6620416e67657200000000000000000000000000000000000000000000000081525081526020016040518060400160405280600781526020017f6f6620526167650000000000000000000000000000000000000000000000000081525081526020016040518060400160405280600781526020017f6f6620467572790000000000000000000000000000000000000000000000000081525081526020016040518060400160405280600a81526020017f6f662056697472696f6c0000000000000000000000000000000000000000000081525081526020016040518060400160405280600a81526020017f6f662074686520466f780000000000000000000000000000000000000000000081525081526020016040518060400160405280600c81526020017f6f6620446574656374696f6e000000000000000000000000000000000000000081525081526020016040518060400160405280600d81526020017f6f66205265666c656374696f6e0000000000000000000000000000000000000081525081526020016040518060400160405280600c81526020017f6f6620746865205477696e73000000000000000000000000000000000000000081525081525060119060106200140c92919062002b33565b50604051806108a001604052806040518060400160405280600581526020017f41676f6e7900000000000000000000000000000000000000000000000000000081525081526020016040518060400160405280600a81526020017f41706f63616c797073650000000000000000000000000000000000000000000081525081526020016040518060400160405280600a81526020017f41726d61676564646f6e0000000000000000000000000000000000000000000081525081526020016040518060400160405280600581526020017f426561737400000000000000000000000000000000000000000000000000000081525081526020016040518060400160405280600881526020017f426568656d6f746800000000000000000000000000000000000000000000000081525081526020016040518060400160405280600681526020017f426c69676874000000000000000000000000000000000000000000000000000081525081526020016040518060400160405280600581526020017f426c6f6f6400000000000000000000000000000000000000000000000000000081525081526020016040518060400160405280600781526020017f4272616d626c650000000000000000000000000000000000000000000000000081525081526020016040518060400160405280600981526020017f4272696d73746f6e65000000000000000000000000000000000000000000000081525081526020016040518060400160405280600581526020017f42726f6f6400000000000000000000000000000000000000000000000000000081525081526020016040518060400160405280600781526020017f43617272696f6e0000000000000000000000000000000000000000000000000081525081526020016040518060400160405280600981526020017f43617461636c79736d000000000000000000000000000000000000000000000081525081526020016040518060400160405280600881526020017f4368696d6572696300000000000000000000000000000000000000000000000081525081526020016040518060400160405280600681526020017f436f72707365000000000000000000000000000000000000000000000000000081525081526020016040518060400160405280600a81526020017f436f7272757074696f6e0000000000000000000000000000000000000000000081525081526020016040518060400160405280600981526020017f44616d6e6174696f6e000000000000000000000000000000000000000000000081525081526020016040518060400160405280600581526020017f446561746800000000000000000000000000000000000000000000000000000081525081526020016040518060400160405280600581526020017f44656d6f6e00000000000000000000000000000000000000000000000000000081525081526020016040518060400160405280600481526020017f446972650000000000000000000000000000000000000000000000000000000081525081526020016040518060400160405280600681526020017f447261676f6e000000000000000000000000000000000000000000000000000081525081526020016040518060400160405280600581526020017f447265616400000000000000000000000000000000000000000000000000000081525081526020016040518060400160405280600481526020017f446f6f6d0000000000000000000000000000000000000000000000000000000081525081526020016040518060400160405280600481526020017f4475736b0000000000000000000000000000000000000000000000000000000081525081526020016040518060400160405280600581526020017f4561676c6500000000000000000000000000000000000000000000000000000081525081526020016040518060400160405280600881526020017f456d70797265616e00000000000000000000000000000000000000000000000081525081526020016040518060400160405280600481526020017f466174650000000000000000000000000000000000000000000000000000000081525081526020016040518060400160405280600381526020017f466f65000000000000000000000000000000000000000000000000000000000081525081526020016040518060400160405280600481526020017f47616c650000000000000000000000000000000000000000000000000000000081525081526020016040518060400160405280600581526020017f47686f756c00000000000000000000000000000000000000000000000000000081525081526020016040518060400160405280600581526020017f476c6f6f6d00000000000000000000000000000000000000000000000000000081525081526020016040518060400160405280600581526020017f476c79706800000000000000000000000000000000000000000000000000000081525081526020016040518060400160405280600581526020017f476f6c656d00000000000000000000000000000000000000000000000000000081525081526020016040518060400160405280600481526020017f4772696d0000000000000000000000000000000000000000000000000000000081525081526020016040518060400160405280600481526020017f486174650000000000000000000000000000000000000000000000000000000081525081526020016040518060400160405280600581526020017f4861766f6300000000000000000000000000000000000000000000000000000081525081526020016040518060400160405280600681526020017f486f6e6f7572000000000000000000000000000000000000000000000000000081525081526020016040518060400160405280600681526020017f486f72726f72000000000000000000000000000000000000000000000000000081525081526020016040518060400160405280600881526020017f4879706e6f74696300000000000000000000000000000000000000000000000081525081526020016040518060400160405280600681526020017f4b72616b656e000000000000000000000000000000000000000000000000000081525081526020016040518060400160405280600581526020017f4c6f61746800000000000000000000000000000000000000000000000000000081525081526020016040518060400160405280600981526020017f4d61656c7374726f6d000000000000000000000000000000000000000000000081525081526020016040518060400160405280600481526020017f4d696e640000000000000000000000000000000000000000000000000000000081525081526020016040518060400160405280600781526020017f4d697261636c650000000000000000000000000000000000000000000000000081525081526020016040518060400160405280600681526020017f4d6f72626964000000000000000000000000000000000000000000000000000081525081526020016040518060400160405280600881526020017f4f626c6976696f6e00000000000000000000000000000000000000000000000081525081526020016040518060400160405280600981526020017f4f6e736c6175676874000000000000000000000000000000000000000000000081525081526020016040518060400160405280600481526020017f5061696e0000000000000000000000000000000000000000000000000000000081525081526020016040518060400160405280600b81526020017f50616e64656d6f6e69756d00000000000000000000000000000000000000000081525081526020016040518060400160405280600781526020017f50686f656e69780000000000000000000000000000000000000000000000000081525081526020016040518060400160405280600681526020017f506c61677565000000000000000000000000000000000000000000000000000081525081526020016040518060400160405280600481526020017f526167650000000000000000000000000000000000000000000000000000000081525081526020016040518060400160405280600781526020017f526170747572650000000000000000000000000000000000000000000000000081525081526020016040518060400160405280600481526020017f52756e650000000000000000000000000000000000000000000000000000000081525081526020016040518060400160405280600581526020017f536b756c6c00000000000000000000000000000000000000000000000000000081525081526020016040518060400160405280600381526020017f536f6c000000000000000000000000000000000000000000000000000000000081525081526020016040518060400160405280600481526020017f536f756c0000000000000000000000000000000000000000000000000000000081525081526020016040518060400160405280600681526020017f536f72726f77000000000000000000000000000000000000000000000000000081525081526020016040518060400160405280600681526020017f537069726974000000000000000000000000000000000000000000000000000081525081526020016040518060400160405280600581526020017f53746f726d00000000000000000000000000000000000000000000000000000081525081526020016040518060400160405280600781526020017f54656d706573740000000000000000000000000000000000000000000000000081525081526020016040518060400160405280600781526020017f546f726d656e740000000000000000000000000000000000000000000000000081525081526020016040518060400160405280600981526020017f56656e6765616e6365000000000000000000000000000000000000000000000081525081526020016040518060400160405280600781526020017f566963746f72790000000000000000000000000000000000000000000000000081525081526020016040518060400160405280600581526020017f566970657200000000000000000000000000000000000000000000000000000081525081526020016040518060400160405280600681526020017f566f72746578000000000000000000000000000000000000000000000000000081525081526020016040518060400160405280600381526020017f576f65000000000000000000000000000000000000000000000000000000000081525081526020016040518060400160405280600581526020017f577261746800000000000000000000000000000000000000000000000000000081525081526020016040518060400160405280600781526020017f4c6967687427730000000000000000000000000000000000000000000000000081525081526020016040518060400160405280600a81526020017f5368696d6d6572696e670000000000000000000000000000000000000000000081525081525060129060456200241092919062002b9a565b506040518061024001604052806040518060400160405280600481526020017f42616e650000000000000000000000000000000000000000000000000000000081525081526020016040518060400160405280600481526020017f526f6f740000000000000000000000000000000000000000000000000000000081525081526020016040518060400160405280600481526020017f426974650000000000000000000000000000000000000000000000000000000081525081526020016040518060400160405280600481526020017f536f6e670000000000000000000000000000000000000000000000000000000081525081526020016040518060400160405280600481526020017f526f61720000000000000000000000000000000000000000000000000000000081525081526020016040518060400160405280600581526020017f477261737000000000000000000000000000000000000000000000000000000081525081526020016040518060400160405280600a81526020017f496e737472756d656e740000000000000000000000000000000000000000000081525081526020016040518060400160405280600481526020017f476c6f770000000000000000000000000000000000000000000000000000000081525081526020016040518060400160405280600681526020017f42656e646572000000000000000000000000000000000000000000000000000081525081526020016040518060400160405280600681526020017f536861646f77000000000000000000000000000000000000000000000000000081525081526020016040518060400160405280600781526020017f576869737065720000000000000000000000000000000000000000000000000081525081526020016040518060400160405280600581526020017f53686f757400000000000000000000000000000000000000000000000000000081525081526020016040518060400160405280600581526020017f47726f776c00000000000000000000000000000000000000000000000000000081525081526020016040518060400160405280600481526020017f546561720000000000000000000000000000000000000000000000000000000081525081526020016040518060400160405280600481526020017f5065616b0000000000000000000000000000000000000000000000000000000081525081526020016040518060400160405280600481526020017f466f726d0000000000000000000000000000000000000000000000000000000081525081526020016040518060400160405280600381526020017f53756e000000000000000000000000000000000000000000000000000000000081525081526020016040518060400160405280600481526020017f4d6f6f6e00000000000000000000000000000000000000000000000000000000815250815250601390601262002853929190620029fe565b503480156200286157600080fd5b506040518060400160405280600581526020017f7a4c6f6f740000000000000000000000000000000000000000000000000000008152506040518060400160405280600381526020017f5a4c5400000000000000000000000000000000000000000000000000000000008152508160009080519060200190620028e692919062002c01565b508060019080519060200190620028ff92919062002c01565b5050506001600a819055506200292a6200291e6200293060201b60201c565b6200293860201b60201c565b62002d84565b600033905090565b6000600b60009054906101000a900473ffffffffffffffffffffffffffffffffffffffff16905081600b60006101000a81548173ffffffffffffffffffffffffffffffffffffffff021916908373ffffffffffffffffffffffffffffffffffffffff1602179055508173ffffffffffffffffffffffffffffffffffffffff168173ffffffffffffffffffffffffffffffffffffffff167f8be0079c531659141344cd1fd0a4f28419497f9722a3daafe3b4186f6b6457e060405160405180910390a35050565b82805482825590600052602060002090810192821562002a52579160200282015b8281111562002a5157825182908051906020019062002a4092919062002c01565b509160200191906001019062002a1f565b5b50905062002a61919062002c92565b5090565b82805482825590600052602060002090810192821562002ab9579160200282015b8281111562002ab857825182908051906020019062002aa792919062002c01565b509160200191906001019062002a86565b5b50905062002ac8919062002c92565b5090565b82805482825590600052602060002090810192821562002b20579160200282015b8281111562002b1f57825182908051906020019062002b0e92919062002c01565b509160200191906001019062002aed565b5b50905062002b2f919062002c92565b5090565b82805482825590600052602060002090810192821562002b87579160200282015b8281111562002b8657825182908051906020019062002b7592919062002c01565b509160200191906001019062002b54565b5b50905062002b96919062002c92565b5090565b82805482825590600052602060002090810192821562002bee579160200282015b8281111562002bed57825182908051906020019062002bdc92919062002c01565b509160200191906001019062002bbb565b5b50905062002bfd919062002c92565b5090565b82805462002c0f9062002d1f565b90600052602060002090601f01602090048101928262002c33576000855562002c7f565b82601f1062002c4e57805160ff191683800117855562002c7f565b8280016001018555821562002c7f579182015b8281111562002c7e57825182559160200191906001019062002c61565b5b50905062002c8e919062002cba565b5090565b5b8082111562002cb6576000818162002cac919062002cd9565b5060010162002c93565b5090565b5b8082111562002cd557600081600090555060010162002cbb565b5090565b50805462002ce79062002d1f565b6000825580601f1062002cfb575062002d1c565b601f01602090049060005260206000209081019062002d1b919062002cba565b5b50565b6000600282049050600182168062002d3857607f821691505b6020821081141562002d4f5762002d4e62002d55565b5b50919050565b7f4e487b7100000000000000000000000000000000000000000000000000000000600052602260045260246000fd5b6155f78062002d946000396000f3fe60806040526004361061019c5760003560e01c806370a08231116100ec578063b88d4fde1161008a578063c87b56dd11610064578063c87b56dd14610615578063d47f269e14610652578063e985e9c51461068f578063f2fde38b146106cc5761019c565b8063b88d4fde14610586578063beabacc8146105af578063c08a5dd5146105d85761019c565b80638da5cb5b116100c65780638da5cb5b146104ca57806395d89b41146104f55780639e41b73f14610520578063a22cb4651461055d5761019c565b806370a0823114610439578063715018a614610476578063895d36471461048d5761019c565b806322b8d04411610159578063379607f511610133578063379607f51461037a57806342842e0e146103965780634f6ccce7146103bf5780636352211e146103fc5761019c565b806322b8d044146102d757806323b872dd146103145780632f745c591461033d5761019c565b8063017fe809146101a157806301ffc9a7146101de57806306fdde031461021b578063081812fc14610246578063095ea7b31461028357806318160ddd146102ac575b600080fd5b3480156101ad57600080fd5b506101c860048036038101906101c39190613d20565b6106f5565b6040516101d59190614c1d565b60405180910390f35b3480156101ea57600080fd5b5061020560048036038101906102009190613c8d565b61080f565b6040516102129190614c02565b60405180910390f35b34801561022757600080fd5b50610230610889565b60405161023d9190614c1d565b60405180910390f35b34801561025257600080fd5b5061026d60048036038101906102689190613d20565b61091b565b60405161027a9190614b9b565b60405180910390f35b34801561028f57600080fd5b506102aa60048036038101906102a59190613c51565b6109a0565b005b3480156102b857600080fd5b506102c1610ab8565b6040516102ce9190614f16565b60405180910390f35b3480156102e357600080fd5b506102fe60048036038101906102f99190613cdf565b610ac5565b60405161030b9190614f16565b60405180910390f35b34801561032057600080fd5b5061033b60048036038101906103369190613b4b565b610af8565b005b34801561034957600080fd5b50610364600480360381019061035f9190613c51565b610b58565b6040516103719190614f16565b60405180910390f35b610394600480360381019061038f9190613d20565b610bfd565b005b3480156103a257600080fd5b506103bd60048036038101906103b89190613b4b565b610d41565b005b3480156103cb57600080fd5b506103e660048036038101906103e19190613d20565b610d61565b6040516103f39190614f16565b60405180910390f35b34801561040857600080fd5b50610423600480360381019061041e9190613d20565b610df8565b6040516104309190614b9b565b60405180910390f35b34801561044557600080fd5b50610460600480360381019061045b9190613ae6565b610eaa565b60405161046d9190614f16565b60405180910390f35b34801561048257600080fd5b5061048b610f62565b005b34801561049957600080fd5b506104b460048036038101906104af9190613d20565b610fea565b6040516104c19190614c1d565b60405180910390f35b3480156104d657600080fd5b506104df611104565b6040516104ec9190614b9b565b60405180910390f35b34801561050157600080fd5b5061050a61112e565b6040516105179190614c1d565b60405180910390f35b34801561052c57600080fd5b5061054760048036038101906105429190613d20565b6111c0565b6040516105549190614c1d565b60405180910390f35b34801561056957600080fd5b50610584600480360381019061057f9190613c15565b6112da565b005b34801561059257600080fd5b506105ad60048036038101906105a89190613b9a565b61145b565b005b3480156105bb57600080fd5b506105d660048036038101906105d19190613b4b565b6114bd565b005b3480156105e457600080fd5b506105ff60048036038101906105fa9190613d20565b6114cd565b60405161060c9190614c1d565b60405180910390f35b34801561062157600080fd5b5061063c60048036038101906106379190613d20565b6115e7565b6040516106499190614c1d565b60405180910390f35b34801561065e57600080fd5b5061067960048036038101906106749190613d20565b611cfa565b6040516106869190614c1d565b60405180910390f35b34801561069b57600080fd5b506106b660048036038101906106b19190613b0f565b611e14565b6040516106c39190614c02565b60405180910390f35b3480156106d857600080fd5b506106f360048036038101906106ee9190613ae6565b611ea8565b005b6060610808826040518060400160405280600581526020017f504f574552000000000000000000000000000000000000000000000000000000815250600e805480602002602001604051908101604052809291908181526020016000905b828210156107ff578382906000526020600020018054610772906151e5565b80601f016020809104026020016040519081016040528092919081815260200182805461079e906151e5565b80156107eb5780601f106107c0576101008083540402835291602001916107eb565b820191906000526020600020905b8154815290600101906020018083116107ce57829003601f168201915b505050505081526020019060010190610753565b50505050611fa0565b9050919050565b60007f780e9d63000000000000000000000000000000000000000000000000000000007bffffffffffffffffffffffffffffffffffffffffffffffffffffffff1916827bffffffffffffffffffffffffffffffffffffffffffffffffffffffff1916148061088257506108818261253e565b5b9050919050565b606060008054610898906151e5565b80601f01602080910402602001604051908101604052809291908181526020018280546108c4906151e5565b80156109115780601f106108e657610100808354040283529160200191610911565b820191906000526020600020905b8154815290600101906020018083116108f457829003601f168201915b5050505050905090565b600061092682612620565b610965576040517f08c379a000000000000000000000000000000000000000000000000000000000815260040161095c90614dd6565b60405180910390fd5b6004600083815260200190815260200160002060009054906101000a900473ffffffffffffffffffffffffffffffffffffffff169050919050565b60006109ab82610df8565b90508073ffffffffffffffffffffffffffffffffffffffff168373ffffffffffffffffffffffffffffffffffffffff161415610a1c576040517f08c379a0000000000000000000000000000000000000000000000000000000008152600401610a1390614e36565b60405180910390fd5b8073ffffffffffffffffffffffffffffffffffffffff16610a3b61268c565b73ffffffffffffffffffffffffffffffffffffffff161480610a6a5750610a6981610a6461268c565b611e14565b5b610aa9576040517f08c379a0000000000000000000000000000000000000000000000000000000008152600401610aa090614d56565b60405180910390fd5b610ab38383612694565b505050565b6000600880549050905090565b600081604051602001610ad8919061496b565b6040516020818303038152906040528051906020012060001c9050919050565b610b09610b0361268c565b8261274d565b610b48576040517f08c379a0000000000000000000000000000000000000000000000000000000008152600401610b3f90614e56565b60405180910390fd5b610b5383838361282b565b505050565b6000610b6383610eaa565b8210610ba4576040517f08c379a0000000000000000000000000000000000000000000000000000000008152600401610b9b90614c76565b60405180910390fd5b600660008473ffffffffffffffffffffffffffffffffffffffff1673ffffffffffffffffffffffffffffffffffffffff168152602001908152602001600020600083815260200190815260200160002054905092915050565b6002600a541415610c43576040517f08c379a0000000000000000000000000000000000000000000000000000000008152600401610c3a90614ed6565b60405180910390fd5b6002600a819055506000610c5633610eaa565b14610c96576040517f08c379a0000000000000000000000000000000000000000000000000000000008152600401610c8d90614e96565b60405180910390fd5b6102588110610cda576040517f08c379a0000000000000000000000000000000000000000000000000000000008152600401610cd190614ef6565b60405180910390fd5b670de0b6b3a7640000341015610d25576040517f08c379a0000000000000000000000000000000000000000000000000000000008152600401610d1c90614eb6565b60405180910390fd5b610d36610d3061268c565b82612a87565b6001600a8190555050565b610d5c8383836040518060200160405280600081525061145b565b505050565b6000610d6b610ab8565b8210610dac576040517f08c379a0000000000000000000000000000000000000000000000000000000008152600401610da390614e76565b60405180910390fd5b60088281548110610de6577f4e487b7100000000000000000000000000000000000000000000000000000000600052603260045260246000fd5b90600052602060002001549050919050565b6000806002600084815260200190815260200160002060009054906101000a900473ffffffffffffffffffffffffffffffffffffffff169050600073ffffffffffffffffffffffffffffffffffffffff168173ffffffffffffffffffffffffffffffffffffffff161415610ea1576040517f08c379a0000000000000000000000000000000000000000000000000000000008152600401610e9890614d96565b60405180910390fd5b80915050919050565b60008073ffffffffffffffffffffffffffffffffffffffff168273ffffffffffffffffffffffffffffffffffffffff161415610f1b576040517f08c379a0000000000000000000000000000000000000000000000000000000008152600401610f1290614d76565b60405180910390fd5b600360008373ffffffffffffffffffffffffffffffffffffffff1673ffffffffffffffffffffffffffffffffffffffff168152602001908152602001600020549050919050565b610f6a61268c565b73ffffffffffffffffffffffffffffffffffffffff16610f88611104565b73ffffffffffffffffffffffffffffffffffffffff1614610fde576040517f08c379a0000000000000000000000000000000000000000000000000000000008152600401610fd590614df6565b60405180910390fd5b610fe86000612aa5565b565b60606110fd826040518060400160405280600981526020017f434f4d50414e494f4e0000000000000000000000000000000000000000000000815250600d805480602002602001604051908101604052809291908181526020016000905b828210156110f4578382906000526020600020018054611067906151e5565b80601f0160208091040260200160405190810160405280929190818152602001828054611093906151e5565b80156110e05780601f106110b5576101008083540402835291602001916110e0565b820191906000526020600020905b8154815290600101906020018083116110c357829003601f168201915b505050505081526020019060010190611048565b50505050611fa0565b9050919050565b6000600b60009054906101000a900473ffffffffffffffffffffffffffffffffffffffff16905090565b60606001805461113d906151e5565b80601f0160208091040260200160405190810160405280929190818152602001828054611169906151e5565b80156111b65780601f1061118b576101008083540402835291602001916111b6565b820191906000526020600020905b81548152906001019060200180831161119957829003601f168201915b5050505050905090565b60606112d3826040518060400160405280600681526020017f574541504f4e0000000000000000000000000000000000000000000000000000815250600c805480602002602001604051908101604052809291908181526020016000905b828210156112ca57838290600052602060002001805461123d906151e5565b80601f0160208091040260200160405190810160405280929190818152602001828054611269906151e5565b80156112b65780601f1061128b576101008083540402835291602001916112b6565b820191906000526020600020905b81548152906001019060200180831161129957829003601f168201915b50505050508152602001906001019061121e565b50505050611fa0565b9050919050565b6112e261268c565b73ffffffffffffffffffffffffffffffffffffffff168273ffffffffffffffffffffffffffffffffffffffff161415611350576040517f08c379a000000000000000000000000000000000000000000000000000000000815260040161134790614d16565b60405180910390fd5b806005600061135d61268c565b73ffffffffffffffffffffffffffffffffffffffff1673ffffffffffffffffffffffffffffffffffffffff16815260200190815260200160002060008473ffffffffffffffffffffffffffffffffffffffff1673ffffffffffffffffffffffffffffffffffffffff16815260200190815260200160002060006101000a81548160ff0219169083151502179055508173ffffffffffffffffffffffffffffffffffffffff1661140a61268c565b73ffffffffffffffffffffffffffffffffffffffff167f17307eab39ab6107e8899845ad3d59bd9653f200f220920489ca2b5937696c318360405161144f9190614c02565b60405180910390a35050565b61146c61146661268c565b8361274d565b6114ab576040517f08c379a00000000000000000000000000000000000000000000000000000000081526004016114a290614e56565b60405180910390fd5b6114b784848484612b6b565b50505050565b6114c8838383610d41565b505050565b60606115e0826040518060400160405280600481526020017f52494e47000000000000000000000000000000000000000000000000000000008152506010805480602002602001604051908101604052809291908181526020016000905b828210156115d757838290600052602060002001805461154a906151e5565b80601f0160208091040260200160405190810160405280929190818152602001828054611576906151e5565b80156115c35780601f10611598576101008083540402835291602001916115c3565b820191906000526020600020905b8154815290600101906020018083116115a657829003601f168201915b50505050508152602001906001019061152b565b50505050611fa0565b9050919050565b60606115f161395e565b60405180610120016040528060fd815260200161545d60fd913981600060118110611645577f4e487b7100000000000000000000000000000000000000000000000000000000600052603260045260246000fd5b6020020181905250611656836111c0565b81600160118110611690577f4e487b7100000000000000000000000000000000000000000000000000000000600052603260045260246000fd5b602002018190525060405180606001604052806028815260200161559a60289139816002601181106116eb577f4e487b7100000000000000000000000000000000000000000000000000000000600052603260045260246000fd5b60200201819052506116fc83610fea565b81600360118110611736577f4e487b7100000000000000000000000000000000000000000000000000000000600052603260045260246000fd5b60200201819052506040518060600160405280602881526020016153bb6028913981600460118110611791577f4e487b7100000000000000000000000000000000000000000000000000000000600052603260045260246000fd5b60200201819052506117a2836106f5565b816005601181106117dc577f4e487b7100000000000000000000000000000000000000000000000000000000600052603260045260246000fd5b602002018190525060405180606001604052806028815260200161540c6028913981600660118110611837577f4e487b7100000000000000000000000000000000000000000000000000000000600052603260045260246000fd5b602002018190525061184883611cfa565b81600760118110611882577f4e487b7100000000000000000000000000000000000000000000000000000000600052603260045260246000fd5b602002018190525060405180606001604052806029815260200161543460299139816008601181106118dd577f4e487b7100000000000000000000000000000000000000000000000000000000600052603260045260246000fd5b60200201819052506118ee836114cd565b81600960118110611928577f4e487b7100000000000000000000000000000000000000000000000000000000600052603260045260246000fd5b60200201819052506040518060600160405280602981526020016153e36029913981600a60118110611983577f4e487b7100000000000000000000000000000000000000000000000000000000600052603260045260246000fd5b60200201819052506000816000601181106119c7577f4e487b7100000000000000000000000000000000000000000000000000000000600052603260045260246000fd5b602002015182600160118110611a06577f4e487b7100000000000000000000000000000000000000000000000000000000600052603260045260246000fd5b602002015183600260118110611a45577f4e487b7100000000000000000000000000000000000000000000000000000000600052603260045260246000fd5b602002015184600360118110611a84577f4e487b7100000000000000000000000000000000000000000000000000000000600052603260045260246000fd5b602002015185600460118110611ac3577f4e487b7100000000000000000000000000000000000000000000000000000000600052603260045260246000fd5b602002015186600560118110611b02577f4e487b7100000000000000000000000000000000000000000000000000000000600052603260045260246000fd5b602002015187600660118110611b41577f4e487b7100000000000000000000000000000000000000000000000000000000600052603260045260246000fd5b602002015188600760118110611b80577f4e487b7100000000000000000000000000000000000000000000000000000000600052603260045260246000fd5b602002015189600860118110611bbf577f4e487b7100000000000000000000000000000000000000000000000000000000600052603260045260246000fd5b6020020151604051602001611bdc999897969594939291906149d7565b60405160208183030381529060405290508082600960118110611c28577f4e487b7100000000000000000000000000000000000000000000000000000000600052603260045260246000fd5b602002015183600a60118110611c67577f4e487b7100000000000000000000000000000000000000000000000000000000600052603260045260246000fd5b6020020151604051602001611c7e939291906149a6565b60405160208183030381529060405290506000611ccb611c9d86612bc7565b611ca684612d74565b604051602001611cb7929190614b34565b604051602081830303815290604052612d74565b905080604051602001611cde9190614b79565b6040516020818303038152906040529150819350505050919050565b6060611e0d826040518060400160405280600481526020017f48414e4400000000000000000000000000000000000000000000000000000000815250600f805480602002602001604051908101604052809291908181526020016000905b82821015611e04578382906000526020600020018054611d77906151e5565b80601f0160208091040260200160405190810160405280929190818152602001828054611da3906151e5565b8015611df05780601f10611dc557610100808354040283529160200191611df0565b820191906000526020600020905b815481529060010190602001808311611dd357829003601f168201915b505050505081526020019060010190611d58565b50505050611fa0565b9050919050565b6000600560008473ffffffffffffffffffffffffffffffffffffffff1673ffffffffffffffffffffffffffffffffffffffff16815260200190815260200160002060008373ffffffffffffffffffffffffffffffffffffffff1673ffffffffffffffffffffffffffffffffffffffff16815260200190815260200160002060009054906101000a900460ff16905092915050565b611eb061268c565b73ffffffffffffffffffffffffffffffffffffffff16611ece611104565b73ffffffffffffffffffffffffffffffffffffffff1614611f24576040517f08c379a0000000000000000000000000000000000000000000000000000000008152600401611f1b90614df6565b60405180910390fd5b600073ffffffffffffffffffffffffffffffffffffffff168173ffffffffffffffffffffffffffffffffffffffff161415611f94576040517f08c379a0000000000000000000000000000000000000000000000000000000008152600401611f8b90614cb6565b60405180910390fd5b611f9d81612aa5565b50565b60606000611fd684611fb187612bc7565b604051602001611fc2929190614982565b604051602081830303815290604052610ac5565b9050600083845183611fe89190615260565b8151811061201f577f4e487b7100000000000000000000000000000000000000000000000000000000600052603260045260246000fd5b6020026020010151905061203e8451836120399190615260565b612f32565b600060158361204d9190615260565b905061205881612f32565b600e8111156120d8578160118080549050856120749190615260565b815481106120ab577f4e487b7100000000000000000000000000000000000000000000000000000000600052603260045260246000fd5b906000526020600020016040516020016120c6929190614a56565b60405160208183030381529060405291505b60138110612531576120e8613986565b60128080549050856120fa9190615260565b81548110612131577f4e487b7100000000000000000000000000000000000000000000000000000000600052603260045260246000fd5b906000526020600020018054612146906151e5565b80601f0160208091040260200160405190810160405280929190818152602001828054612172906151e5565b80156121bf5780601f10612194576101008083540402835291602001916121bf565b820191906000526020600020905b8154815290600101906020018083116121a257829003601f168201915b5050505050816000600281106121fe577f4e487b7100000000000000000000000000000000000000000000000000000000600052603260045260246000fd5b602002018190525060138080549050856122189190615260565b8154811061224f577f4e487b7100000000000000000000000000000000000000000000000000000000600052603260045260246000fd5b906000526020600020018054612264906151e5565b80601f0160208091040260200160405190810160405280929190818152602001828054612290906151e5565b80156122dd5780601f106122b2576101008083540402835291602001916122dd565b820191906000526020600020905b8154815290600101906020018083116122c057829003601f168201915b50505050508160016002811061231c577f4e487b7100000000000000000000000000000000000000000000000000000000600052603260045260246000fd5b60200201819052506123aa81600060028110612361577f4e487b7100000000000000000000000000000000000000000000000000000000600052603260045260246000fd5b6020020151826001600281106123a0577f4e487b7100000000000000000000000000000000000000000000000000000000600052603260045260246000fd5b6020020151612fcb565b6123c3601280549050856123be9190615260565b612f32565b6123dc601380549050856123d79190615260565b612f32565b601382141561248c578060006002811061241f577f4e487b7100000000000000000000000000000000000000000000000000000000600052603260045260246000fd5b60200201518160016002811061245e577f4e487b7100000000000000000000000000000000000000000000000000000000600052603260045260246000fd5b60200201518460405160200161247693929190614a85565b604051602081830303815290604052925061252f565b806000600281106124c6577f4e487b7100000000000000000000000000000000000000000000000000000000600052603260045260246000fd5b602002015181600160028110612505577f4e487b7100000000000000000000000000000000000000000000000000000000600052603260045260246000fd5b60200201518460405160200161251d93929190614ad7565b60405160208183030381529060405292505b505b8193505050509392505050565b60007f80ac58cd000000000000000000000000000000000000000000000000000000007bffffffffffffffffffffffffffffffffffffffffffffffffffffffff1916827bffffffffffffffffffffffffffffffffffffffffffffffffffffffff1916148061260957507f5b5e139f000000000000000000000000000000000000000000000000000000007bffffffffffffffffffffffffffffffffffffffffffffffffffffffff1916827bffffffffffffffffffffffffffffffffffffffffffffffffffffffff1916145b80612619575061261882613067565b5b9050919050565b60008073ffffffffffffffffffffffffffffffffffffffff166002600084815260200190815260200160002060009054906101000a900473ffffffffffffffffffffffffffffffffffffffff1673ffffffffffffffffffffffffffffffffffffffff1614159050919050565b600033905090565b816004600083815260200190815260200160002060006101000a81548173ffffffffffffffffffffffffffffffffffffffff021916908373ffffffffffffffffffffffffffffffffffffffff160217905550808273ffffffffffffffffffffffffffffffffffffffff1661270783610df8565b73ffffffffffffffffffffffffffffffffffffffff167f8c5be1e5ebec7d5bd14f71427d1e84f3dd0314c0f7b2291e5b200ac8c7c3b92560405160405180910390a45050565b600061275882612620565b612797576040517f08c379a000000000000000000000000000000000000000000000000000000000815260040161278e90614d36565b60405180910390fd5b60006127a283610df8565b90508073ffffffffffffffffffffffffffffffffffffffff168473ffffffffffffffffffffffffffffffffffffffff16148061281157508373ffffffffffffffffffffffffffffffffffffffff166127f98461091b565b73ffffffffffffffffffffffffffffffffffffffff16145b8061282257506128218185611e14565b5b91505092915050565b8273ffffffffffffffffffffffffffffffffffffffff1661284b82610df8565b73ffffffffffffffffffffffffffffffffffffffff16146128a1576040517f08c379a000000000000000000000000000000000000000000000000000000000815260040161289890614e16565b60405180910390fd5b600073ffffffffffffffffffffffffffffffffffffffff168273ffffffffffffffffffffffffffffffffffffffff161415612911576040517f08c379a000000000000000000000000000000000000000000000000000000000815260040161290890614cf6565b60405180910390fd5b61291c8383836130d1565b612927600082612694565b6001600360008573ffffffffffffffffffffffffffffffffffffffff1673ffffffffffffffffffffffffffffffffffffffff168152602001908152602001600020600082825461297791906150fb565b925050819055506001600360008473ffffffffffffffffffffffffffffffffffffffff1673ffffffffffffffffffffffffffffffffffffffff16815260200190815260200160002060008282546129ce919061501a565b92505081905550816002600083815260200190815260200160002060006101000a81548173ffffffffffffffffffffffffffffffffffffffff021916908373ffffffffffffffffffffffffffffffffffffffff160217905550808273ffffffffffffffffffffffffffffffffffffffff168473ffffffffffffffffffffffffffffffffffffffff167fddf252ad1be2c89b69c2b068fc378daa952ba7f163c4a11628f55a4df523b3ef60405160405180910390a4505050565b612aa18282604051806020016040528060008152506131e5565b5050565b6000600b60009054906101000a900473ffffffffffffffffffffffffffffffffffffffff16905081600b60006101000a81548173ffffffffffffffffffffffffffffffffffffffff021916908373ffffffffffffffffffffffffffffffffffffffff1602179055508173ffffffffffffffffffffffffffffffffffffffff168173ffffffffffffffffffffffffffffffffffffffff167f8be0079c531659141344cd1fd0a4f28419497f9722a3daafe3b4186f6b6457e060405160405180910390a35050565b612b7684848461282b565b612b8284848484613240565b612bc1576040517f08c379a0000000000000000000000000000000000000000000000000000000008152600401612bb890614c96565b60405180910390fd5b50505050565b60606000821415612c0f576040518060400160405280600181526020017f30000000000000000000000000000000000000000000000000000000000000008152509050612d6f565b600082905060005b60008214612c41578080612c2a90615217565b915050600a82612c3a9190615070565b9150612c17565b60008167ffffffffffffffff811115612c83577f4e487b7100000000000000000000000000000000000000000000000000000000600052604160045260246000fd5b6040519080825280601f01601f191660200182016040528015612cb55781602001600182028036833780820191505090505b5090505b60008514612d6857600182612cce91906150fb565b9150600a85612cdd9190615260565b6030612ce9919061501a565b60f81b818381518110612d25577f4e487b7100000000000000000000000000000000000000000000000000000000600052603260045260246000fd5b60200101907effffffffffffffffffffffffffffffffffffffffffffffffffffffffffffff1916908160001a905350600a85612d619190615070565b9450612cb9565b8093505050505b919050565b60606000825190506000811415612d9d5760405180602001604052806000815250915050612f2d565b60006003600283612dae919061501a565b612db89190615070565b6004612dc491906150a1565b90506000602082612dd5919061501a565b67ffffffffffffffff811115612e14577f4e487b7100000000000000000000000000000000000000000000000000000000600052604160045260246000fd5b6040519080825280601f01601f191660200182016040528015612e465781602001600182028036833780820191505090505b509050600060405180606001604052806040815260200161555a604091399050600181016020830160005b86811015612eea5760038101905062ffffff818a015116603f8160121c168401518060081b905060ff603f83600c1c1686015116810190508060081b905060ff603f8360061c1686015116810190508060081b905060ff603f831686015116810190508060e01b90508084526004840193505050612e71565b506003860660018114612f045760028114612f1457612f1f565b613d3d60f01b6002830352612f1f565b603d60f81b60018303525b508484525050819450505050505b919050565b612fc881604051602401612f469190614f16565b6040516020818303038152906040527ff5b1bba9000000000000000000000000000000000000000000000000000000007bffffffffffffffffffffffffffffffffffffffffffffffffffffffff19166020820180517bffffffffffffffffffffffffffffffffffffffffffffffffffffffff83818316178352505050506133d7565b50565b6130638282604051602401612fe1929190614c3f565b6040516020818303038152906040527f4b5c4277000000000000000000000000000000000000000000000000000000007bffffffffffffffffffffffffffffffffffffffffffffffffffffffff19166020820180517bffffffffffffffffffffffffffffffffffffffffffffffffffffffff83818316178352505050506133d7565b5050565b60007f01ffc9a7000000000000000000000000000000000000000000000000000000007bffffffffffffffffffffffffffffffffffffffffffffffffffffffff1916827bffffffffffffffffffffffffffffffffffffffffffffffffffffffff1916149050919050565b6130dc838383613400565b600073ffffffffffffffffffffffffffffffffffffffff168373ffffffffffffffffffffffffffffffffffffffff16141561311f5761311a81613405565b61315e565b8173ffffffffffffffffffffffffffffffffffffffff168373ffffffffffffffffffffffffffffffffffffffff161461315d5761315c838261344e565b5b5b600073ffffffffffffffffffffffffffffffffffffffff168273ffffffffffffffffffffffffffffffffffffffff1614156131a15761319c816135bb565b6131e0565b8273ffffffffffffffffffffffffffffffffffffffff168273ffffffffffffffffffffffffffffffffffffffff16146131df576131de82826136fe565b5b5b505050565b6131ef838361377d565b6131fc6000848484613240565b61323b576040517f08c379a000000000000000000000000000000000000000000000000000000000815260040161323290614c96565b60405180910390fd5b505050565b60006132618473ffffffffffffffffffffffffffffffffffffffff1661394b565b156133ca578373ffffffffffffffffffffffffffffffffffffffff1663150b7a0261328a61268c565b8786866040518563ffffffff1660e01b81526004016132ac9493929190614bb6565b602060405180830381600087803b1580156132c657600080fd5b505af19250505080156132f757506040513d601f19601f820116820180604052508101906132f49190613cb6565b60015b61337a573d8060008114613327576040519150601f19603f3d011682016040523d82523d6000602084013e61332c565b606091505b50600081511415613372576040517f08c379a000000000000000000000000000000000000000000000000000000000815260040161336990614c96565b60405180910390fd5b805181602001fd5b63150b7a0260e01b7bffffffffffffffffffffffffffffffffffffffffffffffffffffffff1916817bffffffffffffffffffffffffffffffffffffffffffffffffffffffff1916149150506133cf565b600190505b949350505050565b60008151905060006a636f6e736f6c652e6c6f679050602083016000808483855afa5050505050565b505050565b6008805490506009600083815260200190815260200160002081905550600881908060018154018082558091505060019003906000526020600020016000909190919091505550565b6000600161345b84610eaa565b61346591906150fb565b905060006007600084815260200190815260200160002054905081811461354a576000600660008673ffffffffffffffffffffffffffffffffffffffff1673ffffffffffffffffffffffffffffffffffffffff168152602001908152602001600020600084815260200190815260200160002054905080600660008773ffffffffffffffffffffffffffffffffffffffff1673ffffffffffffffffffffffffffffffffffffffff168152602001908152602001600020600084815260200190815260200160002081905550816007600083815260200190815260200160002081905550505b6007600084815260200190815260200160002060009055600660008573ffffffffffffffffffffffffffffffffffffffff1673ffffffffffffffffffffffffffffffffffffffff16815260200190815260200160002060008381526020019081526020016000206000905550505050565b600060016008805490506135cf91906150fb565b9050600060096000848152602001908152602001600020549050600060088381548110613625577f4e487b7100000000000000000000000000000000000000000000000000000000600052603260045260246000fd5b90600052602060002001549050806008838154811061366d577f4e487b7100000000000000000000000000000000000000000000000000000000600052603260045260246000fd5b9060005260206000200181905550816009600083815260200190815260200160002081905550600960008581526020019081526020016000206000905560088054806136e2577f4e487b7100000000000000000000000000000000000000000000000000000000600052603160045260246000fd5b6001900381819060005260206000200160009055905550505050565b600061370983610eaa565b905081600660008573ffffffffffffffffffffffffffffffffffffffff1673ffffffffffffffffffffffffffffffffffffffff168152602001908152602001600020600083815260200190815260200160002081905550806007600084815260200190815260200160002081905550505050565b600073ffffffffffffffffffffffffffffffffffffffff168273ffffffffffffffffffffffffffffffffffffffff1614156137ed576040517f08c379a00000000000000000000000000000000000000000000000000000000081526004016137e490614db6565b60405180910390fd5b6137f681612620565b15613836576040517f08c379a000000000000000000000000000000000000000000000000000000000815260040161382d90614cd6565b60405180910390fd5b613842600083836130d1565b6001600360008473ffffffffffffffffffffffffffffffffffffffff1673ffffffffffffffffffffffffffffffffffffffff1681526020019081526020016000206000828254613892919061501a565b92505081905550816002600083815260200190815260200160002060006101000a81548173ffffffffffffffffffffffffffffffffffffffff021916908373ffffffffffffffffffffffffffffffffffffffff160217905550808273ffffffffffffffffffffffffffffffffffffffff16600073ffffffffffffffffffffffffffffffffffffffff167fddf252ad1be2c89b69c2b068fc378daa952ba7f163c4a11628f55a4df523b3ef60405160405180910390a45050565b600080823b905060008111915050919050565b6040518061022001604052806011905b606081526020019060019003908161396e5790505090565b60405180604001604052806002905b60608152602001906001900390816139955790505090565b60006139c06139bb84614f62565b614f31565b9050828152602081018484840111156139d857600080fd5b6139e38482856151a3565b509392505050565b60006139fe6139f984614f92565b614f31565b905082815260208101848484011115613a1657600080fd5b613a218482856151a3565b509392505050565b600081359050613a388161535e565b92915050565b600081359050613a4d81615375565b92915050565b600081359050613a628161538c565b92915050565b600081519050613a778161538c565b92915050565b600082601f830112613a8e57600080fd5b8135613a9e8482602086016139ad565b91505092915050565b600082601f830112613ab857600080fd5b8135613ac88482602086016139eb565b91505092915050565b600081359050613ae0816153a3565b92915050565b600060208284031215613af857600080fd5b6000613b0684828501613a29565b91505092915050565b60008060408385031215613b2257600080fd5b6000613b3085828601613a29565b9250506020613b4185828601613a29565b9150509250929050565b600080600060608486031215613b6057600080fd5b6000613b6e86828701613a29565b9350506020613b7f86828701613a29565b9250506040613b9086828701613ad1565b9150509250925092565b60008060008060808587031215613bb057600080fd5b6000613bbe87828801613a29565b9450506020613bcf87828801613a29565b9350506040613be087828801613ad1565b925050606085013567ffffffffffffffff811115613bfd57600080fd5b613c0987828801613a7d565b91505092959194509250565b60008060408385031215613c2857600080fd5b6000613c3685828601613a29565b9250506020613c4785828601613a3e565b9150509250929050565b60008060408385031215613c6457600080fd5b6000613c7285828601613a29565b9250506020613c8385828601613ad1565b9150509250929050565b600060208284031215613c9f57600080fd5b6000613cad84828501613a53565b91505092915050565b600060208284031215613cc857600080fd5b6000613cd684828501613a68565b91505092915050565b600060208284031215613cf157600080fd5b600082013567ffffffffffffffff811115613d0b57600080fd5b613d1784828501613aa7565b91505092915050565b600060208284031215613d3257600080fd5b6000613d4084828501613ad1565b91505092915050565b613d528161512f565b82525050565b613d6181615141565b82525050565b6000613d7282614fd7565b613d7c8185614fed565b9350613d8c8185602086016151b2565b613d958161534d565b840191505092915050565b6000613dab82614fe2565b613db58185614ffe565b9350613dc58185602086016151b2565b613dce8161534d565b840191505092915050565b6000613de482614fe2565b613dee818561500f565b9350613dfe8185602086016151b2565b80840191505092915050565b60008154613e17816151e5565b613e21818661500f565b94506001821660008114613e3c5760018114613e4d57613e80565b60ff19831686528186019350613e80565b613e5685614fc2565b60005b83811015613e7857815481890152600182019150602081019050613e59565b838801955050505b50505092915050565b6000613e976101028361500f565b91507f222c20226465736372697074696f6e223a20227a4c6f6f742069732072616e6460008301527f6f6d697a656420616476656e747572657220676561722067656e65726174656460208301527f20616e642073746f726564206f6e20636861696e2e2053746174732c20696d6160408301527f6765732c20616e64206f746865722066756e6374696f6e616c6974792061726560608301527f20696e74656e74696f6e616c6c79206f6d697474656420666f72206f7468657260808301527f7320746f20696e746572707265742e204665656c206672656520746f2075736560a08301527f207a4c6f6f7420696e20616e792077617920796f752077616e742e222c20226960c08301527f6d616765223a2022646174613a696d6167652f7376672b786d6c3b626173653660e08301527f342c00000000000000000000000000000000000000000000000000000000000061010083015261010282019050919050565b6000614009602b83614ffe565b91507f455243373231456e756d657261626c653a206f776e657220696e646578206f7560008301527f74206f6620626f756e64730000000000000000000000000000000000000000006020830152604082019050919050565b600061406f603283614ffe565b91507f4552433732313a207472616e7366657220746f206e6f6e20455243373231526560008301527f63656976657220696d706c656d656e74657200000000000000000000000000006020830152604082019050919050565b60006140d5602683614ffe565b91507f4f776e61626c653a206e6577206f776e657220697320746865207a65726f206160008301527f64647265737300000000000000000000000000000000000000000000000000006020830152604082019050919050565b600061413b601c83614ffe565b91507f4552433732313a20746f6b656e20616c7265616479206d696e746564000000006000830152602082019050919050565b600061417b602483614ffe565b91507f4552433732313a207472616e7366657220746f20746865207a65726f2061646460008301527f72657373000000000000000000000000000000000000000000000000000000006020830152604082019050919050565b60006141e1601983614ffe565b91507f4552433732313a20617070726f766520746f2063616c6c6572000000000000006000830152602082019050919050565b600061422160028361500f565b91507f22200000000000000000000000000000000000000000000000000000000000006000830152600282019050919050565b6000614261602c83614ffe565b91507f4552433732313a206f70657261746f7220717565727920666f72206e6f6e657860008301527f697374656e7420746f6b656e00000000000000000000000000000000000000006020830152604082019050919050565b60006142c760018361500f565b91507f20000000000000000000000000000000000000000000000000000000000000006000830152600182019050919050565b6000614307603883614ffe565b91507f4552433732313a20617070726f76652063616c6c6572206973206e6f74206f7760008301527f6e6572206e6f7220617070726f76656420666f7220616c6c00000000000000006020830152604082019050919050565b600061436d60018361500f565b91507f22000000000000000000000000000000000000000000000000000000000000006000830152600182019050919050565b60006143ad602a83614ffe565b91507f4552433732313a2062616c616e636520717565727920666f7220746865207a6560008301527f726f2061646472657373000000000000000000000000000000000000000000006020830152604082019050919050565b6000614413602983614ffe565b91507f4552433732313a206f776e657220717565727920666f72206e6f6e657869737460008301527f656e7420746f6b656e00000000000000000000000000000000000000000000006020830152604082019050919050565b600061447960028361500f565b91507f227d0000000000000000000000000000000000000000000000000000000000006000830152600282019050919050565b60006144b9600f8361500f565b91507f7b226e616d65223a2022426167202300000000000000000000000000000000006000830152600f82019050919050565b60006144f9602083614ffe565b91507f4552433732313a206d696e7420746f20746865207a65726f20616464726573736000830152602082019050919050565b6000614539602c83614ffe565b91507f4552433732313a20617070726f76656420717565727920666f72206e6f6e657860008301527f697374656e7420746f6b656e00000000000000000000000000000000000000006020830152604082019050919050565b600061459f602083614ffe565b91507f4f776e61626c653a2063616c6c6572206973206e6f7420746865206f776e65726000830152602082019050919050565b60006145df602983614ffe565b91507f4552433732313a207472616e73666572206f6620746f6b656e2074686174206960008301527f73206e6f74206f776e00000000000000000000000000000000000000000000006020830152604082019050919050565b6000614645602183614ffe565b91507f4552433732313a20617070726f76616c20746f2063757272656e74206f776e6560008301527f72000000000000000000000000000000000000000000000000000000000000006020830152604082019050919050565b60006146ab601d8361500f565b91507f646174613a6170706c69636174696f6e2f6a736f6e3b6261736536342c0000006000830152601d82019050919050565b60006146eb60038361500f565b91507f202b3100000000000000000000000000000000000000000000000000000000006000830152600382019050919050565b600061472b603183614ffe565b91507f4552433732313a207472616e736665722063616c6c6572206973206e6f74206f60008301527f776e6572206e6f7220617070726f7665640000000000000000000000000000006020830152604082019050919050565b6000614791602c83614ffe565b91507f455243373231456e756d657261626c653a20676c6f62616c20696e646578206f60008301527f7574206f6620626f756e647300000000000000000000000000000000000000006020830152604082019050919050565b60006147f7602583614ffe565b91507f456163682061646472657373206d6179206f6e6c7920636c61696d206f6e652060008301527f746f6b656e0000000000000000000000000000000000000000000000000000006020830152604082019050919050565b600061485d602183614ffe565b91507f4e6f7420656e6f756768204554482073656e743b20636865636b20707269636560008301527f21000000000000000000000000000000000000000000000000000000000000006020830152604082019050919050565b60006148c3601f83614ffe565b91507f5265656e7472616e637947756172643a207265656e7472616e742063616c6c006000830152602082019050919050565b6000614903602e83614ffe565b91507f4e6f206d6f726520746f6b656e7320617661696c61626c652c616c6c20746f6b60008301527f656e7320617265206d696e7465640000000000000000000000000000000000006020830152604082019050919050565b61496581615199565b82525050565b60006149778284613dd9565b915081905092915050565b600061498e8285613dd9565b915061499a8284613dd9565b91508190509392505050565b60006149b28286613dd9565b91506149be8285613dd9565b91506149ca8284613dd9565b9150819050949350505050565b60006149e3828c613dd9565b91506149ef828b613dd9565b91506149fb828a613dd9565b9150614a078289613dd9565b9150614a138288613dd9565b9150614a1f8287613dd9565b9150614a2b8286613dd9565b9150614a378285613dd9565b9150614a438284613dd9565b91508190509a9950505050505050505050565b6000614a628285613dd9565b9150614a6d826142ba565b9150614a798284613e0a565b91508190509392505050565b6000614a9082614360565b9150614a9c8286613dd9565b9150614aa7826142ba565b9150614ab38285613dd9565b9150614abe82614214565b9150614aca8284613dd9565b9150819050949350505050565b6000614ae282614360565b9150614aee8286613dd9565b9150614af9826142ba565b9150614b058285613dd9565b9150614b1082614214565b9150614b1c8284613dd9565b9150614b27826146de565b9150819050949350505050565b6000614b3f826144ac565b9150614b4b8285613dd9565b9150614b5682613e89565b9150614b628284613dd9565b9150614b6d8261446c565b91508190509392505050565b6000614b848261469e565b9150614b908284613dd9565b915081905092915050565b6000602082019050614bb06000830184613d49565b92915050565b6000608082019050614bcb6000830187613d49565b614bd86020830186613d49565b614be5604083018561495c565b8181036060830152614bf78184613d67565b905095945050505050565b6000602082019050614c176000830184613d58565b92915050565b60006020820190508181036000830152614c378184613da0565b905092915050565b60006040820190508181036000830152614c598185613da0565b90508181036020830152614c6d8184613da0565b90509392505050565b60006020820190508181036000830152614c8f81613ffc565b9050919050565b60006020820190508181036000830152614caf81614062565b9050919050565b60006020820190508181036000830152614ccf816140c8565b9050919050565b60006020820190508181036000830152614cef8161412e565b9050919050565b60006020820190508181036000830152614d0f8161416e565b9050919050565b60006020820190508181036000830152614d2f816141d4565b9050919050565b60006020820190508181036000830152614d4f81614254565b9050919050565b60006020820190508181036000830152614d6f816142fa565b9050919050565b60006020820190508181036000830152614d8f816143a0565b9050919050565b60006020820190508181036000830152614daf81614406565b9050919050565b60006020820190508181036000830152614dcf816144ec565b9050919050565b60006020820190508181036000830152614def8161452c565b9050919050565b60006020820190508181036000830152614e0f81614592565b9050919050565b60006020820190508181036000830152614e2f816145d2565b9050919050565b60006020820190508181036000830152614e4f81614638565b9050919050565b60006020820190508181036000830152614e6f8161471e565b9050919050565b60006020820190508181036000830152614e8f81614784565b9050919050565b60006020820190508181036000830152614eaf816147ea565b9050919050565b60006020820190508181036000830152614ecf81614850565b9050919050565b60006020820190508181036000830152614eef816148b6565b9050919050565b60006020820190508181036000830152614f0f816148f6565b9050919050565b6000602082019050614f2b600083018461495c565b92915050565b6000604051905081810181811067ffffffffffffffff82111715614f5857614f5761531e565b5b8060405250919050565b600067ffffffffffffffff821115614f7d57614f7c61531e565b5b601f19601f8301169050602081019050919050565b600067ffffffffffffffff821115614fad57614fac61531e565b5b601f19601f8301169050602081019050919050565b60008190508160005260206000209050919050565b600081519050919050565b600081519050919050565b600082825260208201905092915050565b600082825260208201905092915050565b600081905092915050565b600061502582615199565b915061503083615199565b9250827fffffffffffffffffffffffffffffffffffffffffffffffffffffffffffffffff0382111561506557615064615291565b5b828201905092915050565b600061507b82615199565b915061508683615199565b925082615096576150956152c0565b5b828204905092915050565b60006150ac82615199565b91506150b783615199565b9250817fffffffffffffffffffffffffffffffffffffffffffffffffffffffffffffffff04831182151516156150f0576150ef615291565b5b828202905092915050565b600061510682615199565b915061511183615199565b92508282101561512457615123615291565b5b828203905092915050565b600061513a82615179565b9050919050565b60008115159050919050565b60007fffffffff0000000000000000000000000000000000000000000000000000000082169050919050565b600073ffffffffffffffffffffffffffffffffffffffff82169050919050565b6000819050919050565b82818337600083830152505050565b60005b838110156151d05780820151818401526020810190506151b5565b838111156151df576000848401525b50505050565b600060028204905060018216806151fd57607f821691505b60208210811415615211576152106152ef565b5b50919050565b600061522282615199565b91507fffffffffffffffffffffffffffffffffffffffffffffffffffffffffffffffff82141561525557615254615291565b5b600182019050919050565b600061526b82615199565b915061527683615199565b925082615286576152856152c0565b5b828206905092915050565b7f4e487b7100000000000000000000000000000000000000000000000000000000600052601160045260246000fd5b7f4e487b7100000000000000000000000000000000000000000000000000000000600052601260045260246000fd5b7f4e487b7100000000000000000000000000000000000000000000000000000000600052602260045260246000fd5b7f4e487b7100000000000000000000000000000000000000000000000000000000600052604160045260246000fd5b6000601f19601f8301169050919050565b6153678161512f565b811461537257600080fd5b50565b61537e81615141565b811461538957600080fd5b50565b6153958161514d565b81146153a057600080fd5b50565b6153ac81615199565b81146153b757600080fd5b5056fe3c2f746578743e3c7465787420783d2231302220793d2236302220636c6173733d2262617365223e3c2f746578743e3c7465787420783d2231302220793d223132302220636c6173733d2262617365223e3c2f746578743e3c7465787420783d2231302220793d2238302220636c6173733d2262617365223e3c2f746578743e3c7465787420783d2231302220793d223130302220636c6173733d2262617365223e3c73766720786d6c6e733d22687474703a2f2f7777772e77332e6f72672f323030302f73766722207072657365727665417370656374526174696f3d22784d696e594d696e206d656574222076696577426f783d223020302033353020333530223e3c7374796c653e2e62617365207b2066696c6c3a2077686974653b20666f6e742d66616d696c793a2073657269663b20666f6e742d73697a653a20313470783b207d3c2f7374796c653e3c726563742077696474683d223130302522206865696768743d2231303025222066696c6c3d22626c61636b22202f3e3c7465787420783d2231302220793d2232302220636c6173733d2262617365223e4142434445464748494a4b4c4d4e4f505152535455565758595a6162636465666768696a6b6c6d6e6f707172737475767778797a303132333435363738392b2f3c2f746578743e3c7465787420783d2231302220793d2234302220636c6173733d2262617365223ea264697066735822122015910a3a916113e617580b5e9ef8f263c78c0a4c5c14a0be07bc452ad9c07b3064736f6c63430008000033",
  "linkReferences": {},
  "deployedLinkReferences": {}
}