{
  "_format": "hh-sol-artifact-1",
  "contractName": "ZLoot",
  "sourceName": "contracts/ZLoot.sol",
  "abi": [
    {
      "inputs": [],
      "stateMutability": "nonpayable",
      "type": "constructor"
    },
    {
      "anonymous": false,
      "inputs": [
        {
          "indexed": true,
          "internalType": "address",
          "name": "owner",
          "type": "address"
        },
        {
          "indexed": true,
          "internalType": "address",
          "name": "approved",
          "type": "address"
        },
        {
          "indexed": true,
          "internalType": "uint256",
          "name": "tokenId",
          "type": "uint256"
        }
      ],
      "name": "Approval",
      "type": "event"
    },
    {
      "anonymous": false,
      "inputs": [
        {
          "indexed": true,
          "internalType": "address",
          "name": "owner",
          "type": "address"
        },
        {
          "indexed": true,
          "internalType": "address",
          "name": "operator",
          "type": "address"
        },
        {
          "indexed": false,
          "internalType": "bool",
          "name": "approved",
          "type": "bool"
        }
      ],
      "name": "ApprovalForAll",
      "type": "event"
    },
    {
      "anonymous": false,
      "inputs": [
        {
          "indexed": true,
          "internalType": "address",
          "name": "previousOwner",
          "type": "address"
        },
        {
          "indexed": true,
          "internalType": "address",
          "name": "newOwner",
          "type": "address"
        }
      ],
      "name": "OwnershipTransferred",
      "type": "event"
    },
    {
      "anonymous": false,
      "inputs": [
        {
          "indexed": true,
          "internalType": "address",
          "name": "from",
          "type": "address"
        },
        {
          "indexed": true,
          "internalType": "address",
          "name": "to",
          "type": "address"
        },
        {
          "indexed": true,
          "internalType": "uint256",
          "name": "tokenId",
          "type": "uint256"
        }
      ],
      "name": "Transfer",
      "type": "event"
    },
    {
      "inputs": [
        {
          "internalType": "address",
          "name": "to",
          "type": "address"
        },
        {
          "internalType": "uint256",
          "name": "tokenId",
          "type": "uint256"
        }
      ],
      "name": "approve",
      "outputs": [],
      "stateMutability": "nonpayable",
      "type": "function"
    },
    {
      "inputs": [
        {
          "internalType": "address",
          "name": "owner",
          "type": "address"
        }
      ],
      "name": "balanceOf",
      "outputs": [
        {
          "internalType": "uint256",
          "name": "",
          "type": "uint256"
        }
      ],
      "stateMutability": "view",
      "type": "function"
    },
    {
      "inputs": [
        {
          "internalType": "uint256",
          "name": "tokenId",
          "type": "uint256"
        },
        {
          "internalType": "uint256",
          "name": "minPrice",
          "type": "uint256"
        }
      ],
      "name": "claim",
      "outputs": [],
      "stateMutability": "payable",
      "type": "function"
    },
    {
      "inputs": [
        {
          "internalType": "uint256",
          "name": "tokenId",
          "type": "uint256"
        }
      ],
      "name": "getApproved",
      "outputs": [
        {
          "internalType": "address",
          "name": "",
          "type": "address"
        }
      ],
      "stateMutability": "view",
      "type": "function"
    },
    {
      "inputs": [
        {
          "internalType": "uint256",
          "name": "tokenId",
          "type": "uint256"
        }
      ],
      "name": "getCompanion",
      "outputs": [
        {
          "internalType": "string",
          "name": "",
          "type": "string"
        }
      ],
      "stateMutability": "view",
      "type": "function"
    },
    {
      "inputs": [
        {
          "internalType": "uint256",
          "name": "tokenId",
          "type": "uint256"
        }
      ],
      "name": "getHand",
      "outputs": [
        {
          "internalType": "string",
          "name": "",
          "type": "string"
        }
      ],
      "stateMutability": "view",
      "type": "function"
    },
    {
      "inputs": [
        {
          "internalType": "uint256",
          "name": "tokenId",
          "type": "uint256"
        }
      ],
      "name": "getPower",
      "outputs": [
        {
          "internalType": "string",
          "name": "",
          "type": "string"
        }
      ],
      "stateMutability": "view",
      "type": "function"
    },
    {
      "inputs": [
        {
          "internalType": "uint256",
          "name": "tokenId",
          "type": "uint256"
        }
      ],
      "name": "getRing",
      "outputs": [
        {
          "internalType": "string",
          "name": "",
          "type": "string"
        }
      ],
      "stateMutability": "view",
      "type": "function"
    },
    {
      "inputs": [
        {
          "internalType": "uint256",
          "name": "tokenId",
          "type": "uint256"
        }
      ],
      "name": "getWeapon",
      "outputs": [
        {
          "internalType": "string",
          "name": "",
          "type": "string"
        }
      ],
      "stateMutability": "view",
      "type": "function"
    },
    {
      "inputs": [
        {
          "internalType": "address",
          "name": "owner",
          "type": "address"
        },
        {
          "internalType": "address",
          "name": "operator",
          "type": "address"
        }
      ],
      "name": "isApprovedForAll",
      "outputs": [
        {
          "internalType": "bool",
          "name": "",
          "type": "bool"
        }
      ],
      "stateMutability": "view",
      "type": "function"
    },
    {
      "inputs": [],
      "name": "name",
      "outputs": [
        {
          "internalType": "string",
          "name": "",
          "type": "string"
        }
      ],
      "stateMutability": "view",
      "type": "function"
    },
    {
      "inputs": [],
      "name": "owner",
      "outputs": [
        {
          "internalType": "address",
          "name": "",
          "type": "address"
        }
      ],
      "stateMutability": "view",
      "type": "function"
    },
    {
      "inputs": [
        {
          "internalType": "uint256",
          "name": "tokenId",
          "type": "uint256"
        }
      ],
      "name": "ownerOf",
      "outputs": [
        {
          "internalType": "address",
          "name": "",
          "type": "address"
        }
      ],
      "stateMutability": "view",
      "type": "function"
    },
    {
      "inputs": [
        {
          "internalType": "string",
          "name": "input",
          "type": "string"
        }
      ],
      "name": "random",
      "outputs": [
        {
          "internalType": "uint256",
          "name": "",
          "type": "uint256"
        }
      ],
      "stateMutability": "pure",
      "type": "function"
    },
    {
      "inputs": [],
      "name": "renounceOwnership",
      "outputs": [],
      "stateMutability": "nonpayable",
      "type": "function"
    },
    {
      "inputs": [
        {
          "internalType": "address",
          "name": "from",
          "type": "address"
        },
        {
          "internalType": "address",
          "name": "to",
          "type": "address"
        },
        {
          "internalType": "uint256",
          "name": "tokenId",
          "type": "uint256"
        }
      ],
      "name": "safeTransferFrom",
      "outputs": [],
      "stateMutability": "nonpayable",
      "type": "function"
    },
    {
      "inputs": [
        {
          "internalType": "address",
          "name": "from",
          "type": "address"
        },
        {
          "internalType": "address",
          "name": "to",
          "type": "address"
        },
        {
          "internalType": "uint256",
          "name": "tokenId",
          "type": "uint256"
        },
        {
          "internalType": "bytes",
          "name": "_data",
          "type": "bytes"
        }
      ],
      "name": "safeTransferFrom",
      "outputs": [],
      "stateMutability": "nonpayable",
      "type": "function"
    },
    {
      "inputs": [
        {
          "internalType": "address",
          "name": "operator",
          "type": "address"
        },
        {
          "internalType": "bool",
          "name": "approved",
          "type": "bool"
        }
      ],
      "name": "setApprovalForAll",
      "outputs": [],
      "stateMutability": "nonpayable",
      "type": "function"
    },
    {
      "inputs": [
        {
          "internalType": "bytes4",
          "name": "interfaceId",
          "type": "bytes4"
        }
      ],
      "name": "supportsInterface",
      "outputs": [
        {
          "internalType": "bool",
          "name": "",
          "type": "bool"
        }
      ],
      "stateMutability": "view",
      "type": "function"
    },
    {
      "inputs": [],
      "name": "symbol",
      "outputs": [
        {
          "internalType": "string",
          "name": "",
          "type": "string"
        }
      ],
      "stateMutability": "view",
      "type": "function"
    },
    {
      "inputs": [
        {
          "internalType": "uint256",
          "name": "index",
          "type": "uint256"
        }
      ],
      "name": "tokenByIndex",
      "outputs": [
        {
          "internalType": "uint256",
          "name": "",
          "type": "uint256"
        }
      ],
      "stateMutability": "view",
      "type": "function"
    },
    {
      "inputs": [
        {
          "internalType": "address",
          "name": "owner",
          "type": "address"
        },
        {
          "internalType": "uint256",
          "name": "index",
          "type": "uint256"
        }
      ],
      "name": "tokenOfOwnerByIndex",
      "outputs": [
        {
          "internalType": "uint256",
          "name": "",
          "type": "uint256"
        }
      ],
      "stateMutability": "view",
      "type": "function"
    },
    {
      "inputs": [
        {
          "internalType": "uint256",
          "name": "tokenId",
          "type": "uint256"
        }
      ],
      "name": "tokenURI",
      "outputs": [
        {
          "internalType": "string",
          "name": "",
          "type": "string"
        }
      ],
      "stateMutability": "view",
      "type": "function"
    },
    {
      "inputs": [],
      "name": "totalSupply",
      "outputs": [
        {
          "internalType": "uint256",
          "name": "",
          "type": "uint256"
        }
      ],
      "stateMutability": "view",
      "type": "function"
    },
    {
      "inputs": [
        {
          "internalType": "address",
          "name": "from",
          "type": "address"
        },
        {
          "internalType": "address",
          "name": "to",
          "type": "address"
        },
        {
          "internalType": "uint256",
          "name": "tokenId",
          "type": "uint256"
        }
      ],
      "name": "transfer",
      "outputs": [],
      "stateMutability": "nonpayable",
      "type": "function"
    },
    {
      "inputs": [
        {
          "internalType": "address",
          "name": "from",
          "type": "address"
        },
        {
          "internalType": "address",
          "name": "to",
          "type": "address"
        },
        {
          "internalType": "uint256",
          "name": "tokenId",
          "type": "uint256"
        }
      ],
      "name": "transferFrom",
      "outputs": [],
      "stateMutability": "nonpayable",
      "type": "function"
    },
    {
      "inputs": [
        {
          "internalType": "address",
          "name": "newOwner",
          "type": "address"
        }
      ],
      "name": "transferOwnership",
      "outputs": [],
      "stateMutability": "nonpayable",
      "type": "function"
    }
  ],
  "bytecode": "0x60806040526040518061024001604052806040518060400160405280600981526020017f57617268616d6d6572000000000000000000000000000000000000000000000081525081526020016040518060400160405280600c81526020017f517561727465727374616666000000000000000000000000000000000000000081525081526020016040518060400160405280600481526020017f4d61756c0000000000000000000000000000000000000000000000000000000081525081526020016040518060400160405280600481526020017f4d6163650000000000000000000000000000000000000000000000000000000081525081526020016040518060400160405280600481526020017f436c75620000000000000000000000000000000000000000000000000000000081525081526020016040518060400160405280600681526020017f4b6174616e61000000000000000000000000000000000000000000000000000081525081526020016040518060400160405280600881526020017f46616c6368696f6e00000000000000000000000000000000000000000000000081525081526020016040518060400160405280600881526020017f5363696d6974617200000000000000000000000000000000000000000000000081525081526020016040518060400160405280600a81526020017f4c6f6e672053776f72640000000000000000000000000000000000000000000081525081526020016040518060400160405280600b81526020017f53686f72742053776f726400000000000000000000000000000000000000000081525081526020016040518060400160405280600a81526020017f47686f73742057616e640000000000000000000000000000000000000000000081525081526020016040518060400160405280600a81526020017f47726176652057616e640000000000000000000000000000000000000000000081525081526020016040518060400160405280600981526020017f426f6e652057616e64000000000000000000000000000000000000000000000081525081526020016040518060400160405280600481526020017f57616e640000000000000000000000000000000000000000000000000000000081525081526020016040518060400160405280600881526020017f4772696d6f69726500000000000000000000000000000000000000000000000081525081526020016040518060400160405280600981526020017f4368726f6e69636c65000000000000000000000000000000000000000000000081525081526020016040518060400160405280600481526020017f546f6d650000000000000000000000000000000000000000000000000000000081525081526020016040518060400160405280600481526020017f426f6f6b00000000000000000000000000000000000000000000000000000000815250815250600c90601262000446929190620029fe565b50604051806101e001604052806040518060400160405280600981526020017f426c61636b20436174000000000000000000000000000000000000000000000081525081526020016040518060400160405280600681526020017f447261676f6e000000000000000000000000000000000000000000000000000081525081526020016040518060400160405280600781526020017f4c7563696665720000000000000000000000000000000000000000000000000081525081526020016040518060400160405280600881526020017f426170686f6d657400000000000000000000000000000000000000000000000081525081526020016040518060400160405280600381526020017f456c66000000000000000000000000000000000000000000000000000000000081525081526020016040518060400160405280600381526020017f4f7263000000000000000000000000000000000000000000000000000000000081525081526020016040518060400160405280600a81526020017f44656d6f676f72676f6e0000000000000000000000000000000000000000000081525081526020016040518060400160405280600881526020017f43656e6f6269746500000000000000000000000000000000000000000000000081525081526020016040518060400160405280600881526020017f436572626572757300000000000000000000000000000000000000000000000081525081526020016040518060400160405280600581526020017f47686f737400000000000000000000000000000000000000000000000000000081525081526020016040518060400160405280600881526020017f57657265776f6c6600000000000000000000000000000000000000000000000081525081526020016040518060400160405280600981526020017f4c657669617468616e000000000000000000000000000000000000000000000081525081526020016040518060400160405280600681526020017f4b72616b656e000000000000000000000000000000000000000000000000000081525081526020016040518060400160405280600681526020017f5a6f6d626965000000000000000000000000000000000000000000000000000081525081526020016040518060400160405280600581526020017f4d756d6d79000000000000000000000000000000000000000000000000000000815250815250600d90600f620007d892919062002a65565b50604051806101e001604052806040518060400160405280600981526020017f54656c657061746879000000000000000000000000000000000000000000000081525081526020016040518060400160405280600c81526020017f436c616972766f69616e6365000000000000000000000000000000000000000081525081526020016040518060400160405280601281526020017f43616e2054616c6b20546f2047686f737473000000000000000000000000000081525081526020016040518060400160405280600e81526020017f52656d6f74652056696577696e6700000000000000000000000000000000000081525081526020016040518060400160405280601081526020017f53756d6d6f6e696e672044656d6f6e730000000000000000000000000000000081525081526020016040518060400160405280600e81526020017f54616d696e6720447261676f6e7300000000000000000000000000000000000081525081526020016040518060400160405280600c81526020017f4d696e642052656164696e67000000000000000000000000000000000000000081525081526020016040518060400160405280600f81526020017f53756d6d6f696e6720416e67656c73000000000000000000000000000000000081525081526020016040518060400160405280600b81526020017f496d6d6f7274616c69747900000000000000000000000000000000000000000081525081526020016040518060400160405280600e81526020017f48656172696e67204e617475726500000000000000000000000000000000000081525081526020016040518060400160405280601481526020017f43617374696e67204d61676963205370656c6c7300000000000000000000000081525081526020016040518060400160405280601381526020017f576974636863726166742f57697a61726472790000000000000000000000000081525081526020016040518060400160405280601181526020017f5265766976696e6720546865204465616400000000000000000000000000000081525081526020016040518060400160405280600c81526020017f496e7669736962696c697479000000000000000000000000000000000000000081525081526020016040518060400160405280600c81526020017f50616c6d2072656164696e670000000000000000000000000000000000000000815250815250600e90600f62000b6a92919062002a65565b50604051806101e001604052806040518060400160405280600e81526020017f486f6c79204761756e746c65747300000000000000000000000000000000000081525081526020016040518060400160405280601081526020017f4f726e617465204761756e746c6574730000000000000000000000000000000081525081526020016040518060400160405280600981526020017f4761756e746c657473000000000000000000000000000000000000000000000081525081526020016040518060400160405280600c81526020017f436861696e20476c6f766573000000000000000000000000000000000000000081525081526020016040518060400160405280600c81526020017f486561767920476c6f766573000000000000000000000000000000000000000081525081526020016040518060400160405280600d81526020017f44656d6f6e27732048616e64730000000000000000000000000000000000000081525081526020016040518060400160405280601181526020017f447261676f6e736b696e20476c6f76657300000000000000000000000000000081525081526020016040518060400160405280601681526020017f53747564646564204c65617468657220476c6f7665730000000000000000000081525081526020016040518060400160405280601381526020017f48617264204c65617468657220476c6f7665730000000000000000000000000081525081526020016040518060400160405280600e81526020017f4c65617468657220476c6f76657300000000000000000000000000000000000081525081526020016040518060400160405280600d81526020017f446976696e6520476c6f7665730000000000000000000000000000000000000081525081526020016040518060400160405280600b81526020017f53696c6b20476c6f76657300000000000000000000000000000000000000000081525081526020016040518060400160405280600b81526020017f576f6f6c20476c6f76657300000000000000000000000000000000000000000081525081526020016040518060400160405280600c81526020017f4c696e656e20476c6f766573000000000000000000000000000000000000000081525081526020016040518060400160405280600681526020017f476c6f7665730000000000000000000000000000000000000000000000000000815250815250600f90600f62000efc92919062002a65565b506040518060a001604052806040518060400160405280600981526020017f476f6c642052696e67000000000000000000000000000000000000000000000081525081526020016040518060400160405280600b81526020017f53696c7665722052696e6700000000000000000000000000000000000000000081525081526020016040518060400160405280600b81526020017f42726f6e7a652052696e6700000000000000000000000000000000000000000081525081526020016040518060400160405280600d81526020017f506c6174696e756d2052696e670000000000000000000000000000000000000081525081526020016040518060400160405280600d81526020017f546974616e69756d2052696e670000000000000000000000000000000000000081525081525060109060056200103f92919062002acc565b506040518061020001604052806040518060400160405280600881526020017f6f6620506f77657200000000000000000000000000000000000000000000000081525081526020016040518060400160405280600981526020017f6f66204769616e7473000000000000000000000000000000000000000000000081525081526020016040518060400160405280600981526020017f6f6620546974616e73000000000000000000000000000000000000000000000081525081526020016040518060400160405280600881526020017f6f6620536b696c6c00000000000000000000000000000000000000000000000081525081526020016040518060400160405280600d81526020017f6f662050657266656374696f6e0000000000000000000000000000000000000081525081526020016040518060400160405280600d81526020017f6f66204272696c6c69616e63650000000000000000000000000000000000000081525081526020016040518060400160405280601081526020017f6f6620456e6c69676874656e6d656e740000000000000000000000000000000081525081526020016040518060400160405280600d81526020017f6f662050726f74656374696f6e0000000000000000000000000000000000000081525081526020016040518060400160405280600881526020017f6f6620416e67657200000000000000000000000000000000000000000000000081525081526020016040518060400160405280600781526020017f6f6620526167650000000000000000000000000000000000000000000000000081525081526020016040518060400160405280600781526020017f6f6620467572790000000000000000000000000000000000000000000000000081525081526020016040518060400160405280600a81526020017f6f662056697472696f6c0000000000000000000000000000000000000000000081525081526020016040518060400160405280600a81526020017f6f662074686520466f780000000000000000000000000000000000000000000081525081526020016040518060400160405280600c81526020017f6f6620446574656374696f6e000000000000000000000000000000000000000081525081526020016040518060400160405280600d81526020017f6f66205265666c656374696f6e0000000000000000000000000000000000000081525081526020016040518060400160405280600c81526020017f6f6620746865205477696e73000000000000000000000000000000000000000081525081525060119060106200140c92919062002b33565b50604051806108a001604052806040518060400160405280600581526020017f41676f6e7900000000000000000000000000000000000000000000000000000081525081526020016040518060400160405280600a81526020017f41706f63616c797073650000000000000000000000000000000000000000000081525081526020016040518060400160405280600a81526020017f41726d61676564646f6e0000000000000000000000000000000000000000000081525081526020016040518060400160405280600581526020017f426561737400000000000000000000000000000000000000000000000000000081525081526020016040518060400160405280600881526020017f426568656d6f746800000000000000000000000000000000000000000000000081525081526020016040518060400160405280600681526020017f426c69676874000000000000000000000000000000000000000000000000000081525081526020016040518060400160405280600581526020017f426c6f6f6400000000000000000000000000000000000000000000000000000081525081526020016040518060400160405280600781526020017f4272616d626c650000000000000000000000000000000000000000000000000081525081526020016040518060400160405280600981526020017f4272696d73746f6e65000000000000000000000000000000000000000000000081525081526020016040518060400160405280600581526020017f42726f6f6400000000000000000000000000000000000000000000000000000081525081526020016040518060400160405280600781526020017f43617272696f6e0000000000000000000000000000000000000000000000000081525081526020016040518060400160405280600981526020017f43617461636c79736d000000000000000000000000000000000000000000000081525081526020016040518060400160405280600881526020017f4368696d6572696300000000000000000000000000000000000000000000000081525081526020016040518060400160405280600681526020017f436f72707365000000000000000000000000000000000000000000000000000081525081526020016040518060400160405280600a81526020017f436f7272757074696f6e0000000000000000000000000000000000000000000081525081526020016040518060400160405280600981526020017f44616d6e6174696f6e000000000000000000000000000000000000000000000081525081526020016040518060400160405280600581526020017f446561746800000000000000000000000000000000000000000000000000000081525081526020016040518060400160405280600581526020017f44656d6f6e00000000000000000000000000000000000000000000000000000081525081526020016040518060400160405280600481526020017f446972650000000000000000000000000000000000000000000000000000000081525081526020016040518060400160405280600681526020017f447261676f6e000000000000000000000000000000000000000000000000000081525081526020016040518060400160405280600581526020017f447265616400000000000000000000000000000000000000000000000000000081525081526020016040518060400160405280600481526020017f446f6f6d0000000000000000000000000000000000000000000000000000000081525081526020016040518060400160405280600481526020017f4475736b0000000000000000000000000000000000000000000000000000000081525081526020016040518060400160405280600581526020017f4561676c6500000000000000000000000000000000000000000000000000000081525081526020016040518060400160405280600881526020017f456d70797265616e00000000000000000000000000000000000000000000000081525081526020016040518060400160405280600481526020017f466174650000000000000000000000000000000000000000000000000000000081525081526020016040518060400160405280600381526020017f466f65000000000000000000000000000000000000000000000000000000000081525081526020016040518060400160405280600481526020017f47616c650000000000000000000000000000000000000000000000000000000081525081526020016040518060400160405280600581526020017f47686f756c00000000000000000000000000000000000000000000000000000081525081526020016040518060400160405280600581526020017f476c6f6f6d00000000000000000000000000000000000000000000000000000081525081526020016040518060400160405280600581526020017f476c79706800000000000000000000000000000000000000000000000000000081525081526020016040518060400160405280600581526020017f476f6c656d00000000000000000000000000000000000000000000000000000081525081526020016040518060400160405280600481526020017f4772696d0000000000000000000000000000000000000000000000000000000081525081526020016040518060400160405280600481526020017f486174650000000000000000000000000000000000000000000000000000000081525081526020016040518060400160405280600581526020017f4861766f6300000000000000000000000000000000000000000000000000000081525081526020016040518060400160405280600681526020017f486f6e6f7572000000000000000000000000000000000000000000000000000081525081526020016040518060400160405280600681526020017f486f72726f72000000000000000000000000000000000000000000000000000081525081526020016040518060400160405280600881526020017f4879706e6f74696300000000000000000000000000000000000000000000000081525081526020016040518060400160405280600681526020017f4b72616b656e000000000000000000000000000000000000000000000000000081525081526020016040518060400160405280600581526020017f4c6f61746800000000000000000000000000000000000000000000000000000081525081526020016040518060400160405280600981526020017f4d61656c7374726f6d000000000000000000000000000000000000000000000081525081526020016040518060400160405280600481526020017f4d696e640000000000000000000000000000000000000000000000000000000081525081526020016040518060400160405280600781526020017f4d697261636c650000000000000000000000000000000000000000000000000081525081526020016040518060400160405280600681526020017f4d6f72626964000000000000000000000000000000000000000000000000000081525081526020016040518060400160405280600881526020017f4f626c6976696f6e00000000000000000000000000000000000000000000000081525081526020016040518060400160405280600981526020017f4f6e736c6175676874000000000000000000000000000000000000000000000081525081526020016040518060400160405280600481526020017f5061696e0000000000000000000000000000000000000000000000000000000081525081526020016040518060400160405280600b81526020017f50616e64656d6f6e69756d00000000000000000000000000000000000000000081525081526020016040518060400160405280600781526020017f50686f656e69780000000000000000000000000000000000000000000000000081525081526020016040518060400160405280600681526020017f506c61677565000000000000000000000000000000000000000000000000000081525081526020016040518060400160405280600481526020017f526167650000000000000000000000000000000000000000000000000000000081525081526020016040518060400160405280600781526020017f526170747572650000000000000000000000000000000000000000000000000081525081526020016040518060400160405280600481526020017f52756e650000000000000000000000000000000000000000000000000000000081525081526020016040518060400160405280600581526020017f536b756c6c00000000000000000000000000000000000000000000000000000081525081526020016040518060400160405280600381526020017f536f6c000000000000000000000000000000000000000000000000000000000081525081526020016040518060400160405280600481526020017f536f756c0000000000000000000000000000000000000000000000000000000081525081526020016040518060400160405280600681526020017f536f72726f77000000000000000000000000000000000000000000000000000081525081526020016040518060400160405280600681526020017f537069726974000000000000000000000000000000000000000000000000000081525081526020016040518060400160405280600581526020017f53746f726d00000000000000000000000000000000000000000000000000000081525081526020016040518060400160405280600781526020017f54656d706573740000000000000000000000000000000000000000000000000081525081526020016040518060400160405280600781526020017f546f726d656e740000000000000000000000000000000000000000000000000081525081526020016040518060400160405280600981526020017f56656e6765616e6365000000000000000000000000000000000000000000000081525081526020016040518060400160405280600781526020017f566963746f72790000000000000000000000000000000000000000000000000081525081526020016040518060400160405280600581526020017f566970657200000000000000000000000000000000000000000000000000000081525081526020016040518060400160405280600681526020017f566f72746578000000000000000000000000000000000000000000000000000081525081526020016040518060400160405280600381526020017f576f65000000000000000000000000000000000000000000000000000000000081525081526020016040518060400160405280600581526020017f577261746800000000000000000000000000000000000000000000000000000081525081526020016040518060400160405280600781526020017f4c6967687427730000000000000000000000000000000000000000000000000081525081526020016040518060400160405280600a81526020017f5368696d6d6572696e670000000000000000000000000000000000000000000081525081525060129060456200241092919062002b9a565b506040518061024001604052806040518060400160405280600481526020017f42616e650000000000000000000000000000000000000000000000000000000081525081526020016040518060400160405280600481526020017f526f6f740000000000000000000000000000000000000000000000000000000081525081526020016040518060400160405280600481526020017f426974650000000000000000000000000000000000000000000000000000000081525081526020016040518060400160405280600481526020017f536f6e670000000000000000000000000000000000000000000000000000000081525081526020016040518060400160405280600481526020017f526f61720000000000000000000000000000000000000000000000000000000081525081526020016040518060400160405280600581526020017f477261737000000000000000000000000000000000000000000000000000000081525081526020016040518060400160405280600a81526020017f496e737472756d656e740000000000000000000000000000000000000000000081525081526020016040518060400160405280600481526020017f476c6f770000000000000000000000000000000000000000000000000000000081525081526020016040518060400160405280600681526020017f42656e646572000000000000000000000000000000000000000000000000000081525081526020016040518060400160405280600681526020017f536861646f77000000000000000000000000000000000000000000000000000081525081526020016040518060400160405280600781526020017f576869737065720000000000000000000000000000000000000000000000000081525081526020016040518060400160405280600581526020017f53686f757400000000000000000000000000000000000000000000000000000081525081526020016040518060400160405280600581526020017f47726f776c00000000000000000000000000000000000000000000000000000081525081526020016040518060400160405280600481526020017f546561720000000000000000000000000000000000000000000000000000000081525081526020016040518060400160405280600481526020017f5065616b0000000000000000000000000000000000000000000000000000000081525081526020016040518060400160405280600481526020017f466f726d0000000000000000000000000000000000000000000000000000000081525081526020016040518060400160405280600381526020017f53756e000000000000000000000000000000000000000000000000000000000081525081526020016040518060400160405280600481526020017f4d6f6f6e00000000000000000000000000000000000000000000000000000000815250815250601390601262002853929190620029fe565b503480156200286157600080fd5b506040518060400160405280600581526020017f7a4c6f6f740000000000000000000000000000000000000000000000000000008152506040518060400160405280600381526020017f5a4c5400000000000000000000000000000000000000000000000000000000008152508160009080519060200190620028e692919062002c01565b508060019080519060200190620028ff92919062002c01565b5050506001600a819055506200292a6200291e6200293060201b60201c565b6200293860201b60201c565b62002d84565b600033905090565b6000600b60009054906101000a900473ffffffffffffffffffffffffffffffffffffffff16905081600b60006101000a81548173ffffffffffffffffffffffffffffffffffffffff021916908373ffffffffffffffffffffffffffffffffffffffff1602179055508173ffffffffffffffffffffffffffffffffffffffff168173ffffffffffffffffffffffffffffffffffffffff167f8be0079c531659141344cd1fd0a4f28419497f9722a3daafe3b4186f6b6457e060405160405180910390a35050565b82805482825590600052602060002090810192821562002a52579160200282015b8281111562002a5157825182908051906020019062002a4092919062002c01565b509160200191906001019062002a1f565b5b50905062002a61919062002c92565b5090565b82805482825590600052602060002090810192821562002ab9579160200282015b8281111562002ab857825182908051906020019062002aa792919062002c01565b509160200191906001019062002a86565b5b50905062002ac8919062002c92565b5090565b82805482825590600052602060002090810192821562002b20579160200282015b8281111562002b1f57825182908051906020019062002b0e92919062002c01565b509160200191906001019062002aed565b5b50905062002b2f919062002c92565b5090565b82805482825590600052602060002090810192821562002b87579160200282015b8281111562002b8657825182908051906020019062002b7592919062002c01565b509160200191906001019062002b54565b5b50905062002b96919062002c92565b5090565b82805482825590600052602060002090810192821562002bee579160200282015b8281111562002bed57825182908051906020019062002bdc92919062002c01565b509160200191906001019062002bbb565b5b50905062002bfd919062002c92565b5090565b82805462002c0f9062002d1f565b90600052602060002090601f01602090048101928262002c33576000855562002c7f565b82601f1062002c4e57805160ff191683800117855562002c7f565b8280016001018555821562002c7f579182015b8281111562002c7e57825182559160200191906001019062002c61565b5b50905062002c8e919062002cba565b5090565b5b8082111562002cb6576000818162002cac919062002cd9565b5060010162002c93565b5090565b5b8082111562002cd557600081600090555060010162002cbb565b5090565b50805462002ce79062002d1f565b6000825580601f1062002cfb575062002d1c565b601f01602090049060005260206000209081019062002d1b919062002cba565b5b50565b6000600282049050600182168062002d3857607f821691505b6020821081141562002d4f5762002d4e62002d55565b5b50919050565b7f4e487b7100000000000000000000000000000000000000000000000000000000600052602260045260246000fd5b6153c98062002d946000396000f3fe60806040526004361061019c5760003560e01c8063715018a6116100ec578063beabacc81161008a578063c87b56dd11610064578063c87b56dd14610615578063d47f269e14610652578063e985e9c51461068f578063f2fde38b146106cc5761019c565b8063beabacc814610593578063c08a5dd5146105bc578063c3490263146105f95761019c565b806395d89b41116100c657806395d89b41146104d95780639e41b73f14610504578063a22cb46514610541578063b88d4fde1461056a5761019c565b8063715018a61461045a578063895d3647146104715780638da5cb5b146104ae5761019c565b806322b8d0441161015957806342842e0e1161013357806342842e0e1461037a5780634f6ccce7146103a35780636352211e146103e057806370a082311461041d5761019c565b806322b8d044146102d757806323b872dd146103145780632f745c591461033d5761019c565b8063017fe809146101a157806301ffc9a7146101de57806306fdde031461021b578063081812fc14610246578063095ea7b31461028357806318160ddd146102ac575b600080fd5b3480156101ad57600080fd5b506101c860048036038101906101c39190613aed565b6106f5565b6040516101d59190614a26565b60405180910390f35b3480156101ea57600080fd5b5061020560048036038101906102009190613a5a565b61080f565b6040516102129190614a0b565b60405180910390f35b34801561022757600080fd5b50610230610889565b60405161023d9190614a26565b60405180910390f35b34801561025257600080fd5b5061026d60048036038101906102689190613aed565b61091b565b60405161027a91906149a4565b60405180910390f35b34801561028f57600080fd5b506102aa60048036038101906102a59190613a1e565b6109a0565b005b3480156102b857600080fd5b506102c1610ab8565b6040516102ce9190614ce8565b60405180910390f35b3480156102e357600080fd5b506102fe60048036038101906102f99190613aac565b610ac5565b60405161030b9190614ce8565b60405180910390f35b34801561032057600080fd5b5061033b60048036038101906103369190613918565b610af8565b005b34801561034957600080fd5b50610364600480360381019061035f9190613a1e565b610b58565b6040516103719190614ce8565b60405180910390f35b34801561038657600080fd5b506103a1600480360381019061039c9190613918565b610bfd565b005b3480156103af57600080fd5b506103ca60048036038101906103c59190613aed565b610c1d565b6040516103d79190614ce8565b60405180910390f35b3480156103ec57600080fd5b5061040760048036038101906104029190613aed565b610cb4565b60405161041491906149a4565b60405180910390f35b34801561042957600080fd5b50610444600480360381019061043f91906138b3565b610d66565b6040516104519190614ce8565b60405180910390f35b34801561046657600080fd5b5061046f610e1e565b005b34801561047d57600080fd5b5061049860048036038101906104939190613aed565b610ea6565b6040516104a59190614a26565b60405180910390f35b3480156104ba57600080fd5b506104c3610fc0565b6040516104d091906149a4565b60405180910390f35b3480156104e557600080fd5b506104ee610fea565b6040516104fb9190614a26565b60405180910390f35b34801561051057600080fd5b5061052b60048036038101906105269190613aed565b61107c565b6040516105389190614a26565b60405180910390f35b34801561054d57600080fd5b50610568600480360381019061056391906139e2565b611196565b005b34801561057657600080fd5b50610591600480360381019061058c9190613967565b611317565b005b34801561059f57600080fd5b506105ba60048036038101906105b59190613918565b611379565b005b3480156105c857600080fd5b506105e360048036038101906105de9190613aed565b611389565b6040516105f09190614a26565b60405180910390f35b610613600480360381019061060e9190613b16565b6114a3565b005b34801561062157600080fd5b5061063c60048036038101906106379190613aed565b6115e8565b6040516106499190614a26565b60405180910390f35b34801561065e57600080fd5b5061067960048036038101906106749190613aed565b611cfb565b6040516106869190614a26565b60405180910390f35b34801561069b57600080fd5b506106b660048036038101906106b191906138dc565b611e15565b6040516106c39190614a0b565b60405180910390f35b3480156106d857600080fd5b506106f360048036038101906106ee91906138b3565b611ea9565b005b6060610808826040518060400160405280600581526020017f504f574552000000000000000000000000000000000000000000000000000000815250600e805480602002602001604051908101604052809291908181526020016000905b828210156107ff57838290600052602060002001805461077290614fb7565b80601f016020809104026020016040519081016040528092919081815260200182805461079e90614fb7565b80156107eb5780601f106107c0576101008083540402835291602001916107eb565b820191906000526020600020905b8154815290600101906020018083116107ce57829003601f168201915b505050505081526020019060010190610753565b50505050611fa1565b9050919050565b60007f780e9d63000000000000000000000000000000000000000000000000000000007bffffffffffffffffffffffffffffffffffffffffffffffffffffffff1916827bffffffffffffffffffffffffffffffffffffffffffffffffffffffff19161480610882575061088182612469565b5b9050919050565b60606000805461089890614fb7565b80601f01602080910402602001604051908101604052809291908181526020018280546108c490614fb7565b80156109115780601f106108e657610100808354040283529160200191610911565b820191906000526020600020905b8154815290600101906020018083116108f457829003601f168201915b5050505050905090565b60006109268261254b565b610965576040517f08c379a000000000000000000000000000000000000000000000000000000000815260040161095c90614ba8565b60405180910390fd5b6004600083815260200190815260200160002060009054906101000a900473ffffffffffffffffffffffffffffffffffffffff169050919050565b60006109ab82610cb4565b90508073ffffffffffffffffffffffffffffffffffffffff168373ffffffffffffffffffffffffffffffffffffffff161415610a1c576040517f08c379a0000000000000000000000000000000000000000000000000000000008152600401610a1390614c08565b60405180910390fd5b8073ffffffffffffffffffffffffffffffffffffffff16610a3b6125b7565b73ffffffffffffffffffffffffffffffffffffffff161480610a6a5750610a6981610a646125b7565b611e15565b5b610aa9576040517f08c379a0000000000000000000000000000000000000000000000000000000008152600401610aa090614b28565b60405180910390fd5b610ab383836125bf565b505050565b6000600880549050905090565b600081604051602001610ad89190614774565b6040516020818303038152906040528051906020012060001c9050919050565b610b09610b036125b7565b82612678565b610b48576040517f08c379a0000000000000000000000000000000000000000000000000000000008152600401610b3f90614c28565b60405180910390fd5b610b53838383612756565b505050565b6000610b6383610d66565b8210610ba4576040517f08c379a0000000000000000000000000000000000000000000000000000000008152600401610b9b90614a48565b60405180910390fd5b600660008473ffffffffffffffffffffffffffffffffffffffff1673ffffffffffffffffffffffffffffffffffffffff168152602001908152602001600020600083815260200190815260200160002054905092915050565b610c1883838360405180602001604052806000815250611317565b505050565b6000610c27610ab8565b8210610c68576040517f08c379a0000000000000000000000000000000000000000000000000000000008152600401610c5f90614c48565b60405180910390fd5b60088281548110610ca2577f4e487b7100000000000000000000000000000000000000000000000000000000600052603260045260246000fd5b90600052602060002001549050919050565b6000806002600084815260200190815260200160002060009054906101000a900473ffffffffffffffffffffffffffffffffffffffff169050600073ffffffffffffffffffffffffffffffffffffffff168173ffffffffffffffffffffffffffffffffffffffff161415610d5d576040517f08c379a0000000000000000000000000000000000000000000000000000000008152600401610d5490614b68565b60405180910390fd5b80915050919050565b60008073ffffffffffffffffffffffffffffffffffffffff168273ffffffffffffffffffffffffffffffffffffffff161415610dd7576040517f08c379a0000000000000000000000000000000000000000000000000000000008152600401610dce90614b48565b60405180910390fd5b600360008373ffffffffffffffffffffffffffffffffffffffff1673ffffffffffffffffffffffffffffffffffffffff168152602001908152602001600020549050919050565b610e266125b7565b73ffffffffffffffffffffffffffffffffffffffff16610e44610fc0565b73ffffffffffffffffffffffffffffffffffffffff1614610e9a576040517f08c379a0000000000000000000000000000000000000000000000000000000008152600401610e9190614bc8565b60405180910390fd5b610ea460006129b2565b565b6060610fb9826040518060400160405280600981526020017f434f4d50414e494f4e0000000000000000000000000000000000000000000000815250600d805480602002602001604051908101604052809291908181526020016000905b82821015610fb0578382906000526020600020018054610f2390614fb7565b80601f0160208091040260200160405190810160405280929190818152602001828054610f4f90614fb7565b8015610f9c5780601f10610f7157610100808354040283529160200191610f9c565b820191906000526020600020905b815481529060010190602001808311610f7f57829003601f168201915b505050505081526020019060010190610f04565b50505050611fa1565b9050919050565b6000600b60009054906101000a900473ffffffffffffffffffffffffffffffffffffffff16905090565b606060018054610ff990614fb7565b80601f016020809104026020016040519081016040528092919081815260200182805461102590614fb7565b80156110725780601f1061104757610100808354040283529160200191611072565b820191906000526020600020905b81548152906001019060200180831161105557829003601f168201915b5050505050905090565b606061118f826040518060400160405280600681526020017f574541504f4e0000000000000000000000000000000000000000000000000000815250600c805480602002602001604051908101604052809291908181526020016000905b828210156111865783829060005260206000200180546110f990614fb7565b80601f016020809104026020016040519081016040528092919081815260200182805461112590614fb7565b80156111725780601f1061114757610100808354040283529160200191611172565b820191906000526020600020905b81548152906001019060200180831161115557829003601f168201915b5050505050815260200190600101906110da565b50505050611fa1565b9050919050565b61119e6125b7565b73ffffffffffffffffffffffffffffffffffffffff168273ffffffffffffffffffffffffffffffffffffffff16141561120c576040517f08c379a000000000000000000000000000000000000000000000000000000000815260040161120390614ae8565b60405180910390fd5b80600560006112196125b7565b73ffffffffffffffffffffffffffffffffffffffff1673ffffffffffffffffffffffffffffffffffffffff16815260200190815260200160002060008473ffffffffffffffffffffffffffffffffffffffff1673ffffffffffffffffffffffffffffffffffffffff16815260200190815260200160002060006101000a81548160ff0219169083151502179055508173ffffffffffffffffffffffffffffffffffffffff166112c66125b7565b73ffffffffffffffffffffffffffffffffffffffff167f17307eab39ab6107e8899845ad3d59bd9653f200f220920489ca2b5937696c318360405161130b9190614a0b565b60405180910390a35050565b6113286113226125b7565b83612678565b611367576040517f08c379a000000000000000000000000000000000000000000000000000000000815260040161135e90614c28565b60405180910390fd5b61137384848484612a78565b50505050565b611384838383610bfd565b505050565b606061149c826040518060400160405280600481526020017f52494e47000000000000000000000000000000000000000000000000000000008152506010805480602002602001604051908101604052809291908181526020016000905b8282101561149357838290600052602060002001805461140690614fb7565b80601f016020809104026020016040519081016040528092919081815260200182805461143290614fb7565b801561147f5780601f106114545761010080835404028352916020019161147f565b820191906000526020600020905b81548152906001019060200180831161146257829003601f168201915b5050505050815260200190600101906113e7565b50505050611fa1565b9050919050565b6002600a5414156114e9576040517f08c379a00000000000000000000000000000000000000000000000000000000081526004016114e090614ca8565b60405180910390fd5b6002600a8190555060006114fc33610d66565b1461153c576040517f08c379a000000000000000000000000000000000000000000000000000000000815260040161153390614c68565b60405180910390fd5b6102588210611580576040517f08c379a000000000000000000000000000000000000000000000000000000000815260040161157790614cc8565b60405180910390fd5b670de0b6b3a76400003410156115cb576040517f08c379a00000000000000000000000000000000000000000000000000000000081526004016115c290614c88565b60405180910390fd5b6115dc6115d66125b7565b83612ad4565b6001600a819055505050565b60606115f261372b565b60405180610120016040528060fd815260200161522f60fd913981600060118110611646577f4e487b7100000000000000000000000000000000000000000000000000000000600052603260045260246000fd5b60200201819052506116578361107c565b81600160118110611691577f4e487b7100000000000000000000000000000000000000000000000000000000600052603260045260246000fd5b602002018190525060405180606001604052806028815260200161536c60289139816002601181106116ec577f4e487b7100000000000000000000000000000000000000000000000000000000600052603260045260246000fd5b60200201819052506116fd83610ea6565b81600360118110611737577f4e487b7100000000000000000000000000000000000000000000000000000000600052603260045260246000fd5b602002018190525060405180606001604052806028815260200161518d6028913981600460118110611792577f4e487b7100000000000000000000000000000000000000000000000000000000600052603260045260246000fd5b60200201819052506117a3836106f5565b816005601181106117dd577f4e487b7100000000000000000000000000000000000000000000000000000000600052603260045260246000fd5b60200201819052506040518060600160405280602881526020016151de6028913981600660118110611838577f4e487b7100000000000000000000000000000000000000000000000000000000600052603260045260246000fd5b602002018190525061184983611cfb565b81600760118110611883577f4e487b7100000000000000000000000000000000000000000000000000000000600052603260045260246000fd5b602002018190525060405180606001604052806029815260200161520660299139816008601181106118de577f4e487b7100000000000000000000000000000000000000000000000000000000600052603260045260246000fd5b60200201819052506118ef83611389565b81600960118110611929577f4e487b7100000000000000000000000000000000000000000000000000000000600052603260045260246000fd5b60200201819052506040518060600160405280602981526020016151b56029913981600a60118110611984577f4e487b7100000000000000000000000000000000000000000000000000000000600052603260045260246000fd5b60200201819052506000816000601181106119c8577f4e487b7100000000000000000000000000000000000000000000000000000000600052603260045260246000fd5b602002015182600160118110611a07577f4e487b7100000000000000000000000000000000000000000000000000000000600052603260045260246000fd5b602002015183600260118110611a46577f4e487b7100000000000000000000000000000000000000000000000000000000600052603260045260246000fd5b602002015184600360118110611a85577f4e487b7100000000000000000000000000000000000000000000000000000000600052603260045260246000fd5b602002015185600460118110611ac4577f4e487b7100000000000000000000000000000000000000000000000000000000600052603260045260246000fd5b602002015186600560118110611b03577f4e487b7100000000000000000000000000000000000000000000000000000000600052603260045260246000fd5b602002015187600660118110611b42577f4e487b7100000000000000000000000000000000000000000000000000000000600052603260045260246000fd5b602002015188600760118110611b81577f4e487b7100000000000000000000000000000000000000000000000000000000600052603260045260246000fd5b602002015189600860118110611bc0577f4e487b7100000000000000000000000000000000000000000000000000000000600052603260045260246000fd5b6020020151604051602001611bdd999897969594939291906147e0565b60405160208183030381529060405290508082600960118110611c29577f4e487b7100000000000000000000000000000000000000000000000000000000600052603260045260246000fd5b602002015183600a60118110611c68577f4e487b7100000000000000000000000000000000000000000000000000000000600052603260045260246000fd5b6020020151604051602001611c7f939291906147af565b60405160208183030381529060405290506000611ccc611c9e86612af2565b611ca784612c9f565b604051602001611cb892919061493d565b604051602081830303815290604052612c9f565b905080604051602001611cdf9190614982565b6040516020818303038152906040529150819350505050919050565b6060611e0e826040518060400160405280600481526020017f48414e4400000000000000000000000000000000000000000000000000000000815250600f805480602002602001604051908101604052809291908181526020016000905b82821015611e05578382906000526020600020018054611d7890614fb7565b80601f0160208091040260200160405190810160405280929190818152602001828054611da490614fb7565b8015611df15780601f10611dc657610100808354040283529160200191611df1565b820191906000526020600020905b815481529060010190602001808311611dd457829003601f168201915b505050505081526020019060010190611d59565b50505050611fa1565b9050919050565b6000600560008473ffffffffffffffffffffffffffffffffffffffff1673ffffffffffffffffffffffffffffffffffffffff16815260200190815260200160002060008373ffffffffffffffffffffffffffffffffffffffff1673ffffffffffffffffffffffffffffffffffffffff16815260200190815260200160002060009054906101000a900460ff16905092915050565b611eb16125b7565b73ffffffffffffffffffffffffffffffffffffffff16611ecf610fc0565b73ffffffffffffffffffffffffffffffffffffffff1614611f25576040517f08c379a0000000000000000000000000000000000000000000000000000000008152600401611f1c90614bc8565b60405180910390fd5b600073ffffffffffffffffffffffffffffffffffffffff168173ffffffffffffffffffffffffffffffffffffffff161415611f95576040517f08c379a0000000000000000000000000000000000000000000000000000000008152600401611f8c90614a88565b60405180910390fd5b611f9e816129b2565b50565b60606000611fd784611fb287612af2565b604051602001611fc392919061478b565b604051602081830303815290604052610ac5565b9050600083845183611fe99190615032565b81518110612020577f4e487b7100000000000000000000000000000000000000000000000000000000600052603260045260246000fd5b6020026020010151905060006015836120399190615032565b9050600e8111156120bb578160118080549050856120579190615032565b8154811061208e577f4e487b7100000000000000000000000000000000000000000000000000000000600052603260045260246000fd5b906000526020600020016040516020016120a992919061485f565b60405160208183030381529060405291505b6013811061245c576120cb613753565b60128080549050856120dd9190615032565b81548110612114577f4e487b7100000000000000000000000000000000000000000000000000000000600052603260045260246000fd5b90600052602060002001805461212990614fb7565b80601f016020809104026020016040519081016040528092919081815260200182805461215590614fb7565b80156121a25780601f10612177576101008083540402835291602001916121a2565b820191906000526020600020905b81548152906001019060200180831161218557829003601f168201915b5050505050816000600281106121e1577f4e487b7100000000000000000000000000000000000000000000000000000000600052603260045260246000fd5b602002018190525060138080549050856121fb9190615032565b81548110612232577f4e487b7100000000000000000000000000000000000000000000000000000000600052603260045260246000fd5b90600052602060002001805461224790614fb7565b80601f016020809104026020016040519081016040528092919081815260200182805461227390614fb7565b80156122c05780601f10612295576101008083540402835291602001916122c0565b820191906000526020600020905b8154815290600101906020018083116122a357829003601f168201915b5050505050816001600281106122ff577f4e487b7100000000000000000000000000000000000000000000000000000000600052603260045260246000fd5b602002018190525060138214156123b7578060006002811061234a577f4e487b7100000000000000000000000000000000000000000000000000000000600052603260045260246000fd5b602002015181600160028110612389577f4e487b7100000000000000000000000000000000000000000000000000000000600052603260045260246000fd5b6020020151846040516020016123a19392919061488e565b604051602081830303815290604052925061245a565b806000600281106123f1577f4e487b7100000000000000000000000000000000000000000000000000000000600052603260045260246000fd5b602002015181600160028110612430577f4e487b7100000000000000000000000000000000000000000000000000000000600052603260045260246000fd5b602002015184604051602001612448939291906148e0565b60405160208183030381529060405292505b505b8193505050509392505050565b60007f80ac58cd000000000000000000000000000000000000000000000000000000007bffffffffffffffffffffffffffffffffffffffffffffffffffffffff1916827bffffffffffffffffffffffffffffffffffffffffffffffffffffffff1916148061253457507f5b5e139f000000000000000000000000000000000000000000000000000000007bffffffffffffffffffffffffffffffffffffffffffffffffffffffff1916827bffffffffffffffffffffffffffffffffffffffffffffffffffffffff1916145b80612544575061254382612e5d565b5b9050919050565b60008073ffffffffffffffffffffffffffffffffffffffff166002600084815260200190815260200160002060009054906101000a900473ffffffffffffffffffffffffffffffffffffffff1673ffffffffffffffffffffffffffffffffffffffff1614159050919050565b600033905090565b816004600083815260200190815260200160002060006101000a81548173ffffffffffffffffffffffffffffffffffffffff021916908373ffffffffffffffffffffffffffffffffffffffff160217905550808273ffffffffffffffffffffffffffffffffffffffff1661263283610cb4565b73ffffffffffffffffffffffffffffffffffffffff167f8c5be1e5ebec7d5bd14f71427d1e84f3dd0314c0f7b2291e5b200ac8c7c3b92560405160405180910390a45050565b60006126838261254b565b6126c2576040517f08c379a00000000000000000000000000000000000000000000000000000000081526004016126b990614b08565b60405180910390fd5b60006126cd83610cb4565b90508073ffffffffffffffffffffffffffffffffffffffff168473ffffffffffffffffffffffffffffffffffffffff16148061273c57508373ffffffffffffffffffffffffffffffffffffffff166127248461091b565b73ffffffffffffffffffffffffffffffffffffffff16145b8061274d575061274c8185611e15565b5b91505092915050565b8273ffffffffffffffffffffffffffffffffffffffff1661277682610cb4565b73ffffffffffffffffffffffffffffffffffffffff16146127cc576040517f08c379a00000000000000000000000000000000000000000000000000000000081526004016127c390614be8565b60405180910390fd5b600073ffffffffffffffffffffffffffffffffffffffff168273ffffffffffffffffffffffffffffffffffffffff16141561283c576040517f08c379a000000000000000000000000000000000000000000000000000000000815260040161283390614ac8565b60405180910390fd5b612847838383612ec7565b6128526000826125bf565b6001600360008573ffffffffffffffffffffffffffffffffffffffff1673ffffffffffffffffffffffffffffffffffffffff16815260200190815260200160002060008282546128a29190614ecd565b925050819055506001600360008473ffffffffffffffffffffffffffffffffffffffff1673ffffffffffffffffffffffffffffffffffffffff16815260200190815260200160002060008282546128f99190614dec565b92505081905550816002600083815260200190815260200160002060006101000a81548173ffffffffffffffffffffffffffffffffffffffff021916908373ffffffffffffffffffffffffffffffffffffffff160217905550808273ffffffffffffffffffffffffffffffffffffffff168473ffffffffffffffffffffffffffffffffffffffff167fddf252ad1be2c89b69c2b068fc378daa952ba7f163c4a11628f55a4df523b3ef60405160405180910390a4505050565b6000600b60009054906101000a900473ffffffffffffffffffffffffffffffffffffffff16905081600b60006101000a81548173ffffffffffffffffffffffffffffffffffffffff021916908373ffffffffffffffffffffffffffffffffffffffff1602179055508173ffffffffffffffffffffffffffffffffffffffff168173ffffffffffffffffffffffffffffffffffffffff167f8be0079c531659141344cd1fd0a4f28419497f9722a3daafe3b4186f6b6457e060405160405180910390a35050565b612a83848484612756565b612a8f84848484612fdb565b612ace576040517f08c379a0000000000000000000000000000000000000000000000000000000008152600401612ac590614a68565b60405180910390fd5b50505050565b612aee828260405180602001604052806000815250613172565b5050565b60606000821415612b3a576040518060400160405280600181526020017f30000000000000000000000000000000000000000000000000000000000000008152509050612c9a565b600082905060005b60008214612b6c578080612b5590614fe9565b915050600a82612b659190614e42565b9150612b42565b60008167ffffffffffffffff811115612bae577f4e487b7100000000000000000000000000000000000000000000000000000000600052604160045260246000fd5b6040519080825280601f01601f191660200182016040528015612be05781602001600182028036833780820191505090505b5090505b60008514612c9357600182612bf99190614ecd565b9150600a85612c089190615032565b6030612c149190614dec565b60f81b818381518110612c50577f4e487b7100000000000000000000000000000000000000000000000000000000600052603260045260246000fd5b60200101907effffffffffffffffffffffffffffffffffffffffffffffffffffffffffffff1916908160001a905350600a85612c8c9190614e42565b9450612be4565b8093505050505b919050565b60606000825190506000811415612cc85760405180602001604052806000815250915050612e58565b60006003600283612cd99190614dec565b612ce39190614e42565b6004612cef9190614e73565b90506000602082612d009190614dec565b67ffffffffffffffff811115612d3f577f4e487b7100000000000000000000000000000000000000000000000000000000600052604160045260246000fd5b6040519080825280601f01601f191660200182016040528015612d715781602001600182028036833780820191505090505b509050600060405180606001604052806040815260200161532c604091399050600181016020830160005b86811015612e155760038101905062ffffff818a015116603f8160121c168401518060081b905060ff603f83600c1c1686015116810190508060081b905060ff603f8360061c1686015116810190508060081b905060ff603f831686015116810190508060e01b90508084526004840193505050612d9c565b506003860660018114612e2f5760028114612e3f57612e4a565b613d3d60f01b6002830352612e4a565b603d60f81b60018303525b508484525050819450505050505b919050565b60007f01ffc9a7000000000000000000000000000000000000000000000000000000007bffffffffffffffffffffffffffffffffffffffffffffffffffffffff1916827bffffffffffffffffffffffffffffffffffffffffffffffffffffffff1916149050919050565b612ed28383836131cd565b600073ffffffffffffffffffffffffffffffffffffffff168373ffffffffffffffffffffffffffffffffffffffff161415612f1557612f10816131d2565b612f54565b8173ffffffffffffffffffffffffffffffffffffffff168373ffffffffffffffffffffffffffffffffffffffff1614612f5357612f52838261321b565b5b5b600073ffffffffffffffffffffffffffffffffffffffff168273ffffffffffffffffffffffffffffffffffffffff161415612f9757612f9281613388565b612fd6565b8273ffffffffffffffffffffffffffffffffffffffff168273ffffffffffffffffffffffffffffffffffffffff1614612fd557612fd482826134cb565b5b5b505050565b6000612ffc8473ffffffffffffffffffffffffffffffffffffffff1661354a565b15613165578373ffffffffffffffffffffffffffffffffffffffff1663150b7a026130256125b7565b8786866040518563ffffffff1660e01b815260040161304794939291906149bf565b602060405180830381600087803b15801561306157600080fd5b505af192505050801561309257506040513d601f19601f8201168201806040525081019061308f9190613a83565b60015b613115573d80600081146130c2576040519150601f19603f3d011682016040523d82523d6000602084013e6130c7565b606091505b5060008151141561310d576040517f08c379a000000000000000000000000000000000000000000000000000000000815260040161310490614a68565b60405180910390fd5b805181602001fd5b63150b7a0260e01b7bffffffffffffffffffffffffffffffffffffffffffffffffffffffff1916817bffffffffffffffffffffffffffffffffffffffffffffffffffffffff19161491505061316a565b600190505b949350505050565b61317c838361355d565b6131896000848484612fdb565b6131c8576040517f08c379a00000000000000000000000000000000000000000000000000000000081526004016131bf90614a68565b60405180910390fd5b505050565b505050565b6008805490506009600083815260200190815260200160002081905550600881908060018154018082558091505060019003906000526020600020016000909190919091505550565b6000600161322884610d66565b6132329190614ecd565b9050600060076000848152602001908152602001600020549050818114613317576000600660008673ffffffffffffffffffffffffffffffffffffffff1673ffffffffffffffffffffffffffffffffffffffff168152602001908152602001600020600084815260200190815260200160002054905080600660008773ffffffffffffffffffffffffffffffffffffffff1673ffffffffffffffffffffffffffffffffffffffff168152602001908152602001600020600084815260200190815260200160002081905550816007600083815260200190815260200160002081905550505b6007600084815260200190815260200160002060009055600660008573ffffffffffffffffffffffffffffffffffffffff1673ffffffffffffffffffffffffffffffffffffffff16815260200190815260200160002060008381526020019081526020016000206000905550505050565b6000600160088054905061339c9190614ecd565b90506000600960008481526020019081526020016000205490506000600883815481106133f2577f4e487b7100000000000000000000000000000000000000000000000000000000600052603260045260246000fd5b90600052602060002001549050806008838154811061343a577f4e487b7100000000000000000000000000000000000000000000000000000000600052603260045260246000fd5b9060005260206000200181905550816009600083815260200190815260200160002081905550600960008581526020019081526020016000206000905560088054806134af577f4e487b7100000000000000000000000000000000000000000000000000000000600052603160045260246000fd5b6001900381819060005260206000200160009055905550505050565b60006134d683610d66565b905081600660008573ffffffffffffffffffffffffffffffffffffffff1673ffffffffffffffffffffffffffffffffffffffff168152602001908152602001600020600083815260200190815260200160002081905550806007600084815260200190815260200160002081905550505050565b600080823b905060008111915050919050565b600073ffffffffffffffffffffffffffffffffffffffff168273ffffffffffffffffffffffffffffffffffffffff1614156135cd576040517f08c379a00000000000000000000000000000000000000000000000000000000081526004016135c490614b88565b60405180910390fd5b6135d68161254b565b15613616576040517f08c379a000000000000000000000000000000000000000000000000000000000815260040161360d90614aa8565b60405180910390fd5b61362260008383612ec7565b6001600360008473ffffffffffffffffffffffffffffffffffffffff1673ffffffffffffffffffffffffffffffffffffffff16815260200190815260200160002060008282546136729190614dec565b92505081905550816002600083815260200190815260200160002060006101000a81548173ffffffffffffffffffffffffffffffffffffffff021916908373ffffffffffffffffffffffffffffffffffffffff160217905550808273ffffffffffffffffffffffffffffffffffffffff16600073ffffffffffffffffffffffffffffffffffffffff167fddf252ad1be2c89b69c2b068fc378daa952ba7f163c4a11628f55a4df523b3ef60405160405180910390a45050565b6040518061022001604052806011905b606081526020019060019003908161373b5790505090565b60405180604001604052806002905b60608152602001906001900390816137625790505090565b600061378d61378884614d34565b614d03565b9050828152602081018484840111156137a557600080fd5b6137b0848285614f75565b509392505050565b60006137cb6137c684614d64565b614d03565b9050828152602081018484840111156137e357600080fd5b6137ee848285614f75565b509392505050565b60008135905061380581615130565b92915050565b60008135905061381a81615147565b92915050565b60008135905061382f8161515e565b92915050565b6000815190506138448161515e565b92915050565b600082601f83011261385b57600080fd5b813561386b84826020860161377a565b91505092915050565b600082601f83011261388557600080fd5b81356138958482602086016137b8565b91505092915050565b6000813590506138ad81615175565b92915050565b6000602082840312156138c557600080fd5b60006138d3848285016137f6565b91505092915050565b600080604083850312156138ef57600080fd5b60006138fd858286016137f6565b925050602061390e858286016137f6565b9150509250929050565b60008060006060848603121561392d57600080fd5b600061393b868287016137f6565b935050602061394c868287016137f6565b925050604061395d8682870161389e565b9150509250925092565b6000806000806080858703121561397d57600080fd5b600061398b878288016137f6565b945050602061399c878288016137f6565b93505060406139ad8782880161389e565b925050606085013567ffffffffffffffff8111156139ca57600080fd5b6139d68782880161384a565b91505092959194509250565b600080604083850312156139f557600080fd5b6000613a03858286016137f6565b9250506020613a148582860161380b565b9150509250929050565b60008060408385031215613a3157600080fd5b6000613a3f858286016137f6565b9250506020613a508582860161389e565b9150509250929050565b600060208284031215613a6c57600080fd5b6000613a7a84828501613820565b91505092915050565b600060208284031215613a9557600080fd5b6000613aa384828501613835565b91505092915050565b600060208284031215613abe57600080fd5b600082013567ffffffffffffffff811115613ad857600080fd5b613ae484828501613874565b91505092915050565b600060208284031215613aff57600080fd5b6000613b0d8482850161389e565b91505092915050565b60008060408385031215613b2957600080fd5b6000613b378582860161389e565b9250506020613b488582860161389e565b9150509250929050565b613b5b81614f01565b82525050565b613b6a81614f13565b82525050565b6000613b7b82614da9565b613b858185614dbf565b9350613b95818560208601614f84565b613b9e8161511f565b840191505092915050565b6000613bb482614db4565b613bbe8185614dd0565b9350613bce818560208601614f84565b613bd78161511f565b840191505092915050565b6000613bed82614db4565b613bf78185614de1565b9350613c07818560208601614f84565b80840191505092915050565b60008154613c2081614fb7565b613c2a8186614de1565b94506001821660008114613c455760018114613c5657613c89565b60ff19831686528186019350613c89565b613c5f85614d94565b60005b83811015613c8157815481890152600182019150602081019050613c62565b838801955050505b50505092915050565b6000613c9f602b83614dd0565b91507f455243373231456e756d657261626c653a206f776e657220696e646578206f7560008301527f74206f6620626f756e64730000000000000000000000000000000000000000006020830152604082019050919050565b6000613d05603283614dd0565b91507f4552433732313a207472616e7366657220746f206e6f6e20455243373231526560008301527f63656976657220696d706c656d656e74657200000000000000000000000000006020830152604082019050919050565b6000613d6b602683614dd0565b91507f4f776e61626c653a206e6577206f776e657220697320746865207a65726f206160008301527f64647265737300000000000000000000000000000000000000000000000000006020830152604082019050919050565b6000613dd1601c83614dd0565b91507f4552433732313a20746f6b656e20616c7265616479206d696e746564000000006000830152602082019050919050565b6000613e11602483614dd0565b91507f4552433732313a207472616e7366657220746f20746865207a65726f2061646460008301527f72657373000000000000000000000000000000000000000000000000000000006020830152604082019050919050565b6000613e77601983614dd0565b91507f4552433732313a20617070726f766520746f2063616c6c6572000000000000006000830152602082019050919050565b6000613eb861010183614de1565b91507f222c20226465736372697074696f6e223a20227a4c6f6f742069732072616e6460008301527f6f6d697a656420616476656e747572657220676561722067656e65726174656460208301527f20616e642073746f726564206f6e20636861696e2e2053746174732c20696d6160408301527f6765732c20616e64206f746865722066756e6374696f6e616c6974792061726560608301527f20696e74656e74696f6e616c6c79206f6d697474656420666f72206f7468657260808301527f7320746f20696e746572707265742e204665656c206672656520746f2075736560a08301527f204c6f6f7420696e20616e792077617920796f752077616e742e222c2022696d60c08301527f616765223a2022646174613a696d6167652f7376672b786d6c3b62617365363460e08301527f2c0000000000000000000000000000000000000000000000000000000000000061010083015261010182019050919050565b600061402a600283614de1565b91507f22200000000000000000000000000000000000000000000000000000000000006000830152600282019050919050565b600061406a602c83614dd0565b91507f4552433732313a206f70657261746f7220717565727920666f72206e6f6e657860008301527f697374656e7420746f6b656e00000000000000000000000000000000000000006020830152604082019050919050565b60006140d0600183614de1565b91507f20000000000000000000000000000000000000000000000000000000000000006000830152600182019050919050565b6000614110603883614dd0565b91507f4552433732313a20617070726f76652063616c6c6572206973206e6f74206f7760008301527f6e6572206e6f7220617070726f76656420666f7220616c6c00000000000000006020830152604082019050919050565b6000614176600183614de1565b91507f22000000000000000000000000000000000000000000000000000000000000006000830152600182019050919050565b60006141b6602a83614dd0565b91507f4552433732313a2062616c616e636520717565727920666f7220746865207a6560008301527f726f2061646472657373000000000000000000000000000000000000000000006020830152604082019050919050565b600061421c602983614dd0565b91507f4552433732313a206f776e657220717565727920666f72206e6f6e657869737460008301527f656e7420746f6b656e00000000000000000000000000000000000000000000006020830152604082019050919050565b6000614282600283614de1565b91507f227d0000000000000000000000000000000000000000000000000000000000006000830152600282019050919050565b60006142c2600f83614de1565b91507f7b226e616d65223a2022426167202300000000000000000000000000000000006000830152600f82019050919050565b6000614302602083614dd0565b91507f4552433732313a206d696e7420746f20746865207a65726f20616464726573736000830152602082019050919050565b6000614342602c83614dd0565b91507f4552433732313a20617070726f76656420717565727920666f72206e6f6e657860008301527f697374656e7420746f6b656e00000000000000000000000000000000000000006020830152604082019050919050565b60006143a8602083614dd0565b91507f4f776e61626c653a2063616c6c6572206973206e6f7420746865206f776e65726000830152602082019050919050565b60006143e8602983614dd0565b91507f4552433732313a207472616e73666572206f6620746f6b656e2074686174206960008301527f73206e6f74206f776e00000000000000000000000000000000000000000000006020830152604082019050919050565b600061444e602183614dd0565b91507f4552433732313a20617070726f76616c20746f2063757272656e74206f776e6560008301527f72000000000000000000000000000000000000000000000000000000000000006020830152604082019050919050565b60006144b4601d83614de1565b91507f646174613a6170706c69636174696f6e2f6a736f6e3b6261736536342c0000006000830152601d82019050919050565b60006144f4600383614de1565b91507f202b3100000000000000000000000000000000000000000000000000000000006000830152600382019050919050565b6000614534603183614dd0565b91507f4552433732313a207472616e736665722063616c6c6572206973206e6f74206f60008301527f776e6572206e6f7220617070726f7665640000000000000000000000000000006020830152604082019050919050565b600061459a602c83614dd0565b91507f455243373231456e756d657261626c653a20676c6f62616c20696e646578206f60008301527f7574206f6620626f756e647300000000000000000000000000000000000000006020830152604082019050919050565b6000614600602583614dd0565b91507f456163682061646472657373206d6179206f6e6c7920636c61696d206f6e652060008301527f746f6b656e0000000000000000000000000000000000000000000000000000006020830152604082019050919050565b6000614666602183614dd0565b91507f4e6f7420656e6f756768204554482073656e743b20636865636b20707269636560008301527f21000000000000000000000000000000000000000000000000000000000000006020830152604082019050919050565b60006146cc601f83614dd0565b91507f5265656e7472616e637947756172643a207265656e7472616e742063616c6c006000830152602082019050919050565b600061470c602e83614dd0565b91507f4e6f206d6f726520746f6b656e7320617661696c61626c652c616c6c20746f6b60008301527f656e7320617265206d696e7465640000000000000000000000000000000000006020830152604082019050919050565b61476e81614f6b565b82525050565b60006147808284613be2565b915081905092915050565b60006147978285613be2565b91506147a38284613be2565b91508190509392505050565b60006147bb8286613be2565b91506147c78285613be2565b91506147d38284613be2565b9150819050949350505050565b60006147ec828c613be2565b91506147f8828b613be2565b9150614804828a613be2565b91506148108289613be2565b915061481c8288613be2565b91506148288287613be2565b91506148348286613be2565b91506148408285613be2565b915061484c8284613be2565b91508190509a9950505050505050505050565b600061486b8285613be2565b9150614876826140c3565b91506148828284613c13565b91508190509392505050565b600061489982614169565b91506148a58286613be2565b91506148b0826140c3565b91506148bc8285613be2565b91506148c78261401d565b91506148d38284613be2565b9150819050949350505050565b60006148eb82614169565b91506148f78286613be2565b9150614902826140c3565b915061490e8285613be2565b91506149198261401d565b91506149258284613be2565b9150614930826144e7565b9150819050949350505050565b6000614948826142b5565b91506149548285613be2565b915061495f82613eaa565b915061496b8284613be2565b915061497682614275565b91508190509392505050565b600061498d826144a7565b91506149998284613be2565b915081905092915050565b60006020820190506149b96000830184613b52565b92915050565b60006080820190506149d46000830187613b52565b6149e16020830186613b52565b6149ee6040830185614765565b8181036060830152614a008184613b70565b905095945050505050565b6000602082019050614a206000830184613b61565b92915050565b60006020820190508181036000830152614a408184613ba9565b905092915050565b60006020820190508181036000830152614a6181613c92565b9050919050565b60006020820190508181036000830152614a8181613cf8565b9050919050565b60006020820190508181036000830152614aa181613d5e565b9050919050565b60006020820190508181036000830152614ac181613dc4565b9050919050565b60006020820190508181036000830152614ae181613e04565b9050919050565b60006020820190508181036000830152614b0181613e6a565b9050919050565b60006020820190508181036000830152614b218161405d565b9050919050565b60006020820190508181036000830152614b4181614103565b9050919050565b60006020820190508181036000830152614b61816141a9565b9050919050565b60006020820190508181036000830152614b818161420f565b9050919050565b60006020820190508181036000830152614ba1816142f5565b9050919050565b60006020820190508181036000830152614bc181614335565b9050919050565b60006020820190508181036000830152614be18161439b565b9050919050565b60006020820190508181036000830152614c01816143db565b9050919050565b60006020820190508181036000830152614c2181614441565b9050919050565b60006020820190508181036000830152614c4181614527565b9050919050565b60006020820190508181036000830152614c618161458d565b9050919050565b60006020820190508181036000830152614c81816145f3565b9050919050565b60006020820190508181036000830152614ca181614659565b9050919050565b60006020820190508181036000830152614cc1816146bf565b9050919050565b60006020820190508181036000830152614ce1816146ff565b9050919050565b6000602082019050614cfd6000830184614765565b92915050565b6000604051905081810181811067ffffffffffffffff82111715614d2a57614d296150f0565b5b8060405250919050565b600067ffffffffffffffff821115614d4f57614d4e6150f0565b5b601f19601f8301169050602081019050919050565b600067ffffffffffffffff821115614d7f57614d7e6150f0565b5b601f19601f8301169050602081019050919050565b60008190508160005260206000209050919050565b600081519050919050565b600081519050919050565b600082825260208201905092915050565b600082825260208201905092915050565b600081905092915050565b6000614df782614f6b565b9150614e0283614f6b565b9250827fffffffffffffffffffffffffffffffffffffffffffffffffffffffffffffffff03821115614e3757614e36615063565b5b828201905092915050565b6000614e4d82614f6b565b9150614e5883614f6b565b925082614e6857614e67615092565b5b828204905092915050565b6000614e7e82614f6b565b9150614e8983614f6b565b9250817fffffffffffffffffffffffffffffffffffffffffffffffffffffffffffffffff0483118215151615614ec257614ec1615063565b5b828202905092915050565b6000614ed882614f6b565b9150614ee383614f6b565b925082821015614ef657614ef5615063565b5b828203905092915050565b6000614f0c82614f4b565b9050919050565b60008115159050919050565b60007fffffffff0000000000000000000000000000000000000000000000000000000082169050919050565b600073ffffffffffffffffffffffffffffffffffffffff82169050919050565b6000819050919050565b82818337600083830152505050565b60005b83811015614fa2578082015181840152602081019050614f87565b83811115614fb1576000848401525b50505050565b60006002820490506001821680614fcf57607f821691505b60208210811415614fe357614fe26150c1565b5b50919050565b6000614ff482614f6b565b91507fffffffffffffffffffffffffffffffffffffffffffffffffffffffffffffffff82141561502757615026615063565b5b600182019050919050565b600061503d82614f6b565b915061504883614f6b565b92508261505857615057615092565b5b828206905092915050565b7f4e487b7100000000000000000000000000000000000000000000000000000000600052601160045260246000fd5b7f4e487b7100000000000000000000000000000000000000000000000000000000600052601260045260246000fd5b7f4e487b7100000000000000000000000000000000000000000000000000000000600052602260045260246000fd5b7f4e487b7100000000000000000000000000000000000000000000000000000000600052604160045260246000fd5b6000601f19601f8301169050919050565b61513981614f01565b811461514457600080fd5b50565b61515081614f13565b811461515b57600080fd5b50565b61516781614f1f565b811461517257600080fd5b50565b61517e81614f6b565b811461518957600080fd5b5056fe3c2f746578743e3c7465787420783d2231302220793d2236302220636c6173733d2262617365223e3c2f746578743e3c7465787420783d2231302220793d223132302220636c6173733d2262617365223e3c2f746578743e3c7465787420783d2231302220793d2238302220636c6173733d2262617365223e3c2f746578743e3c7465787420783d2231302220793d223130302220636c6173733d2262617365223e3c73766720786d6c6e733d22687474703a2f2f7777772e77332e6f72672f323030302f73766722207072657365727665417370656374526174696f3d22784d696e594d696e206d656574222076696577426f783d223020302033353020333530223e3c7374796c653e2e62617365207b2066696c6c3a2077686974653b20666f6e742d66616d696c793a2073657269663b20666f6e742d73697a653a20313470783b207d3c2f7374796c653e3c726563742077696474683d223130302522206865696768743d2231303025222066696c6c3d22626c61636b22202f3e3c7465787420783d2231302220793d2232302220636c6173733d2262617365223e4142434445464748494a4b4c4d4e4f505152535455565758595a6162636465666768696a6b6c6d6e6f707172737475767778797a303132333435363738392b2f3c2f746578743e3c7465787420783d2231302220793d2234302220636c6173733d2262617365223ea264697066735822122000e51fa2ed94a211cad6b29c43fd68cae87e5debcffcf9f34dc73fe47065001864736f6c63430008000033",
  "linkReferences": {},
  "deployedLinkReferences": {}
}