{
  "_format": "hh-sol-artifact-1",
  "contractName": "ZLoot",
  "sourceName": "contracts/ZLoot.sol",
  "abi": [
    {
      "inputs": [],
      "stateMutability": "nonpayable",
      "type": "constructor"
    },
    {
      "anonymous": false,
      "inputs": [
        {
          "indexed": true,
          "internalType": "address",
          "name": "owner",
          "type": "address"
        },
        {
          "indexed": true,
          "internalType": "address",
          "name": "approved",
          "type": "address"
        },
        {
          "indexed": true,
          "internalType": "uint256",
          "name": "tokenId",
          "type": "uint256"
        }
      ],
      "name": "Approval",
      "type": "event"
    },
    {
      "anonymous": false,
      "inputs": [
        {
          "indexed": true,
          "internalType": "address",
          "name": "owner",
          "type": "address"
        },
        {
          "indexed": true,
          "internalType": "address",
          "name": "operator",
          "type": "address"
        },
        {
          "indexed": false,
          "internalType": "bool",
          "name": "approved",
          "type": "bool"
        }
      ],
      "name": "ApprovalForAll",
      "type": "event"
    },
    {
      "anonymous": false,
      "inputs": [
        {
          "indexed": true,
          "internalType": "address",
          "name": "previousOwner",
          "type": "address"
        },
        {
          "indexed": true,
          "internalType": "address",
          "name": "newOwner",
          "type": "address"
        }
      ],
      "name": "OwnershipTransferred",
      "type": "event"
    },
    {
      "anonymous": false,
      "inputs": [
        {
          "indexed": true,
          "internalType": "address",
          "name": "from",
          "type": "address"
        },
        {
          "indexed": true,
          "internalType": "address",
          "name": "to",
          "type": "address"
        },
        {
          "indexed": true,
          "internalType": "uint256",
          "name": "tokenId",
          "type": "uint256"
        }
      ],
      "name": "Transfer",
      "type": "event"
    },
    {
      "inputs": [
        {
          "internalType": "address",
          "name": "to",
          "type": "address"
        },
        {
          "internalType": "uint256",
          "name": "tokenId",
          "type": "uint256"
        }
      ],
      "name": "approve",
      "outputs": [],
      "stateMutability": "nonpayable",
      "type": "function"
    },
    {
      "inputs": [
        {
          "internalType": "address",
          "name": "owner",
          "type": "address"
        }
      ],
      "name": "balanceOf",
      "outputs": [
        {
          "internalType": "uint256",
          "name": "",
          "type": "uint256"
        }
      ],
      "stateMutability": "view",
      "type": "function"
    },
    {
      "inputs": [
        {
          "internalType": "uint256",
          "name": "tokenId",
          "type": "uint256"
        },
        {
          "internalType": "uint256",
          "name": "minPrice",
          "type": "uint256"
        }
      ],
      "name": "claim",
      "outputs": [],
      "stateMutability": "payable",
      "type": "function"
    },
    {
      "inputs": [
        {
          "internalType": "uint256",
          "name": "tokenId",
          "type": "uint256"
        }
      ],
      "name": "getApproved",
      "outputs": [
        {
          "internalType": "address",
          "name": "",
          "type": "address"
        }
      ],
      "stateMutability": "view",
      "type": "function"
    },
    {
      "inputs": [
        {
          "internalType": "uint256",
          "name": "tokenId",
          "type": "uint256"
        }
      ],
      "name": "getCompanion",
      "outputs": [
        {
          "internalType": "string",
          "name": "",
          "type": "string"
        }
      ],
      "stateMutability": "view",
      "type": "function"
    },
    {
      "inputs": [
        {
          "internalType": "uint256",
          "name": "tokenId",
          "type": "uint256"
        }
      ],
      "name": "getHand",
      "outputs": [
        {
          "internalType": "string",
          "name": "",
          "type": "string"
        }
      ],
      "stateMutability": "view",
      "type": "function"
    },
    {
      "inputs": [
        {
          "internalType": "uint256",
          "name": "tokenId",
          "type": "uint256"
        }
      ],
      "name": "getPower",
      "outputs": [
        {
          "internalType": "string",
          "name": "",
          "type": "string"
        }
      ],
      "stateMutability": "view",
      "type": "function"
    },
    {
      "inputs": [
        {
          "internalType": "uint256",
          "name": "tokenId",
          "type": "uint256"
        }
      ],
      "name": "getRing",
      "outputs": [
        {
          "internalType": "string",
          "name": "",
          "type": "string"
        }
      ],
      "stateMutability": "view",
      "type": "function"
    },
    {
      "inputs": [
        {
          "internalType": "uint256",
          "name": "tokenId",
          "type": "uint256"
        }
      ],
      "name": "getWeapon",
      "outputs": [
        {
          "internalType": "string",
          "name": "",
          "type": "string"
        }
      ],
      "stateMutability": "view",
      "type": "function"
    },
    {
      "inputs": [
        {
          "internalType": "address",
          "name": "owner",
          "type": "address"
        },
        {
          "internalType": "address",
          "name": "operator",
          "type": "address"
        }
      ],
      "name": "isApprovedForAll",
      "outputs": [
        {
          "internalType": "bool",
          "name": "",
          "type": "bool"
        }
      ],
      "stateMutability": "view",
      "type": "function"
    },
    {
      "inputs": [],
      "name": "name",
      "outputs": [
        {
          "internalType": "string",
          "name": "",
          "type": "string"
        }
      ],
      "stateMutability": "view",
      "type": "function"
    },
    {
      "inputs": [],
      "name": "owner",
      "outputs": [
        {
          "internalType": "address",
          "name": "",
          "type": "address"
        }
      ],
      "stateMutability": "view",
      "type": "function"
    },
    {
      "inputs": [
        {
          "internalType": "uint256",
          "name": "tokenId",
          "type": "uint256"
        }
      ],
      "name": "ownerOf",
      "outputs": [
        {
          "internalType": "address",
          "name": "",
          "type": "address"
        }
      ],
      "stateMutability": "view",
      "type": "function"
    },
    {
      "inputs": [],
      "name": "renounceOwnership",
      "outputs": [],
      "stateMutability": "nonpayable",
      "type": "function"
    },
    {
      "inputs": [
        {
          "internalType": "address",
          "name": "from",
          "type": "address"
        },
        {
          "internalType": "address",
          "name": "to",
          "type": "address"
        },
        {
          "internalType": "uint256",
          "name": "tokenId",
          "type": "uint256"
        }
      ],
      "name": "safeTransferFrom",
      "outputs": [],
      "stateMutability": "nonpayable",
      "type": "function"
    },
    {
      "inputs": [
        {
          "internalType": "address",
          "name": "from",
          "type": "address"
        },
        {
          "internalType": "address",
          "name": "to",
          "type": "address"
        },
        {
          "internalType": "uint256",
          "name": "tokenId",
          "type": "uint256"
        },
        {
          "internalType": "bytes",
          "name": "_data",
          "type": "bytes"
        }
      ],
      "name": "safeTransferFrom",
      "outputs": [],
      "stateMutability": "nonpayable",
      "type": "function"
    },
    {
      "inputs": [
        {
          "internalType": "address",
          "name": "operator",
          "type": "address"
        },
        {
          "internalType": "bool",
          "name": "approved",
          "type": "bool"
        }
      ],
      "name": "setApprovalForAll",
      "outputs": [],
      "stateMutability": "nonpayable",
      "type": "function"
    },
    {
      "inputs": [
        {
          "internalType": "bytes4",
          "name": "interfaceId",
          "type": "bytes4"
        }
      ],
      "name": "supportsInterface",
      "outputs": [
        {
          "internalType": "bool",
          "name": "",
          "type": "bool"
        }
      ],
      "stateMutability": "view",
      "type": "function"
    },
    {
      "inputs": [],
      "name": "symbol",
      "outputs": [
        {
          "internalType": "string",
          "name": "",
          "type": "string"
        }
      ],
      "stateMutability": "view",
      "type": "function"
    },
    {
      "inputs": [
        {
          "internalType": "uint256",
          "name": "index",
          "type": "uint256"
        }
      ],
      "name": "tokenByIndex",
      "outputs": [
        {
          "internalType": "uint256",
          "name": "",
          "type": "uint256"
        }
      ],
      "stateMutability": "view",
      "type": "function"
    },
    {
      "inputs": [
        {
          "internalType": "address",
          "name": "owner",
          "type": "address"
        },
        {
          "internalType": "uint256",
          "name": "index",
          "type": "uint256"
        }
      ],
      "name": "tokenOfOwnerByIndex",
      "outputs": [
        {
          "internalType": "uint256",
          "name": "",
          "type": "uint256"
        }
      ],
      "stateMutability": "view",
      "type": "function"
    },
    {
      "inputs": [
        {
          "internalType": "uint256",
          "name": "tokenId",
          "type": "uint256"
        }
      ],
      "name": "tokenURI",
      "outputs": [
        {
          "internalType": "string",
          "name": "",
          "type": "string"
        }
      ],
      "stateMutability": "view",
      "type": "function"
    },
    {
      "inputs": [],
      "name": "totalSupply",
      "outputs": [
        {
          "internalType": "uint256",
          "name": "",
          "type": "uint256"
        }
      ],
      "stateMutability": "view",
      "type": "function"
    },
    {
      "inputs": [
        {
          "internalType": "address",
          "name": "from",
          "type": "address"
        },
        {
          "internalType": "address",
          "name": "to",
          "type": "address"
        },
        {
          "internalType": "uint256",
          "name": "tokenId",
          "type": "uint256"
        }
      ],
      "name": "transfer",
      "outputs": [],
      "stateMutability": "nonpayable",
      "type": "function"
    },
    {
      "inputs": [
        {
          "internalType": "address",
          "name": "from",
          "type": "address"
        },
        {
          "internalType": "address",
          "name": "to",
          "type": "address"
        },
        {
          "internalType": "uint256",
          "name": "tokenId",
          "type": "uint256"
        }
      ],
      "name": "transferFrom",
      "outputs": [],
      "stateMutability": "nonpayable",
      "type": "function"
    },
    {
      "inputs": [
        {
          "internalType": "address",
          "name": "newOwner",
          "type": "address"
        }
      ],
      "name": "transferOwnership",
      "outputs": [],
      "stateMutability": "nonpayable",
      "type": "function"
    }
  ],
  "bytecode": "0x60806040526040518061024001604052806040518060400160405280600981526020017f57617268616d6d6572000000000000000000000000000000000000000000000081525081526020016040518060400160405280600c81526020017f517561727465727374616666000000000000000000000000000000000000000081525081526020016040518060400160405280600481526020017f4d61756c0000000000000000000000000000000000000000000000000000000081525081526020016040518060400160405280600481526020017f4d6163650000000000000000000000000000000000000000000000000000000081525081526020016040518060400160405280600481526020017f436c75620000000000000000000000000000000000000000000000000000000081525081526020016040518060400160405280600681526020017f4b6174616e61000000000000000000000000000000000000000000000000000081525081526020016040518060400160405280600881526020017f46616c6368696f6e00000000000000000000000000000000000000000000000081525081526020016040518060400160405280600881526020017f5363696d6974617200000000000000000000000000000000000000000000000081525081526020016040518060400160405280600a81526020017f4c6f6e672053776f72640000000000000000000000000000000000000000000081525081526020016040518060400160405280600b81526020017f53686f72742053776f726400000000000000000000000000000000000000000081525081526020016040518060400160405280600a81526020017f47686f73742057616e640000000000000000000000000000000000000000000081525081526020016040518060400160405280600a81526020017f47726176652057616e640000000000000000000000000000000000000000000081525081526020016040518060400160405280600981526020017f426f6e652057616e64000000000000000000000000000000000000000000000081525081526020016040518060400160405280600481526020017f57616e640000000000000000000000000000000000000000000000000000000081525081526020016040518060400160405280600881526020017f4772696d6f69726500000000000000000000000000000000000000000000000081525081526020016040518060400160405280600981526020017f4368726f6e69636c65000000000000000000000000000000000000000000000081525081526020016040518060400160405280600481526020017f546f6d650000000000000000000000000000000000000000000000000000000081525081526020016040518060400160405280600481526020017f426f6f6b00000000000000000000000000000000000000000000000000000000815250815250600c90601262000446929190620031ef565b50604051806101e001604052806040518060400160405280600981526020017f426c61636b20436174000000000000000000000000000000000000000000000081525081526020016040518060400160405280600681526020017f447261676f6e000000000000000000000000000000000000000000000000000081525081526020016040518060400160405280600781526020017f4c7563696665720000000000000000000000000000000000000000000000000081525081526020016040518060400160405280600881526020017f426170686f6d657400000000000000000000000000000000000000000000000081525081526020016040518060400160405280600381526020017f456c66000000000000000000000000000000000000000000000000000000000081525081526020016040518060400160405280600381526020017f4f7263000000000000000000000000000000000000000000000000000000000081525081526020016040518060400160405280600a81526020017f44656d6f676f72676f6e0000000000000000000000000000000000000000000081525081526020016040518060400160405280600881526020017f43656e6f6269746500000000000000000000000000000000000000000000000081525081526020016040518060400160405280600881526020017f436572626572757300000000000000000000000000000000000000000000000081525081526020016040518060400160405280600581526020017f47686f737400000000000000000000000000000000000000000000000000000081525081526020016040518060400160405280600881526020017f57657265776f6c6600000000000000000000000000000000000000000000000081525081526020016040518060400160405280600981526020017f4c657669617468616e000000000000000000000000000000000000000000000081525081526020016040518060400160405280600681526020017f4b72616b656e000000000000000000000000000000000000000000000000000081525081526020016040518060400160405280600681526020017f5a6f6d626965000000000000000000000000000000000000000000000000000081525081526020016040518060400160405280600581526020017f4d756d6d79000000000000000000000000000000000000000000000000000000815250815250600d90600f620007d892919062003256565b50604051806101e001604052806040518060400160405280600981526020017f54656c657061746879000000000000000000000000000000000000000000000081525081526020016040518060400160405280600c81526020017f436c616972766f69616e6365000000000000000000000000000000000000000081525081526020016040518060400160405280601281526020017f43616e2054616c6b20546f2047686f737473000000000000000000000000000081525081526020016040518060400160405280600e81526020017f52656d6f74652056696577696e6700000000000000000000000000000000000081525081526020016040518060400160405280601081526020017f53756d6d6f6e696e672044656d6f6e730000000000000000000000000000000081525081526020016040518060400160405280600e81526020017f54616d696e6720447261676f6e7300000000000000000000000000000000000081525081526020016040518060400160405280600c81526020017f4d696e642052656164696e67000000000000000000000000000000000000000081525081526020016040518060400160405280600f81526020017f53756d6d6f696e6720416e67656c73000000000000000000000000000000000081525081526020016040518060400160405280600b81526020017f496d6d6f7274616c69747900000000000000000000000000000000000000000081525081526020016040518060400160405280600e81526020017f48656172696e67204e617475726500000000000000000000000000000000000081525081526020016040518060400160405280601481526020017f43617374696e67204d61676963205370656c6c7300000000000000000000000081525081526020016040518060400160405280601381526020017f576974636863726166742f57697a61726472790000000000000000000000000081525081526020016040518060400160405280601181526020017f5265766976696e6720546865204465616400000000000000000000000000000081525081526020016040518060400160405280600c81526020017f496e7669736962696c697479000000000000000000000000000000000000000081525081526020016040518060400160405280600c81526020017f50616c6d2072656164696e670000000000000000000000000000000000000000815250815250600e90600f62000b6a92919062003256565b50604051806101e001604052806040518060400160405280600b81526020017f4f726e6174652042656c7400000000000000000000000000000000000000000081525081526020016040518060400160405280600881526020017f5761722042656c7400000000000000000000000000000000000000000000000081525081526020016040518060400160405280600b81526020017f506c617465642042656c7400000000000000000000000000000000000000000081525081526020016040518060400160405280600981526020017f4d6573682042656c74000000000000000000000000000000000000000000000081525081526020016040518060400160405280600a81526020017f48656176792042656c740000000000000000000000000000000000000000000081525081526020016040518060400160405280600e81526020017f44656d6f6e686964652042656c7400000000000000000000000000000000000081525081526020016040518060400160405280600f81526020017f447261676f6e736b696e2042656c74000000000000000000000000000000000081525081526020016040518060400160405280601481526020017f53747564646564204c6561746865722042656c7400000000000000000000000081525081526020016040518060400160405280601181526020017f48617264204c6561746865722042656c7400000000000000000000000000000081525081526020016040518060400160405280600c81526020017f4c6561746865722042656c74000000000000000000000000000000000000000081525081526020016040518060400160405280600f81526020017f42726967687473696c6b2053617368000000000000000000000000000000000081525081526020016040518060400160405280600981526020017f53696c6b2053617368000000000000000000000000000000000000000000000081525081526020016040518060400160405280600981526020017f576f6f6c2053617368000000000000000000000000000000000000000000000081525081526020016040518060400160405280600a81526020017f4c696e656e20536173680000000000000000000000000000000000000000000081525081526020016040518060400160405280600481526020017f5361736800000000000000000000000000000000000000000000000000000000815250815250600f90600f62000efc92919062003256565b50604051806101e001604052806040518060400160405280600c81526020017f486f6c792047726561766573000000000000000000000000000000000000000081525081526020016040518060400160405280600e81526020017f4f726e617465204772656176657300000000000000000000000000000000000081525081526020016040518060400160405280600781526020017f477265617665730000000000000000000000000000000000000000000000000081525081526020016040518060400160405280600b81526020017f436861696e20426f6f747300000000000000000000000000000000000000000081525081526020016040518060400160405280600b81526020017f486561767920426f6f747300000000000000000000000000000000000000000081525081526020016040518060400160405280600f81526020017f44656d6f6e6869646520426f6f7473000000000000000000000000000000000081525081526020016040518060400160405280601081526020017f447261676f6e736b696e20426f6f74730000000000000000000000000000000081525081526020016040518060400160405280601581526020017f53747564646564204c65617468657220426f6f7473000000000000000000000081525081526020016040518060400160405280601281526020017f48617264204c65617468657220426f6f7473000000000000000000000000000081525081526020016040518060400160405280600d81526020017f4c65617468657220426f6f74730000000000000000000000000000000000000081525081526020016040518060400160405280600f81526020017f446976696e6520536c697070657273000000000000000000000000000000000081525081526020016040518060400160405280600d81526020017f53696c6b20536c6970706572730000000000000000000000000000000000000081525081526020016040518060400160405280600a81526020017f576f6f6c2053686f65730000000000000000000000000000000000000000000081525081526020016040518060400160405280600b81526020017f4c696e656e2053686f657300000000000000000000000000000000000000000081525081526020016040518060400160405280600581526020017f53686f6573000000000000000000000000000000000000000000000000000000815250815250601090600f6200128e92919062003256565b50604051806101e001604052806040518060400160405280600e81526020017f486f6c79204761756e746c65747300000000000000000000000000000000000081525081526020016040518060400160405280601081526020017f4f726e617465204761756e746c6574730000000000000000000000000000000081525081526020016040518060400160405280600981526020017f4761756e746c657473000000000000000000000000000000000000000000000081525081526020016040518060400160405280600c81526020017f436861696e20476c6f766573000000000000000000000000000000000000000081525081526020016040518060400160405280600c81526020017f486561767920476c6f766573000000000000000000000000000000000000000081525081526020016040518060400160405280600d81526020017f44656d6f6e27732048616e64730000000000000000000000000000000000000081525081526020016040518060400160405280601181526020017f447261676f6e736b696e20476c6f76657300000000000000000000000000000081525081526020016040518060400160405280601681526020017f53747564646564204c65617468657220476c6f7665730000000000000000000081525081526020016040518060400160405280601381526020017f48617264204c65617468657220476c6f7665730000000000000000000000000081525081526020016040518060400160405280600e81526020017f4c65617468657220476c6f76657300000000000000000000000000000000000081525081526020016040518060400160405280600d81526020017f446976696e6520476c6f7665730000000000000000000000000000000000000081525081526020016040518060400160405280600b81526020017f53696c6b20476c6f76657300000000000000000000000000000000000000000081525081526020016040518060400160405280600b81526020017f576f6f6c20476c6f76657300000000000000000000000000000000000000000081525081526020016040518060400160405280600c81526020017f4c696e656e20476c6f766573000000000000000000000000000000000000000081525081526020016040518060400160405280600681526020017f476c6f7665730000000000000000000000000000000000000000000000000000815250815250601190600f6200162092919062003256565b5060405180606001604052806040518060400160405280600881526020017f4e65636b6c61636500000000000000000000000000000000000000000000000081525081526020016040518060400160405280600681526020017f416d756c6574000000000000000000000000000000000000000000000000000081525081526020016040518060400160405280600781526020017f50656e64616e74000000000000000000000000000000000000000000000000008152508152506012906003620016ed929190620032bd565b506040518060a001604052806040518060400160405280600981526020017f476f6c642052696e67000000000000000000000000000000000000000000000081525081526020016040518060400160405280600b81526020017f53696c7665722052696e6700000000000000000000000000000000000000000081525081526020016040518060400160405280600b81526020017f42726f6e7a652052696e6700000000000000000000000000000000000000000081525081526020016040518060400160405280600d81526020017f506c6174696e756d2052696e670000000000000000000000000000000000000081525081526020016040518060400160405280600d81526020017f546974616e69756d2052696e670000000000000000000000000000000000000081525081525060139060056200183092919062003324565b506040518061020001604052806040518060400160405280600881526020017f6f6620506f77657200000000000000000000000000000000000000000000000081525081526020016040518060400160405280600981526020017f6f66204769616e7473000000000000000000000000000000000000000000000081525081526020016040518060400160405280600981526020017f6f6620546974616e73000000000000000000000000000000000000000000000081525081526020016040518060400160405280600881526020017f6f6620536b696c6c00000000000000000000000000000000000000000000000081525081526020016040518060400160405280600d81526020017f6f662050657266656374696f6e0000000000000000000000000000000000000081525081526020016040518060400160405280600d81526020017f6f66204272696c6c69616e63650000000000000000000000000000000000000081525081526020016040518060400160405280601081526020017f6f6620456e6c69676874656e6d656e740000000000000000000000000000000081525081526020016040518060400160405280600d81526020017f6f662050726f74656374696f6e0000000000000000000000000000000000000081525081526020016040518060400160405280600881526020017f6f6620416e67657200000000000000000000000000000000000000000000000081525081526020016040518060400160405280600781526020017f6f6620526167650000000000000000000000000000000000000000000000000081525081526020016040518060400160405280600781526020017f6f6620467572790000000000000000000000000000000000000000000000000081525081526020016040518060400160405280600a81526020017f6f662056697472696f6c0000000000000000000000000000000000000000000081525081526020016040518060400160405280600a81526020017f6f662074686520466f780000000000000000000000000000000000000000000081525081526020016040518060400160405280600c81526020017f6f6620446574656374696f6e000000000000000000000000000000000000000081525081526020016040518060400160405280600d81526020017f6f66205265666c656374696f6e0000000000000000000000000000000000000081525081526020016040518060400160405280600c81526020017f6f6620746865205477696e730000000000000000000000000000000000000000815250815250601490601062001bfd9291906200338b565b50604051806108a001604052806040518060400160405280600581526020017f41676f6e7900000000000000000000000000000000000000000000000000000081525081526020016040518060400160405280600a81526020017f41706f63616c797073650000000000000000000000000000000000000000000081525081526020016040518060400160405280600a81526020017f41726d61676564646f6e0000000000000000000000000000000000000000000081525081526020016040518060400160405280600581526020017f426561737400000000000000000000000000000000000000000000000000000081525081526020016040518060400160405280600881526020017f426568656d6f746800000000000000000000000000000000000000000000000081525081526020016040518060400160405280600681526020017f426c69676874000000000000000000000000000000000000000000000000000081525081526020016040518060400160405280600581526020017f426c6f6f6400000000000000000000000000000000000000000000000000000081525081526020016040518060400160405280600781526020017f4272616d626c650000000000000000000000000000000000000000000000000081525081526020016040518060400160405280600981526020017f4272696d73746f6e65000000000000000000000000000000000000000000000081525081526020016040518060400160405280600581526020017f42726f6f6400000000000000000000000000000000000000000000000000000081525081526020016040518060400160405280600781526020017f43617272696f6e0000000000000000000000000000000000000000000000000081525081526020016040518060400160405280600981526020017f43617461636c79736d000000000000000000000000000000000000000000000081525081526020016040518060400160405280600881526020017f4368696d6572696300000000000000000000000000000000000000000000000081525081526020016040518060400160405280600681526020017f436f72707365000000000000000000000000000000000000000000000000000081525081526020016040518060400160405280600a81526020017f436f7272757074696f6e0000000000000000000000000000000000000000000081525081526020016040518060400160405280600981526020017f44616d6e6174696f6e000000000000000000000000000000000000000000000081525081526020016040518060400160405280600581526020017f446561746800000000000000000000000000000000000000000000000000000081525081526020016040518060400160405280600581526020017f44656d6f6e00000000000000000000000000000000000000000000000000000081525081526020016040518060400160405280600481526020017f446972650000000000000000000000000000000000000000000000000000000081525081526020016040518060400160405280600681526020017f447261676f6e000000000000000000000000000000000000000000000000000081525081526020016040518060400160405280600581526020017f447265616400000000000000000000000000000000000000000000000000000081525081526020016040518060400160405280600481526020017f446f6f6d0000000000000000000000000000000000000000000000000000000081525081526020016040518060400160405280600481526020017f4475736b0000000000000000000000000000000000000000000000000000000081525081526020016040518060400160405280600581526020017f4561676c6500000000000000000000000000000000000000000000000000000081525081526020016040518060400160405280600881526020017f456d70797265616e00000000000000000000000000000000000000000000000081525081526020016040518060400160405280600481526020017f466174650000000000000000000000000000000000000000000000000000000081525081526020016040518060400160405280600381526020017f466f65000000000000000000000000000000000000000000000000000000000081525081526020016040518060400160405280600481526020017f47616c650000000000000000000000000000000000000000000000000000000081525081526020016040518060400160405280600581526020017f47686f756c00000000000000000000000000000000000000000000000000000081525081526020016040518060400160405280600581526020017f476c6f6f6d00000000000000000000000000000000000000000000000000000081525081526020016040518060400160405280600581526020017f476c79706800000000000000000000000000000000000000000000000000000081525081526020016040518060400160405280600581526020017f476f6c656d00000000000000000000000000000000000000000000000000000081525081526020016040518060400160405280600481526020017f4772696d0000000000000000000000000000000000000000000000000000000081525081526020016040518060400160405280600481526020017f486174650000000000000000000000000000000000000000000000000000000081525081526020016040518060400160405280600581526020017f4861766f6300000000000000000000000000000000000000000000000000000081525081526020016040518060400160405280600681526020017f486f6e6f7572000000000000000000000000000000000000000000000000000081525081526020016040518060400160405280600681526020017f486f72726f72000000000000000000000000000000000000000000000000000081525081526020016040518060400160405280600881526020017f4879706e6f74696300000000000000000000000000000000000000000000000081525081526020016040518060400160405280600681526020017f4b72616b656e000000000000000000000000000000000000000000000000000081525081526020016040518060400160405280600581526020017f4c6f61746800000000000000000000000000000000000000000000000000000081525081526020016040518060400160405280600981526020017f4d61656c7374726f6d000000000000000000000000000000000000000000000081525081526020016040518060400160405280600481526020017f4d696e640000000000000000000000000000000000000000000000000000000081525081526020016040518060400160405280600781526020017f4d697261636c650000000000000000000000000000000000000000000000000081525081526020016040518060400160405280600681526020017f4d6f72626964000000000000000000000000000000000000000000000000000081525081526020016040518060400160405280600881526020017f4f626c6976696f6e00000000000000000000000000000000000000000000000081525081526020016040518060400160405280600981526020017f4f6e736c6175676874000000000000000000000000000000000000000000000081525081526020016040518060400160405280600481526020017f5061696e0000000000000000000000000000000000000000000000000000000081525081526020016040518060400160405280600b81526020017f50616e64656d6f6e69756d00000000000000000000000000000000000000000081525081526020016040518060400160405280600781526020017f50686f656e69780000000000000000000000000000000000000000000000000081525081526020016040518060400160405280600681526020017f506c61677565000000000000000000000000000000000000000000000000000081525081526020016040518060400160405280600481526020017f526167650000000000000000000000000000000000000000000000000000000081525081526020016040518060400160405280600781526020017f526170747572650000000000000000000000000000000000000000000000000081525081526020016040518060400160405280600481526020017f52756e650000000000000000000000000000000000000000000000000000000081525081526020016040518060400160405280600581526020017f536b756c6c00000000000000000000000000000000000000000000000000000081525081526020016040518060400160405280600381526020017f536f6c000000000000000000000000000000000000000000000000000000000081525081526020016040518060400160405280600481526020017f536f756c0000000000000000000000000000000000000000000000000000000081525081526020016040518060400160405280600681526020017f536f72726f77000000000000000000000000000000000000000000000000000081525081526020016040518060400160405280600681526020017f537069726974000000000000000000000000000000000000000000000000000081525081526020016040518060400160405280600581526020017f53746f726d00000000000000000000000000000000000000000000000000000081525081526020016040518060400160405280600781526020017f54656d706573740000000000000000000000000000000000000000000000000081525081526020016040518060400160405280600781526020017f546f726d656e740000000000000000000000000000000000000000000000000081525081526020016040518060400160405280600981526020017f56656e6765616e6365000000000000000000000000000000000000000000000081525081526020016040518060400160405280600781526020017f566963746f72790000000000000000000000000000000000000000000000000081525081526020016040518060400160405280600581526020017f566970657200000000000000000000000000000000000000000000000000000081525081526020016040518060400160405280600681526020017f566f72746578000000000000000000000000000000000000000000000000000081525081526020016040518060400160405280600381526020017f576f65000000000000000000000000000000000000000000000000000000000081525081526020016040518060400160405280600581526020017f577261746800000000000000000000000000000000000000000000000000000081525081526020016040518060400160405280600781526020017f4c6967687427730000000000000000000000000000000000000000000000000081525081526020016040518060400160405280600a81526020017f5368696d6d6572696e6700000000000000000000000000000000000000000000815250815250601590604562002c01929190620033f2565b506040518061024001604052806040518060400160405280600481526020017f42616e650000000000000000000000000000000000000000000000000000000081525081526020016040518060400160405280600481526020017f526f6f740000000000000000000000000000000000000000000000000000000081525081526020016040518060400160405280600481526020017f426974650000000000000000000000000000000000000000000000000000000081525081526020016040518060400160405280600481526020017f536f6e670000000000000000000000000000000000000000000000000000000081525081526020016040518060400160405280600481526020017f526f61720000000000000000000000000000000000000000000000000000000081525081526020016040518060400160405280600581526020017f477261737000000000000000000000000000000000000000000000000000000081525081526020016040518060400160405280600a81526020017f496e737472756d656e740000000000000000000000000000000000000000000081525081526020016040518060400160405280600481526020017f476c6f770000000000000000000000000000000000000000000000000000000081525081526020016040518060400160405280600681526020017f42656e646572000000000000000000000000000000000000000000000000000081525081526020016040518060400160405280600681526020017f536861646f77000000000000000000000000000000000000000000000000000081525081526020016040518060400160405280600781526020017f576869737065720000000000000000000000000000000000000000000000000081525081526020016040518060400160405280600581526020017f53686f757400000000000000000000000000000000000000000000000000000081525081526020016040518060400160405280600581526020017f47726f776c00000000000000000000000000000000000000000000000000000081525081526020016040518060400160405280600481526020017f546561720000000000000000000000000000000000000000000000000000000081525081526020016040518060400160405280600481526020017f5065616b0000000000000000000000000000000000000000000000000000000081525081526020016040518060400160405280600481526020017f466f726d0000000000000000000000000000000000000000000000000000000081525081526020016040518060400160405280600381526020017f53756e000000000000000000000000000000000000000000000000000000000081525081526020016040518060400160405280600481526020017f4d6f6f6e00000000000000000000000000000000000000000000000000000000815250815250601690601262003044929190620031ef565b503480156200305257600080fd5b506040518060400160405280600581526020017f7a4c6f6f740000000000000000000000000000000000000000000000000000008152506040518060400160405280600381526020017f5a4c5400000000000000000000000000000000000000000000000000000000008152508160009080519060200190620030d792919062003459565b508060019080519060200190620030f092919062003459565b5050506001600a819055506200311b6200310f6200312160201b60201c565b6200312960201b60201c565b620035dc565b600033905090565b6000600b60009054906101000a900473ffffffffffffffffffffffffffffffffffffffff16905081600b60006101000a81548173ffffffffffffffffffffffffffffffffffffffff021916908373ffffffffffffffffffffffffffffffffffffffff1602179055508173ffffffffffffffffffffffffffffffffffffffff168173ffffffffffffffffffffffffffffffffffffffff167f8be0079c531659141344cd1fd0a4f28419497f9722a3daafe3b4186f6b6457e060405160405180910390a35050565b82805482825590600052602060002090810192821562003243579160200282015b82811115620032425782518290805190602001906200323192919062003459565b509160200191906001019062003210565b5b509050620032529190620034ea565b5090565b828054828255906000526020600020908101928215620032aa579160200282015b82811115620032a95782518290805190602001906200329892919062003459565b509160200191906001019062003277565b5b509050620032b99190620034ea565b5090565b82805482825590600052602060002090810192821562003311579160200282015b8281111562003310578251829080519060200190620032ff92919062003459565b5091602001919060010190620032de565b5b509050620033209190620034ea565b5090565b82805482825590600052602060002090810192821562003378579160200282015b82811115620033775782518290805190602001906200336692919062003459565b509160200191906001019062003345565b5b509050620033879190620034ea565b5090565b828054828255906000526020600020908101928215620033df579160200282015b82811115620033de578251829080519060200190620033cd92919062003459565b5091602001919060010190620033ac565b5b509050620033ee9190620034ea565b5090565b82805482825590600052602060002090810192821562003446579160200282015b82811115620034455782518290805190602001906200343492919062003459565b509160200191906001019062003413565b5b509050620034559190620034ea565b5090565b828054620034679062003577565b90600052602060002090601f0160209004810192826200348b5760008555620034d7565b82601f10620034a657805160ff1916838001178555620034d7565b82800160010185558215620034d7579182015b82811115620034d6578251825591602001919060010190620034b9565b5b509050620034e6919062003512565b5090565b5b808211156200350e576000818162003504919062003531565b50600101620034eb565b5090565b5b808211156200352d57600081600090555060010162003513565b5090565b5080546200353f9062003577565b6000825580601f1062003553575062003574565b601f01602090049060005260206000209081019062003573919062003512565b5b50565b600060028204905060018216806200359057607f821691505b60208210811415620035a757620035a6620035ad565b5b50919050565b7f4e487b7100000000000000000000000000000000000000000000000000000000600052602260045260246000fd5b61527280620035ec6000396000f3fe6080604052600436106101815760003560e01c8063895d3647116100d1578063beabacc81161008a578063c87b56dd11610064578063c87b56dd146105bd578063d47f269e146105fa578063e985e9c514610637578063f2fde38b1461067457610181565b8063beabacc81461053b578063c08a5dd514610564578063c3490263146105a157610181565b8063895d3647146104195780638da5cb5b1461045657806395d89b41146104815780639e41b73f146104ac578063a22cb465146104e9578063b88d4fde1461051257610181565b806323b872dd1161013e5780634f6ccce7116101185780634f6ccce71461034b5780636352211e1461038857806370a08231146103c5578063715018a61461040257610181565b806323b872dd146102bc5780632f745c59146102e557806342842e0e1461032257610181565b8063017fe8091461018657806301ffc9a7146101c357806306fdde0314610200578063081812fc1461022b578063095ea7b31461026857806318160ddd14610291575b600080fd5b34801561019257600080fd5b506101ad60048036038101906101a891906139ec565b61069d565b6040516101ba91906148ff565b60405180910390f35b3480156101cf57600080fd5b506101ea60048036038101906101e5919061399a565b6107b7565b6040516101f791906148e4565b60405180910390f35b34801561020c57600080fd5b50610215610831565b60405161022291906148ff565b60405180910390f35b34801561023757600080fd5b50610252600480360381019061024d91906139ec565b6108c3565b60405161025f919061487d565b60405180910390f35b34801561027457600080fd5b5061028f600480360381019061028a919061395e565b610948565b005b34801561029d57600080fd5b506102a6610a60565b6040516102b39190614bc1565b60405180910390f35b3480156102c857600080fd5b506102e360048036038101906102de9190613858565b610a6d565b005b3480156102f157600080fd5b5061030c6004803603810190610307919061395e565b610acd565b6040516103199190614bc1565b60405180910390f35b34801561032e57600080fd5b5061034960048036038101906103449190613858565b610b72565b005b34801561035757600080fd5b50610372600480360381019061036d91906139ec565b610b92565b60405161037f9190614bc1565b60405180910390f35b34801561039457600080fd5b506103af60048036038101906103aa91906139ec565b610c29565b6040516103bc919061487d565b60405180910390f35b3480156103d157600080fd5b506103ec60048036038101906103e791906137f3565b610cdb565b6040516103f99190614bc1565b60405180910390f35b34801561040e57600080fd5b50610417610d93565b005b34801561042557600080fd5b50610440600480360381019061043b91906139ec565b610e1b565b60405161044d91906148ff565b60405180910390f35b34801561046257600080fd5b5061046b610f35565b604051610478919061487d565b60405180910390f35b34801561048d57600080fd5b50610496610f5f565b6040516104a391906148ff565b60405180910390f35b3480156104b857600080fd5b506104d360048036038101906104ce91906139ec565b610ff1565b6040516104e091906148ff565b60405180910390f35b3480156104f557600080fd5b50610510600480360381019061050b9190613922565b61110b565b005b34801561051e57600080fd5b50610539600480360381019061053491906138a7565b61128c565b005b34801561054757600080fd5b50610562600480360381019061055d9190613858565b6112ee565b005b34801561057057600080fd5b5061058b600480360381019061058691906139ec565b6112fe565b60405161059891906148ff565b60405180910390f35b6105bb60048036038101906105b69190613a15565b611418565b005b3480156105c957600080fd5b506105e460048036038101906105df91906139ec565b61155d565b6040516105f191906148ff565b60405180910390f35b34801561060657600080fd5b50610621600480360381019061061c91906139ec565b611c70565b60405161062e91906148ff565b60405180910390f35b34801561064357600080fd5b5061065e6004803603810190610659919061381c565b611d8a565b60405161066b91906148e4565b60405180910390f35b34801561068057600080fd5b5061069b600480360381019061069691906137f3565b611e1e565b005b60606107b0826040518060400160405280600581526020017f504f574552000000000000000000000000000000000000000000000000000000815250600e805480602002602001604051908101604052809291908181526020016000905b828210156107a757838290600052602060002001805461071a90614e60565b80601f016020809104026020016040519081016040528092919081815260200182805461074690614e60565b80156107935780601f1061076857610100808354040283529160200191610793565b820191906000526020600020905b81548152906001019060200180831161077657829003601f168201915b5050505050815260200190600101906106fb565b50505050611f16565b9050919050565b60007f780e9d63000000000000000000000000000000000000000000000000000000007bffffffffffffffffffffffffffffffffffffffffffffffffffffffff1916827bffffffffffffffffffffffffffffffffffffffffffffffffffffffff1916148061082a5750610829826123de565b5b9050919050565b60606000805461084090614e60565b80601f016020809104026020016040519081016040528092919081815260200182805461086c90614e60565b80156108b95780601f1061088e576101008083540402835291602001916108b9565b820191906000526020600020905b81548152906001019060200180831161089c57829003601f168201915b5050505050905090565b60006108ce826124c0565b61090d576040517f08c379a000000000000000000000000000000000000000000000000000000000815260040161090490614aa1565b60405180910390fd5b6004600083815260200190815260200160002060009054906101000a900473ffffffffffffffffffffffffffffffffffffffff169050919050565b600061095382610c29565b90508073ffffffffffffffffffffffffffffffffffffffff168373ffffffffffffffffffffffffffffffffffffffff1614156109c4576040517f08c379a00000000000000000000000000000000000000000000000000000000081526004016109bb90614b01565b60405180910390fd5b8073ffffffffffffffffffffffffffffffffffffffff166109e361252c565b73ffffffffffffffffffffffffffffffffffffffff161480610a125750610a1181610a0c61252c565b611d8a565b5b610a51576040517f08c379a0000000000000000000000000000000000000000000000000000000008152600401610a4890614a21565b60405180910390fd5b610a5b8383612534565b505050565b6000600880549050905090565b610a7e610a7861252c565b826125ed565b610abd576040517f08c379a0000000000000000000000000000000000000000000000000000000008152600401610ab490614b21565b60405180910390fd5b610ac88383836126cb565b505050565b6000610ad883610cdb565b8210610b19576040517f08c379a0000000000000000000000000000000000000000000000000000000008152600401610b1090614921565b60405180910390fd5b600660008473ffffffffffffffffffffffffffffffffffffffff1673ffffffffffffffffffffffffffffffffffffffff168152602001908152602001600020600083815260200190815260200160002054905092915050565b610b8d8383836040518060200160405280600081525061128c565b505050565b6000610b9c610a60565b8210610bdd576040517f08c379a0000000000000000000000000000000000000000000000000000000008152600401610bd490614b41565b60405180910390fd5b60088281548110610c17577f4e487b7100000000000000000000000000000000000000000000000000000000600052603260045260246000fd5b90600052602060002001549050919050565b6000806002600084815260200190815260200160002060009054906101000a900473ffffffffffffffffffffffffffffffffffffffff169050600073ffffffffffffffffffffffffffffffffffffffff168173ffffffffffffffffffffffffffffffffffffffff161415610cd2576040517f08c379a0000000000000000000000000000000000000000000000000000000008152600401610cc990614a61565b60405180910390fd5b80915050919050565b60008073ffffffffffffffffffffffffffffffffffffffff168273ffffffffffffffffffffffffffffffffffffffff161415610d4c576040517f08c379a0000000000000000000000000000000000000000000000000000000008152600401610d4390614a41565b60405180910390fd5b600360008373ffffffffffffffffffffffffffffffffffffffff1673ffffffffffffffffffffffffffffffffffffffff168152602001908152602001600020549050919050565b610d9b61252c565b73ffffffffffffffffffffffffffffffffffffffff16610db9610f35565b73ffffffffffffffffffffffffffffffffffffffff1614610e0f576040517f08c379a0000000000000000000000000000000000000000000000000000000008152600401610e0690614ac1565b60405180910390fd5b610e196000612927565b565b6060610f2e826040518060400160405280600981526020017f434f4d50414e494f4e0000000000000000000000000000000000000000000000815250600d805480602002602001604051908101604052809291908181526020016000905b82821015610f25578382906000526020600020018054610e9890614e60565b80601f0160208091040260200160405190810160405280929190818152602001828054610ec490614e60565b8015610f115780601f10610ee657610100808354040283529160200191610f11565b820191906000526020600020905b815481529060010190602001808311610ef457829003601f168201915b505050505081526020019060010190610e79565b50505050611f16565b9050919050565b6000600b60009054906101000a900473ffffffffffffffffffffffffffffffffffffffff16905090565b606060018054610f6e90614e60565b80601f0160208091040260200160405190810160405280929190818152602001828054610f9a90614e60565b8015610fe75780601f10610fbc57610100808354040283529160200191610fe7565b820191906000526020600020905b815481529060010190602001808311610fca57829003601f168201915b5050505050905090565b6060611104826040518060400160405280600681526020017f574541504f4e0000000000000000000000000000000000000000000000000000815250600c805480602002602001604051908101604052809291908181526020016000905b828210156110fb57838290600052602060002001805461106e90614e60565b80601f016020809104026020016040519081016040528092919081815260200182805461109a90614e60565b80156110e75780601f106110bc576101008083540402835291602001916110e7565b820191906000526020600020905b8154815290600101906020018083116110ca57829003601f168201915b50505050508152602001906001019061104f565b50505050611f16565b9050919050565b61111361252c565b73ffffffffffffffffffffffffffffffffffffffff168273ffffffffffffffffffffffffffffffffffffffff161415611181576040517f08c379a0000000000000000000000000000000000000000000000000000000008152600401611178906149e1565b60405180910390fd5b806005600061118e61252c565b73ffffffffffffffffffffffffffffffffffffffff1673ffffffffffffffffffffffffffffffffffffffff16815260200190815260200160002060008473ffffffffffffffffffffffffffffffffffffffff1673ffffffffffffffffffffffffffffffffffffffff16815260200190815260200160002060006101000a81548160ff0219169083151502179055508173ffffffffffffffffffffffffffffffffffffffff1661123b61252c565b73ffffffffffffffffffffffffffffffffffffffff167f17307eab39ab6107e8899845ad3d59bd9653f200f220920489ca2b5937696c318360405161128091906148e4565b60405180910390a35050565b61129d61129761252c565b836125ed565b6112dc576040517f08c379a00000000000000000000000000000000000000000000000000000000081526004016112d390614b21565b60405180910390fd5b6112e8848484846129ed565b50505050565b6112f9838383610b72565b505050565b6060611411826040518060400160405280600481526020017f52494e47000000000000000000000000000000000000000000000000000000008152506013805480602002602001604051908101604052809291908181526020016000905b8282101561140857838290600052602060002001805461137b90614e60565b80601f01602080910402602001604051908101604052809291908181526020018280546113a790614e60565b80156113f45780601f106113c9576101008083540402835291602001916113f4565b820191906000526020600020905b8154815290600101906020018083116113d757829003601f168201915b50505050508152602001906001019061135c565b50505050611f16565b9050919050565b6002600a54141561145e576040517f08c379a000000000000000000000000000000000000000000000000000000000815260040161145590614ba1565b60405180910390fd5b6002600a81905550600061147133610cdb565b146114b1576040517f08c379a00000000000000000000000000000000000000000000000000000000081526004016114a890614b61565b60405180910390fd5b611e6282106114f5576040517f08c379a00000000000000000000000000000000000000000000000000000000081526004016114ec90614981565b60405180910390fd5b670de0b6b3a7640000341015611540576040517f08c379a000000000000000000000000000000000000000000000000000000000815260040161153790614b81565b60405180910390fd5b61155161154b61252c565b83612a49565b6001600a819055505050565b60606115676136d3565b60405180610120016040528060fd81526020016150d860fd9139816000601181106115bb577f4e487b7100000000000000000000000000000000000000000000000000000000600052603260045260246000fd5b60200201819052506115cc83610ff1565b81600160118110611606577f4e487b7100000000000000000000000000000000000000000000000000000000600052603260045260246000fd5b60200201819052506040518060600160405280602881526020016152156028913981600260118110611661577f4e487b7100000000000000000000000000000000000000000000000000000000600052603260045260246000fd5b602002018190525061167283610e1b565b816003601181106116ac577f4e487b7100000000000000000000000000000000000000000000000000000000600052603260045260246000fd5b60200201819052506040518060600160405280602881526020016150366028913981600460118110611707577f4e487b7100000000000000000000000000000000000000000000000000000000600052603260045260246000fd5b60200201819052506117188361069d565b81600560118110611752577f4e487b7100000000000000000000000000000000000000000000000000000000600052603260045260246000fd5b602002018190525060405180606001604052806028815260200161508760289139816006601181106117ad577f4e487b7100000000000000000000000000000000000000000000000000000000600052603260045260246000fd5b60200201819052506117be83611c70565b816007601181106117f8577f4e487b7100000000000000000000000000000000000000000000000000000000600052603260045260246000fd5b60200201819052506040518060600160405280602981526020016150af6029913981600860118110611853577f4e487b7100000000000000000000000000000000000000000000000000000000600052603260045260246000fd5b6020020181905250611864836112fe565b8160096011811061189e577f4e487b7100000000000000000000000000000000000000000000000000000000600052603260045260246000fd5b602002018190525060405180606001604052806029815260200161505e6029913981600a601181106118f9577f4e487b7100000000000000000000000000000000000000000000000000000000600052603260045260246000fd5b602002018190525060008160006011811061193d577f4e487b7100000000000000000000000000000000000000000000000000000000600052603260045260246000fd5b60200201518260016011811061197c577f4e487b7100000000000000000000000000000000000000000000000000000000600052603260045260246000fd5b6020020151836002601181106119bb577f4e487b7100000000000000000000000000000000000000000000000000000000600052603260045260246000fd5b6020020151846003601181106119fa577f4e487b7100000000000000000000000000000000000000000000000000000000600052603260045260246000fd5b602002015185600460118110611a39577f4e487b7100000000000000000000000000000000000000000000000000000000600052603260045260246000fd5b602002015186600560118110611a78577f4e487b7100000000000000000000000000000000000000000000000000000000600052603260045260246000fd5b602002015187600660118110611ab7577f4e487b7100000000000000000000000000000000000000000000000000000000600052603260045260246000fd5b602002015188600760118110611af6577f4e487b7100000000000000000000000000000000000000000000000000000000600052603260045260246000fd5b602002015189600860118110611b35577f4e487b7100000000000000000000000000000000000000000000000000000000600052603260045260246000fd5b6020020151604051602001611b52999897969594939291906146b9565b60405160208183030381529060405290508082600960118110611b9e577f4e487b7100000000000000000000000000000000000000000000000000000000600052603260045260246000fd5b602002015183600a60118110611bdd577f4e487b7100000000000000000000000000000000000000000000000000000000600052603260045260246000fd5b6020020151604051602001611bf493929190614688565b60405160208183030381529060405290506000611c41611c1386612a67565b611c1c84612c14565b604051602001611c2d929190614816565b604051602081830303815290604052612c14565b905080604051602001611c54919061485b565b6040516020818303038152906040529150819350505050919050565b6060611d83826040518060400160405280600481526020017f48414e44000000000000000000000000000000000000000000000000000000008152506011805480602002602001604051908101604052809291908181526020016000905b82821015611d7a578382906000526020600020018054611ced90614e60565b80601f0160208091040260200160405190810160405280929190818152602001828054611d1990614e60565b8015611d665780601f10611d3b57610100808354040283529160200191611d66565b820191906000526020600020905b815481529060010190602001808311611d4957829003601f168201915b505050505081526020019060010190611cce565b50505050611f16565b9050919050565b6000600560008473ffffffffffffffffffffffffffffffffffffffff1673ffffffffffffffffffffffffffffffffffffffff16815260200190815260200160002060008373ffffffffffffffffffffffffffffffffffffffff1673ffffffffffffffffffffffffffffffffffffffff16815260200190815260200160002060009054906101000a900460ff16905092915050565b611e2661252c565b73ffffffffffffffffffffffffffffffffffffffff16611e44610f35565b73ffffffffffffffffffffffffffffffffffffffff1614611e9a576040517f08c379a0000000000000000000000000000000000000000000000000000000008152600401611e9190614ac1565b60405180910390fd5b600073ffffffffffffffffffffffffffffffffffffffff168173ffffffffffffffffffffffffffffffffffffffff161415611f0a576040517f08c379a0000000000000000000000000000000000000000000000000000000008152600401611f0190614961565b60405180910390fd5b611f1381612927565b50565b60606000611f4c84611f2787612a67565b604051602001611f38929190614664565b604051602081830303815290604052612dd2565b9050600083845183611f5e9190614edb565b81518110611f95577f4e487b7100000000000000000000000000000000000000000000000000000000600052603260045260246000fd5b602002602001015190506000601583611fae9190614edb565b9050600e81111561203057816014808054905085611fcc9190614edb565b81548110612003577f4e487b7100000000000000000000000000000000000000000000000000000000600052603260045260246000fd5b9060005260206000200160405160200161201e929190614738565b60405160208183030381529060405291505b601381106123d1576120406136fb565b60158080549050856120529190614edb565b81548110612089577f4e487b7100000000000000000000000000000000000000000000000000000000600052603260045260246000fd5b90600052602060002001805461209e90614e60565b80601f01602080910402602001604051908101604052809291908181526020018280546120ca90614e60565b80156121175780601f106120ec57610100808354040283529160200191612117565b820191906000526020600020905b8154815290600101906020018083116120fa57829003601f168201915b505050505081600060028110612156577f4e487b7100000000000000000000000000000000000000000000000000000000600052603260045260246000fd5b602002018190525060168080549050856121709190614edb565b815481106121a7577f4e487b7100000000000000000000000000000000000000000000000000000000600052603260045260246000fd5b9060005260206000200180546121bc90614e60565b80601f01602080910402602001604051908101604052809291908181526020018280546121e890614e60565b80156122355780601f1061220a57610100808354040283529160200191612235565b820191906000526020600020905b81548152906001019060200180831161221857829003601f168201915b505050505081600160028110612274577f4e487b7100000000000000000000000000000000000000000000000000000000600052603260045260246000fd5b6020020181905250601382141561232c57806000600281106122bf577f4e487b7100000000000000000000000000000000000000000000000000000000600052603260045260246000fd5b6020020151816001600281106122fe577f4e487b7100000000000000000000000000000000000000000000000000000000600052603260045260246000fd5b60200201518460405160200161231693929190614767565b60405160208183030381529060405292506123cf565b80600060028110612366577f4e487b7100000000000000000000000000000000000000000000000000000000600052603260045260246000fd5b6020020151816001600281106123a5577f4e487b7100000000000000000000000000000000000000000000000000000000600052603260045260246000fd5b6020020151846040516020016123bd939291906147b9565b60405160208183030381529060405292505b505b8193505050509392505050565b60007f80ac58cd000000000000000000000000000000000000000000000000000000007bffffffffffffffffffffffffffffffffffffffffffffffffffffffff1916827bffffffffffffffffffffffffffffffffffffffffffffffffffffffff191614806124a957507f5b5e139f000000000000000000000000000000000000000000000000000000007bffffffffffffffffffffffffffffffffffffffffffffffffffffffff1916827bffffffffffffffffffffffffffffffffffffffffffffffffffffffff1916145b806124b957506124b882612e05565b5b9050919050565b60008073ffffffffffffffffffffffffffffffffffffffff166002600084815260200190815260200160002060009054906101000a900473ffffffffffffffffffffffffffffffffffffffff1673ffffffffffffffffffffffffffffffffffffffff1614159050919050565b600033905090565b816004600083815260200190815260200160002060006101000a81548173ffffffffffffffffffffffffffffffffffffffff021916908373ffffffffffffffffffffffffffffffffffffffff160217905550808273ffffffffffffffffffffffffffffffffffffffff166125a783610c29565b73ffffffffffffffffffffffffffffffffffffffff167f8c5be1e5ebec7d5bd14f71427d1e84f3dd0314c0f7b2291e5b200ac8c7c3b92560405160405180910390a45050565b60006125f8826124c0565b612637576040517f08c379a000000000000000000000000000000000000000000000000000000000815260040161262e90614a01565b60405180910390fd5b600061264283610c29565b90508073ffffffffffffffffffffffffffffffffffffffff168473ffffffffffffffffffffffffffffffffffffffff1614806126b157508373ffffffffffffffffffffffffffffffffffffffff16612699846108c3565b73ffffffffffffffffffffffffffffffffffffffff16145b806126c257506126c18185611d8a565b5b91505092915050565b8273ffffffffffffffffffffffffffffffffffffffff166126eb82610c29565b73ffffffffffffffffffffffffffffffffffffffff1614612741576040517f08c379a000000000000000000000000000000000000000000000000000000000815260040161273890614ae1565b60405180910390fd5b600073ffffffffffffffffffffffffffffffffffffffff168273ffffffffffffffffffffffffffffffffffffffff1614156127b1576040517f08c379a00000000000000000000000000000000000000000000000000000000081526004016127a8906149c1565b60405180910390fd5b6127bc838383612e6f565b6127c7600082612534565b6001600360008573ffffffffffffffffffffffffffffffffffffffff1673ffffffffffffffffffffffffffffffffffffffff16815260200190815260200160002060008282546128179190614d76565b925050819055506001600360008473ffffffffffffffffffffffffffffffffffffffff1673ffffffffffffffffffffffffffffffffffffffff168152602001908152602001600020600082825461286e9190614c95565b92505081905550816002600083815260200190815260200160002060006101000a81548173ffffffffffffffffffffffffffffffffffffffff021916908373ffffffffffffffffffffffffffffffffffffffff160217905550808273ffffffffffffffffffffffffffffffffffffffff168473ffffffffffffffffffffffffffffffffffffffff167fddf252ad1be2c89b69c2b068fc378daa952ba7f163c4a11628f55a4df523b3ef60405160405180910390a4505050565b6000600b60009054906101000a900473ffffffffffffffffffffffffffffffffffffffff16905081600b60006101000a81548173ffffffffffffffffffffffffffffffffffffffff021916908373ffffffffffffffffffffffffffffffffffffffff1602179055508173ffffffffffffffffffffffffffffffffffffffff168173ffffffffffffffffffffffffffffffffffffffff167f8be0079c531659141344cd1fd0a4f28419497f9722a3daafe3b4186f6b6457e060405160405180910390a35050565b6129f88484846126cb565b612a0484848484612f83565b612a43576040517f08c379a0000000000000000000000000000000000000000000000000000000008152600401612a3a90614941565b60405180910390fd5b50505050565b612a6382826040518060200160405280600081525061311a565b5050565b60606000821415612aaf576040518060400160405280600181526020017f30000000000000000000000000000000000000000000000000000000000000008152509050612c0f565b600082905060005b60008214612ae1578080612aca90614e92565b915050600a82612ada9190614ceb565b9150612ab7565b60008167ffffffffffffffff811115612b23577f4e487b7100000000000000000000000000000000000000000000000000000000600052604160045260246000fd5b6040519080825280601f01601f191660200182016040528015612b555781602001600182028036833780820191505090505b5090505b60008514612c0857600182612b6e9190614d76565b9150600a85612b7d9190614edb565b6030612b899190614c95565b60f81b818381518110612bc5577f4e487b7100000000000000000000000000000000000000000000000000000000600052603260045260246000fd5b60200101907effffffffffffffffffffffffffffffffffffffffffffffffffffffffffffff1916908160001a905350600a85612c019190614ceb565b9450612b59565b8093505050505b919050565b60606000825190506000811415612c3d5760405180602001604052806000815250915050612dcd565b60006003600283612c4e9190614c95565b612c589190614ceb565b6004612c649190614d1c565b90506000602082612c759190614c95565b67ffffffffffffffff811115612cb4577f4e487b7100000000000000000000000000000000000000000000000000000000600052604160045260246000fd5b6040519080825280601f01601f191660200182016040528015612ce65781602001600182028036833780820191505090505b50905060006040518060600160405280604081526020016151d5604091399050600181016020830160005b86811015612d8a5760038101905062ffffff818a015116603f8160121c168401518060081b905060ff603f83600c1c1686015116810190508060081b905060ff603f8360061c1686015116810190508060081b905060ff603f831686015116810190508060e01b90508084526004840193505050612d11565b506003860660018114612da45760028114612db457612dbf565b613d3d60f01b6002830352612dbf565b603d60f81b60018303525b508484525050819450505050505b919050565b600081604051602001612de5919061464d565b6040516020818303038152906040528051906020012060001c9050919050565b60007f01ffc9a7000000000000000000000000000000000000000000000000000000007bffffffffffffffffffffffffffffffffffffffffffffffffffffffff1916827bffffffffffffffffffffffffffffffffffffffffffffffffffffffff1916149050919050565b612e7a838383613175565b600073ffffffffffffffffffffffffffffffffffffffff168373ffffffffffffffffffffffffffffffffffffffff161415612ebd57612eb88161317a565b612efc565b8173ffffffffffffffffffffffffffffffffffffffff168373ffffffffffffffffffffffffffffffffffffffff1614612efb57612efa83826131c3565b5b5b600073ffffffffffffffffffffffffffffffffffffffff168273ffffffffffffffffffffffffffffffffffffffff161415612f3f57612f3a81613330565b612f7e565b8273ffffffffffffffffffffffffffffffffffffffff168273ffffffffffffffffffffffffffffffffffffffff1614612f7d57612f7c8282613473565b5b5b505050565b6000612fa48473ffffffffffffffffffffffffffffffffffffffff166134f2565b1561310d578373ffffffffffffffffffffffffffffffffffffffff1663150b7a02612fcd61252c565b8786866040518563ffffffff1660e01b8152600401612fef9493929190614898565b602060405180830381600087803b15801561300957600080fd5b505af192505050801561303a57506040513d601f19601f8201168201806040525081019061303791906139c3565b60015b6130bd573d806000811461306a576040519150601f19603f3d011682016040523d82523d6000602084013e61306f565b606091505b506000815114156130b5576040517f08c379a00000000000000000000000000000000000000000000000000000000081526004016130ac90614941565b60405180910390fd5b805181602001fd5b63150b7a0260e01b7bffffffffffffffffffffffffffffffffffffffffffffffffffffffff1916817bffffffffffffffffffffffffffffffffffffffffffffffffffffffff191614915050613112565b600190505b949350505050565b6131248383613505565b6131316000848484612f83565b613170576040517f08c379a000000000000000000000000000000000000000000000000000000000815260040161316790614941565b60405180910390fd5b505050565b505050565b6008805490506009600083815260200190815260200160002081905550600881908060018154018082558091505060019003906000526020600020016000909190919091505550565b600060016131d084610cdb565b6131da9190614d76565b90506000600760008481526020019081526020016000205490508181146132bf576000600660008673ffffffffffffffffffffffffffffffffffffffff1673ffffffffffffffffffffffffffffffffffffffff168152602001908152602001600020600084815260200190815260200160002054905080600660008773ffffffffffffffffffffffffffffffffffffffff1673ffffffffffffffffffffffffffffffffffffffff168152602001908152602001600020600084815260200190815260200160002081905550816007600083815260200190815260200160002081905550505b6007600084815260200190815260200160002060009055600660008573ffffffffffffffffffffffffffffffffffffffff1673ffffffffffffffffffffffffffffffffffffffff16815260200190815260200160002060008381526020019081526020016000206000905550505050565b600060016008805490506133449190614d76565b905060006009600084815260200190815260200160002054905060006008838154811061339a577f4e487b7100000000000000000000000000000000000000000000000000000000600052603260045260246000fd5b9060005260206000200154905080600883815481106133e2577f4e487b7100000000000000000000000000000000000000000000000000000000600052603260045260246000fd5b906000526020600020018190555081600960008381526020019081526020016000208190555060096000858152602001908152602001600020600090556008805480613457577f4e487b7100000000000000000000000000000000000000000000000000000000600052603160045260246000fd5b6001900381819060005260206000200160009055905550505050565b600061347e83610cdb565b905081600660008573ffffffffffffffffffffffffffffffffffffffff1673ffffffffffffffffffffffffffffffffffffffff168152602001908152602001600020600083815260200190815260200160002081905550806007600084815260200190815260200160002081905550505050565b600080823b905060008111915050919050565b600073ffffffffffffffffffffffffffffffffffffffff168273ffffffffffffffffffffffffffffffffffffffff161415613575576040517f08c379a000000000000000000000000000000000000000000000000000000000815260040161356c90614a81565b60405180910390fd5b61357e816124c0565b156135be576040517f08c379a00000000000000000000000000000000000000000000000000000000081526004016135b5906149a1565b60405180910390fd5b6135ca60008383612e6f565b6001600360008473ffffffffffffffffffffffffffffffffffffffff1673ffffffffffffffffffffffffffffffffffffffff168152602001908152602001600020600082825461361a9190614c95565b92505081905550816002600083815260200190815260200160002060006101000a81548173ffffffffffffffffffffffffffffffffffffffff021916908373ffffffffffffffffffffffffffffffffffffffff160217905550808273ffffffffffffffffffffffffffffffffffffffff16600073ffffffffffffffffffffffffffffffffffffffff167fddf252ad1be2c89b69c2b068fc378daa952ba7f163c4a11628f55a4df523b3ef60405160405180910390a45050565b6040518061022001604052806011905b60608152602001906001900390816136e35790505090565b60405180604001604052806002905b606081526020019060019003908161370a5790505090565b600061373561373084614c0d565b614bdc565b90508281526020810184848401111561374d57600080fd5b613758848285614e1e565b509392505050565b60008135905061376f81614fd9565b92915050565b60008135905061378481614ff0565b92915050565b60008135905061379981615007565b92915050565b6000815190506137ae81615007565b92915050565b600082601f8301126137c557600080fd5b81356137d5848260208601613722565b91505092915050565b6000813590506137ed8161501e565b92915050565b60006020828403121561380557600080fd5b600061381384828501613760565b91505092915050565b6000806040838503121561382f57600080fd5b600061383d85828601613760565b925050602061384e85828601613760565b9150509250929050565b60008060006060848603121561386d57600080fd5b600061387b86828701613760565b935050602061388c86828701613760565b925050604061389d868287016137de565b9150509250925092565b600080600080608085870312156138bd57600080fd5b60006138cb87828801613760565b94505060206138dc87828801613760565b93505060406138ed878288016137de565b925050606085013567ffffffffffffffff81111561390a57600080fd5b613916878288016137b4565b91505092959194509250565b6000806040838503121561393557600080fd5b600061394385828601613760565b925050602061395485828601613775565b9150509250929050565b6000806040838503121561397157600080fd5b600061397f85828601613760565b9250506020613990858286016137de565b9150509250929050565b6000602082840312156139ac57600080fd5b60006139ba8482850161378a565b91505092915050565b6000602082840312156139d557600080fd5b60006139e38482850161379f565b91505092915050565b6000602082840312156139fe57600080fd5b6000613a0c848285016137de565b91505092915050565b60008060408385031215613a2857600080fd5b6000613a36858286016137de565b9250506020613a47858286016137de565b9150509250929050565b613a5a81614daa565b82525050565b613a6981614dbc565b82525050565b6000613a7a82614c52565b613a848185614c68565b9350613a94818560208601614e2d565b613a9d81614fc8565b840191505092915050565b6000613ab382614c5d565b613abd8185614c79565b9350613acd818560208601614e2d565b613ad681614fc8565b840191505092915050565b6000613aec82614c5d565b613af68185614c8a565b9350613b06818560208601614e2d565b80840191505092915050565b60008154613b1f81614e60565b613b298186614c8a565b94506001821660008114613b445760018114613b5557613b88565b60ff19831686528186019350613b88565b613b5e85614c3d565b60005b83811015613b8057815481890152600182019150602081019050613b61565b838801955050505b50505092915050565b6000613b9e602b83614c79565b91507f455243373231456e756d657261626c653a206f776e657220696e646578206f7560008301527f74206f6620626f756e64730000000000000000000000000000000000000000006020830152604082019050919050565b6000613c04603283614c79565b91507f4552433732313a207472616e7366657220746f206e6f6e20455243373231526560008301527f63656976657220696d706c656d656e74657200000000000000000000000000006020830152604082019050919050565b6000613c6a602683614c79565b91507f4f776e61626c653a206e6577206f776e657220697320746865207a65726f206160008301527f64647265737300000000000000000000000000000000000000000000000000006020830152604082019050919050565b6000613cd0601183614c79565b91507f416c6c20746f6b656e73206d696e7465640000000000000000000000000000006000830152602082019050919050565b6000613d10601c83614c79565b91507f4552433732313a20746f6b656e20616c7265616479206d696e746564000000006000830152602082019050919050565b6000613d50602483614c79565b91507f4552433732313a207472616e7366657220746f20746865207a65726f2061646460008301527f72657373000000000000000000000000000000000000000000000000000000006020830152604082019050919050565b6000613db6601983614c79565b91507f4552433732313a20617070726f766520746f2063616c6c6572000000000000006000830152602082019050919050565b6000613df761010183614c8a565b91507f222c20226465736372697074696f6e223a20227a4c6f6f742069732072616e6460008301527f6f6d697a656420616476656e747572657220676561722067656e65726174656460208301527f20616e642073746f726564206f6e20636861696e2e2053746174732c20696d6160408301527f6765732c20616e64206f746865722066756e6374696f6e616c6974792061726560608301527f20696e74656e74696f6e616c6c79206f6d697474656420666f72206f7468657260808301527f7320746f20696e746572707265742e204665656c206672656520746f2075736560a08301527f204c6f6f7420696e20616e792077617920796f752077616e742e222c2022696d60c08301527f616765223a2022646174613a696d6167652f7376672b786d6c3b62617365363460e08301527f2c0000000000000000000000000000000000000000000000000000000000000061010083015261010182019050919050565b6000613f69600283614c8a565b91507f22200000000000000000000000000000000000000000000000000000000000006000830152600282019050919050565b6000613fa9602c83614c79565b91507f4552433732313a206f70657261746f7220717565727920666f72206e6f6e657860008301527f697374656e7420746f6b656e00000000000000000000000000000000000000006020830152604082019050919050565b600061400f600183614c8a565b91507f20000000000000000000000000000000000000000000000000000000000000006000830152600182019050919050565b600061404f603883614c79565b91507f4552433732313a20617070726f76652063616c6c6572206973206e6f74206f7760008301527f6e6572206e6f7220617070726f76656420666f7220616c6c00000000000000006020830152604082019050919050565b60006140b5600183614c8a565b91507f22000000000000000000000000000000000000000000000000000000000000006000830152600182019050919050565b60006140f5602a83614c79565b91507f4552433732313a2062616c616e636520717565727920666f7220746865207a6560008301527f726f2061646472657373000000000000000000000000000000000000000000006020830152604082019050919050565b600061415b602983614c79565b91507f4552433732313a206f776e657220717565727920666f72206e6f6e657869737460008301527f656e7420746f6b656e00000000000000000000000000000000000000000000006020830152604082019050919050565b60006141c1600283614c8a565b91507f227d0000000000000000000000000000000000000000000000000000000000006000830152600282019050919050565b6000614201600f83614c8a565b91507f7b226e616d65223a2022426167202300000000000000000000000000000000006000830152600f82019050919050565b6000614241602083614c79565b91507f4552433732313a206d696e7420746f20746865207a65726f20616464726573736000830152602082019050919050565b6000614281602c83614c79565b91507f4552433732313a20617070726f76656420717565727920666f72206e6f6e657860008301527f697374656e7420746f6b656e00000000000000000000000000000000000000006020830152604082019050919050565b60006142e7602083614c79565b91507f4f776e61626c653a2063616c6c6572206973206e6f7420746865206f776e65726000830152602082019050919050565b6000614327602983614c79565b91507f4552433732313a207472616e73666572206f6620746f6b656e2074686174206960008301527f73206e6f74206f776e00000000000000000000000000000000000000000000006020830152604082019050919050565b600061438d602183614c79565b91507f4552433732313a20617070726f76616c20746f2063757272656e74206f776e6560008301527f72000000000000000000000000000000000000000000000000000000000000006020830152604082019050919050565b60006143f3601d83614c8a565b91507f646174613a6170706c69636174696f6e2f6a736f6e3b6261736536342c0000006000830152601d82019050919050565b6000614433600383614c8a565b91507f202b3100000000000000000000000000000000000000000000000000000000006000830152600382019050919050565b6000614473603183614c79565b91507f4552433732313a207472616e736665722063616c6c6572206973206e6f74206f60008301527f776e6572206e6f7220617070726f7665640000000000000000000000000000006020830152604082019050919050565b60006144d9602c83614c79565b91507f455243373231456e756d657261626c653a20676c6f62616c20696e646578206f60008301527f7574206f6620626f756e647300000000000000000000000000000000000000006020830152604082019050919050565b600061453f602583614c79565b91507f456163682061646472657373206d6179206f6e6c7920636c61696d206f6e652060008301527f746f6b656e0000000000000000000000000000000000000000000000000000006020830152604082019050919050565b60006145a5602183614c79565b91507f4e6f7420656e6f756768204554482073656e743b20636865636b20707269636560008301527f21000000000000000000000000000000000000000000000000000000000000006020830152604082019050919050565b600061460b601f83614c79565b91507f5265656e7472616e637947756172643a207265656e7472616e742063616c6c006000830152602082019050919050565b61464781614e14565b82525050565b60006146598284613ae1565b915081905092915050565b60006146708285613ae1565b915061467c8284613ae1565b91508190509392505050565b60006146948286613ae1565b91506146a08285613ae1565b91506146ac8284613ae1565b9150819050949350505050565b60006146c5828c613ae1565b91506146d1828b613ae1565b91506146dd828a613ae1565b91506146e98289613ae1565b91506146f58288613ae1565b91506147018287613ae1565b915061470d8286613ae1565b91506147198285613ae1565b91506147258284613ae1565b91508190509a9950505050505050505050565b60006147448285613ae1565b915061474f82614002565b915061475b8284613b12565b91508190509392505050565b6000614772826140a8565b915061477e8286613ae1565b915061478982614002565b91506147958285613ae1565b91506147a082613f5c565b91506147ac8284613ae1565b9150819050949350505050565b60006147c4826140a8565b91506147d08286613ae1565b91506147db82614002565b91506147e78285613ae1565b91506147f282613f5c565b91506147fe8284613ae1565b915061480982614426565b9150819050949350505050565b6000614821826141f4565b915061482d8285613ae1565b915061483882613de9565b91506148448284613ae1565b915061484f826141b4565b91508190509392505050565b6000614866826143e6565b91506148728284613ae1565b915081905092915050565b60006020820190506148926000830184613a51565b92915050565b60006080820190506148ad6000830187613a51565b6148ba6020830186613a51565b6148c7604083018561463e565b81810360608301526148d98184613a6f565b905095945050505050565b60006020820190506148f96000830184613a60565b92915050565b600060208201905081810360008301526149198184613aa8565b905092915050565b6000602082019050818103600083015261493a81613b91565b9050919050565b6000602082019050818103600083015261495a81613bf7565b9050919050565b6000602082019050818103600083015261497a81613c5d565b9050919050565b6000602082019050818103600083015261499a81613cc3565b9050919050565b600060208201905081810360008301526149ba81613d03565b9050919050565b600060208201905081810360008301526149da81613d43565b9050919050565b600060208201905081810360008301526149fa81613da9565b9050919050565b60006020820190508181036000830152614a1a81613f9c565b9050919050565b60006020820190508181036000830152614a3a81614042565b9050919050565b60006020820190508181036000830152614a5a816140e8565b9050919050565b60006020820190508181036000830152614a7a8161414e565b9050919050565b60006020820190508181036000830152614a9a81614234565b9050919050565b60006020820190508181036000830152614aba81614274565b9050919050565b60006020820190508181036000830152614ada816142da565b9050919050565b60006020820190508181036000830152614afa8161431a565b9050919050565b60006020820190508181036000830152614b1a81614380565b9050919050565b60006020820190508181036000830152614b3a81614466565b9050919050565b60006020820190508181036000830152614b5a816144cc565b9050919050565b60006020820190508181036000830152614b7a81614532565b9050919050565b60006020820190508181036000830152614b9a81614598565b9050919050565b60006020820190508181036000830152614bba816145fe565b9050919050565b6000602082019050614bd6600083018461463e565b92915050565b6000604051905081810181811067ffffffffffffffff82111715614c0357614c02614f99565b5b8060405250919050565b600067ffffffffffffffff821115614c2857614c27614f99565b5b601f19601f8301169050602081019050919050565b60008190508160005260206000209050919050565b600081519050919050565b600081519050919050565b600082825260208201905092915050565b600082825260208201905092915050565b600081905092915050565b6000614ca082614e14565b9150614cab83614e14565b9250827fffffffffffffffffffffffffffffffffffffffffffffffffffffffffffffffff03821115614ce057614cdf614f0c565b5b828201905092915050565b6000614cf682614e14565b9150614d0183614e14565b925082614d1157614d10614f3b565b5b828204905092915050565b6000614d2782614e14565b9150614d3283614e14565b9250817fffffffffffffffffffffffffffffffffffffffffffffffffffffffffffffffff0483118215151615614d6b57614d6a614f0c565b5b828202905092915050565b6000614d8182614e14565b9150614d8c83614e14565b925082821015614d9f57614d9e614f0c565b5b828203905092915050565b6000614db582614df4565b9050919050565b60008115159050919050565b60007fffffffff0000000000000000000000000000000000000000000000000000000082169050919050565b600073ffffffffffffffffffffffffffffffffffffffff82169050919050565b6000819050919050565b82818337600083830152505050565b60005b83811015614e4b578082015181840152602081019050614e30565b83811115614e5a576000848401525b50505050565b60006002820490506001821680614e7857607f821691505b60208210811415614e8c57614e8b614f6a565b5b50919050565b6000614e9d82614e14565b91507fffffffffffffffffffffffffffffffffffffffffffffffffffffffffffffffff821415614ed057614ecf614f0c565b5b600182019050919050565b6000614ee682614e14565b9150614ef183614e14565b925082614f0157614f00614f3b565b5b828206905092915050565b7f4e487b7100000000000000000000000000000000000000000000000000000000600052601160045260246000fd5b7f4e487b7100000000000000000000000000000000000000000000000000000000600052601260045260246000fd5b7f4e487b7100000000000000000000000000000000000000000000000000000000600052602260045260246000fd5b7f4e487b7100000000000000000000000000000000000000000000000000000000600052604160045260246000fd5b6000601f19601f8301169050919050565b614fe281614daa565b8114614fed57600080fd5b50565b614ff981614dbc565b811461500457600080fd5b50565b61501081614dc8565b811461501b57600080fd5b50565b61502781614e14565b811461503257600080fd5b5056fe3c2f746578743e3c7465787420783d2231302220793d2236302220636c6173733d2262617365223e3c2f746578743e3c7465787420783d2231302220793d223132302220636c6173733d2262617365223e3c2f746578743e3c7465787420783d2231302220793d2238302220636c6173733d2262617365223e3c2f746578743e3c7465787420783d2231302220793d223130302220636c6173733d2262617365223e3c73766720786d6c6e733d22687474703a2f2f7777772e77332e6f72672f323030302f73766722207072657365727665417370656374526174696f3d22784d696e594d696e206d656574222076696577426f783d223020302033353020333530223e3c7374796c653e2e62617365207b2066696c6c3a2077686974653b20666f6e742d66616d696c793a2073657269663b20666f6e742d73697a653a20313470783b207d3c2f7374796c653e3c726563742077696474683d223130302522206865696768743d2231303025222066696c6c3d22626c61636b22202f3e3c7465787420783d2231302220793d2232302220636c6173733d2262617365223e4142434445464748494a4b4c4d4e4f505152535455565758595a6162636465666768696a6b6c6d6e6f707172737475767778797a303132333435363738392b2f3c2f746578743e3c7465787420783d2231302220793d2234302220636c6173733d2262617365223ea26469706673582212201783fac8697280c3a9aec700fd0766128761eb9b2b58415cc42f628a7a929f5e64736f6c63430008000033",
  "linkReferences": {},
  "deployedLinkReferences": {}
}