{
  "_format": "hh-sol-artifact-1",
  "contractName": "ZLoot",
  "sourceName": "contracts/ZLoot.sol",
  "abi": [
    {
      "inputs": [],
      "stateMutability": "nonpayable",
      "type": "constructor"
    },
    {
      "anonymous": false,
      "inputs": [
        {
          "indexed": true,
          "internalType": "address",
          "name": "owner",
          "type": "address"
        },
        {
          "indexed": true,
          "internalType": "address",
          "name": "approved",
          "type": "address"
        },
        {
          "indexed": true,
          "internalType": "uint256",
          "name": "tokenId",
          "type": "uint256"
        }
      ],
      "name": "Approval",
      "type": "event"
    },
    {
      "anonymous": false,
      "inputs": [
        {
          "indexed": true,
          "internalType": "address",
          "name": "owner",
          "type": "address"
        },
        {
          "indexed": true,
          "internalType": "address",
          "name": "operator",
          "type": "address"
        },
        {
          "indexed": false,
          "internalType": "bool",
          "name": "approved",
          "type": "bool"
        }
      ],
      "name": "ApprovalForAll",
      "type": "event"
    },
    {
      "anonymous": false,
      "inputs": [
        {
          "indexed": true,
          "internalType": "address",
          "name": "previousOwner",
          "type": "address"
        },
        {
          "indexed": true,
          "internalType": "address",
          "name": "newOwner",
          "type": "address"
        }
      ],
      "name": "OwnershipTransferred",
      "type": "event"
    },
    {
      "anonymous": false,
      "inputs": [
        {
          "indexed": true,
          "internalType": "address",
          "name": "from",
          "type": "address"
        },
        {
          "indexed": true,
          "internalType": "address",
          "name": "to",
          "type": "address"
        },
        {
          "indexed": true,
          "internalType": "uint256",
          "name": "tokenId",
          "type": "uint256"
        }
      ],
      "name": "Transfer",
      "type": "event"
    },
    {
      "inputs": [
        {
          "internalType": "address",
          "name": "to",
          "type": "address"
        },
        {
          "internalType": "uint256",
          "name": "tokenId",
          "type": "uint256"
        }
      ],
      "name": "approve",
      "outputs": [],
      "stateMutability": "nonpayable",
      "type": "function"
    },
    {
      "inputs": [
        {
          "internalType": "address",
          "name": "owner",
          "type": "address"
        }
      ],
      "name": "balanceOf",
      "outputs": [
        {
          "internalType": "uint256",
          "name": "",
          "type": "uint256"
        }
      ],
      "stateMutability": "view",
      "type": "function"
    },
    {
      "inputs": [
        {
          "internalType": "uint256",
          "name": "tokenId",
          "type": "uint256"
        },
        {
          "internalType": "uint256",
          "name": "minPrice",
          "type": "uint256"
        }
      ],
      "name": "claim",
      "outputs": [],
      "stateMutability": "payable",
      "type": "function"
    },
    {
      "inputs": [
        {
          "internalType": "uint256",
          "name": "tokenId",
          "type": "uint256"
        }
      ],
      "name": "getApproved",
      "outputs": [
        {
          "internalType": "address",
          "name": "",
          "type": "address"
        }
      ],
      "stateMutability": "view",
      "type": "function"
    },
    {
      "inputs": [
        {
          "internalType": "uint256",
          "name": "tokenId",
          "type": "uint256"
        }
      ],
      "name": "getCompanion",
      "outputs": [
        {
          "internalType": "string",
          "name": "",
          "type": "string"
        }
      ],
      "stateMutability": "view",
      "type": "function"
    },
    {
      "inputs": [
        {
          "internalType": "uint256",
          "name": "tokenId",
          "type": "uint256"
        }
      ],
      "name": "getHand",
      "outputs": [
        {
          "internalType": "string",
          "name": "",
          "type": "string"
        }
      ],
      "stateMutability": "view",
      "type": "function"
    },
    {
      "inputs": [
        {
          "internalType": "uint256",
          "name": "tokenId",
          "type": "uint256"
        }
      ],
      "name": "getPower",
      "outputs": [
        {
          "internalType": "string",
          "name": "",
          "type": "string"
        }
      ],
      "stateMutability": "view",
      "type": "function"
    },
    {
      "inputs": [
        {
          "internalType": "uint256",
          "name": "tokenId",
          "type": "uint256"
        }
      ],
      "name": "getRing",
      "outputs": [
        {
          "internalType": "string",
          "name": "",
          "type": "string"
        }
      ],
      "stateMutability": "view",
      "type": "function"
    },
    {
      "inputs": [
        {
          "internalType": "uint256",
          "name": "tokenId",
          "type": "uint256"
        }
      ],
      "name": "getWeapon",
      "outputs": [
        {
          "internalType": "string",
          "name": "",
          "type": "string"
        }
      ],
      "stateMutability": "view",
      "type": "function"
    },
    {
      "inputs": [
        {
          "internalType": "address",
          "name": "owner",
          "type": "address"
        },
        {
          "internalType": "address",
          "name": "operator",
          "type": "address"
        }
      ],
      "name": "isApprovedForAll",
      "outputs": [
        {
          "internalType": "bool",
          "name": "",
          "type": "bool"
        }
      ],
      "stateMutability": "view",
      "type": "function"
    },
    {
      "inputs": [
        {
          "internalType": "uint256",
          "name": "tokenId",
          "type": "uint256"
        }
      ],
      "name": "isTokenOwner",
      "outputs": [
        {
          "internalType": "address",
          "name": "",
          "type": "address"
        }
      ],
      "stateMutability": "nonpayable",
      "type": "function"
    },
    {
      "inputs": [],
      "name": "name",
      "outputs": [
        {
          "internalType": "string",
          "name": "",
          "type": "string"
        }
      ],
      "stateMutability": "view",
      "type": "function"
    },
    {
      "inputs": [],
      "name": "owner",
      "outputs": [
        {
          "internalType": "address",
          "name": "",
          "type": "address"
        }
      ],
      "stateMutability": "view",
      "type": "function"
    },
    {
      "inputs": [
        {
          "internalType": "uint256",
          "name": "tokenId",
          "type": "uint256"
        }
      ],
      "name": "ownerOf",
      "outputs": [
        {
          "internalType": "address",
          "name": "",
          "type": "address"
        }
      ],
      "stateMutability": "view",
      "type": "function"
    },
    {
      "inputs": [
        {
          "internalType": "string",
          "name": "input",
          "type": "string"
        }
      ],
      "name": "random",
      "outputs": [
        {
          "internalType": "uint256",
          "name": "",
          "type": "uint256"
        }
      ],
      "stateMutability": "pure",
      "type": "function"
    },
    {
      "inputs": [],
      "name": "renounceOwnership",
      "outputs": [],
      "stateMutability": "nonpayable",
      "type": "function"
    },
    {
      "inputs": [
        {
          "internalType": "address",
          "name": "from",
          "type": "address"
        },
        {
          "internalType": "address",
          "name": "to",
          "type": "address"
        },
        {
          "internalType": "uint256",
          "name": "tokenId",
          "type": "uint256"
        }
      ],
      "name": "safeTransferFrom",
      "outputs": [],
      "stateMutability": "nonpayable",
      "type": "function"
    },
    {
      "inputs": [
        {
          "internalType": "address",
          "name": "from",
          "type": "address"
        },
        {
          "internalType": "address",
          "name": "to",
          "type": "address"
        },
        {
          "internalType": "uint256",
          "name": "tokenId",
          "type": "uint256"
        },
        {
          "internalType": "bytes",
          "name": "_data",
          "type": "bytes"
        }
      ],
      "name": "safeTransferFrom",
      "outputs": [],
      "stateMutability": "nonpayable",
      "type": "function"
    },
    {
      "inputs": [
        {
          "internalType": "address",
          "name": "operator",
          "type": "address"
        },
        {
          "internalType": "bool",
          "name": "approved",
          "type": "bool"
        }
      ],
      "name": "setApprovalForAll",
      "outputs": [],
      "stateMutability": "nonpayable",
      "type": "function"
    },
    {
      "inputs": [
        {
          "internalType": "bytes4",
          "name": "interfaceId",
          "type": "bytes4"
        }
      ],
      "name": "supportsInterface",
      "outputs": [
        {
          "internalType": "bool",
          "name": "",
          "type": "bool"
        }
      ],
      "stateMutability": "view",
      "type": "function"
    },
    {
      "inputs": [],
      "name": "symbol",
      "outputs": [
        {
          "internalType": "string",
          "name": "",
          "type": "string"
        }
      ],
      "stateMutability": "view",
      "type": "function"
    },
    {
      "inputs": [
        {
          "internalType": "uint256",
          "name": "index",
          "type": "uint256"
        }
      ],
      "name": "tokenByIndex",
      "outputs": [
        {
          "internalType": "uint256",
          "name": "",
          "type": "uint256"
        }
      ],
      "stateMutability": "view",
      "type": "function"
    },
    {
      "inputs": [
        {
          "internalType": "address",
          "name": "owner",
          "type": "address"
        },
        {
          "internalType": "uint256",
          "name": "index",
          "type": "uint256"
        }
      ],
      "name": "tokenOfOwnerByIndex",
      "outputs": [
        {
          "internalType": "uint256",
          "name": "",
          "type": "uint256"
        }
      ],
      "stateMutability": "view",
      "type": "function"
    },
    {
      "inputs": [
        {
          "internalType": "uint256",
          "name": "tokenId",
          "type": "uint256"
        }
      ],
      "name": "tokenURI",
      "outputs": [
        {
          "internalType": "string",
          "name": "",
          "type": "string"
        }
      ],
      "stateMutability": "view",
      "type": "function"
    },
    {
      "inputs": [],
      "name": "totalSupply",
      "outputs": [
        {
          "internalType": "uint256",
          "name": "",
          "type": "uint256"
        }
      ],
      "stateMutability": "view",
      "type": "function"
    },
    {
      "inputs": [
        {
          "internalType": "address",
          "name": "from",
          "type": "address"
        },
        {
          "internalType": "address",
          "name": "to",
          "type": "address"
        },
        {
          "internalType": "uint256",
          "name": "tokenId",
          "type": "uint256"
        }
      ],
      "name": "transfer",
      "outputs": [],
      "stateMutability": "nonpayable",
      "type": "function"
    },
    {
      "inputs": [
        {
          "internalType": "address",
          "name": "from",
          "type": "address"
        },
        {
          "internalType": "address",
          "name": "to",
          "type": "address"
        },
        {
          "internalType": "uint256",
          "name": "tokenId",
          "type": "uint256"
        }
      ],
      "name": "transferFrom",
      "outputs": [],
      "stateMutability": "nonpayable",
      "type": "function"
    },
    {
      "inputs": [
        {
          "internalType": "address",
          "name": "newOwner",
          "type": "address"
        }
      ],
      "name": "transferOwnership",
      "outputs": [],
      "stateMutability": "nonpayable",
      "type": "function"
    }
  ],
  "bytecode": "0x60806040526040518061024001604052806040518060400160405280600981526020017f57617268616d6d6572000000000000000000000000000000000000000000000081525081526020016040518060400160405280600c81526020017f517561727465727374616666000000000000000000000000000000000000000081525081526020016040518060400160405280600481526020017f4d61756c0000000000000000000000000000000000000000000000000000000081525081526020016040518060400160405280600481526020017f4d6163650000000000000000000000000000000000000000000000000000000081525081526020016040518060400160405280600481526020017f436c75620000000000000000000000000000000000000000000000000000000081525081526020016040518060400160405280600681526020017f4b6174616e61000000000000000000000000000000000000000000000000000081525081526020016040518060400160405280600881526020017f46616c6368696f6e00000000000000000000000000000000000000000000000081525081526020016040518060400160405280600881526020017f5363696d6974617200000000000000000000000000000000000000000000000081525081526020016040518060400160405280600a81526020017f4c6f6e672053776f72640000000000000000000000000000000000000000000081525081526020016040518060400160405280600b81526020017f53686f72742053776f726400000000000000000000000000000000000000000081525081526020016040518060400160405280600a81526020017f47686f73742057616e640000000000000000000000000000000000000000000081525081526020016040518060400160405280600a81526020017f47726176652057616e640000000000000000000000000000000000000000000081525081526020016040518060400160405280600981526020017f426f6e652057616e64000000000000000000000000000000000000000000000081525081526020016040518060400160405280600481526020017f57616e640000000000000000000000000000000000000000000000000000000081525081526020016040518060400160405280600881526020017f4772696d6f69726500000000000000000000000000000000000000000000000081525081526020016040518060400160405280600981526020017f4368726f6e69636c65000000000000000000000000000000000000000000000081525081526020016040518060400160405280600481526020017f546f6d650000000000000000000000000000000000000000000000000000000081525081526020016040518060400160405280600481526020017f426f6f6b00000000000000000000000000000000000000000000000000000000815250815250600c90601262000446929190620029fe565b50604051806101e001604052806040518060400160405280600981526020017f426c61636b20436174000000000000000000000000000000000000000000000081525081526020016040518060400160405280600681526020017f447261676f6e000000000000000000000000000000000000000000000000000081525081526020016040518060400160405280600781526020017f4c7563696665720000000000000000000000000000000000000000000000000081525081526020016040518060400160405280600881526020017f426170686f6d657400000000000000000000000000000000000000000000000081525081526020016040518060400160405280600381526020017f456c66000000000000000000000000000000000000000000000000000000000081525081526020016040518060400160405280600381526020017f4f7263000000000000000000000000000000000000000000000000000000000081525081526020016040518060400160405280600a81526020017f44656d6f676f72676f6e0000000000000000000000000000000000000000000081525081526020016040518060400160405280600881526020017f43656e6f6269746500000000000000000000000000000000000000000000000081525081526020016040518060400160405280600881526020017f436572626572757300000000000000000000000000000000000000000000000081525081526020016040518060400160405280600581526020017f47686f737400000000000000000000000000000000000000000000000000000081525081526020016040518060400160405280600881526020017f57657265776f6c6600000000000000000000000000000000000000000000000081525081526020016040518060400160405280600981526020017f4c657669617468616e000000000000000000000000000000000000000000000081525081526020016040518060400160405280600681526020017f4b72616b656e000000000000000000000000000000000000000000000000000081525081526020016040518060400160405280600681526020017f5a6f6d626965000000000000000000000000000000000000000000000000000081525081526020016040518060400160405280600581526020017f4d756d6d79000000000000000000000000000000000000000000000000000000815250815250600d90600f620007d892919062002a65565b50604051806101e001604052806040518060400160405280600981526020017f54656c657061746879000000000000000000000000000000000000000000000081525081526020016040518060400160405280600c81526020017f436c616972766f69616e6365000000000000000000000000000000000000000081525081526020016040518060400160405280601281526020017f43616e2054616c6b20546f2047686f737473000000000000000000000000000081525081526020016040518060400160405280600e81526020017f52656d6f74652056696577696e6700000000000000000000000000000000000081525081526020016040518060400160405280601081526020017f53756d6d6f6e696e672044656d6f6e730000000000000000000000000000000081525081526020016040518060400160405280600e81526020017f54616d696e6720447261676f6e7300000000000000000000000000000000000081525081526020016040518060400160405280600c81526020017f4d696e642052656164696e67000000000000000000000000000000000000000081525081526020016040518060400160405280600f81526020017f53756d6d6f696e6720416e67656c73000000000000000000000000000000000081525081526020016040518060400160405280600b81526020017f496d6d6f7274616c69747900000000000000000000000000000000000000000081525081526020016040518060400160405280600e81526020017f48656172696e67204e617475726500000000000000000000000000000000000081525081526020016040518060400160405280601481526020017f43617374696e67204d61676963205370656c6c7300000000000000000000000081525081526020016040518060400160405280601381526020017f576974636863726166742f57697a61726472790000000000000000000000000081525081526020016040518060400160405280601181526020017f5265766976696e6720546865204465616400000000000000000000000000000081525081526020016040518060400160405280600c81526020017f496e7669736962696c697479000000000000000000000000000000000000000081525081526020016040518060400160405280600c81526020017f50616c6d2072656164696e670000000000000000000000000000000000000000815250815250600e90600f62000b6a92919062002a65565b50604051806101e001604052806040518060400160405280600e81526020017f486f6c79204761756e746c65747300000000000000000000000000000000000081525081526020016040518060400160405280601081526020017f4f726e617465204761756e746c6574730000000000000000000000000000000081525081526020016040518060400160405280600981526020017f4761756e746c657473000000000000000000000000000000000000000000000081525081526020016040518060400160405280600c81526020017f436861696e20476c6f766573000000000000000000000000000000000000000081525081526020016040518060400160405280600c81526020017f486561767920476c6f766573000000000000000000000000000000000000000081525081526020016040518060400160405280600d81526020017f44656d6f6e27732048616e64730000000000000000000000000000000000000081525081526020016040518060400160405280601181526020017f447261676f6e736b696e20476c6f76657300000000000000000000000000000081525081526020016040518060400160405280601681526020017f53747564646564204c65617468657220476c6f7665730000000000000000000081525081526020016040518060400160405280601381526020017f48617264204c65617468657220476c6f7665730000000000000000000000000081525081526020016040518060400160405280600e81526020017f4c65617468657220476c6f76657300000000000000000000000000000000000081525081526020016040518060400160405280600d81526020017f446976696e6520476c6f7665730000000000000000000000000000000000000081525081526020016040518060400160405280600b81526020017f53696c6b20476c6f76657300000000000000000000000000000000000000000081525081526020016040518060400160405280600b81526020017f576f6f6c20476c6f76657300000000000000000000000000000000000000000081525081526020016040518060400160405280600c81526020017f4c696e656e20476c6f766573000000000000000000000000000000000000000081525081526020016040518060400160405280600681526020017f476c6f7665730000000000000000000000000000000000000000000000000000815250815250600f90600f62000efc92919062002a65565b506040518060a001604052806040518060400160405280600981526020017f476f6c642052696e67000000000000000000000000000000000000000000000081525081526020016040518060400160405280600b81526020017f53696c7665722052696e6700000000000000000000000000000000000000000081525081526020016040518060400160405280600b81526020017f42726f6e7a652052696e6700000000000000000000000000000000000000000081525081526020016040518060400160405280600d81526020017f506c6174696e756d2052696e670000000000000000000000000000000000000081525081526020016040518060400160405280600d81526020017f546974616e69756d2052696e670000000000000000000000000000000000000081525081525060109060056200103f92919062002acc565b506040518061020001604052806040518060400160405280600881526020017f6f6620506f77657200000000000000000000000000000000000000000000000081525081526020016040518060400160405280600981526020017f6f66204769616e7473000000000000000000000000000000000000000000000081525081526020016040518060400160405280600981526020017f6f6620546974616e73000000000000000000000000000000000000000000000081525081526020016040518060400160405280600881526020017f6f6620536b696c6c00000000000000000000000000000000000000000000000081525081526020016040518060400160405280600d81526020017f6f662050657266656374696f6e0000000000000000000000000000000000000081525081526020016040518060400160405280600d81526020017f6f66204272696c6c69616e63650000000000000000000000000000000000000081525081526020016040518060400160405280601081526020017f6f6620456e6c69676874656e6d656e740000000000000000000000000000000081525081526020016040518060400160405280600d81526020017f6f662050726f74656374696f6e0000000000000000000000000000000000000081525081526020016040518060400160405280600881526020017f6f6620416e67657200000000000000000000000000000000000000000000000081525081526020016040518060400160405280600781526020017f6f6620526167650000000000000000000000000000000000000000000000000081525081526020016040518060400160405280600781526020017f6f6620467572790000000000000000000000000000000000000000000000000081525081526020016040518060400160405280600a81526020017f6f662056697472696f6c0000000000000000000000000000000000000000000081525081526020016040518060400160405280600a81526020017f6f662074686520466f780000000000000000000000000000000000000000000081525081526020016040518060400160405280600c81526020017f6f6620446574656374696f6e000000000000000000000000000000000000000081525081526020016040518060400160405280600d81526020017f6f66205265666c656374696f6e0000000000000000000000000000000000000081525081526020016040518060400160405280600c81526020017f6f6620746865205477696e73000000000000000000000000000000000000000081525081525060119060106200140c92919062002b33565b50604051806108a001604052806040518060400160405280600581526020017f41676f6e7900000000000000000000000000000000000000000000000000000081525081526020016040518060400160405280600a81526020017f41706f63616c797073650000000000000000000000000000000000000000000081525081526020016040518060400160405280600a81526020017f41726d61676564646f6e0000000000000000000000000000000000000000000081525081526020016040518060400160405280600581526020017f426561737400000000000000000000000000000000000000000000000000000081525081526020016040518060400160405280600881526020017f426568656d6f746800000000000000000000000000000000000000000000000081525081526020016040518060400160405280600681526020017f426c69676874000000000000000000000000000000000000000000000000000081525081526020016040518060400160405280600581526020017f426c6f6f6400000000000000000000000000000000000000000000000000000081525081526020016040518060400160405280600781526020017f4272616d626c650000000000000000000000000000000000000000000000000081525081526020016040518060400160405280600981526020017f4272696d73746f6e65000000000000000000000000000000000000000000000081525081526020016040518060400160405280600581526020017f42726f6f6400000000000000000000000000000000000000000000000000000081525081526020016040518060400160405280600781526020017f43617272696f6e0000000000000000000000000000000000000000000000000081525081526020016040518060400160405280600981526020017f43617461636c79736d000000000000000000000000000000000000000000000081525081526020016040518060400160405280600881526020017f4368696d6572696300000000000000000000000000000000000000000000000081525081526020016040518060400160405280600681526020017f436f72707365000000000000000000000000000000000000000000000000000081525081526020016040518060400160405280600a81526020017f436f7272757074696f6e0000000000000000000000000000000000000000000081525081526020016040518060400160405280600981526020017f44616d6e6174696f6e000000000000000000000000000000000000000000000081525081526020016040518060400160405280600581526020017f446561746800000000000000000000000000000000000000000000000000000081525081526020016040518060400160405280600581526020017f44656d6f6e00000000000000000000000000000000000000000000000000000081525081526020016040518060400160405280600481526020017f446972650000000000000000000000000000000000000000000000000000000081525081526020016040518060400160405280600681526020017f447261676f6e000000000000000000000000000000000000000000000000000081525081526020016040518060400160405280600581526020017f447265616400000000000000000000000000000000000000000000000000000081525081526020016040518060400160405280600481526020017f446f6f6d0000000000000000000000000000000000000000000000000000000081525081526020016040518060400160405280600481526020017f4475736b0000000000000000000000000000000000000000000000000000000081525081526020016040518060400160405280600581526020017f4561676c6500000000000000000000000000000000000000000000000000000081525081526020016040518060400160405280600881526020017f456d70797265616e00000000000000000000000000000000000000000000000081525081526020016040518060400160405280600481526020017f466174650000000000000000000000000000000000000000000000000000000081525081526020016040518060400160405280600381526020017f466f65000000000000000000000000000000000000000000000000000000000081525081526020016040518060400160405280600481526020017f47616c650000000000000000000000000000000000000000000000000000000081525081526020016040518060400160405280600581526020017f47686f756c00000000000000000000000000000000000000000000000000000081525081526020016040518060400160405280600581526020017f476c6f6f6d00000000000000000000000000000000000000000000000000000081525081526020016040518060400160405280600581526020017f476c79706800000000000000000000000000000000000000000000000000000081525081526020016040518060400160405280600581526020017f476f6c656d00000000000000000000000000000000000000000000000000000081525081526020016040518060400160405280600481526020017f4772696d0000000000000000000000000000000000000000000000000000000081525081526020016040518060400160405280600481526020017f486174650000000000000000000000000000000000000000000000000000000081525081526020016040518060400160405280600581526020017f4861766f6300000000000000000000000000000000000000000000000000000081525081526020016040518060400160405280600681526020017f486f6e6f7572000000000000000000000000000000000000000000000000000081525081526020016040518060400160405280600681526020017f486f72726f72000000000000000000000000000000000000000000000000000081525081526020016040518060400160405280600881526020017f4879706e6f74696300000000000000000000000000000000000000000000000081525081526020016040518060400160405280600681526020017f4b72616b656e000000000000000000000000000000000000000000000000000081525081526020016040518060400160405280600581526020017f4c6f61746800000000000000000000000000000000000000000000000000000081525081526020016040518060400160405280600981526020017f4d61656c7374726f6d000000000000000000000000000000000000000000000081525081526020016040518060400160405280600481526020017f4d696e640000000000000000000000000000000000000000000000000000000081525081526020016040518060400160405280600781526020017f4d697261636c650000000000000000000000000000000000000000000000000081525081526020016040518060400160405280600681526020017f4d6f72626964000000000000000000000000000000000000000000000000000081525081526020016040518060400160405280600881526020017f4f626c6976696f6e00000000000000000000000000000000000000000000000081525081526020016040518060400160405280600981526020017f4f6e736c6175676874000000000000000000000000000000000000000000000081525081526020016040518060400160405280600481526020017f5061696e0000000000000000000000000000000000000000000000000000000081525081526020016040518060400160405280600b81526020017f50616e64656d6f6e69756d00000000000000000000000000000000000000000081525081526020016040518060400160405280600781526020017f50686f656e69780000000000000000000000000000000000000000000000000081525081526020016040518060400160405280600681526020017f506c61677565000000000000000000000000000000000000000000000000000081525081526020016040518060400160405280600481526020017f526167650000000000000000000000000000000000000000000000000000000081525081526020016040518060400160405280600781526020017f526170747572650000000000000000000000000000000000000000000000000081525081526020016040518060400160405280600481526020017f52756e650000000000000000000000000000000000000000000000000000000081525081526020016040518060400160405280600581526020017f536b756c6c00000000000000000000000000000000000000000000000000000081525081526020016040518060400160405280600381526020017f536f6c000000000000000000000000000000000000000000000000000000000081525081526020016040518060400160405280600481526020017f536f756c0000000000000000000000000000000000000000000000000000000081525081526020016040518060400160405280600681526020017f536f72726f77000000000000000000000000000000000000000000000000000081525081526020016040518060400160405280600681526020017f537069726974000000000000000000000000000000000000000000000000000081525081526020016040518060400160405280600581526020017f53746f726d00000000000000000000000000000000000000000000000000000081525081526020016040518060400160405280600781526020017f54656d706573740000000000000000000000000000000000000000000000000081525081526020016040518060400160405280600781526020017f546f726d656e740000000000000000000000000000000000000000000000000081525081526020016040518060400160405280600981526020017f56656e6765616e6365000000000000000000000000000000000000000000000081525081526020016040518060400160405280600781526020017f566963746f72790000000000000000000000000000000000000000000000000081525081526020016040518060400160405280600581526020017f566970657200000000000000000000000000000000000000000000000000000081525081526020016040518060400160405280600681526020017f566f72746578000000000000000000000000000000000000000000000000000081525081526020016040518060400160405280600381526020017f576f65000000000000000000000000000000000000000000000000000000000081525081526020016040518060400160405280600581526020017f577261746800000000000000000000000000000000000000000000000000000081525081526020016040518060400160405280600781526020017f4c6967687427730000000000000000000000000000000000000000000000000081525081526020016040518060400160405280600a81526020017f5368696d6d6572696e670000000000000000000000000000000000000000000081525081525060129060456200241092919062002b9a565b506040518061024001604052806040518060400160405280600481526020017f42616e650000000000000000000000000000000000000000000000000000000081525081526020016040518060400160405280600481526020017f526f6f740000000000000000000000000000000000000000000000000000000081525081526020016040518060400160405280600481526020017f426974650000000000000000000000000000000000000000000000000000000081525081526020016040518060400160405280600481526020017f536f6e670000000000000000000000000000000000000000000000000000000081525081526020016040518060400160405280600481526020017f526f61720000000000000000000000000000000000000000000000000000000081525081526020016040518060400160405280600581526020017f477261737000000000000000000000000000000000000000000000000000000081525081526020016040518060400160405280600a81526020017f496e737472756d656e740000000000000000000000000000000000000000000081525081526020016040518060400160405280600481526020017f476c6f770000000000000000000000000000000000000000000000000000000081525081526020016040518060400160405280600681526020017f42656e646572000000000000000000000000000000000000000000000000000081525081526020016040518060400160405280600681526020017f536861646f77000000000000000000000000000000000000000000000000000081525081526020016040518060400160405280600781526020017f576869737065720000000000000000000000000000000000000000000000000081525081526020016040518060400160405280600581526020017f53686f757400000000000000000000000000000000000000000000000000000081525081526020016040518060400160405280600581526020017f47726f776c00000000000000000000000000000000000000000000000000000081525081526020016040518060400160405280600481526020017f546561720000000000000000000000000000000000000000000000000000000081525081526020016040518060400160405280600481526020017f5065616b0000000000000000000000000000000000000000000000000000000081525081526020016040518060400160405280600481526020017f466f726d0000000000000000000000000000000000000000000000000000000081525081526020016040518060400160405280600381526020017f53756e000000000000000000000000000000000000000000000000000000000081525081526020016040518060400160405280600481526020017f4d6f6f6e00000000000000000000000000000000000000000000000000000000815250815250601390601262002853929190620029fe565b503480156200286157600080fd5b506040518060400160405280600581526020017f7a4c6f6f740000000000000000000000000000000000000000000000000000008152506040518060400160405280600381526020017f5a4c5400000000000000000000000000000000000000000000000000000000008152508160009080519060200190620028e692919062002c01565b508060019080519060200190620028ff92919062002c01565b5050506001600a819055506200292a6200291e6200293060201b60201c565b6200293860201b60201c565b62002d84565b600033905090565b6000600b60009054906101000a900473ffffffffffffffffffffffffffffffffffffffff16905081600b60006101000a81548173ffffffffffffffffffffffffffffffffffffffff021916908373ffffffffffffffffffffffffffffffffffffffff1602179055508173ffffffffffffffffffffffffffffffffffffffff168173ffffffffffffffffffffffffffffffffffffffff167f8be0079c531659141344cd1fd0a4f28419497f9722a3daafe3b4186f6b6457e060405160405180910390a35050565b82805482825590600052602060002090810192821562002a52579160200282015b8281111562002a5157825182908051906020019062002a4092919062002c01565b509160200191906001019062002a1f565b5b50905062002a61919062002c92565b5090565b82805482825590600052602060002090810192821562002ab9579160200282015b8281111562002ab857825182908051906020019062002aa792919062002c01565b509160200191906001019062002a86565b5b50905062002ac8919062002c92565b5090565b82805482825590600052602060002090810192821562002b20579160200282015b8281111562002b1f57825182908051906020019062002b0e92919062002c01565b509160200191906001019062002aed565b5b50905062002b2f919062002c92565b5090565b82805482825590600052602060002090810192821562002b87579160200282015b8281111562002b8657825182908051906020019062002b7592919062002c01565b509160200191906001019062002b54565b5b50905062002b96919062002c92565b5090565b82805482825590600052602060002090810192821562002bee579160200282015b8281111562002bed57825182908051906020019062002bdc92919062002c01565b509160200191906001019062002bbb565b5b50905062002bfd919062002c92565b5090565b82805462002c0f9062002d1f565b90600052602060002090601f01602090048101928262002c33576000855562002c7f565b82601f1062002c4e57805160ff191683800117855562002c7f565b8280016001018555821562002c7f579182015b8281111562002c7e57825182559160200191906001019062002c61565b5b50905062002c8e919062002cba565b5090565b5b8082111562002cb6576000818162002cac919062002cd9565b5060010162002c93565b5090565b5b8082111562002cd557600081600090555060010162002cbb565b5090565b50805462002ce79062002d1f565b6000825580601f1062002cfb575062002d1c565b601f01602090049060005260206000209081019062002d1b919062002cba565b5b50565b6000600282049050600182168062002d3857607f821691505b6020821081141562002d4f5762002d4e62002d55565b5b50919050565b7f4e487b7100000000000000000000000000000000000000000000000000000000600052602260045260246000fd5b61569d8062002d946000396000f3fe6080604052600436106101b75760003560e01c8063715018a6116100ec578063beabacc81161008a578063c87b56dd11610064578063c87b56dd1461066d578063d47f269e146106aa578063e985e9c5146106e7578063f2fde38b14610724576101b7565b8063beabacc8146105eb578063c08a5dd514610614578063c349026314610651576101b7565b806395d89b41116100c657806395d89b41146105315780639e41b73f1461055c578063a22cb46514610599578063b88d4fde146105c2576101b7565b8063715018a6146104b2578063895d3647146104c95780638da5cb5b14610506576101b7565b806323b872dd1161015957806342842e0e1161013357806342842e0e146103d25780634f6ccce7146103fb5780636352211e1461043857806370a0823114610475576101b7565b806323b872dd1461032f57806326e532db146103585780632f745c5914610395576101b7565b8063081812fc11610195578063081812fc14610261578063095ea7b31461029e57806318160ddd146102c757806322b8d044146102f2576101b7565b8063017fe809146101bc57806301ffc9a7146101f957806306fdde0314610236575b600080fd5b3480156101c857600080fd5b506101e360048036038101906101de9190613d8a565b61074d565b6040516101f09190614cc3565b60405180910390f35b34801561020557600080fd5b50610220600480360381019061021b9190613cf7565b610867565b60405161022d9190614ca8565b60405180910390f35b34801561024257600080fd5b5061024b6108e1565b6040516102589190614cc3565b60405180910390f35b34801561026d57600080fd5b5061028860048036038101906102839190613d8a565b610973565b6040516102959190614c41565b60405180910390f35b3480156102aa57600080fd5b506102c560048036038101906102c09190613cbb565b6109f8565b005b3480156102d357600080fd5b506102dc610b10565b6040516102e99190614fbc565b60405180910390f35b3480156102fe57600080fd5b5061031960048036038101906103149190613d49565b610b1d565b6040516103269190614fbc565b60405180910390f35b34801561033b57600080fd5b5061035660048036038101906103519190613bb5565b610b50565b005b34801561036457600080fd5b5061037f600480360381019061037a9190613d8a565b610bb0565b60405161038c9190614c41565b60405180910390f35b3480156103a157600080fd5b506103bc60048036038101906103b79190613cbb565b610bc1565b6040516103c99190614fbc565b60405180910390f35b3480156103de57600080fd5b506103f960048036038101906103f49190613bb5565b610c66565b005b34801561040757600080fd5b50610422600480360381019061041d9190613d8a565b610c86565b60405161042f9190614fbc565b60405180910390f35b34801561044457600080fd5b5061045f600480360381019061045a9190613d8a565b610d1d565b60405161046c9190614c41565b60405180910390f35b34801561048157600080fd5b5061049c60048036038101906104979190613b50565b610dcf565b6040516104a99190614fbc565b60405180910390f35b3480156104be57600080fd5b506104c7610e87565b005b3480156104d557600080fd5b506104f060048036038101906104eb9190613d8a565b610f0f565b6040516104fd9190614cc3565b60405180910390f35b34801561051257600080fd5b5061051b611029565b6040516105289190614c41565b60405180910390f35b34801561053d57600080fd5b50610546611053565b6040516105539190614cc3565b60405180910390f35b34801561056857600080fd5b50610583600480360381019061057e9190613d8a565b6110e5565b6040516105909190614cc3565b60405180910390f35b3480156105a557600080fd5b506105c060048036038101906105bb9190613c7f565b6111ff565b005b3480156105ce57600080fd5b506105e960048036038101906105e49190613c04565b611380565b005b3480156105f757600080fd5b50610612600480360381019061060d9190613bb5565b6113e2565b005b34801561062057600080fd5b5061063b60048036038101906106369190613d8a565b6113f2565b6040516106489190614cc3565b60405180910390f35b61066b60048036038101906106669190613db3565b61150c565b005b34801561067957600080fd5b50610694600480360381019061068f9190613d8a565b611651565b6040516106a19190614cc3565b60405180910390f35b3480156106b657600080fd5b506106d160048036038101906106cc9190613d8a565b611d64565b6040516106de9190614cc3565b60405180910390f35b3480156106f357600080fd5b5061070e60048036038101906107099190613b79565b611e7e565b60405161071b9190614ca8565b60405180910390f35b34801561073057600080fd5b5061074b60048036038101906107469190613b50565b611f12565b005b6060610860826040518060400160405280600581526020017f504f574552000000000000000000000000000000000000000000000000000000815250600e805480602002602001604051908101604052809291908181526020016000905b828210156108575783829060005260206000200180546107ca9061528b565b80601f01602080910402602001604051908101604052809291908181526020018280546107f69061528b565b80156108435780601f1061081857610100808354040283529160200191610843565b820191906000526020600020905b81548152906001019060200180831161082657829003601f168201915b5050505050815260200190600101906107ab565b5050505061200a565b9050919050565b60007f780e9d63000000000000000000000000000000000000000000000000000000007bffffffffffffffffffffffffffffffffffffffffffffffffffffffff1916827bffffffffffffffffffffffffffffffffffffffffffffffffffffffff191614806108da57506108d9826125a8565b5b9050919050565b6060600080546108f09061528b565b80601f016020809104026020016040519081016040528092919081815260200182805461091c9061528b565b80156109695780601f1061093e57610100808354040283529160200191610969565b820191906000526020600020905b81548152906001019060200180831161094c57829003601f168201915b5050505050905090565b600061097e8261268a565b6109bd576040517f08c379a00000000000000000000000000000000000000000000000000000000081526004016109b490614e7c565b60405180910390fd5b6004600083815260200190815260200160002060009054906101000a900473ffffffffffffffffffffffffffffffffffffffff169050919050565b6000610a0382610d1d565b90508073ffffffffffffffffffffffffffffffffffffffff168373ffffffffffffffffffffffffffffffffffffffff161415610a74576040517f08c379a0000000000000000000000000000000000000000000000000000000008152600401610a6b90614edc565b60405180910390fd5b8073ffffffffffffffffffffffffffffffffffffffff16610a936126f6565b73ffffffffffffffffffffffffffffffffffffffff161480610ac25750610ac181610abc6126f6565b611e7e565b5b610b01576040517f08c379a0000000000000000000000000000000000000000000000000000000008152600401610af890614dfc565b60405180910390fd5b610b0b83836126fe565b505050565b6000600880549050905090565b600081604051602001610b309190614a11565b6040516020818303038152906040528051906020012060001c9050919050565b610b61610b5b6126f6565b826127b7565b610ba0576040517f08c379a0000000000000000000000000000000000000000000000000000000008152600401610b9790614efc565b60405180910390fd5b610bab838383612895565b505050565b6000610bbb82610d1d565b50919050565b6000610bcc83610dcf565b8210610c0d576040517f08c379a0000000000000000000000000000000000000000000000000000000008152600401610c0490614d1c565b60405180910390fd5b600660008473ffffffffffffffffffffffffffffffffffffffff1673ffffffffffffffffffffffffffffffffffffffff168152602001908152602001600020600083815260200190815260200160002054905092915050565b610c8183838360405180602001604052806000815250611380565b505050565b6000610c90610b10565b8210610cd1576040517f08c379a0000000000000000000000000000000000000000000000000000000008152600401610cc890614f1c565b60405180910390fd5b60088281548110610d0b577f4e487b7100000000000000000000000000000000000000000000000000000000600052603260045260246000fd5b90600052602060002001549050919050565b6000806002600084815260200190815260200160002060009054906101000a900473ffffffffffffffffffffffffffffffffffffffff169050600073ffffffffffffffffffffffffffffffffffffffff168173ffffffffffffffffffffffffffffffffffffffff161415610dc6576040517f08c379a0000000000000000000000000000000000000000000000000000000008152600401610dbd90614e3c565b60405180910390fd5b80915050919050565b60008073ffffffffffffffffffffffffffffffffffffffff168273ffffffffffffffffffffffffffffffffffffffff161415610e40576040517f08c379a0000000000000000000000000000000000000000000000000000000008152600401610e3790614e1c565b60405180910390fd5b600360008373ffffffffffffffffffffffffffffffffffffffff1673ffffffffffffffffffffffffffffffffffffffff168152602001908152602001600020549050919050565b610e8f6126f6565b73ffffffffffffffffffffffffffffffffffffffff16610ead611029565b73ffffffffffffffffffffffffffffffffffffffff1614610f03576040517f08c379a0000000000000000000000000000000000000000000000000000000008152600401610efa90614e9c565b60405180910390fd5b610f0d6000612af1565b565b6060611022826040518060400160405280600981526020017f434f4d50414e494f4e0000000000000000000000000000000000000000000000815250600d805480602002602001604051908101604052809291908181526020016000905b82821015611019578382906000526020600020018054610f8c9061528b565b80601f0160208091040260200160405190810160405280929190818152602001828054610fb89061528b565b80156110055780601f10610fda57610100808354040283529160200191611005565b820191906000526020600020905b815481529060010190602001808311610fe857829003601f168201915b505050505081526020019060010190610f6d565b5050505061200a565b9050919050565b6000600b60009054906101000a900473ffffffffffffffffffffffffffffffffffffffff16905090565b6060600180546110629061528b565b80601f016020809104026020016040519081016040528092919081815260200182805461108e9061528b565b80156110db5780601f106110b0576101008083540402835291602001916110db565b820191906000526020600020905b8154815290600101906020018083116110be57829003601f168201915b5050505050905090565b60606111f8826040518060400160405280600681526020017f574541504f4e0000000000000000000000000000000000000000000000000000815250600c805480602002602001604051908101604052809291908181526020016000905b828210156111ef5783829060005260206000200180546111629061528b565b80601f016020809104026020016040519081016040528092919081815260200182805461118e9061528b565b80156111db5780601f106111b0576101008083540402835291602001916111db565b820191906000526020600020905b8154815290600101906020018083116111be57829003601f168201915b505050505081526020019060010190611143565b5050505061200a565b9050919050565b6112076126f6565b73ffffffffffffffffffffffffffffffffffffffff168273ffffffffffffffffffffffffffffffffffffffff161415611275576040517f08c379a000000000000000000000000000000000000000000000000000000000815260040161126c90614dbc565b60405180910390fd5b80600560006112826126f6565b73ffffffffffffffffffffffffffffffffffffffff1673ffffffffffffffffffffffffffffffffffffffff16815260200190815260200160002060008473ffffffffffffffffffffffffffffffffffffffff1673ffffffffffffffffffffffffffffffffffffffff16815260200190815260200160002060006101000a81548160ff0219169083151502179055508173ffffffffffffffffffffffffffffffffffffffff1661132f6126f6565b73ffffffffffffffffffffffffffffffffffffffff167f17307eab39ab6107e8899845ad3d59bd9653f200f220920489ca2b5937696c31836040516113749190614ca8565b60405180910390a35050565b61139161138b6126f6565b836127b7565b6113d0576040517f08c379a00000000000000000000000000000000000000000000000000000000081526004016113c790614efc565b60405180910390fd5b6113dc84848484612bb7565b50505050565b6113ed838383610c66565b505050565b6060611505826040518060400160405280600481526020017f52494e47000000000000000000000000000000000000000000000000000000008152506010805480602002602001604051908101604052809291908181526020016000905b828210156114fc57838290600052602060002001805461146f9061528b565b80601f016020809104026020016040519081016040528092919081815260200182805461149b9061528b565b80156114e85780601f106114bd576101008083540402835291602001916114e8565b820191906000526020600020905b8154815290600101906020018083116114cb57829003601f168201915b505050505081526020019060010190611450565b5050505061200a565b9050919050565b6002600a541415611552576040517f08c379a000000000000000000000000000000000000000000000000000000000815260040161154990614f7c565b60405180910390fd5b6002600a81905550600061156533610dcf565b146115a5576040517f08c379a000000000000000000000000000000000000000000000000000000000815260040161159c90614f3c565b60405180910390fd5b61025882106115e9576040517f08c379a00000000000000000000000000000000000000000000000000000000081526004016115e090614f9c565b60405180910390fd5b670de0b6b3a7640000341015611634576040517f08c379a000000000000000000000000000000000000000000000000000000000815260040161162b90614f5c565b60405180910390fd5b61164561163f6126f6565b83612c13565b6001600a819055505050565b606061165b6139c8565b60405180610120016040528060fd815260200161550360fd9139816000601181106116af577f4e487b7100000000000000000000000000000000000000000000000000000000600052603260045260246000fd5b60200201819052506116c0836110e5565b816001601181106116fa577f4e487b7100000000000000000000000000000000000000000000000000000000600052603260045260246000fd5b60200201819052506040518060600160405280602881526020016156406028913981600260118110611755577f4e487b7100000000000000000000000000000000000000000000000000000000600052603260045260246000fd5b602002018190525061176683610f0f565b816003601181106117a0577f4e487b7100000000000000000000000000000000000000000000000000000000600052603260045260246000fd5b602002018190525060405180606001604052806028815260200161546160289139816004601181106117fb577f4e487b7100000000000000000000000000000000000000000000000000000000600052603260045260246000fd5b602002018190525061180c8361074d565b81600560118110611846577f4e487b7100000000000000000000000000000000000000000000000000000000600052603260045260246000fd5b60200201819052506040518060600160405280602881526020016154b260289139816006601181106118a1577f4e487b7100000000000000000000000000000000000000000000000000000000600052603260045260246000fd5b60200201819052506118b283611d64565b816007601181106118ec577f4e487b7100000000000000000000000000000000000000000000000000000000600052603260045260246000fd5b60200201819052506040518060600160405280602981526020016154da6029913981600860118110611947577f4e487b7100000000000000000000000000000000000000000000000000000000600052603260045260246000fd5b6020020181905250611958836113f2565b81600960118110611992577f4e487b7100000000000000000000000000000000000000000000000000000000600052603260045260246000fd5b60200201819052506040518060600160405280602981526020016154896029913981600a601181106119ed577f4e487b7100000000000000000000000000000000000000000000000000000000600052603260045260246000fd5b6020020181905250600081600060118110611a31577f4e487b7100000000000000000000000000000000000000000000000000000000600052603260045260246000fd5b602002015182600160118110611a70577f4e487b7100000000000000000000000000000000000000000000000000000000600052603260045260246000fd5b602002015183600260118110611aaf577f4e487b7100000000000000000000000000000000000000000000000000000000600052603260045260246000fd5b602002015184600360118110611aee577f4e487b7100000000000000000000000000000000000000000000000000000000600052603260045260246000fd5b602002015185600460118110611b2d577f4e487b7100000000000000000000000000000000000000000000000000000000600052603260045260246000fd5b602002015186600560118110611b6c577f4e487b7100000000000000000000000000000000000000000000000000000000600052603260045260246000fd5b602002015187600660118110611bab577f4e487b7100000000000000000000000000000000000000000000000000000000600052603260045260246000fd5b602002015188600760118110611bea577f4e487b7100000000000000000000000000000000000000000000000000000000600052603260045260246000fd5b602002015189600860118110611c29577f4e487b7100000000000000000000000000000000000000000000000000000000600052603260045260246000fd5b6020020151604051602001611c4699989796959493929190614a7d565b60405160208183030381529060405290508082600960118110611c92577f4e487b7100000000000000000000000000000000000000000000000000000000600052603260045260246000fd5b602002015183600a60118110611cd1577f4e487b7100000000000000000000000000000000000000000000000000000000600052603260045260246000fd5b6020020151604051602001611ce893929190614a4c565b60405160208183030381529060405290506000611d35611d0786612c31565b611d1084612dde565b604051602001611d21929190614bda565b604051602081830303815290604052612dde565b905080604051602001611d489190614c1f565b6040516020818303038152906040529150819350505050919050565b6060611e77826040518060400160405280600481526020017f48414e4400000000000000000000000000000000000000000000000000000000815250600f805480602002602001604051908101604052809291908181526020016000905b82821015611e6e578382906000526020600020018054611de19061528b565b80601f0160208091040260200160405190810160405280929190818152602001828054611e0d9061528b565b8015611e5a5780601f10611e2f57610100808354040283529160200191611e5a565b820191906000526020600020905b815481529060010190602001808311611e3d57829003601f168201915b505050505081526020019060010190611dc2565b5050505061200a565b9050919050565b6000600560008473ffffffffffffffffffffffffffffffffffffffff1673ffffffffffffffffffffffffffffffffffffffff16815260200190815260200160002060008373ffffffffffffffffffffffffffffffffffffffff1673ffffffffffffffffffffffffffffffffffffffff16815260200190815260200160002060009054906101000a900460ff16905092915050565b611f1a6126f6565b73ffffffffffffffffffffffffffffffffffffffff16611f38611029565b73ffffffffffffffffffffffffffffffffffffffff1614611f8e576040517f08c379a0000000000000000000000000000000000000000000000000000000008152600401611f8590614e9c565b60405180910390fd5b600073ffffffffffffffffffffffffffffffffffffffff168173ffffffffffffffffffffffffffffffffffffffff161415611ffe576040517f08c379a0000000000000000000000000000000000000000000000000000000008152600401611ff590614d5c565b60405180910390fd5b61200781612af1565b50565b606060006120408461201b87612c31565b60405160200161202c929190614a28565b604051602081830303815290604052610b1d565b90506000838451836120529190615306565b81518110612089577f4e487b7100000000000000000000000000000000000000000000000000000000600052603260045260246000fd5b602002602001015190506120a88451836120a39190615306565b612f9c565b60006015836120b79190615306565b90506120c281612f9c565b600e811115612142578160118080549050856120de9190615306565b81548110612115577f4e487b7100000000000000000000000000000000000000000000000000000000600052603260045260246000fd5b90600052602060002001604051602001612130929190614afc565b60405160208183030381529060405291505b6013811061259b576121526139f0565b60128080549050856121649190615306565b8154811061219b577f4e487b7100000000000000000000000000000000000000000000000000000000600052603260045260246000fd5b9060005260206000200180546121b09061528b565b80601f01602080910402602001604051908101604052809291908181526020018280546121dc9061528b565b80156122295780601f106121fe57610100808354040283529160200191612229565b820191906000526020600020905b81548152906001019060200180831161220c57829003601f168201915b505050505081600060028110612268577f4e487b7100000000000000000000000000000000000000000000000000000000600052603260045260246000fd5b602002018190525060138080549050856122829190615306565b815481106122b9577f4e487b7100000000000000000000000000000000000000000000000000000000600052603260045260246000fd5b9060005260206000200180546122ce9061528b565b80601f01602080910402602001604051908101604052809291908181526020018280546122fa9061528b565b80156123475780601f1061231c57610100808354040283529160200191612347565b820191906000526020600020905b81548152906001019060200180831161232a57829003601f168201915b505050505081600160028110612386577f4e487b7100000000000000000000000000000000000000000000000000000000600052603260045260246000fd5b6020020181905250612414816000600281106123cb577f4e487b7100000000000000000000000000000000000000000000000000000000600052603260045260246000fd5b60200201518260016002811061240a577f4e487b7100000000000000000000000000000000000000000000000000000000600052603260045260246000fd5b6020020151613035565b61242d601280549050856124289190615306565b612f9c565b612446601380549050856124419190615306565b612f9c565b60138214156124f65780600060028110612489577f4e487b7100000000000000000000000000000000000000000000000000000000600052603260045260246000fd5b6020020151816001600281106124c8577f4e487b7100000000000000000000000000000000000000000000000000000000600052603260045260246000fd5b6020020151846040516020016124e093929190614b2b565b6040516020818303038152906040529250612599565b80600060028110612530577f4e487b7100000000000000000000000000000000000000000000000000000000600052603260045260246000fd5b60200201518160016002811061256f577f4e487b7100000000000000000000000000000000000000000000000000000000600052603260045260246000fd5b60200201518460405160200161258793929190614b7d565b60405160208183030381529060405292505b505b8193505050509392505050565b60007f80ac58cd000000000000000000000000000000000000000000000000000000007bffffffffffffffffffffffffffffffffffffffffffffffffffffffff1916827bffffffffffffffffffffffffffffffffffffffffffffffffffffffff1916148061267357507f5b5e139f000000000000000000000000000000000000000000000000000000007bffffffffffffffffffffffffffffffffffffffffffffffffffffffff1916827bffffffffffffffffffffffffffffffffffffffffffffffffffffffff1916145b806126835750612682826130d1565b5b9050919050565b60008073ffffffffffffffffffffffffffffffffffffffff166002600084815260200190815260200160002060009054906101000a900473ffffffffffffffffffffffffffffffffffffffff1673ffffffffffffffffffffffffffffffffffffffff1614159050919050565b600033905090565b816004600083815260200190815260200160002060006101000a81548173ffffffffffffffffffffffffffffffffffffffff021916908373ffffffffffffffffffffffffffffffffffffffff160217905550808273ffffffffffffffffffffffffffffffffffffffff1661277183610d1d565b73ffffffffffffffffffffffffffffffffffffffff167f8c5be1e5ebec7d5bd14f71427d1e84f3dd0314c0f7b2291e5b200ac8c7c3b92560405160405180910390a45050565b60006127c28261268a565b612801576040517f08c379a00000000000000000000000000000000000000000000000000000000081526004016127f890614ddc565b60405180910390fd5b600061280c83610d1d565b90508073ffffffffffffffffffffffffffffffffffffffff168473ffffffffffffffffffffffffffffffffffffffff16148061287b57508373ffffffffffffffffffffffffffffffffffffffff1661286384610973565b73ffffffffffffffffffffffffffffffffffffffff16145b8061288c575061288b8185611e7e565b5b91505092915050565b8273ffffffffffffffffffffffffffffffffffffffff166128b582610d1d565b73ffffffffffffffffffffffffffffffffffffffff161461290b576040517f08c379a000000000000000000000000000000000000000000000000000000000815260040161290290614ebc565b60405180910390fd5b600073ffffffffffffffffffffffffffffffffffffffff168273ffffffffffffffffffffffffffffffffffffffff16141561297b576040517f08c379a000000000000000000000000000000000000000000000000000000000815260040161297290614d9c565b60405180910390fd5b61298683838361313b565b6129916000826126fe565b6001600360008573ffffffffffffffffffffffffffffffffffffffff1673ffffffffffffffffffffffffffffffffffffffff16815260200190815260200160002060008282546129e191906151a1565b925050819055506001600360008473ffffffffffffffffffffffffffffffffffffffff1673ffffffffffffffffffffffffffffffffffffffff1681526020019081526020016000206000828254612a3891906150c0565b92505081905550816002600083815260200190815260200160002060006101000a81548173ffffffffffffffffffffffffffffffffffffffff021916908373ffffffffffffffffffffffffffffffffffffffff160217905550808273ffffffffffffffffffffffffffffffffffffffff168473ffffffffffffffffffffffffffffffffffffffff167fddf252ad1be2c89b69c2b068fc378daa952ba7f163c4a11628f55a4df523b3ef60405160405180910390a4505050565b6000600b60009054906101000a900473ffffffffffffffffffffffffffffffffffffffff16905081600b60006101000a81548173ffffffffffffffffffffffffffffffffffffffff021916908373ffffffffffffffffffffffffffffffffffffffff1602179055508173ffffffffffffffffffffffffffffffffffffffff168173ffffffffffffffffffffffffffffffffffffffff167f8be0079c531659141344cd1fd0a4f28419497f9722a3daafe3b4186f6b6457e060405160405180910390a35050565b612bc2848484612895565b612bce8484848461324f565b612c0d576040517f08c379a0000000000000000000000000000000000000000000000000000000008152600401612c0490614d3c565b60405180910390fd5b50505050565b612c2d8282604051806020016040528060008152506133e6565b5050565b60606000821415612c79576040518060400160405280600181526020017f30000000000000000000000000000000000000000000000000000000000000008152509050612dd9565b600082905060005b60008214612cab578080612c94906152bd565b915050600a82612ca49190615116565b9150612c81565b60008167ffffffffffffffff811115612ced577f4e487b7100000000000000000000000000000000000000000000000000000000600052604160045260246000fd5b6040519080825280601f01601f191660200182016040528015612d1f5781602001600182028036833780820191505090505b5090505b60008514612dd257600182612d3891906151a1565b9150600a85612d479190615306565b6030612d5391906150c0565b60f81b818381518110612d8f577f4e487b7100000000000000000000000000000000000000000000000000000000600052603260045260246000fd5b60200101907effffffffffffffffffffffffffffffffffffffffffffffffffffffffffffff1916908160001a905350600a85612dcb9190615116565b9450612d23565b8093505050505b919050565b60606000825190506000811415612e075760405180602001604052806000815250915050612f97565b60006003600283612e1891906150c0565b612e229190615116565b6004612e2e9190615147565b90506000602082612e3f91906150c0565b67ffffffffffffffff811115612e7e577f4e487b7100000000000000000000000000000000000000000000000000000000600052604160045260246000fd5b6040519080825280601f01601f191660200182016040528015612eb05781602001600182028036833780820191505090505b5090506000604051806060016040528060408152602001615600604091399050600181016020830160005b86811015612f545760038101905062ffffff818a015116603f8160121c168401518060081b905060ff603f83600c1c1686015116810190508060081b905060ff603f8360061c1686015116810190508060081b905060ff603f831686015116810190508060e01b90508084526004840193505050612edb565b506003860660018114612f6e5760028114612f7e57612f89565b613d3d60f01b6002830352612f89565b603d60f81b60018303525b508484525050819450505050505b919050565b61303281604051602401612fb09190614fbc565b6040516020818303038152906040527ff5b1bba9000000000000000000000000000000000000000000000000000000007bffffffffffffffffffffffffffffffffffffffffffffffffffffffff19166020820180517bffffffffffffffffffffffffffffffffffffffffffffffffffffffff8381831617835250505050613441565b50565b6130cd828260405160240161304b929190614ce5565b6040516020818303038152906040527f4b5c4277000000000000000000000000000000000000000000000000000000007bffffffffffffffffffffffffffffffffffffffffffffffffffffffff19166020820180517bffffffffffffffffffffffffffffffffffffffffffffffffffffffff8381831617835250505050613441565b5050565b60007f01ffc9a7000000000000000000000000000000000000000000000000000000007bffffffffffffffffffffffffffffffffffffffffffffffffffffffff1916827bffffffffffffffffffffffffffffffffffffffffffffffffffffffff1916149050919050565b61314683838361346a565b600073ffffffffffffffffffffffffffffffffffffffff168373ffffffffffffffffffffffffffffffffffffffff161415613189576131848161346f565b6131c8565b8173ffffffffffffffffffffffffffffffffffffffff168373ffffffffffffffffffffffffffffffffffffffff16146131c7576131c683826134b8565b5b5b600073ffffffffffffffffffffffffffffffffffffffff168273ffffffffffffffffffffffffffffffffffffffff16141561320b5761320681613625565b61324a565b8273ffffffffffffffffffffffffffffffffffffffff168273ffffffffffffffffffffffffffffffffffffffff1614613249576132488282613768565b5b5b505050565b60006132708473ffffffffffffffffffffffffffffffffffffffff166137e7565b156133d9578373ffffffffffffffffffffffffffffffffffffffff1663150b7a026132996126f6565b8786866040518563ffffffff1660e01b81526004016132bb9493929190614c5c565b602060405180830381600087803b1580156132d557600080fd5b505af192505050801561330657506040513d601f19601f820116820180604052508101906133039190613d20565b60015b613389573d8060008114613336576040519150601f19603f3d011682016040523d82523d6000602084013e61333b565b606091505b50600081511415613381576040517f08c379a000000000000000000000000000000000000000000000000000000000815260040161337890614d3c565b60405180910390fd5b805181602001fd5b63150b7a0260e01b7bffffffffffffffffffffffffffffffffffffffffffffffffffffffff1916817bffffffffffffffffffffffffffffffffffffffffffffffffffffffff1916149150506133de565b600190505b949350505050565b6133f083836137fa565b6133fd600084848461324f565b61343c576040517f08c379a000000000000000000000000000000000000000000000000000000000815260040161343390614d3c565b60405180910390fd5b505050565b60008151905060006a636f6e736f6c652e6c6f679050602083016000808483855afa5050505050565b505050565b6008805490506009600083815260200190815260200160002081905550600881908060018154018082558091505060019003906000526020600020016000909190919091505550565b600060016134c584610dcf565b6134cf91906151a1565b90506000600760008481526020019081526020016000205490508181146135b4576000600660008673ffffffffffffffffffffffffffffffffffffffff1673ffffffffffffffffffffffffffffffffffffffff168152602001908152602001600020600084815260200190815260200160002054905080600660008773ffffffffffffffffffffffffffffffffffffffff1673ffffffffffffffffffffffffffffffffffffffff168152602001908152602001600020600084815260200190815260200160002081905550816007600083815260200190815260200160002081905550505b6007600084815260200190815260200160002060009055600660008573ffffffffffffffffffffffffffffffffffffffff1673ffffffffffffffffffffffffffffffffffffffff16815260200190815260200160002060008381526020019081526020016000206000905550505050565b6000600160088054905061363991906151a1565b905060006009600084815260200190815260200160002054905060006008838154811061368f577f4e487b7100000000000000000000000000000000000000000000000000000000600052603260045260246000fd5b9060005260206000200154905080600883815481106136d7577f4e487b7100000000000000000000000000000000000000000000000000000000600052603260045260246000fd5b90600052602060002001819055508160096000838152602001908152602001600020819055506009600085815260200190815260200160002060009055600880548061374c577f4e487b7100000000000000000000000000000000000000000000000000000000600052603160045260246000fd5b6001900381819060005260206000200160009055905550505050565b600061377383610dcf565b905081600660008573ffffffffffffffffffffffffffffffffffffffff1673ffffffffffffffffffffffffffffffffffffffff168152602001908152602001600020600083815260200190815260200160002081905550806007600084815260200190815260200160002081905550505050565b600080823b905060008111915050919050565b600073ffffffffffffffffffffffffffffffffffffffff168273ffffffffffffffffffffffffffffffffffffffff16141561386a576040517f08c379a000000000000000000000000000000000000000000000000000000000815260040161386190614e5c565b60405180910390fd5b6138738161268a565b156138b3576040517f08c379a00000000000000000000000000000000000000000000000000000000081526004016138aa90614d7c565b60405180910390fd5b6138bf6000838361313b565b6001600360008473ffffffffffffffffffffffffffffffffffffffff1673ffffffffffffffffffffffffffffffffffffffff168152602001908152602001600020600082825461390f91906150c0565b92505081905550816002600083815260200190815260200160002060006101000a81548173ffffffffffffffffffffffffffffffffffffffff021916908373ffffffffffffffffffffffffffffffffffffffff160217905550808273ffffffffffffffffffffffffffffffffffffffff16600073ffffffffffffffffffffffffffffffffffffffff167fddf252ad1be2c89b69c2b068fc378daa952ba7f163c4a11628f55a4df523b3ef60405160405180910390a45050565b6040518061022001604052806011905b60608152602001906001900390816139d85790505090565b60405180604001604052806002905b60608152602001906001900390816139ff5790505090565b6000613a2a613a2584615008565b614fd7565b905082815260208101848484011115613a4257600080fd5b613a4d848285615249565b509392505050565b6000613a68613a6384615038565b614fd7565b905082815260208101848484011115613a8057600080fd5b613a8b848285615249565b509392505050565b600081359050613aa281615404565b92915050565b600081359050613ab78161541b565b92915050565b600081359050613acc81615432565b92915050565b600081519050613ae181615432565b92915050565b600082601f830112613af857600080fd5b8135613b08848260208601613a17565b91505092915050565b600082601f830112613b2257600080fd5b8135613b32848260208601613a55565b91505092915050565b600081359050613b4a81615449565b92915050565b600060208284031215613b6257600080fd5b6000613b7084828501613a93565b91505092915050565b60008060408385031215613b8c57600080fd5b6000613b9a85828601613a93565b9250506020613bab85828601613a93565b9150509250929050565b600080600060608486031215613bca57600080fd5b6000613bd886828701613a93565b9350506020613be986828701613a93565b9250506040613bfa86828701613b3b565b9150509250925092565b60008060008060808587031215613c1a57600080fd5b6000613c2887828801613a93565b9450506020613c3987828801613a93565b9350506040613c4a87828801613b3b565b925050606085013567ffffffffffffffff811115613c6757600080fd5b613c7387828801613ae7565b91505092959194509250565b60008060408385031215613c9257600080fd5b6000613ca085828601613a93565b9250506020613cb185828601613aa8565b9150509250929050565b60008060408385031215613cce57600080fd5b6000613cdc85828601613a93565b9250506020613ced85828601613b3b565b9150509250929050565b600060208284031215613d0957600080fd5b6000613d1784828501613abd565b91505092915050565b600060208284031215613d3257600080fd5b6000613d4084828501613ad2565b91505092915050565b600060208284031215613d5b57600080fd5b600082013567ffffffffffffffff811115613d7557600080fd5b613d8184828501613b11565b91505092915050565b600060208284031215613d9c57600080fd5b6000613daa84828501613b3b565b91505092915050565b60008060408385031215613dc657600080fd5b6000613dd485828601613b3b565b9250506020613de585828601613b3b565b9150509250929050565b613df8816151d5565b82525050565b613e07816151e7565b82525050565b6000613e188261507d565b613e228185615093565b9350613e32818560208601615258565b613e3b816153f3565b840191505092915050565b6000613e5182615088565b613e5b81856150a4565b9350613e6b818560208601615258565b613e74816153f3565b840191505092915050565b6000613e8a82615088565b613e9481856150b5565b9350613ea4818560208601615258565b80840191505092915050565b60008154613ebd8161528b565b613ec781866150b5565b94506001821660008114613ee25760018114613ef357613f26565b60ff19831686528186019350613f26565b613efc85615068565b60005b83811015613f1e57815481890152600182019150602081019050613eff565b838801955050505b50505092915050565b6000613f3c602b836150a4565b91507f455243373231456e756d657261626c653a206f776e657220696e646578206f7560008301527f74206f6620626f756e64730000000000000000000000000000000000000000006020830152604082019050919050565b6000613fa26032836150a4565b91507f4552433732313a207472616e7366657220746f206e6f6e20455243373231526560008301527f63656976657220696d706c656d656e74657200000000000000000000000000006020830152604082019050919050565b60006140086026836150a4565b91507f4f776e61626c653a206e6577206f776e657220697320746865207a65726f206160008301527f64647265737300000000000000000000000000000000000000000000000000006020830152604082019050919050565b600061406e601c836150a4565b91507f4552433732313a20746f6b656e20616c7265616479206d696e746564000000006000830152602082019050919050565b60006140ae6024836150a4565b91507f4552433732313a207472616e7366657220746f20746865207a65726f2061646460008301527f72657373000000000000000000000000000000000000000000000000000000006020830152604082019050919050565b60006141146019836150a4565b91507f4552433732313a20617070726f766520746f2063616c6c6572000000000000006000830152602082019050919050565b6000614155610101836150b5565b91507f222c20226465736372697074696f6e223a20227a4c6f6f742069732072616e6460008301527f6f6d697a656420616476656e747572657220676561722067656e65726174656460208301527f20616e642073746f726564206f6e20636861696e2e2053746174732c20696d6160408301527f6765732c20616e64206f746865722066756e6374696f6e616c6974792061726560608301527f20696e74656e74696f6e616c6c79206f6d697474656420666f72206f7468657260808301527f7320746f20696e746572707265742e204665656c206672656520746f2075736560a08301527f204c6f6f7420696e20616e792077617920796f752077616e742e222c2022696d60c08301527f616765223a2022646174613a696d6167652f7376672b786d6c3b62617365363460e08301527f2c0000000000000000000000000000000000000000000000000000000000000061010083015261010182019050919050565b60006142c76002836150b5565b91507f22200000000000000000000000000000000000000000000000000000000000006000830152600282019050919050565b6000614307602c836150a4565b91507f4552433732313a206f70657261746f7220717565727920666f72206e6f6e657860008301527f697374656e7420746f6b656e00000000000000000000000000000000000000006020830152604082019050919050565b600061436d6001836150b5565b91507f20000000000000000000000000000000000000000000000000000000000000006000830152600182019050919050565b60006143ad6038836150a4565b91507f4552433732313a20617070726f76652063616c6c6572206973206e6f74206f7760008301527f6e6572206e6f7220617070726f76656420666f7220616c6c00000000000000006020830152604082019050919050565b60006144136001836150b5565b91507f22000000000000000000000000000000000000000000000000000000000000006000830152600182019050919050565b6000614453602a836150a4565b91507f4552433732313a2062616c616e636520717565727920666f7220746865207a6560008301527f726f2061646472657373000000000000000000000000000000000000000000006020830152604082019050919050565b60006144b96029836150a4565b91507f4552433732313a206f776e657220717565727920666f72206e6f6e657869737460008301527f656e7420746f6b656e00000000000000000000000000000000000000000000006020830152604082019050919050565b600061451f6002836150b5565b91507f227d0000000000000000000000000000000000000000000000000000000000006000830152600282019050919050565b600061455f600f836150b5565b91507f7b226e616d65223a2022426167202300000000000000000000000000000000006000830152600f82019050919050565b600061459f6020836150a4565b91507f4552433732313a206d696e7420746f20746865207a65726f20616464726573736000830152602082019050919050565b60006145df602c836150a4565b91507f4552433732313a20617070726f76656420717565727920666f72206e6f6e657860008301527f697374656e7420746f6b656e00000000000000000000000000000000000000006020830152604082019050919050565b60006146456020836150a4565b91507f4f776e61626c653a2063616c6c6572206973206e6f7420746865206f776e65726000830152602082019050919050565b60006146856029836150a4565b91507f4552433732313a207472616e73666572206f6620746f6b656e2074686174206960008301527f73206e6f74206f776e00000000000000000000000000000000000000000000006020830152604082019050919050565b60006146eb6021836150a4565b91507f4552433732313a20617070726f76616c20746f2063757272656e74206f776e6560008301527f72000000000000000000000000000000000000000000000000000000000000006020830152604082019050919050565b6000614751601d836150b5565b91507f646174613a6170706c69636174696f6e2f6a736f6e3b6261736536342c0000006000830152601d82019050919050565b60006147916003836150b5565b91507f202b3100000000000000000000000000000000000000000000000000000000006000830152600382019050919050565b60006147d16031836150a4565b91507f4552433732313a207472616e736665722063616c6c6572206973206e6f74206f60008301527f776e6572206e6f7220617070726f7665640000000000000000000000000000006020830152604082019050919050565b6000614837602c836150a4565b91507f455243373231456e756d657261626c653a20676c6f62616c20696e646578206f60008301527f7574206f6620626f756e647300000000000000000000000000000000000000006020830152604082019050919050565b600061489d6025836150a4565b91507f456163682061646472657373206d6179206f6e6c7920636c61696d206f6e652060008301527f746f6b656e0000000000000000000000000000000000000000000000000000006020830152604082019050919050565b60006149036021836150a4565b91507f4e6f7420656e6f756768204554482073656e743b20636865636b20707269636560008301527f21000000000000000000000000000000000000000000000000000000000000006020830152604082019050919050565b6000614969601f836150a4565b91507f5265656e7472616e637947756172643a207265656e7472616e742063616c6c006000830152602082019050919050565b60006149a9602e836150a4565b91507f4e6f206d6f726520746f6b656e7320617661696c61626c652c616c6c20746f6b60008301527f656e7320617265206d696e7465640000000000000000000000000000000000006020830152604082019050919050565b614a0b8161523f565b82525050565b6000614a1d8284613e7f565b915081905092915050565b6000614a348285613e7f565b9150614a408284613e7f565b91508190509392505050565b6000614a588286613e7f565b9150614a648285613e7f565b9150614a708284613e7f565b9150819050949350505050565b6000614a89828c613e7f565b9150614a95828b613e7f565b9150614aa1828a613e7f565b9150614aad8289613e7f565b9150614ab98288613e7f565b9150614ac58287613e7f565b9150614ad18286613e7f565b9150614add8285613e7f565b9150614ae98284613e7f565b91508190509a9950505050505050505050565b6000614b088285613e7f565b9150614b1382614360565b9150614b1f8284613eb0565b91508190509392505050565b6000614b3682614406565b9150614b428286613e7f565b9150614b4d82614360565b9150614b598285613e7f565b9150614b64826142ba565b9150614b708284613e7f565b9150819050949350505050565b6000614b8882614406565b9150614b948286613e7f565b9150614b9f82614360565b9150614bab8285613e7f565b9150614bb6826142ba565b9150614bc28284613e7f565b9150614bcd82614784565b9150819050949350505050565b6000614be582614552565b9150614bf18285613e7f565b9150614bfc82614147565b9150614c088284613e7f565b9150614c1382614512565b91508190509392505050565b6000614c2a82614744565b9150614c368284613e7f565b915081905092915050565b6000602082019050614c566000830184613def565b92915050565b6000608082019050614c716000830187613def565b614c7e6020830186613def565b614c8b6040830185614a02565b8181036060830152614c9d8184613e0d565b905095945050505050565b6000602082019050614cbd6000830184613dfe565b92915050565b60006020820190508181036000830152614cdd8184613e46565b905092915050565b60006040820190508181036000830152614cff8185613e46565b90508181036020830152614d138184613e46565b90509392505050565b60006020820190508181036000830152614d3581613f2f565b9050919050565b60006020820190508181036000830152614d5581613f95565b9050919050565b60006020820190508181036000830152614d7581613ffb565b9050919050565b60006020820190508181036000830152614d9581614061565b9050919050565b60006020820190508181036000830152614db5816140a1565b9050919050565b60006020820190508181036000830152614dd581614107565b9050919050565b60006020820190508181036000830152614df5816142fa565b9050919050565b60006020820190508181036000830152614e15816143a0565b9050919050565b60006020820190508181036000830152614e3581614446565b9050919050565b60006020820190508181036000830152614e55816144ac565b9050919050565b60006020820190508181036000830152614e7581614592565b9050919050565b60006020820190508181036000830152614e95816145d2565b9050919050565b60006020820190508181036000830152614eb581614638565b9050919050565b60006020820190508181036000830152614ed581614678565b9050919050565b60006020820190508181036000830152614ef5816146de565b9050919050565b60006020820190508181036000830152614f15816147c4565b9050919050565b60006020820190508181036000830152614f358161482a565b9050919050565b60006020820190508181036000830152614f5581614890565b9050919050565b60006020820190508181036000830152614f75816148f6565b9050919050565b60006020820190508181036000830152614f958161495c565b9050919050565b60006020820190508181036000830152614fb58161499c565b9050919050565b6000602082019050614fd16000830184614a02565b92915050565b6000604051905081810181811067ffffffffffffffff82111715614ffe57614ffd6153c4565b5b8060405250919050565b600067ffffffffffffffff821115615023576150226153c4565b5b601f19601f8301169050602081019050919050565b600067ffffffffffffffff821115615053576150526153c4565b5b601f19601f8301169050602081019050919050565b60008190508160005260206000209050919050565b600081519050919050565b600081519050919050565b600082825260208201905092915050565b600082825260208201905092915050565b600081905092915050565b60006150cb8261523f565b91506150d68361523f565b9250827fffffffffffffffffffffffffffffffffffffffffffffffffffffffffffffffff0382111561510b5761510a615337565b5b828201905092915050565b60006151218261523f565b915061512c8361523f565b92508261513c5761513b615366565b5b828204905092915050565b60006151528261523f565b915061515d8361523f565b9250817fffffffffffffffffffffffffffffffffffffffffffffffffffffffffffffffff048311821515161561519657615195615337565b5b828202905092915050565b60006151ac8261523f565b91506151b78361523f565b9250828210156151ca576151c9615337565b5b828203905092915050565b60006151e08261521f565b9050919050565b60008115159050919050565b60007fffffffff0000000000000000000000000000000000000000000000000000000082169050919050565b600073ffffffffffffffffffffffffffffffffffffffff82169050919050565b6000819050919050565b82818337600083830152505050565b60005b8381101561527657808201518184015260208101905061525b565b83811115615285576000848401525b50505050565b600060028204905060018216806152a357607f821691505b602082108114156152b7576152b6615395565b5b50919050565b60006152c88261523f565b91507fffffffffffffffffffffffffffffffffffffffffffffffffffffffffffffffff8214156152fb576152fa615337565b5b600182019050919050565b60006153118261523f565b915061531c8361523f565b92508261532c5761532b615366565b5b828206905092915050565b7f4e487b7100000000000000000000000000000000000000000000000000000000600052601160045260246000fd5b7f4e487b7100000000000000000000000000000000000000000000000000000000600052601260045260246000fd5b7f4e487b7100000000000000000000000000000000000000000000000000000000600052602260045260246000fd5b7f4e487b7100000000000000000000000000000000000000000000000000000000600052604160045260246000fd5b6000601f19601f8301169050919050565b61540d816151d5565b811461541857600080fd5b50565b615424816151e7565b811461542f57600080fd5b50565b61543b816151f3565b811461544657600080fd5b50565b6154528161523f565b811461545d57600080fd5b5056fe3c2f746578743e3c7465787420783d2231302220793d2236302220636c6173733d2262617365223e3c2f746578743e3c7465787420783d2231302220793d223132302220636c6173733d2262617365223e3c2f746578743e3c7465787420783d2231302220793d2238302220636c6173733d2262617365223e3c2f746578743e3c7465787420783d2231302220793d223130302220636c6173733d2262617365223e3c73766720786d6c6e733d22687474703a2f2f7777772e77332e6f72672f323030302f73766722207072657365727665417370656374526174696f3d22784d696e594d696e206d656574222076696577426f783d223020302033353020333530223e3c7374796c653e2e62617365207b2066696c6c3a2077686974653b20666f6e742d66616d696c793a2073657269663b20666f6e742d73697a653a20313470783b207d3c2f7374796c653e3c726563742077696474683d223130302522206865696768743d2231303025222066696c6c3d22626c61636b22202f3e3c7465787420783d2231302220793d2232302220636c6173733d2262617365223e4142434445464748494a4b4c4d4e4f505152535455565758595a6162636465666768696a6b6c6d6e6f707172737475767778797a303132333435363738392b2f3c2f746578743e3c7465787420783d2231302220793d2234302220636c6173733d2262617365223ea2646970667358221220cd2683759ed71b5b88c8b19a4c4aa091ac9c2dda0a183705a25544697895e67364736f6c63430008000033",
  "linkReferences": {},
  "deployedLinkReferences": {}
}